:020000040800F2
:10000000282E0024B10200084DA90008859E000892
:100010002DA90008BD0E000859CE00080000000000
:1000200000000000000000000000000091B2000885
:10003000751D00080000000061A9000839B600081D
:10004000CB020008CB020008CB020008CB0200085C
:10005000CB020008CB020008CB020008CB0200084C
:10006000CB020008CB020008CB020008011A0008EE
:10007000CB020008CB020008CB020008CB0200082C
:10008000CB020008CB020008CB020008CB0200081C
:10009000CB020008CB020008CB02000819200008A0
:1000A000CB020008CB020008CB020008CB020008FC
:1000B000CB020008CB020008CB020008CB020008EC
:1000C000CB020008CB020008CB02000835B10008C3
:1000D000CB02000849CE0008CB020008CB02000882
:1000E000CB020008CB02000800000000CB02000891
:1000F00041B80008CB020008CB020008CB02000880
:10010000CB02000831AE0008CB020008CB02000889
:10011000CB020008CB020008CB02000831B800086F
:10012000CB020008CB020008CB020008CB0200087B
:10013000CB020008CB020008CB020008CB0200086B
:1001400000000000000000000000000000000000AF
:10015000CB020008CB020008CB020008CB0200084B
:10016000CB020008CB020008CB020008CB0200083B
:10017000CB020008CB020008CB020008CB0200082B
:10018000CB020008CB020008CB020008CB0200081B
:10019000CB020008CB020008CB020008CB0200080B
:1001A000CB020008CB020008CB020008CB020008FB
:1001B000CB020008CB020008CB020008CB020008EB
:1001C000CB020008CB020008CB020008CB020008DB
:1001D000CB020008CB020008CB020008CB020008CB
:1001E000CB020008CB020008CB020008CB020008BB
:1001F000CB020008CB020008CB020008CB020008AB
:10020000CB020008CB020008CB020008CB0200089A
:10021000CB020008CB02000821B80008CB0200087E
:10022000CB020008CB020008CB020008000000004F
:10023000CB020008CB02000800000000CB0200083F
:10024000CB020008CB020008CB020008CB0200085A
:10025000CB020008CB020008CB020008CB0200084A
:10026000CB020008CB020008CB020008CB0200083A
:10027000CB020008CB020008CB02000800000000FF
:10028000CB020008CB020008CB02000800000000EF
:1002900000000000CB020008DFF810D000F086FB61
:1002A000004800478DDF0008AFF30080282E0024AF
:1002B0000648804706480047FEE7FEE7FEE7FEE700
:1002C000FEE7FEE7FEE7FEE7FEE7FEE725B70008EC
:1002D000990200082DE9F05F0546002092469B46F2
:1002E00088460646814640241BE02846414647464C
:1002F000224600F08CFA53465A46C01A914110D358
:1003000011461846224600F073FA2D1A67EB0108D1
:100310004F4622460120002100F06AFA17EB00093F
:100320004E41201EA4F10104DFDC484631462A4636
:100330004346BDE8F09F40EA01039B0703D009E074
:1003400008C9121F08C0042AFAD203E011F8013BC1
:1003500000F8013B521EF9D27047D2B201E000F81A
:10036000012B491EFBD270470022F6E710B5134659
:100370000A4604461946FFF7F0FF204610BD421E0C
:1003800012F8013F002BFBD111F8013B02F8013BB1
:10039000002BF9D17047421C10F8011B0029FBD13A
:1003A000801A7047034611F8012B00F8012B002A30
:1003B000F9D1184670472DE9FE4F804681EA0300C7
:1003C000C00F0C46009021F0004123F00045B8EB2F
:1003D0000200A94105D24046214690461C460B46E4
:1003E000024623F00040104347D0270DC7F30A0010
:1003F000C3F30A510290401A019040286BDAC3F30C
:10040000130040F4801B0098924620B10023D2EBE9
:10041000030A63EB0B0B01985946C0F140025046AA
:1004200000F0E6F906460D4650465946019A00F09E
:10043000FEF910EB08006141002487EA115284EABA
:10044000E7731A4340D0009A62B3019A012A4FEA37
:10045000075215DC001B61EB02014FF0004202EA7B
:100460000752CDE90042001C41F5801132462B466F
:1004700000F035FA03B0BDE8F08F40462146F9E7B9
:10048000001B61EB0201001C41F5801300185B4169
:100490002018A2F5001747EB030140EAD570B61902
:1004A0006D4111E06D084FEA360645EAC0754FEA26
:1004B0000752001B61EB0201001C41F58011490845
:1004C0004FEA30000019514132462B4603B0BDE8D7
:1004D000F04F00F0F5B90098012240000023D0EB66
:1004E000020263EBE073009821464FEAE074B8EB38
:1004F000000061EB0401E9E783F000435BE781F072
:10050000004158E72DE9FE4F81EA030404F000445E
:1005100021F0004100944FF0000B23F0004350EA1B
:1005200001045ED052EA03045BD0C3F30A54C1F362
:100530000A552C44A4F2F3340194A0FB0254C1F3F5
:10054000130141F48011C3F3130343F4801301FB3F
:10055000024400FB034E840A970A44EA815447EAA6
:100560008357A4FB076802958D0A05FB07854FEAB0
:10057000932C04FB0C542705029D4FEA065847EACA
:100580001637B5EB08056EEB070C870E920E47EA9F
:10059000811742EA8312A7FB0201B6EB0B0164EB61
:1005A00000042B0D43EA0C335E1844EB1C50DA4672
:1005B0005146E7FB0201C5F313044FEA0B3343EA4C
:1005C00014534FEA0432019C43EA0603A4F10C04DD
:1005D0000294009CCDE900B400F081F903B0BDE8BD
:1005E000F08F00200146F9E72DE9F04D81EA030480
:1005F00004F0004B21F0004514464FF0000A23F0B0
:10060000004150EA050220D054EA01021DD0C5F392
:100610000A570246C5F31303C1F31300C1F30A5688
:1006200040F4801543F48013A7EB0608101BD64650
:1006300008F2FD3873EB050002D308F1010801E070
:1006400092185B41B8F1000F03DA00200146BDE8C3
:10065000F08D00204FF48011064684460EE0171BF3
:1006600073EB050705D3121B63EB050306434CEA46
:10067000010C49084FEA300092185B4150EA01072B
:10068000EDD152EA030012D082EA040083EA0501A8
:10069000084305D0101BAB4106D20122002306E01F
:1006A00000224FF0004302E06FF0010253101AEBFA
:1006B00006004CEB085110EB0A0041EB0B01BDE8C2
:1006C000F04D00F0FDB80EB5C10F80EAE0700844AF
:1006D000CA07002140F233438DE80E000A460B465C
:1006E00000F0FDF803B000BD0EB540F233410291B9
:1006F0000021CDE900110A460B4600F0F0F803B0E6
:1007000000BDC1F30A5210B5C1F3130140F2FF332B
:1007100041F480119A4201DA002010BD40F23343C7
:100720009A42A2F2334203DC524200F070F810BD4C
:10073000904010BD00F0004230F000400AD0C10DE2
:1007400001F56071C0F3160042EA0151C20840078A
:1007500011437047002001467047000030B5041E69
:1007600071F1000404DB4FF00044404264EB0101EE
:10077000141E73F1000405DB1C464FF00043524287
:1007800063EB0403994208BF904230BD01F000437F
:1007900030B421F0004150EA010206D00A0DA2F562
:1007A0006072C1F31301002A02DC30BC00207047E4
:1007B000440F44EAC104C100E01830BC00EBC25051
:1007C00000F047B830B50B46014600202022012436
:1007D00009E021FA02F59D4205D303FA02F5491B0F
:1007E00004FA02F52844151EA2F10102F1DC30BD25
:1007F000202A04DB203A00FA02F1002070479140E1
:10080000C2F1200320FA03F3194390407047202AD5
:1008100004DB203A21FA02F00021704721FA02F3AA
:10082000D040C2F120029140084319467047202A67
:1008300006DBCB17203A41FA02F043EAE07306E008
:1008400041FA02F3D040C2F1200291400843194618
:1008500070470029A8BF7047401C490008BF20F01E
:100860000100704710B4B0FA80FC00FA0CF050EAB6
:10087000010404BF10BC704749B1CCF1200421FA37
:1008800004F411FA0CF118BF012121430843A3EB32
:100890000C01CB1D4FEA00614FEA102042BF00203F
:1008A00010BC704700EBC35010440029A4BF10BC1B
:1008B0007047401C490008BF20F0010010BC704781
:1008C00010B5141E73F1000408DA401C41F1000158
:1008D00092185B411A4301D120F0010010BD2DE9AF
:1008E000F04D92469B4611B1B1FA81F202E0B0FAA6
:1008F00080F220329046FFF77BFF04460F4640EA25
:100900000A0041EA0B0153465A46084313D01146E8
:1009100053EA010019D0C8F140025046FFF777FFB3
:1009200005460E46504659464246FFF761FF0843CA
:1009300005D0012004E020463946BDE8F08D0020B6
:10094000054346EAE0762C4337430A986305E40AF8
:10095000A0EB08000022FD0A44EA47540A3002D501
:1009600000200146E9E7010510196941DDE9084564
:1009700000196941BDE8F04DA2E7C1F30A52C1F385
:10098000130140F2FF3341F480119A4202DA002051
:100990000146704740F233439A42A2F2334202DCEE
:1009A0005242FFF734BFFFF723BF0000064C074D4C
:1009B00006E0E06840F0010394E80700984710342F
:1009C000AC42F6D3FFF76CFC60FD000880FD000828
:1009D00070B58C1810F8015B15F0070301D110F801
:1009E000013B2A1106D110F8012B03E010F8016B2E
:1009F00001F8016B5B1EF9D12B0705D40023521EB1
:100A00000DD401F8013BFAE710F8013BCB1A921C18
:100A100003E013F8015B01F8015B521EF9D5A14216
:100A2000D8D3002070BD000070B504464E49206840
:100A3000884203D04D492068884208D14C4800685C
:100A400000F4403008B1012009E0002007E04948E7
:100A5000006800F4403008B1012000E00020B8B187
:100A600006F080F805466068B0F5803F06D0B0F526
:100A7000003F04D0B0F5403F08D105E000BF6068FA
:100A8000000CB5FBF0F502E0AD0800E000BF2AE085
:100A90004FF4002004F07AFD05466068C0F31101B0
:100AA000F9B980140C281CD2DFE800F01B060708F7
:100AB000090A0B111315171900BF00BF00BF00BFB3
:100AC00000BF6068800C4000B5FBF0F50AE02D091E
:100AD00008E06D0906E0AD0904E0ED0902E02D0A29
:100AE00000E000BF00BF04F055F841F20301884266
:100AF00010D82148854206D92068806840F480706B
:100B0000216888602FE02068806820F48070216868
:100B1000886028E06D081948854206D820688068FA
:100B200020F44070216888601DE01548854208D88F
:100B30002068806820F4407040F4807021688860EC
:100B400011E01048854208D82068806820F4407081
:100B500040F400702168886005E02068806840F4F7
:100B600040702168886070BD002002400021024072
:100B70000823024008630258002D3101105E5F0017
:100B800020BCBE0040787D012DE9F05F0446884618
:100B90004FF000094746206809F0FCF982462068BA
:100BA00009F0E4F98346BAF1000F02D1BBF1000F5E
:100BB00072D02068C06800F0007000B3607D01282A
:100BC0001DD1207D01281AD101270FE0334881452E
:100BD0000AD3606D40F010006065A06D40F0010028
:100BE000A0650120BDE8F09F09F1010920680068B7
:100BF000C0F380100028E9D0402021680860022F4F
:100C000010D0206809F0C6F960B1206809F0B3F986
:100C100040B920688168224A114041F0100181608A
:100C200000BF00BF012F10D0206809F09FF960B10C
:100C3000206809F0A0F940B920688168184A11407D
:100C400041F02001816000BF00BF022F03D0032FBD
:100C500003D10C2503E0082501E0042500BF00BFF7
:100C600003F09EFF064612E003F09AFF801B052862
:100C70000DD920688068284048B1606D40F01000B0
:100C80006065A06D40F00100A0650120AAE7206822
:100C9000806828400028E7D10020A3E700DC0C0092
:100CA000C0FFFF7F70B50446206809F064F906466E
:100CB000206809F065F998B396BB2068806800F059
:100CC0000D0001280AD1206881681A4A1140891C48
:100CD000816000BF03202168086009E0606D40F07A
:100CE00010006065A06D40F00100A065012070BD9E
:100CF00003F056FF054614E003F052FF401B0228A4
:100D00000FD92068806800F0010050B1606D40F09C
:100D100010006065A06D40F00100A0650120E6E7CD
:100D200005E02068806800F001000028E4D1002080
:100D3000DDE70000C0FFFF7F70B50446206809F0C2
:100D40001FF9002851D1206880682949084048B11E
:100D5000606D40F010006065A06D40F00100A0657E
:100D6000012070BD206809F0EFF803F019FF054677
:100D7000204A2168914203D01F4A2168914201D143
:100D80001E4900E01E49084609F0EBF806461A49DC
:100D90002068884201D1174800E020682168884215
:100DA00000D00EBB1AE0206809F0EAF810B92068FC
:100DB00009F0CAF803F0F4FE401B02280ED920689F
:100DC000006800F0010048B9606D40F010006065F7
:100DD000A06D40F00100A0650120C2E72068006816
:100DE00000F001000028DED000BF0020B9E70000BD
:100DF0003F0000800020024000210240002302400A
:100E00000063025810B52DED028B18480CF026F83F
:100E100000224FF40041164803F0B6FE09F06EF8C8
:100E20000CF018FE134801F063FFFF21114801F098
:100E3000ADFE092009F0A4FF10EE104A2046FFF78E
:100E400079FC41EC180B53EC182B0BA00CF006F8B6
:100E50006FF001000D49096808610C4807F058FC63
:100E600009F008FFBDEC028B10BD00002C0000242F
:100E7000000C0258AC020024B5E7B3D8B5E7D1B9ED
:100E8000203D2025302E3366560D0A0070050024C3
:100E900010B509F023FC044609F016FD08F0C0FF68
:100EA00010BD0000012001490860704714000024B3
:100EB00001200149086070471000002400BFFEE7D0
:100EC00070B50546402009F095F80B2D14D2DFE8E7
:100ED00005F092061422303E4C5A687684000024B5
:100EE00008E04649085D09F0A1F8022003F006FC7D
:100EF000601CC4B2202CF4DB7DE0002408E04049F3
:100F0000085D09F093F8022003F0F8FB601CC4B2FE
:100F1000202CF4DB6FE0002408E03A49085D09F07A
:100F200085F8022003F0EAFB601CC4B2202CF4DB3D
:100F300061E0002408E03449085D09F077F80220F8
:100F400003F0DCFB601CC4B2202CF4DB53E0002473
:100F500008E02E49085D09F069F8022003F0CEFB95
:100F6000601CC4B2202CF4DB45E0002408E02849D2
:100F7000085D09F05BF8022003F0C0FB601CC4B2FE
:100F8000202CF4DB37E0002408E02249085D09F05A
:100F90004DF8022003F0B2FB601CC4B2202CF4DB3D
:100FA00029E0002408E01C49085D09F03FF8022010
:100FB00003F0A4FB601CC4B2202CF4DB1BE0002473
:100FC00008E01649085D09F031F8022003F096FBAD
:100FD000601CC4B2202CF4DB0DE0002408E01049B2
:100FE000085D09F023F8022003F088FB601CC4B2FE
:100FF000202CF4DB00BF00BF70BD0000CC0100243A
:10100000AC0100248C0100246C0100244C0100245C
:101010002C0100240C010024EC000024CC0000244E
:10102000AC00002410B52DED068B82B09FED780A40
:10103000B0EE408A0020019076A00BF00FFF78A25E
:10104000002104200CF038FF47200DF02DF9044654
:1010500000F092FE0CF084FB1420744908706FF0CD
:101060000100734909680861714807F051FB0321C9
:1010700004200CF04FFF6FA2032104200CF01CFF92
:101080006FA00BF0EBFE96E00DF04CF90128FAD1C1
:101090006E490870032102200CF03CFF6C4A0321CA
:1010A00002200CF009FF6BA00BF0D8FE37205F493F
:1010B000087000206549087000BF0DF0AFF90028E6
:1010C000FBD068480078642110FB01F0664909787C
:1010D00001EB810100EB410064490978084400EE0E
:1010E000100AB8EEC00ADFED620A80EE201A6148ED
:1010F00080ED001A012055490870032104200CF0EE
:1011000009FF5DA2032104200CF0D6FE5DA00BF0C8
:10111000A5FE58480068FFF70DFB41EC190B53EC96
:10112000192B5CA00BF09AFE524890ED000AF2EEEB
:10113000020AB4EEE00AF1EE10FA02DD5BA00BF059
:101140008DFE4C480068FFF7F5FA41EC1A0B9FED55
:101150005B0B53EC102BFFF747FA41EC190BFFF731
:1011600015FB08EE100A0A2201A9BDEEC80A10EE0E
:10117000100A0CF01FFE032108460CF0CBFE01AA5A
:10118000032108460CF098FE0CF070FB0020274964
:1011900008702E4908709FED1E0A364880ED000A3F
:1011A000234807F028FB01A946A00BF057FE02B028
:1011B000BDEC068B10BD4848007800283FF464AFB2
:1011C00045480078012821D144480078F0B9002032
:1011D000414908709FED0E0A264880ED000A002064
:1011E0001249087019490870032104200CF092FE7E
:1011F0003BA2032104200CF05FFE0CF037FB0C48EF
:1012000007F0F9FA39A00BF029FED0E700BFCEE7CE
:1012100000000000D7CBCCAC34370D0A0000000032
:10122000D7CBCCAC3437A3BA000000001D02002499
:1012300008060024B5C8B4FDD3A6B4F00000000031
:10124000B5C8B4FDD3A6B4F00D0A00001C020024FA
:10125000610200243437CAD5B5BDD3A6B4F00D0A57
:10126000000000006B0000246A00002469000024D4
:101270000000C84264000024B9A6C4DCD3A6B4F0C0
:10128000000000003437B9A6C4DCD3A6B4F00D0AC0
:1012900000000000D7CBCCACCAB1BCE4203D202577
:1012A000302E316620530D0A00000000D7CBCCACA5
:1012B000B3ACB3F6B7B6CEA70D0A00009A999999C8
:1012C0009999A93FD7CBCCACBDC7B6C8203D202546
:1012D00073200D0A00000000180200241A020024E6
:1012E000CDA8D0C5CAA7B0DC00000000CDA8D0C5ED
:1012F000CAA7B0DC0D0A000010B52DED068B82B038
:101300009FED750AB0EE408A0020019073A00BF0AB
:10131000A5FD75A2002104200CF0CEFD48200CF0A4
:10132000C3FF044600F028FD0CF01AFA142071499E
:1013300008706FF001007049096808616E4807F095
:10134000E7F9032104200CF0E5FD6CA20321042041
:101350000CF0B2FD6CA00BF081FD92E00CF0E2FF0E
:101360000128FAD16B490870032102200CF0D2FD4C
:10137000694A032102200CF09FFD68A00BF06EFD6E
:1013800037205C49087000206249087000BF0DF0EA
:1013900045F80028FBD065480078642110FB01F077
:1013A0006349097801EB810100EB4100614909784B
:1013B000084400EE100AB8EEC00ADFED5F0A80EEC6
:1013C000201A5E4880ED001A01205249087003215E
:1013D00004200CF09FFD5AA2032104200CF06CFDA8
:1013E0005AA00BF03BFD55480068FFF7A3F941EC0C
:1013F000190B53EC192B59A00BF030FD4F48006826
:10140000FFF798F99FED5B0B53EC102BFFF7A6F954
:1014100002D25AA00BF022FD48480068FFF78AF973
:1014200041EC1A0B9FED590B53EC102BFFF76AF8A8
:1014300041EC190BFFF7AAF908EE100A0A2201A9DC
:10144000BDEEC80A10EE100A0CF0B4FC03210846E9
:101450000CF060FD01AA032108460CF02DFD0020D0
:10146000244908702B4908700CF000FA224807F054
:10147000C2F901A947A00BF0F1FC02B0BDEC068B4C
:1014800010BD4948007800283FF468AF464800780E
:1014900001281ED10020444908709FED0F0A2748FB
:1014A00080ED000A0020134908701A4908700321D2
:1014B00004200CF02FFD3DA2032104200CF0FCFCC5
:1014C0000CF0D4F90C4807F096F93BA00BF0C6FCE1
:1014D000D3E700BFD1E7000000000000B5E7D1B9B5
:1014E00034380D0A00000000B5E7D1B93438A3BA8A
:1014F000000000001D02002408060024B5C8B4FD49
:10150000D3A6B4F000000000B5C8B4FDD3A6B4F073
:101510000D0A00001C020024610200243438CAD5E0
:10152000B5BDD3A6B4F00D0A000000006B00002486
:101530006A000024690000240000C84264000024FE
:10154000B9A6C4DCD3A6B4F0000000003438B9A6B4
:10155000C4DCD3A6B4F00D0A00000000B5E7D1B991
:10156000CAB1BCE4203D2025302E316620530D0A3F
:10157000000000006666666666660A40B5E7D1B997
:10158000B3ACB3F6B7B6CEA70D0A0000C3F5285C1E
:101590008FC20540B5E7B3D8B5E7D1B9203D2025C6
:1015A00073200D0A0000000018020024CDA8D0C549
:1015B000CAA7B0DC00000000CDA8D0C5CAA7B0DC27
:1015C0000D0A000010B52DED048B82B09FED600A6E
:1015D000B0EE408A002001905EA00BF03FFC60A2BC
:1015E000002104200CF068FC49200CF05DFE04464C
:1015F00000F0C2FB0CF0B4F814205C4908706FF0E6
:1016000001005B4909680861594807F081F8032126
:1016100004200CF07FFC57A2032104200CF04CFCAA
:1016200057A00BF01BFC69E00CF07CFE012865D193
:1016300056480078642110FB01F05549097801EB08
:10164000810100EB410053490978084400EE100A7B
:10165000B8EEC00ADFED500A80EE201A4F4880ED48
:10166000001A01204E490870032104200CF052FC9E
:101670004CA2032104200CF01FFC4DA00BF0EEFB4C
:1016800046480068FFF756F841EC190B53EC192B4C
:101690004BA00BF0E3FB414890ED000ADFED4E0A52
:1016A00020EE200AF0EE000A80EE208A0A2201A92C
:1016B000BDEEC80A10EE100A0CF07CFB03210846B0
:1016C0000CF028FC01AA032108460CF0F5FB0CF0F5
:1016D000CDF800202549087031490870244807F0EA
:1016E0008AF89FED1B0A2D4880ED000A01A93BA056
:1016F0000BF0B4FB02B0BDEC048B10BD3C4800788D
:10170000002891D03A48007801281ED1002038499D
:1017100008709FED0F0A214880ED000A0020134950
:1017200008701F4908700CF0A1F8114807F063F821
:10173000032104200CF0EEFB2EA2032104200CF068
:10174000BBFB2FA00BF08AFBD4E700BFD2E7000061
:1017500000000000B2E2BEE034390D0A00000000D3
:10176000B2E2BEE03439A3BA000000001D0200243A
:1017700008060024B5C8B4FDD3A6B4F000000000EC
:10178000B5C8B4FDD3A6B4F00D0A00006B00002468
:101790006A000024690000240000C842640000249C
:1017A0001C020024CAD5B5BDD3A6B4F000000000C9
:1017B0003439CAD5B5BDD3A6B4F00D0A0000000077
:1017C000B2E2BEE0CAB1BCE4203D2025302E316635
:1017D00020530D0A000000000080BB44B2E2BEE0CE
:1017E000BEE0C0EB203D202573200D0A0000000064
:1017F00018020024CDA8D0C5CAA7B0DC00000000A4
:101800003439CDA8D0C5CAA7B0DC0D0A000000004D
:1018100010B54EA00BF022FB4FA2002104200CF0CB
:101820004BFB55200CF040FD044600F0A5FA0BF0F0
:1018300097FF14204B4908706FF001004A4909686E
:101840000861494806F064FF032104200CF062FBA4
:1018500046A2032104200CF02FFB47A00BF0FEFA58
:1018600051E00CF05FFD01284DD14649087003217D
:1018700002200CF04FFB444A032102200CF01CFB19
:1018800042A00BF0EBFA0A203649087000203D49CF
:10189000087017E00CF0C2FD012813D13949087017
:1018A000032104200CF036FB3BA2032104200CF0A2
:1018B00003FB3CA00BF0D2FA00202A490870314902
:1018C000087010BD3A4800780028E3D03848007806
:1018D000012818D10020364908702249087029498A
:1018E0000870032104200CF015FB32A20321042010
:1018F0000CF0E2FA0BF0BAFF1B4806F07CFF30A0B8
:101900000BF0ACFADDE7324800780028A9D0304867
:101910000078012818D100202D490870114908705D
:1019200018490870032104200CF0F4FA29A20321BD
:1019300004200CF0C1FA0BF099FF0B4806F05BFF96
:1019400027A00BF08BFABCE700BFBAE7CACDB7C53A
:1019500035350D0A00000000CACDB7C53535A3BA2C
:10196000000000001D02002408060024B5C8B4FDD4
:10197000D3A6B4F000000000B5C8B4FDD3A6B4F0FF
:101980000D0A00001C02002461020024CAD5B5BD66
:10199000D3A6B4F00D0A0000CACDB7C5B3C9B9A625
:1019A00000000000CACDB7C5B3C9B9A60D0A000032
:1019B00019020024CACDB7C5CAA7B0DC00000000D8
:1019C0003535CACDB7C5CAA7B0DC0D0A0000000086
:1019D00018020024CDA8D0C5CAA7B0DC00000000C2
:1019E0003535CDA8D0C5CAA7B0DC0D0A000000006F
:1019F00010B50021014807F0FFFB10BD8C04002446
:101A000010B5024801F06EFE10BD00001404002461
:101A10000146374A0868904249D0354A183208686A
:101A2000904244D0324A3032086890423FD0304A27
:101A30004832086890423AD02D4A60320868904295
:101A400035D02B4A78320868904230D0284A9032FC
:101A5000086890422BD0264AA8320868904226D0C7
:101A6000244A0868904222D0224A183208689042DC
:101A70001DD0204A30320868904218D01D4A4832A2
:101A80000868904213D01B4A6032086890420ED01A
:101A9000184A78320868904209D0164A903208688D
:101AA000904204D0134AA8320868904201D1012024
:101AB00000E00020B0B10A78103A1823B2FBF3F02E
:101AC00000F007020C4B9A5CCA65032805D90A6826
:101AD0006FF30902121D8A6503E00A686FF30902B9
:101AE0008A6503E0086820F0FF008865886D70470C
:101AF0001000024010040240DAE6000810B5026847
:101B00002B4C0368A34222D0294C14340368A3420F
:101B10001DD0274C28340368A34218D0244C3C34F1
:101B20000368A34213D0224C50340368A3420ED062
:101B30001F4C64340368A34209D01D4C78340368F9
:101B4000A34204D01A4C8C340368A34201D1012370
:101B500000E000238BB10378083B1424B3FBF4F1BD
:101B6000144B03EB81030366124B8033436601F091
:101B70001F040123A340836618E00378103B182458
:101B8000B3FBF4F10C4B9A4204D80B4BA83B9A429E
:101B900000D30831094B03EB81030366074B803305
:101BA000436601F01F040123A340836610BD0000BB
:101BB0000854025800580258B80402400008024075
:101BC0000179A9B3082940D8204B02689A4222D053
:101BD0001E4B143302689A421DD01C4B28330268F6
:101BE0009A4218D0194B3C3302689A4213D0174BD3
:101BF000503302689A420ED0144B643302689A4202
:101C000009D0124B783302689A4204D00F4B8C33C0
:101C100002689A4201D1012200E000224AB14A1E24
:101C20000B4B03EB8202C266094A4032026708E0AE
:101C30000BE04A1E074B03EB8202C266054A4032A4
:101C400002674A1E012393404367704708540258B5
:101C50000059025800090240014600208A69D2B9A1
:101C60008A6A32B1012A0DD0022A03D0032A10D188
:101C70000EE000BFCA6A02F08072B2F1807F00D12C
:101C8000012007E0CA6AB2F1C07F00D1012001E063
:101C900000E000BF36E08A69B2F5005F1BD18A6AB6
:101CA00032B1012A07D0022A03D0032A11D10AE057
:101CB00000BF01200EE0CA6A02F08072B2F1807F9C
:101CC00000D1012006E0CA6AB2F1C07F00D1012034
:101CD00000E000BF16E08A6A32B1012A05D0022A6C
:101CE00004D0032A0CD103E000BF00BF012008E0AC
:101CF000CA6A02F08072B2F1807F00D1012000E058
:101D000000BF00BF7047000010B50446002201214B
:101D1000154802F039FF00224FF48071134802F099
:101D200033FF012002F0EAFC012211460E4802F0C6
:101D30002BFF00BF09F06CFC20460BF053FF09F0AD
:101D400053FC0BF00FFF0A490870002201210648DE
:101D500002F01AFF00224FF48071044802F014FFD1
:101D60000348007810BD000000100258000402581B
:101D7000890000247047000010B504460122D103F9
:101D80001E4802F001FF172002F0EEFF00224FF480
:101D900000511A4802F0F8FE09F0E6FB0122510357
:101DA000164802F0F1FE322000F02AF800224FF42B
:101DB0000051124802F0E8FE09F09AFA012251039C
:101DC0000E4802F0E1FE322000F01AF800224FF433
:101DD00000510A4802F0D8FE204609F06FFB0122AC
:101DE0005103064802F0D0FEC82000F009F8002296
:101DF0004FF40041014802F0C7FE10BD000C02582C
:101E000070B504466FF001001249096808610020AE
:101E10001049096848620F4806F07AFC4FF6FF75D2
:101E200010E04FF6FF7500BF0B48007818B9281E68
:101E3000A5F10105F8D105B906E0601E84B20020C5
:101E400005490870002CECD100BF024806F0D3FC15
:101E500070BD0000080600246000002401B50020C9
:101E600015490968486214480068006840F001009C
:101E700011490968086000BF0F480068406ABDF852
:101E800000108842F8D300BF0B480068006A41F296
:101E90001111084068B908480068006A89100840B4
:101EA00038B905480068006820F001000249096857
:101EB000086000BF08BD00002405002410B50446DA
:101EC000544800780B280CD2DFE800F0948C7C6C2E
:101ED0005C4C3C2C1C0C06005C2C02DA09204D49A1
:101EE000087087E0522C05DA4A480078401E4949BC
:101EF000087006E0612C04DD46480078401C454926
:101F0000087077E0482C05DA42480078401E4149C5
:101F1000087006E0572C04DD3E480078401C3D491F
:101F2000087067E03E2C05DA3A480078401E3949CF
:101F3000087006E04D2C04DD36480078401C354919
:101F4000087057E0342C05DA32480078401E3149D9
:101F5000087006E0432C04DD2E480078401C2D4913
:101F6000087047E02A2C05DA2A480078401E2949E3
:101F7000087006E0392C04DD26480078401C25490D
:101F8000087037E0202C05DA22480078401E2149ED
:101F9000087006E02F2C04DD1E480078401C1D4907
:101FA000087027E0162C05DA1A480078401E1949F7
:101FB000087006E0252C04DD16480078401C154901
:101FC000087017E00C2C05DA12480078401E114901
:101FD000087006E01B2C04DD0E480078401C0D49FB
:101FE000087007E0112C04DD0A480078401C0949FC
:101FF000087000BF00BF07480078FEF761FF0721A7
:1020000001200BF099FF002008F010F8002008F0E4
:102010000DF810BD0C02002410B5202002F0A0FC29
:1020200010BD72B600BFFEE770B52DED088B40F213
:10203000FF720021684800F035F9012002F05EFBD4
:10204000654800F055FE644800F02AFC85B240F671
:10205000E44005FB00F4E11704EB11510813FEF70F
:1020600032FB9FED5E0B53EC102BFEF74BFA9FED0E
:102070005D0B53EC102BFEF7B7FA9FED5C0B53ECA6
:10208000102BFEF7B1FAFEF781FB5A4908600846AB
:102090000068FEF74FFB9FED580B53EC102BFEF73B
:1020A0005DFB5AD253480068FEF744FB41EC190B24
:1020B0009FED510B53EC102BFEF71EFA41EC180B61
:1020C000FEF764FB4B49086008460068FEF732FBE8
:1020D00041EC190B9FED4A0B53EC102BFEF784FAE1
:1020E00041EC180BFEF752FB4249086008460068B5
:1020F000FEF720FB41EC1A0B9FED430B53EC102B2A
:10210000FEF700FA41EC190B9FED410B53EC102B3D
:10211000FEF751F941EC180BFEF738FB3549086022
:10212000084690ED000ADFED3C0AB4EEE00AF1EE5D
:1021300010FA03DB9FED380A80ED000A2D4890ED80
:10214000000AF7EE000AB4EEE00AF1EE10FA3AD80F
:10215000B7EE000A80ED000A35E026480068FEF779
:10216000E9FA41EC190B9FED2D0B53EC102BFEF708
:10217000C3F941EC180BFEF709FB1E49086008463D
:102180000068FEF7D7FA41EC190B9FED260B53ECD4
:10219000102BFEF729FA41EC180BFEF7F7FA154958
:1021A000086008460068FEF7C5FA41EC190B9FED80
:1021B000180B53EC102BFEF7A5F941EC180BFEF7AA
:1021C000E5FA0C490860044800F02CFE094890ED3F
:1021D000000ABDEC088B70BDAC0200246666666622
:1021E000666622405A643BDF4F8DEF3F00000000DF
:1021F00000408F40100200249A999999999935408E
:10220000CDCCCCCCCCCC0840000000000020574006
:102210000000000000001E400000C84266666666BE
:10222000666632409A999999999909405F2803DB2B
:102230000A211B4A117032E0552803DB0921184A94
:1022400011702CE04B2803DB0821154A117026E0A1
:10225000412803DB0721124A117020E0372803DBF5
:1022600006210F4A11701AE02D2803DB05210C4AC4
:10227000117014E0232803DB0421094A11700EE0D9
:10228000192803DB0321064A117008E00F2803DB3D
:102290000221034A117002E00121014A11707047C6
:1022A0000C020024F8B504460D46164600200090A6
:1022B00000BF94F85000012801D10220F8BD012090
:1022C00084F8500000BF2046FEF7ECFC0746A7BB91
:1022D000606D20F4885040F002006065206805F4CD
:1022E000803141F0004106F0804211438268194B71
:1022F0001A401143816000BF13E00098401C009019
:102300001549009888420CD3606D20F0020040F01F
:102310001000606500BF002084F8500000BF01205D
:10232000CCE720688168C90F0029E6D1606D20F0F4
:10233000020040F00100606504E0FFE7606D40F0DE
:102340001000606500BF002084F8500000BF3846D0
:10235000B4E70000C0FFFE3F00F8C3252DE9F84FA9
:1023600004460D464FF0000A0020009094F8380013
:10237000012800D100E000BFF849E868884200D099
:102380000EE0F7492068884200D100BFF549206877
:10239000884200D100BFF4492068884200D100BFC4
:1023A00000BF94F85000012802D10220BDE8F88F48
:1023B000012084F8500000BF206807F0EBFD0028E2
:1023C0007ED12068C1692868C0F3130018B9286855
:1023D000C0F3846004E0286890FAA0F0B0FA80F0BE
:1023E00000F01F020120904001432068C161216874
:1023F000D5E9002001F1300CC0F3012B0CEB8B036D
:10240000D3F800C000F01F0E4FF01F0B0BFA0EFBAD
:102410002CEA0B0C00F01F0BC2F3846E0EFA0BFEBD
:102420004CEA0E0CC3F800C000BF206807F0B2FDF4
:102430008146206807F09AFD8046B9F1000F6FD100
:10244000B8F1000FFBD1AA682968206807F0B8FD31
:10245000C648006800F07040B0F1805F07D168693D
:102460002168C968C1F382014900884014E02068EE
:10247000C06800F0100038B968692168C968C1F304
:1024800082014900884007E068692168C96801F055
:10249000100189084900884007462869042840D06F
:1024A00020682A68296900F1600C0CEB8103D3F8DD
:1024B00000C00CF0004C02F0F84B4BEA070B00E0B8
:1024C000CCE14CEA0B0CC3F800C000BF20686A7E68
:1024D0002969012A01D1D20700E00022134600F148
:1024E000600C0CEB8102D2F800C02CF0004C4CEADE
:1024F000030CC2F800C000BF20682B7E2969012BA5
:1025000001D1DB0200E000231A46036923F4F04303
:1025100001F01F0C02FA0CFC43EA0C03036100BF3C
:1025200037E02068006E00F0F8402978B0EB816F4A
:1025300005D12068006E20F0004021680866206800
:10254000406E00F0F8402978B0EB816F05D120682B
:10255000406E20F00040216848662068806E00F0E0
:10256000F8402978B0EB816F05D12068806E20F0AB
:102570000040216888662068C06E00F0F840297825
:10258000B0EB816F05D12068C06E20F0004021685B
:10259000C866206807F0F4FC002872D12068EA6859
:1025A0002968D0F8C030C1F3130C23EA0C0302F001
:1025B000180BDFF8BCC12CFA0BFC0CEA010C43EA47
:1025C0000C03C0F8C03000BF6449E86888427DD180
:1025D0002B68C3F313031BB92B68C3F3846304E0B4
:1025E0002B6893FAA3F3B3FA83F35B1C03F01F0386
:1025F000092B3ED82B68C3F313031BB92B68C3F315
:10260000846304E02B6893FAA3F3B3FA83F35B1CAF
:1026100003F01F034FF0010C0CFA03FC2B68C3F30B
:1026200013031BB92B68C3F3846304E02B6893FA8C
:10263000A3F3B3FA83F35B1C03F01F034CEA836C30
:102640002B68C3F313031BB92B68C3F3846304E043
:102650002B6893FAA3F3B3FA83F35B1C03F01F0315
:1026600003EB43034FF0000B4BEA03534CEA030325
:1026700041E02B68C3F3130323B92B68C3F38463CE
:1026800005E0A9E02B6893FAA3F3B3FA83F35B1C8C
:1026900003F01F034FF0010C0CFA03FC2B68C3F38B
:1026A00013031BB92B68C3F3846304E02B6893FA0C
:1026B000A3F3B3FA83F35B1C03F01F034CEA836CB0
:1026C0002B68C3F313032BB92B6800E018E0C3F3A6
:1026D000846304E02B6893FAA3F3B3FA83F35B1CDF
:1026E00003F01F030A3B03EB43034FF0007B4BEA6D
:1026F00003534CEA03031946AA68206807F060FCFC
:10270000286800F00040002866D0154A21689142F0
:1027100003D0144A2168914201D1164900E01649BC
:102720000846816801F0E07600BF0D4920688842C4
:1027300003D00C492068884201D10E4800E00E48C1
:102740000C4988421AD1064807F01AFC834605480E
:1027500007F016FC4BEA000013E000000000FF4702
:102760000020024000210240006002580010005C7E
:10277000FFFF0F0000230240006302583E4807F0AD
:10278000FFFBE8BB3D492868884226D106F40000DB
:1027900018BB39492068884266D1394B22689A4271
:1027A00003D0384B22689A4201D1374A00E0374AB9
:1027B000104646F4000107F017FC3548006835491B
:1027C000B0FBF1F0401C4000009002E00098401E79
:1027D000009000980028F9D146E02F4928688842E7
:1027E00019D106F08070B0B92349206888423BD1E6
:1027F000234B22689A4205D0224B22689A4200E07D
:1028000025E001D1204A00E0204A104646F08071C0
:1028100007F0EAFB28E021492868884224D106F421
:10282000800008BB1449206888421DD1144B2268DF
:102830009A4203D0134B22689A4201D1124A00E017
:10284000124A104646F4800107F0CEFB0CE0606DA2
:1028500040F0200060654FF0010A05E0606D40F037
:10286000200060654FF0010A00BF002084F850008E
:1028700000BF50469AE5000000600258000084CB7B
:102880000020024000210240002302400063025861
:1028900024000024400D0300000052C70000B8CF00
:1028A00001460868006C70472DE9F84F04464FF068
:1028B00000090020009014B90120BDE8F88FE068FD
:1028C00018B1207F012800D100BF606D30B92046CB
:1028D00000F030F90020A06584F85000206881687D
:1028E000C1F3407131B120688168874A114081602D
:1028F00000BF00BF206807F048FBA8B920688168C6
:10290000824A114041F08051816000BF80480068D8
:102910008049B0FBF1F0401C009002E00098401E9E
:10292000009000980028F9D1206807F02EFB48B9E4
:10293000606D40F010006065A06D40F00100A06582
:102940004FF00109206807F025FB0646606D00F096
:10295000100000287ED1002EFCD1606D20F4807024
:1029600040F002006065206807F00AFB78BB6A4906
:102970002068884203D069492068884201D16848AC
:1029800000E068486649884209D1634807F0F8FAD0
:102990008246624807F0F4FA4AEA000002E0624820
:1029A00007F0EEFA98B95C4B22689A4203D05B4B71
:1029B00022689A4201D15A4A00E05A4A1046616898
:1029C000826822F47C120A43826000BF00BF02F0DA
:1029D000E1F841F2030188420ED9A06810280BD11A
:1029E000607D216B41EA4030A168084340F00C0152
:1029F000207F41EA004508E0607D216B41EA4030DC
:102A0000A1680843217F40EA0145207F012803D1C6
:102A1000208C401E45EA4045606A28B1A08C00F435
:102A20007870A16A084305432068C0683F490840A0
:102A300028432168C860206807F0ACFA8046206807
:102A400007F094FA0746B8F1000F3BD1D7BB207DC1
:102A5000E16A00E050E041EA80352068C06844F255
:102A60000301884328432168C86094F8380001288E
:102A700017D1606A08B1A06A00B900BFA08F401EDC
:102A8000012141EA0041206C0843616C0843A16CBC
:102A9000084321680969264A1140084321680861F2
:102AA00005E02068006920F00100216808612068C5
:102AB000006920F07040616B08432168086120467E
:102AC000FDF7B2FFE068012809D12068006B20F013
:102AD0000F00A169491E08432168086305E02068CA
:102AE000006B20F00F0021680863606D20F0020089
:102AF00040F00100606505E0606D40F01000606529
:102B00004FF001094846D8E6C0FFFF5FC0FFFF7FD6
:102B100024000024400D0300002002400021024058
:102B200000230240006302580060025803C0F0FF17
:102B30001EF800FC38B504461249206888421FD1AF
:102B400000BF1148006840F080700F4908600846D7
:102B5000006800F08070009000BF00BF00BF084612
:102B6000006840F0040008600846006800F00400B7
:102B7000009000BF00BF4FF00061084605F090FCD8
:102B800038BD000000600258E04402582DE9F047CB
:102B900004460F46524A2168914203D0514A2168A7
:102BA000914201D1504900E05049084607F0D9F957
:102BB00005462069082801D1082628E01DB1052D09
:102BC00001D0092D0DD12068C06800F0010030B19E
:102BD000606D40F0200060650120BDE8F0870426AC
:102BE00015E03F4A2168914203D03E4A2168914254
:102BF00001D13D4900E03D49084607F0ADF928B153
:102C0000606D40F0200060650120E6E7042601F0D9
:102C1000C7FF804617E0781CA8B101F0C1FFA0EB08
:102C20000800B84200D877B920680068304050B931
:102C3000606D40F00400606500BF002084F8500023
:102C400000BF0320C9E72068006830400028E2D0B8
:102C5000606D40F400706065206807F0A0F998B1DD
:102C6000607D88B92068006800F0080008280BD152
:102C7000606D20F480706065606D00F4805018B95C
:102C8000606D40F00100606516492068884201D1FE
:102C9000134800E020682168884204D01DB1052D4A
:102CA00001D0092D03D12068D0F80C9009E00D491E
:102CB0002068884201D10A4800E020688246DAF89C
:102CC0000C90082E03D108202168086005E009F463
:102CD000804010B90C202168086000207DE70000CA
:102CE00000200240002102400023024000630258FD
:102CF0002DE9F0410446474A2168914203D0464AF3
:102D00002168914201D1454900E04549084607F054
:102D100028F90546206807F03DF9002877D100BF63
:102D200094F85000012802D10220BDE8F081012072
:102D300084F8500000BF2046FDF7FEFF0646002E37
:102D400060D1606D40F60161884340F48070606539
:102D500031492068884201D12E4800E0206821686E
:102D6000884200D01DB9606D20F480106065606DF0
:102D700000F48050B0F5805F04D1A06D20F0060013
:102D8000A06501E00020A0651C202168086000BF4C
:102D9000002084F8500000BF1F492068884201D1FC
:102DA0001C4800E020682168884204D01DB1052D30
:102DB00001D0092D0ED12068C06800F0007028B144
:102DC000606D20F4005040F480506065206807F08A
:102DD000EFF81DE0606D40F4801060650E492068DA
:102DE000884201D10B4800E020680746F86800F0EF
:102DF000007068B1606D20F4005040F48050606550
:102E000006E004E000BF002084F8500000E0022645
:102E100030468AE7002002400021024000230240A1
:102E20000063025870B5044600BF94F850000128B2
:102E300001D1022070BD012084F8500000BF0321A1
:102E40002046FDF7A1FE054655B92046FDF72AFFAD
:102E500005462DB9606D20F4885040F00100606592
:102E600000BF002084F8500000BF2846E2E70000C1
:102E70002DE9F041044601F093FE804614B901208B
:102E8000BDE8F08194F83500022808D08020606504
:102E900000BF002084F8340000BF0120F0E7FE49A5
:102EA0002068884249D0FC4918312068884244D0C3
:102EB000F9493031206888423FD0F74948312068CD
:102EC00088423AD0F44960312068884235D0F249CE
:102ED00078312068884230D0EF49903120688842AC
:102EE0002BD0ED49A8312068884226D0EB492068D4
:102EF000884222D0E9491831206888421DD0E7492C
:102F000030312068884218D0E4494831206888422E
:102F100013D0E2496031206888420ED0DF49783111
:102F20002068884209D0DD4990312068884204D069
:102F3000DA49A8312068884201D1012000E0002050
:102F400068B12068006820F01E00216808602068D1
:102F5000406920F0800021684861256806E020680B
:102F6000006820F00E00216808602568CA492068C2
:102F7000884270D0C8491831206888426BD0C64951
:102F800030312068884266D0C34948312068884281
:102F900061D0C1496031206888425CD0BE49783137
:102FA0002068884257D0BC4990312068884252D06E
:102FB000B949A831206888424DD0B8492068884274
:102FC00049D0B64918312068884244D0B3493031DD
:102FD000206888423FD0B1494831206888423AD0C1
:102FE000AE4960312068884235D0AC4978312068DC
:102FF000884230D0A9499031206888422BD0A74917
:10300000A8312068884226D0A5492068884222D06D
:10301000A3491431206888421DD0A1492831206875
:10302000884218D09E493C312068884213D09C4980
:103030005031206888420ED0994964312068884216
:1030400009D0974978312068884204D094498C315E
:103050002068884201D1012000E0002028B1206EC4
:10306000006820F48070216E08608B4920688842D7
:1030700049D0894918312068884244D08649303186
:10308000206888423FD084494831206888423AD03D
:10309000814960312068884235D07F497831206885
:1030A000884230D07C499031206888422BD07A49C0
:1030B000A8312068884226D078492068884222D0EA
:1030C00076491831206888421DD074493031206813
:1030D000884218D0714948312068884213D06F491E
:1030E0006031206888420ED06C497831206888426F
:1030F00009D06A4990312068884204D06749A831D4
:103100002068884206D12068006820F0010021680C
:10311000086005E02068006820F001002168086070
:1031200011E001F03DFDA0EB080005280BD920209F
:103130006065032084F8350000BF002084F8340067
:1031400000BF01209CE6286800F001000028E8D1BB
:1031500051492068884249D04F4918312068884237
:1031600044D04D493031206888423FD04A494831E7
:10317000206888423AD0484960312068884235D07A
:10318000454978312068884230D0434990312068E1
:1031900088422BD04049A8312068884226D03F4938
:1031A0002068884222D03D491831206888421DD0CD
:1031B0003A4930312068884218D03849483120686F
:1031C000884213D035496031206888420ED0334997
:1031D00078312068884209D030499031206888428F
:1031E00004D02E49A8312068884201D1012000E096
:1031F000002040B1A66D94F85C0000F01F013F2054
:103200008840B06007E0A76D94F85C0000F01F01F3
:1032100001208840786020492068884276D01E4985
:1032200018312068884271D01B49303120688842AB
:103230006CD0194948312068884267D016496031FE
:103240002068884262D014497831206888425DD075
:10325000114990312068884258D00F49A831206820
:10326000884253D00D49206888424FD00B4918310D
:10327000206888424AD0094930312068884245D0C8
:10328000064948312068884240D0044960312068AE
:1032900088423BD0014905E0100002401004024082
:1032A000085402587831206888422FD02549206878
:1032B00088422BD0234918312068884226D02249E1
:1032C0002068884222D020491431206888421DD0CD
:1032D0001D4928312068884218D01B493C3120689C
:1032E000884213D018495031206888420ED01649C0
:1032F00064312068884209D01349783120688842B7
:1033000004D011498C312068884201D1012000E0AD
:10331000002068B1D4E919104860E06E40B1E06E59
:10332000006820F48070E16E0860D4E91C104860E9
:10333000012084F8350000BF002084F8340000BF6D
:1033400000BF9DE5A00402400854025870B5044631
:103350000CB9012070BD94F83500022803D08020FC
:1033600060650120F6E7DC492068884249D0DA49E7
:1033700018312068884244D0D749303120688842CB
:103380003FD0D5494831206888423AD0D24960318F
:103390002068884235D0D04978312068884230D0C2
:1033A000CD499031206888422BD0CB49A831206884
:1033B000884226D0C9492068884222D0C74918319E
:1033C000206888421DD0C54930312068884218D015
:1033D000C24948312068884213D0C0496031206812
:1033E00088420ED0BD4978312068884209D0BB4957
:1033F00090312068884204D0B849A83120688842BA
:1034000001D1012000E00020F0B3042084F8350051
:10341000B149206888424BD0AF49183120688842B2
:1034200046D0AD4930312068884241D0AA49483160
:10343000206888423CD0A84960312068884237D053
:10344000A54978312068884232D0A349903120685C
:1034500088422DD0A049A8312068884228D09F49B1
:103460002068884224D09D491831206888421FD0A6
:103470009A493031206888421AD0984948312068EA
:10348000884215D0954900E020E0603120688842EC
:103490000ED0924978312068884209D08F49903106
:1034A0002068884204D08D49A8312068884206D11E
:1034B0002068006820F001002168086009E12068A8
:1034C000006820F001002168086002E120680068BF
:1034D00020F00E00216808607F492068884249D0AA
:1034E0007D4918312068884244D07B4930312068BA
:1034F00088423FD078494831206888423AD076499E
:1035000060312068884235D073497831206888421C
:1035100030D071499031206888422BD06E49A83153
:103520002068884226D06D492068884222D06B49A5
:103530001831206888421DD068493031206888429F
:1035400018D0664948312068884213D063496031F9
:10355000206888420ED0614978312068884209D0BD
:103560005E4990312068884204D05C49A8312068C7
:10357000884206D12068006820F0010021680860B8
:1035800005E02068006820F00100216808605249C9
:103590002068884270D050491831206888426BD02A
:1035A0004D4930312068884266D04B494831206807
:1035B000884261D048496031206888425CD04649E1
:1035C00078312068884257D043499031206888423A
:1035D00052D04149A831206888424DD03F492068E7
:1035E000884249D03D4918312068884244D03B493F
:1035F0003031206888423FD03849483120688842BD
:103600003AD0364960312068884235D03349783124
:103610002068884230D031499031206888422BD0D0
:103620002E49A8312068884226D02D49206888423A
:1036300022D02B491431206888421DD028492831D6
:103640002068884218D026493C312068884213D02F
:1036500023495031206888420ED0214964312068C6
:10366000884209D01E4978312068884204D01C491C
:103670008C312068884201D1012000E00020D8B1BF
:10368000206E006820F48070216E0860A56D94F8AB
:103690005C0000F01F01012088406860D4E9191027
:1036A0004860E06E40B1E06E006820F48070E16E2A
:1036B0000860D4E91C104860012084F8350000BF80
:1036C000002084F8340000BF206D10B12046216D29
:1036D000884700203EE6000010000240100402402F
:1036E000085402582DE9F84F044600200090FE4887
:1036F00000684FF41651B0FBF1FAA66DD4F858806B
:103700003768D8F80090F9492068884249D0F749CD
:1037100018312068884244D0F4493031206888420A
:103720003FD0F2494831206888423AD0EF496031B1
:103730002068884235D0ED4978312068884230D001
:10374000EA499031206888422BD0E849A8312068A6
:10375000884226D0E6492068884222D0E4491831C0
:10376000206888421DD0E24930312068884218D054
:10377000DF4948312068884213D0DD496031206834
:1037800088420ED0DA4978312068884209D0D84979
:1037900090312068884204D0D549A83120688842F9
:1037A00001D1012000E0002000287DD094F85C00C9
:1037B00000F01F01082088403840002868D0CB491D
:1037C0002068884249D0C94918312068884244D0CD
:1037D000C6493031206888423FD0C449483120680A
:1037E00088423AD0C14960312068884235D0BF490B
:1037F00078312068884230D0BC49903120688842B6
:103800002BD0BA49A8312068884226D0B849206810
:10381000884222D0B6491831206888421DD0B44968
:1038200030312068884218D0B14948312068884238
:1038300013D0AF496031206888420ED0AC4978314E
:103840002068884209D0AA4990312068884204D073
:10385000A749A8312068884204D12068006800F098
:10386000040003E02068006800F0080080B12068D0
:10387000006820F004002168086094F85C0000F003
:103880001F0108208840B060606D40F00100606555
:1038900094F85C0000F01F01012088403840E8B334
:1038A00092492068884200E0B7E24BD08F49183136
:1038B0002068884246D08D4930312068884241D006
:1038C0008A494831206888423CD088496031206864
:1038D000884237D0854978312068884232D0834980
:1038E0009031206888422DD08049A83120688842D4
:1038F00028D07F492068884224D07D49183120682B
:1039000088421FD07A493031206888421AD07849DD
:1039100048312068884215D0754900E026E06031C2
:10392000206888420ED0724978312068884209D0D8
:103930006F4990312068884204D06D49A8312068D1
:10394000884204D12068406900F0800002E02068CD
:103950000068002050B194F85C0000F01F010120C5
:103960008840B060606D40F00200606594F85C00D3
:1039700000F01F01042088403840E8B35B4920680C
:1039800088424BD0594918312068884246D057495F
:1039900030312068884241D05449483120688842FB
:1039A0003CD0524960312068884237D04F49783145
:1039B0002068884232D04D499031206888422DD00D
:1039C0004A49A8312068884228D04949206888425D
:1039D00024D047491831206888421FD044493031EB
:1039E000206888421AD0424948312068884215D060
:1039F0003F496031206800E024E088420ED03C4915
:103A000078312068884209D039499031206888424D
:103A100004D03749A8312068884204D12068006862
:103A200000F0020002E020680068002050B194F825
:103A30005C0000F01F0104208840B060606D40F021
:103A40000400606594F85C0000F01F0110208840BD
:103A50003840E8B325492068884251D023491831BD
:103A6000206888424CD0214930312068884247D0B4
:103A70001E4948312068884242D01C496031206884
:103A800088423DD0194978312068884238D017499A
:103A900090312068884233D01449A8312068884288
:103AA0002ED01349206888422AD011491831206845
:103AB000884225D00E4930312068884220D00C49F8
:103AC0004831206888421BD009496031206800E0F5
:103AD0004DE0884214D006497831206888420FD0E2
:103AE00003499031206805E02400002410000240C2
:103AF00010040240884203D0FE492068884204D165
:103B00002068006800F0080003E02068006800F00A
:103B1000040060B394F85C0000F01F01102088409E
:103B2000B0602068006800F4802080B120680068E0
:103B300000F4002028B9206CC8B12046216C8847C9
:103B400015E0A06C98B12046A16C88470FE0206872
:103B5000006800F4807028B92068006820F0080030
:103B600021680860206C10B12046216C884794F8C9
:103B70005C0000F01F0120208840384000287DD0E4
:103B8000DD492068884249D0DB49183120688842E5
:103B900044D0D9493031206888423FD0D649483195
:103BA000206888423AD0D44960312068884235D0B4
:103BB000D14978312068884230D0CF49903120688F
:103BC00088422BD0CC49A8312068884226D0C949E8
:103BD000A8392068884221D0C64990392068884297
:103BE0001CD0C44978392068884217D0C14960394F
:103BF0002068884212D0BF494839206888420DD0D9
:103C0000BC4930392068884208D0BA491839206840
:103C1000884203D0B7492068884204D120680068F0
:103C200000F0100003E02068006800F0020028B3F4
:103C300094F85C0000F01F0120208840B06094F8E8
:103C4000350004282DD12068006820F01600216876
:103C500008602068406920F0800021684861206C7D
:103C600008B9A06C28B12068006820F0080021681D
:103C7000086094F85C0000F01F0100E03FE03F2086
:103C80008840B060012084F8350000BF002084F82F
:103C9000340000BF206D10B12046216D8847BDE87B
:103CA000F88F2068006800F4802080B120680068E8
:103CB00000F4002028B9606C08B32046616C884786
:103CC0001DE0E06BD8B12046E16B884717E0206823
:103CD000006800F4807068B92068006820F0100067
:103CE00021680860012084F8350000BF002084F8B6
:103CF000340000BFE06B10B12046E16B8847606D77
:103D000000287AD0606D00F00100E8B3042084F848
:103D100035007949206888424BD0774918312068AE
:103D2000884246D0744930312068884241D0724977
:103D30004831206888423CD06F4960312068884211
:103D400037D06D4978312068884232D06A49903145
:103D5000206888422DD06849A8312068884228D040
:103D60006449A8392068884223D062499039206884
:103D700088421ED05F4978392068884219D05D4951
:103D800060392068884200E040E012D05949483943
:103D9000206888420DD0574930392068884208D0C1
:103DA000544918392068884203D052492068884213
:103DB00006D12068006820F001002168086005E055
:103DC0002068006820F001002168086000BF0098AA
:103DD000401C0090504500D905E02068006800F0C4
:103DE00001000028F3D100BF2068006800F0010046
:103DF00020B1032084F8350003E00DE0012084F8B1
:103E0000350000BF002084F8340000BFE06C0028BB
:103E100002D02046E16C8847D9E1384920688842C1
:103E200022D036491431206888421DD033492831C8
:103E30002068884218D031493C312068884213D02C
:103E40002E495031206888420ED02C4964312068B8
:103E5000884209D0294978312068884204D027490E
:103E60008C312068884201D1012000E00020002828
:103E7000D2D02068056894F85C0000F01F0104208F
:103E8000884000EA0900D8B305F00400C0B394F8F4
:103E90005C0000F01F0104208840C8F8040005F40D
:103EA000004080B105F4803030B9A06C0028B3D058
:103EB0002046A16C88478AE1206C0028ACD02046BF
:103EC000216C884783E105F02000E8BB0A4920689F
:103ED000884253D008491831206888424ED006499C
:103EE00030312068884249D00349483120688842EF
:103EF00044D006E0B80402401000024008540258C2
:103F00004FE0B44960312068884237D0B1497831F8
:103F10002068884232D0AF499031206888422DD045
:103F2000AC49A8312068884228D0AB492068884233
:103F300024D0A9491831206888421FD0A6493031C1
:103F4000206888421AD000E025E0A3494831206863
:103F5000884213D0A0496031206888420ED09E4923
:103F600078312068884209D09B4990312068884286
:103F700004D09949A8312068884206D12068006899
:103F800020F008002168086005E02068006820F043
:103F9000040021680860206C10B32046216C88471B
:103FA00015E194F85C0000F01F010220884000EA4F
:103FB0000900E8B305F00200D0B394F85C0000F00B
:103FC0001F0102208840C8F8040005F4004070B1C9
:103FD00005F4803028B9606C10B12046616C8847C8
:103FE000F5E0E06BF0B32046E16B8847EFE005F0C9
:103FF0002000C0BB7749206888424ED075491831EF
:104000002068884249D0734930312068884244D0C2
:1040100070494831206888423FD06E49603120683D
:1040200088423AD06B4978312068884235D000E028
:104030004EE068499031206888422ED06549A83109
:104040002068884229D064492068884225D0624986
:1040500018312068884220D05F493031206888427A
:104060001BD001E06EE02DE05B49483120688842BA
:1040700013D059496031206888420ED056497831B2
:104080002068884209D0544990312068884204D081
:104090005149A8312068884206D12068006820F084
:1040A00014002168086005E02068006820F00A001C
:1040B00021680860012084F8350000BF002084F8E2
:1040C000340000BFE06BE8B32046E16B88477EE038
:1040D00094F85C0000F01F010820884000EA090005
:1040E00080B305F0080068B33A49206888424BD095
:1040F000384918312068884246D036493031206826
:10410000884241D033494831206888423CD0314907
:1041100060312068884237D02E4978312068884243
:1041200032D02C499031206888422DD02949A831BD
:104130002068884228D028492068884224D026490F
:10414000183100E043E0206888421DD02249303118
:104150002068884218D0204948312068884213D00E
:104160001D496031206888420ED01B497831206893
:10417000884209D0184990312068884204D01649F5
:10418000A8312068884206D12068006820F01C0011
:104190002168086005E02068006820F00E002168B2
:1041A000086094F85C0000F01F0101208840C8F806
:1041B00004000120606584F8350000BF002084F809
:1041C000340000BFE06C10B12046E16C884700BFAE
:1041D00065E5000010000240100402402DE9F041A6
:1041E000044600F0DDFC804614B90120BDE8F081F2
:1041F000FE492068884249D0FC491831206888422D
:1042000044D0FA493031206888423FD0F7494831DC
:10421000206888423AD0F54960312068884235D01C
:10422000F24978312068884230D0F04990312068D6
:1042300088422BD0ED49A8312068884226D0EC492D
:104240002068884222D0EA491831206888421DD06F
:10425000E74930312068884218D0E5494831206864
:10426000884213D0E2496031206888420ED0E0498C
:1042700078312068884209D0DD4990312068884231
:1042800004D0DB49A8312068884201D1012000E038
:104290000020002873D0606A00B100BF022084F8BB
:1042A000350000BF002084F8340000BFCF492068EB
:1042B000884249D0CD4918312068884244D0CB4942
:1042C0003031206888423FD0C84948312068884250
:1042D0003AD0C64960312068884235D0C349783128
:1042E0002068884230D0C1499031206888422BD064
:1042F000BE49A8312068884226D0BD49206888423E
:1043000022D0BB491831206888421DD0B8493031CD
:104310002068884218D0B64948312068884213D0B6
:10432000B3496031206888420ED0B14978312068A5
:10433000884209D0AE4990312068884204D0AC4907
:10434000A8312068884206D12068006820F001006A
:104350002168086005E02068006820F001002168FD
:1043600008600DE000F01CFCA0EB0800052807D950
:1043700020206065032084F83500012036E76AE0DC
:104380002068006800F001000028EBD12068056873
:1043900098480540D4E9020108432169084361694E
:1043A0000843A1690843E1690843216A08430543BA
:1043B000606A042803D1D4E90B01084305438E4801
:1043C00000686FF30F00B0F1005F1DD3606829280B
:1043D00002D360682E2811D960683F2802D3606834
:1043E00042280BD96068472802D36068482805D95D
:1043F00060684F2804D36068522801D8012000E08B
:10440000002008B145F480152068056020684569E2
:1044100025F00705606A0543606A04280DD1A06A8B
:104420000543E06A48B12046FDF716FC28B140205C
:104430006065012084F83500D8E620684561204693
:10444000FDF7E6FA064694F85C0000F01F013F20F5
:104450008840B0609EE069492068884222D0674960
:104460001431206888421DD0644928312068884270
:1044700018D062493C312068884213D05F495031DE
:10448000206888420ED05D4964312068884209D096
:104490005A4978312068884204D058498C312068C4
:1044A000884201D1012000E00020E0B35349206898
:1044B000884222D051491431206888421DD04F498A
:1044C00028312068884218D04C493C312068884205
:1044D00013D04A495031206888420ED04749643190
:1044E0002068884209D0454978312068884204D044
:1044F00042498C312068884201D1012000E000202F
:1045000000B100BF022084F8350000BF002084F80D
:10451000340000BF2068056839480540A06840287D
:1045200002D1102106E02EE0A068802801D1C1014F
:1045300000E00021E06841EAD001206941EAD001B1
:10454000606941EAD001A06941EAD001E06941EA2D
:10455000D001206A41EA1010054320680560274910
:104560002068401A1421B0FBF1F08000E06520467D
:10457000FDF74EFA074694F85C0000F01F01012099
:104580008840786006E040206065032084F83500AC
:1045900001202BE61549206888427FD01349183145
:1045A000206888427AD0114930312068884275D01D
:1045B0000E4948312068884270D00C49603120682B
:1045C00088426BD0094978312068884266D0074913
:1045D00090312068884261D00449A831206888421F
:1045E0005CD003492068884258D00BE0100002409C
:1045F000100402403F8010FE0010005C0854025876
:104600000F00FEFF3B4918312068884246D03949E7
:1046100030312068884241D036494831206888428C
:104620003CD0344960312068884237D031497831F4
:104630002068884232D02F499031206888422DD09E
:104640002C49A8312068884228D02B49206888420C
:1046500024D029491431206888421FD026492831A6
:10466000206888421AD024493C312068884215D0FD
:10467000214950312068884210D01F496431206898
:1046800088420BD01C4978312068884206D01A49EC
:104690008C312068884200E000E001D1012000E078
:1046A000002000B32046FDF729FAA068802801D138
:1046B000002060602079216E0860D4E919104860FC
:1046C000606860B16068082809D82046FDF778FA6C
:1046D0000020E16E0860D4E91C10486003E000206F
:1046E000E0662067606700206065012084F835007F
:1046F00000207BE5100402400854025870B50446BF
:1047000000F04EFA06462546681C10B104480078B1
:10471000054400BF00F044FA801BA842FAD370BDE4
:1047200020000024F0B50C460021504B98E00126F3
:104730008E4006EA0402002A7ED04D4E8F0856F8BD
:1047400027508E07370F0F26BE403540494EB042E6
:1047500001D100262DE0484EB04201D1012628E0CB
:10476000464EB04201D1022623E0454EB04201D16F
:1047700003261EE0434EB04201D1042619E0424E0A
:10478000B04201D1052614E0404EB04201D10626C8
:104790000FE03F4EB04201D107260AE03D4EB04245
:1047A00001D1082605E03C4EB04201D1092600E0C7
:1047B0000A268F073F0FBE40AE421FD11E689643A8
:1047C0001E605E6896435E604FF0B0467668964322
:1047D0004FF0B0477E603E46366896433E608E0797
:1047E000370F0F2606FA07F5214E8F0856F8276077
:1047F000AE431F4F4FEA910C47F82C6006684FEA12
:10480000410C032707FA0CF73E430660CF0800F17E
:10481000200656F827604F074FEAD76C0F2707FA94
:104820000CF7BE434FEAD10C00F1200747F82C608B
:10483000C6684FEA410C00E011E0032707FA0CF7C5
:10484000BE43C660476801268E40B743476086680E
:104850004FEA410C032707FA0CF7BE438660491C58
:1048600024FA01F6002E7FF462AFF0BD80000058FC
:1048700008040058000002580004025800080258BA
:10488000000C025800100258001402580018025878
:10489000001C0258002002580024025810B504469B
:1048A000202C4AD100BF00BF00BF00BF00BF00BF27
:1048B00000BF00BF00BF00BF2021214800F05CF90D
:1048C000012800D110BD012210211E4800F05CF922
:1048D000002003E000BF00BF00BF401C0528F9DB3B
:1048E00000221021174800F04FF902230322164935
:1048F000164803F06DFA01221021124800F044F925
:104900001148007800041049497840EA01200E4916
:10491000897808430E490860084600680D49084038
:104920000B49086008460068001200B20A49088076
:104930000A480088401C0949088000BFC2E70000FF
:1049400000080258000002587E0000248C03002456
:104950007800002400FFFF007C0000248400002475
:1049600010B5044604480068204020B102480460A5
:104970002046FFF793FF10BD88000058F8B50246A7
:104980000B4600216F4DD7E001278F401E6806EAD5
:104990000704002C72D01E7906F00306012E04D005
:1049A0001E7906F00306022E13D190684F000326ED
:1049B000BE40B0434F00DE68BE4030439060506858
:1049C00001268E40B0431E79C6F300168E40304358
:1049D00050601E7906F00306032E09D0D0684F0000
:1049E0000326BE40B0434F009E68BE403043D060B7
:1049F0001E7906F00306022E13D1CF0802F120061D
:104A000056F827004E07F70E0F26BE40B0434F075B
:104A1000FF0E1E69BE403043CF0802F1200646F863
:104A2000270010684F000326BE40B0431E7906F0F1
:104A300003064F00BE40304310605E6806F4403607
:104A4000002E78D000BF404E366846F002063E4F3A
:104A50003E603E46366806F00206009600BF00BF84
:104A60003A4E8F0856F827008E07370F0F26BE40A4
:104A7000B043374EB24202D100262EE05BE0354E05
:104A8000B24201D1012628E0334EB24201D10226C2
:104A900023E0324EB24201D103261EE0304EB24234
:104AA00001D1042619E02F4EB24201D1052614E0AF
:104AB0002D4EB24201D106260FE02C4EB24201D15A
:104AC00007260AE02A4EB24201D1082605E0294E07
:104AD000B24201D1092600E00A268F073F0FBE40EF
:104AE00030431A4E8F0846F827004FF0B046306822
:104AF000A0435E6806F4801606B120434FF0B0462E
:104B000030607068A0435E6806F4001606B120436A
:104B10004FF0B04670606868A0435E6806F40036E7
:104B200006B1204368602868A0435E6806F48036BA
:104B300006B120432860491C1E68CE40002E7FF439
:104B400023AFF8BD80000058F44402580804005810
:104B5000000002580004025800080258000C0258D5
:104B6000001002580014025800180258001C025885
:104B70000020025800240258024613690B400BB172
:104B8000012000E0002070470AB1816101E00B04C0
:104B90008361704701480068000C70470010005C9A
:104BA00001480068704700001800002403480068AE
:104BB0000349097808440149086070471800002437
:104BC0002000002410B5032000F042F902F014F890
:104BD00010490968C1F303210F4A515C01F01F011C
:104BE00020FA01F40B48006800F00F001146085C41
:104BF00000F01F0024FA00F008490860084804602B
:104C00000F2000F00FF808B1012010BD00F09AF855
:104C10000020FAE7184402580AE700082800002498
:104C20002400002470B504461148007808B901201A
:104C300070BD0F4800784FF47A71B1FBF0F00D4968
:104C40000968B1FBF0F5284603F034FC08B10120F7
:104C5000EEE7102C07D200222146501E00F0BAF8D1
:104C60000548046001E00120E2E70020E0E70000E1
:104C700020000024240000241C0000244178154A50
:104C800011600178F9B1121D41681160017B0907BB
:104C9000C27A41EA0261827A41EAC241427B41EA38
:104CA0008241827B41EA4241C27B41EA0241427A2F
:104CB00041EA0221027A41EA420102781143054A9F
:104CC0000832116005E00021024A121D1160121D18
:104CD0001160704798ED00E000BF00BF00BFBFF358
:104CE0005F8F00BF00BF00BF0548006820F4803020
:104CF00003490860002002497031086070470000D5
:104D000024ED00E040F001010D4A11600C497039BA
:104D1000096841F480310A4A703A116000BF00BF4F
:104D200000BFBFF34F8F00BF00BF00BF00BF00BF79
:104D300000BFBFF36F8F00BF00BF00BF7047000010
:104D400094ED00E008B500BF0648006840F002009E
:104D5000044908600846006800F00200009000BFA7
:104D600000BF08BDF444025810B5014608460028AB
:104D700017DB00F01F0301229A400B4B440943F854
:104D8000242000BF00BF00BFBFF34F8F00BF00BF94
:104D900000BF00BF00BF00BFBFF36F8F00BF00BFE9
:104DA00000BF00BF10BD000080E100E001460846E2
:104DB00000280DDB00BF00BF00F01F0301229A4056
:104DC00043099B0003F1E023C3F8002100BF00BFAB
:104DD00000BF70472DE9F05F80460D46164608F08B
:104DE0004DF8074639462A46334601F00700C0F120
:104DF000070ABAF1040F02D94FF0040A01E0C0F12A
:104E0000070AD14600F1040ABAF1070F02D24FF0A7
:104E1000000A01E0A0F1030AD4464FF0010A0AFAA1
:104E200009FAAAF1010A0AEA020A0AFA0CFA4FF090
:104E3000010B0BFA0CFBABF1010B0BEA030B4AEA7B
:104E40000B042146404608F021F8BDE8F09F000021
:104E500000BF00F00702064B19684FF6FF03194028
:104E6000044B0B4343EA0221014B196000BF70471A
:104E70000CED00E00000FA0570B504461548006826
:104E8000C0F3800048B91348006800F00700A04252
:104E900001D0012070BD0020FCE70E48006820F022
:104EA000070020430B490860FFF77AFE054607E03C
:104EB000FFF776FE401BB0F57A7F01D90120E9E7C4
:104EC000044808380068C0F340300028F0D00020C3
:104ED000E0E700000C48025810B501F043FE054918
:104EE0000968C1F30211044A515C01F01F01C84076
:104EF00010BD0000204402580AE7000870B50146C2
:104F0000844D2D6805F00303824D2D68C5F305100F
:104F1000804D2D1D2D6805F001047E4D0C352D684A
:104F2000C5F3CC0515FB04F501EE105AB8EE411A95
:104F3000F0EE410A00286FD023B1012B4ED0022B96
:104F40006BD16BE0734D283D2D68C5F340153DB323
:104F5000704D283D2D68C5F3C1066F4D25FA06F248
:104F600001EE102AF8EE411A01EE100AB8EE411ACD
:104F700081EE812A9FED691AC0EE811A654D0835D0
:104F80002D68C5F3080501EE105AB8EE411A31EE4E
:104F9000811AF7EE001A31EE211A22EE010A1CE006
:104FA00001EE100AB8EE411ADFED5D1A81EE812A9A
:104FB0009FED5A1AC0EE811A564D08352D68C5F37B
:104FC000080501EE105AB8EE411A31EE811AF7EEDB
:104FD000001A31EE211A22EE010A5BE001EE100AFE
:104FE000B8EE411ADFED4F1A81EE812A9FED4B1A80
:104FF000C0EE811A474D08352D68C5F3080501EE4E
:10500000105AB8EE411A31EE811AF7EE001A31EE5D
:10501000211A22EE010A3DE077E01DE001EE100AC0
:10502000B8EE411A9FED402AC2EE011A9FED3B1ADD
:1050300080EE812A374D08352D68C5F3080501EE4D
:10504000105AB8EE411A32EE011AB7EE002A31EECC
:10505000021A21EE810A1DE001EE100AB8EE411A93
:10506000DFED2F1A81EE812A9FED2C1AC0EE811AF6
:10507000284D08352D68C5F3080501EE105AB8EE25
:10508000411A31EE811AF7EE001A31EE211A22EEA2
:10509000010A00BF00BF1F4D08352D68C5F3462526
:1050A00001EE105AB8EE411AF7EE001A31EE211A4D
:1050B000C0EE011ABCEEE11A81ED001A154D08355B
:1050C0002D68C5F3064501EE105AB8EE411AF7EE09
:1050D000001A31EE211AC0EE011ABCEEE11A81ED80
:1050E000011A0C4D08352D68C5F3066501EE105AFE
:1050F000B8EE411AF7EE001A31EE211AC0EE011A8D
:10510000BCEEE11A81ED021A03E000250D604D604E
:105110008D6070BD284402580090D0030000004606
:105120000024744C0024744A001BB74B70B5014630
:10513000844D2D6805F00303824D2D68C5F30530BD
:10514000804D2D1D2D68C5F300147E4D14352D683E
:10515000C5F3CC0515FB04F501EE105AB8EE411A63
:10516000F0EE410A00286FD023B1012B4ED0022B64
:105170006BD16BE0734D283D2D68C5F340153DB3F1
:10518000704D283D2D68C5F3C1066F4D25FA06F216
:1051900001EE102AF8EE411A01EE100AB8EE411A9B
:1051A00081EE812A9FED691AC0EE811A654D103596
:1051B0002D68C5F3080501EE105AB8EE411A31EE1C
:1051C000811AF7EE001A31EE211A22EE010A1CE0D4
:1051D00001EE100AB8EE411ADFED5D1A81EE812A68
:1051E0009FED5A1AC0EE811A564D10352D68C5F341
:1051F000080501EE105AB8EE411A31EE811AF7EEA9
:10520000001A31EE211A22EE010A5BE001EE100ACB
:10521000B8EE411ADFED4F1A81EE812A9FED4B1A4D
:10522000C0EE811A474D10352D68C5F3080501EE13
:10523000105AB8EE411A31EE811AF7EE001A31EE2B
:10524000211A22EE010A3DE077E01DE001EE100A8E
:10525000B8EE411A9FED402AC2EE011A9FED3B1AAB
:1052600080EE812A374D10352D68C5F3080501EE13
:10527000105AB8EE411A32EE011AB7EE002A31EE9A
:10528000021A21EE810A1DE001EE100AB8EE411A61
:10529000DFED301A81EE812A9FED2C1AC0EE811AC3
:1052A000284D10352D68C5F3080501EE105AB8EEEB
:1052B000411A31EE811AF7EE001A31EE211A22EE70
:1052C000010A00BF00BF1F4D10352D68C5F34625EC
:1052D00001EE105AB8EE411AF7EE001A31EE211A1B
:1052E000C0EE011ABCEEE11A81ED001A154D103521
:1052F0002D68C5F3064501EE105AB8EE411AF7EED7
:10530000001A31EE211AC0EE011ABCEEE11A81ED4D
:10531000011A0C4D10352D68C5F3066501EE105AC3
:10532000B8EE411AF7EE001A31EE211AC0EE011A5A
:10533000BCEEE11A81ED021A03E000250D604D601C
:105340008D6070BD284402580090D00300000046D4
:105350000024744C0024744A001BB74B70B50146FE
:10536000844D2D6805F00303824D2D68C5F305506B
:10537000804D2D1D2D68C5F300247E4D1C352D68F4
:10538000C5F3CC0515FB04F501EE105AB8EE411A31
:10539000F0EE410A00286FD023B1012B4ED0022B32
:1053A0006BD16BE0734D283D2D68C5F340153DB3BF
:1053B000704D283D2D68C5F3C1066F4D25FA06F2E4
:1053C00001EE102AF8EE411A01EE100AB8EE411A69
:1053D00081EE812A9FED691AC0EE811A654D18355C
:1053E0002D68C5F3080501EE105AB8EE411A31EEEA
:1053F000811AF7EE001A31EE211A22EE010A1CE0A2
:1054000001EE100AB8EE411ADFED5D1A81EE812A35
:105410009FED5A1AC0EE811A564D18352D68C5F306
:10542000080501EE105AB8EE411A31EE811AF7EE76
:10543000001A31EE211A22EE010A5BE001EE100A99
:10544000B8EE411ADFED4F1A81EE812A9FED4B1A1B
:10545000C0EE811A474D18352D68C5F3080501EED9
:10546000105AB8EE411A31EE811AF7EE001A31EEF9
:10547000211A22EE010A3DE077E01DE001EE100A5C
:10548000B8EE411A9FED402AC2EE011A9FED3B1A79
:1054900080EE812A374D18352D68C5F3080501EED9
:1054A000105AB8EE411A32EE011AB7EE002A31EE68
:1054B000021A21EE810A1DE001EE100AB8EE411A2F
:1054C000DFED301A81EE812A9FED2C1AC0EE811A91
:1054D000284D18352D68C5F3080501EE105AB8EEB1
:1054E000411A31EE811AF7EE001A31EE211A22EE3E
:1054F000010A00BF00BF1F4D18352D68C5F34625B2
:1055000001EE105AB8EE411AF7EE001A31EE211AE8
:10551000C0EE011ABCEEE11A81ED001A154D1835E6
:105520002D68C5F3064501EE105AB8EE411AF7EEA4
:10553000001A31EE211AC0EE011ABCEEE11A81ED1B
:10554000011A0C4D18352D68C5F3066501EE105A89
:10555000B8EE411AF7EE001A31EE211AC0EE011A28
:10556000BCEEE11A81ED021A03E000250D604D60EA
:105570008D6070BD284402580090D00300000046A2
:105580000024744C0024744A001BB74B2DE9F041F1
:105590008AB00646B6F5807F70D1FE48006800F0FC
:1055A0000708B8F1050F65D2DFE808F003122162A1
:1055B0003000F8485038006800F00070B0F1007F0B
:1055C00004D107A8FFF79AFC089C00E0002453E0F0
:1055D000F0485038006800F00060B0F1006F04D16E
:1055E00004A8FFF7A3FD049C00E0002444E0E94880
:1055F0005038006800F00050B0F1005F04D101A8FD
:10560000FFF7ACFE019C00E0002435E0E148001FFC
:10561000006800F04055DF485038006800F0040092
:10562000042809D145B9DB4850380068C0F3C101EE
:10563000D94820FA01F41AE0D6485038006800F43E
:105640008070B0F5807F04D1B5F1805F01D1D34C7B
:105650000DE0D0485038006800F40030B0F5003F4D
:1056600004D1B5F1005F01D1CD4C00E0002403E08E
:10567000CC4C01E0002400BF24E3FFE7B6F5007F37
:105680007AD1C448006800F4E078B8F1800F2CD0DB
:1056900006DCB8F1000F0AD0B8F1400F69D115E06F
:1056A000B8F1C00F63D0B8F5807F62D12CE0B94863
:1056B0005038006800F00070B0F1007F04D107A8F6
:1056C000FFF71CFC089C00E0002454E0B14850386F
:1056D000006800F00060B0F1006F04D104A8FFF78B
:1056E00025FD049C00E0002445E0AA4850380068ED
:1056F00000F00050B0F1005F04D101A8FFF72EFECA
:10570000019C00E0002436E0A248001F006800F081
:105710004055A0485038006800F00400042809D122
:1057200045B99C4850380068C0F3C1019A4820FA36
:1057300001F41BE097485038006800F48070B0F521
:10574000807F04D1B5F1805F01D1944C0EE0914887
:105750005038006800F40030B0F5003F05D1B5F1D5
:10576000005F02D18E4C01E006E0002403E08D4C86
:1057700001E0002400BFA5E2B6F5806F7BD185482B
:105780000830006800F46008B8F5800F2CD006DC03
:10579000B8F1000F0AD0B8F5001F69D115E0B8F5CF
:1057A000C00F63D0B8F5000F62D12CE079485038B3
:1057B000006800F00070B0F1007F04D107A8FFF787
:1057C0009DFB089C00E0002454E0724850380068BB
:1057D00000F00060B0F1006F04D104A8FFF7A6FC50
:1057E000049C00E0002445E06A485038006800F05E
:1057F0000050B0F1005F04D101A8FFF7AFFD019C9C
:1058000000E0002436E06348001F006800F04055C7
:1058100060485038006800F00400042809D145B9F8
:105820005C4850380068C0F3C1015B4820FA01F4BD
:105830001BE058485038006800F48070B0F5807F55
:1058400004D1B5F1805F01D1544C0EE0514850387D
:10585000006800F40030B0F5003F05D1B5F1005FFD
:1058600002D14F4C01E006E0002403E04D4C01E082
:10587000002400BF26E2B6F5006F7BD14548083012
:10588000006800F0E068B8F1007F2CD006DCB8F1C9
:10589000000F0AD0B8F1807F69D115E0B8F1407FE0
:1058A00063D0B8F1806F62D12CE03A48503800687C
:1058B00000F00070B0F1007F04D107A8FFF71EFBD5
:1058C000089C00E0002454E032485038006800F0A2
:1058D0000060B0F1006F04D104A8FFF727FC049C1E
:1058E00000E0002445E02B485038006800F00050EC
:1058F000B0F1005F04D101A8FFF730FD019C00E08A
:10590000002436E02348001F006800F0405521487D
:105910005038006800F00400042809D145B91D483A
:1059200050380068C0F3C1011B4820FA01F41BE0A5
:1059300018485038006800F48070B0F5807F04D1BA
:10594000B5F1805F01D1154C0EE012485038006867
:1059500000F40030B0F5003F05D1B5F1005F02D191
:105960000F4C01E006E0002403E00E4C01E00024AF
:1059700000BFA7E1B6F5805F7CD10648006800F45F
:10598000E047B7F5005F32D00EDCA7B1B7F5805F16
:105990006DD11EE0504402580090D00300093D0034
:1059A00000366E010080BB00B7F5405F5DD0B7F5F3
:1059B000804F5CD129E0C548006800F00070B0F16C
:1059C000007F04D107A8FFF799FA089C00E00024A3
:1059D0004FE0BE48006800F00060B0F1006F04D1F5
:1059E00004A8FFF7A3FB049C00E0002441E0B748B3
:1059F000006800F00050B0F1005F04D101A8FFF78B
:105A0000ADFC019C00E0002433E0B0484C3000685D
:105A100000F04055AD48006800F00400042808D1AB
:105A20003DB9AA480068C0F3C101A94820FA01F4B1
:105A30001AE0A648006800F48070B0F5807F04D1B9
:105A4000B5F1805F01D1A34C0EE0A048006800F4DE
:105A50000030B0F5003F06D1B5F1005F03D19E4C98
:105A600002E007E003E0002403E09C4C01E0002496
:105A700000BF27E1B6F5002F59D19448583000688F
:105A800000F4403737B1B7F5803F11D0B7F5003F8C
:105A90004AD11BE08D48006800F00060B0F1006F53
:105AA00004D104A8FFF742FB049C00E000243DE081
:105AB0008648006800F00050B0F1005F04D101A8F2
:105AC000FFF74CFC039C00E000242FE07F484C30A3
:105AD000006800F040557D48006800F0040004288C
