:020000040800F2
:10000000C0380024AD0200081DA90008B70200088E
:10001000DFA70008F11000088DDE000800000000D6
:1000200000000000000000000000000061CB00089C
:10003000452100080000000075A90008CDCE000889
:10004000C7020008C7020008C702000859B5000827
:10005000C7020008C7020008C5250008C70200083B
:10006000C7020008C7020008C7020008C917000835
:10007000D5170008E1170008ED170008C7020008AF
:10008000C7020008C7020008C7020008C70200082C
:10009000C7020008C7020008C7020008C70200081C
:1000A000C7020008C7020008C7020008C70200080C
:1000B00071D10008C7020008C7020008C702000883
:1000C000C7020008C7020008C702000871C900087B
:1000D000C702000861DD0008C7020008C702000867
:1000E000C7020008CDB3000800000000C7020008E6
:1000F000C7020008C7020008C7020008C7020008BC
:10010000C702000891B60008C7020008C70200082D
:10011000C7020008C7020008C7020008C70200089B
:10012000C7020008C7020008F917000805180008F0
:10013000C7020008C7020008C7020008C70200087B
:1001400000000000000000000000000000000000AF
:10015000C7020008C7020008C7020008C70200085B
:10016000C7020008C7020008C7020008C70200084B
:10017000C7020008C7020008C7020008000000000C
:10018000C7020008C7020008C7020008D1D2000851
:10019000C7020008C7020008C7020008C70200081B
:1001A000C7020008C7020008C7020008C70200080B
:1001B00041B10008C7020008C7020008C7020008D2
:1001C000C7020008C7020008C7020008C7020008EB
:1001D000C7020008C7020008C7020008C7020008DB
:1001E000C7020008C7020008C7020008C7020008CB
:1001F000C7020008C7020008C7020008C7020008BB
:10020000C7020008C7020008C7020008C7020008AA
:10021000C7020008C7020008C7020008C70200089A
:10022000C7020008C7020008619D00080000000026
:10023000C7020008C702000800000000C70200084B
:10024000C7020008C7020008C7020008C70200086A
:10025000C7020008C7020008C7020008C70200085A
:10026000C7020008C7020008C7020008C70200084A
:10027000C7020008C7020008C7020008000000000B
:10028000C7020008C7020008C702000800000000FB
:1002900000000000C7020008DFF80CD000F04CFCA2
:1002A00000480047894E0108C038002406488047AE
:1002B00006480047FEE7FEE7FEE7FEE7FEE7FEE74B
:1002C000FEE7FEE7FEE7FEE789D000089902000896
:1002D0002DE9F05F0546002092469B46884606467B
:1002E000814640241BE0284641464746224600F00E
:1002F000D3FA53465A46C01A914110D311461846B4
:10030000224600F016F82D1A67EB01084F462246E8
:100310000120002100F00DF817EB00094E41201ECE
:10032000A4F10104DFDC484631462A464346BDE8D5
:10033000F09F202A04DB203A00FA02F100207047E7
:100340009140C2F1200320FA03F319439040704713
:10035000202A06DBCB17203A41FA02F043EAE07389
:1003600006E041FA02F3D040C2F120029140084376
:100370001946704710B5431A934209D2831888185A
:1003800003E010F8011D03F8011D521EF9D210BD43
:1003900040EA01039B0703D009E008C9121F08C007
:1003A000042AFAD203E011F8013B00F8013B521E87
:1003B000F9D210BDD2B201E000F8012B491EFBD2E8
:1003C00070470022F6E710B513460A460446194660
:1003D000FFF7F0FF204610BD30B50446002003466D
:1003E00000E05B1C934203D2E05CCD5C401BF8D084
:1003F00030BD2DE9FE4F804681EA0300C00F0C4658
:10040000009021F0004123F00045B8EB0200A94123
:1004100005D24046214690461C460B46024623F034
:100420000040104347D0270DC7F30A00C3F30A5119
:100430000290401A019040286BDAC3F3130040F495
:10044000801B0098924620B10023D2EB030A63EB95
:100450000B0B01985946C0F140025046FFF769FF67
:1004600006460D4650465946019AFFF771FF10EBBC
:1004700008006141002487EA115284EAE7731A43B5
:1004800040D0009A62B3019A012A4FEA075215DC64
:10049000001B61EB02014FF0004202EA0752CDE976
:1004A0000042001C41F5801132462B4600F04AFA0A
:1004B00003B0BDE8F08F40462146F9E7001B61EB31
:1004C0000201001C41F5801300185B412018A2F5C1
:1004D000001747EB030140EAD570B6196D4111E0F2
:1004E0006D084FEA360645EAC0754FEA0752001B11
:1004F00061EB0201001C41F5801149084FEA300010
:100500000019514132462B4603B0BDE8F04F00F0D0
:100510000ABA0098012240000023D0EB020263EBEC
:10052000E073009821464FEAE074B8EB000061EBFD
:100530000401E9E783F000435BE781F0004158E7FD
:100540002DE9FE4F81EA030404F0004421F000414C
:1005500000944FF0000B23F0004350EA01045ED0FA
:1005600052EA03045BD0C3F30A54C1F30A552C4486
:10057000A4F2F3340194A0FB0254C1F3130141F43B
:100580008011C3F3130343F4801301FB024400FB07
:10059000034E840A970A44EA815447EA8357A4FB2E
:1005A000076802958D0A05FB07854FEA932C04FB2B
:1005B0000C542705029D4FEA065847EA1637B5EB5B
:1005C00008056EEB070C870E920E47EA811742EA88
:1005D0008312A7FB0201B6EB0B0164EB00042B0DA9
:1005E00043EA0C335E1844EB1C50DA465146E7FBF5
:1005F0000201C5F313044FEA0B3343EA14534FEAE5
:100600000432019C43EA0603A4F10C040294009C0A
:10061000CDE900B400F096F903B0BDE8F08F0020FA
:100620000146F9E72DE9F04D81EA030404F0004B9F
:1006300021F0004514464FF0000A23F0004150EA33
:10064000050220D054EA01021DD0C5F30A57024624
:10065000C5F31303C1F31300C1F30A5640F4801528
:1006600043F48013A7EB0608101BD64608F2FD38AA
:1006700073EB050002D308F1010801E092185B4119
:10068000B8F1000F03DA00200146BDE8F08D00202C
:100690004FF48011064684460EE0171B73EB0507E6
:1006A00005D3121B63EB050306434CEA010C490812
:1006B0004FEA300092185B4150EA0107EDD152EA4F
:1006C000030012D082EA040083EA0501084305D042
:1006D000101BAB4106D20122002306E000224FF09E
:1006E000004302E06FF0010253101AEB06004CEBDE
:1006F000085110EB0A0041EB0B01BDE8F04D00F092
:1007000012B90EB5C10F80EAE0700844CA07002193
:1007100040F233438DE80E000A460B4600F012F912
:1007200003B000BD0EB540F2334102910021CDE986
:1007300000110A460B4600F005F903B000BD70B584
:10074000C1F30A5201F000450024C1F3130140F245
:10075000FF3341F480119A4201DA002070BD40F26B
:1007600033439A42A2F2334203DC524200F094F83F
:1007700000E090402C43F1D0404270BDC1F30A52DA
:1007800010B5C1F3130140F2FF3341F480119A42D6
:1007900001DA002010BD40F233439A42A2F2334204
:1007A00003DC524200F078F810BD904010BD00F01C
:1007B000004230F000400AD0C10D01F56071C0F375
:1007C000160042EA0151C208400711437047002059
:1007D0000146704730B5041E71F1000404DB4FF090
:1007E0000044404264EB0101141E73F1000405DB78
:1007F0001C464FF00043524263EB04038B4208BF98
:10080000824230BD30B5041E71F1000404DB4FF0AC
:100810000044404264EB0101141E73F1000405DB47
:100820001C464FF00043524263EB0403994208BF59
:10083000904230BD01F0004330B421F0004150EA55
:10084000010206D00A0DA2F56072C1F31301002A5D
:1008500002DC30BC00207047440F44EAC104C100F0
:10086000E01830BC00EBC25000F026B830B50B46A3
:10087000014600202022012409E021FA02F59D42D0
:1008800005D303FA02F5491B04FA02F52844151EA4
:10089000A2F10102F1DC30BD202A04DB203A21FA6A
:1008A00002F00021704721FA02F3D040C2F1200289
:1008B00091400843194670470029A8BF7047401C63
:1008C000490008BF20F00100704710B4B0FA80FC66
:1008D00000FA0CF050EA010404BF10BC704749B1A3
:1008E000CCF1200421FA04F411FA0CF118BF012113
:1008F00021430843A3EB0C01CB1D4FEA00614FEAF3
:10090000102042BF002010BC704700EBC3501044C1
:100910000029A4BF10BC7047401C490008BF20F04C
:10092000010010BC704710B5141E73F1000408DA02
:10093000401C41F1000192185B411A4301D120F0A3
:10094000010010BD2DE9F04D92469B4611B1B1FA60
:1009500081F202E0B0FA80F220329046FFF7E9FC23
:1009600004460F4640EA0A0041EA0B0153465A4644
:10097000084313D0114653EA010019D0C8F14002D0
:100980005046FFF789FF05460E46504659464246F7
:10099000FFF7CFFC084305D0012004E0204639468C
:1009A000BDE8F08D0020054346EAE0762C4337434E
:1009B0000A986305E40AA0EB08000022FD0A44EA55
:1009C00047540A3002D500200146E9E70105101915
:1009D0006941DDE9084500196941BDE8F04DA2E72C
:1009E00070B521F0004303430CD0C1F30A55002435
:1009F000D5EB040564EB0403D617AD1AB34102DB53
:100A00000020014670BD201841EB025170BD2DE958
:100A1000F04D00231A461B1A8A4103DB00200146D1
:100A2000BDE8F08DC1F30A52C1F3130141F4801502
:100A30004FF0000BD10702D100186D41521E002764
:100A4000044640F2FF11384601EB620A3E468046FA
:100A5000024600204FF48011FFF71EFFC2197141BA
:100A6000BB1846EB0100B4EB030C75EB000C04D390
:100A7000E41A65EB000517460E46241908F101003B
:100A80006D4180463428E3DDF91946EB0600091B69
:100A9000A84103D24FF0FF32134601E00022134673
:100AA0001BEB070046EB0A51BDE8F04DFFF73BBFDB
:100AB0002DE9F041054621F000400C46284309D0BD
:100AC000C4F30A5040F23341884205DD28462146EE
:100AD000BDE8F0812846FBE740F2FE31884210DC99
:100AE0000CDB4FEA043040EA155050EA053105D0DE
:100AF000104804F0004101430020E9E700200146CE
:100B0000E6E7A0F233404642C6F1400228462146BD
:100B1000FFF70FFC07468846284621463246FFF776
:100B2000BBFE43463A46FFF7FEFE3246BDE8F041C3
:100B3000FFF7FFBB0000F03F064C074D06E0E06802
:100B400040F0010394E8070098471034AC42F6D314
:100B5000FFF7A6FB1C7404083C74040870B58D18DC
:100B600010F8014B14F0030201D110F8012B2311EE
:100B700006D110F8013B03E010F8016B01F8016B9E
:100B8000521EF9D1ABB110F8012B04F00C048A1AF3
:100B90000C2C03D0A2EB84129B1C08E010F8014B34
:100BA000A2EB0422F8E712F8014B01F8014B5B1E9F
:100BB000F9D5A942D4D3002070BD000070B52DED49
:100BC000028B02204FF4C04114F024FD7D490860DF
:100BD0004FF4C041FFF7F5FB02204FF4C04114F081
:100BE00019FD794908604FF4C041FFF7EAFB012085
:100BF0004FF4E42114F00EFD744908604FF4E42131
:100C0000FFF7DFFB01204FF4E42114F003FD7049EE
:100C100008604FF4E421FFF7D4FB01204FF480413A
:100C200014F0F8FC6B4908604FF48041FFF7C9FBF2
:100C30006848006809F028F801204FF4804114F05A
:100C4000E9FC654908604FF48041FFF7BAFB624850
:100C5000006809F04FF8614C0120214614F0DAFCDD
:100C60005F4A10602146FFF7ACFB01204FF408619A
:100C700014F0D0FC5B4908604FF40861FFF7A1FB5A
:100C800059484FF4C041FFF79CFB58484FF4C0410E
:100C9000FFF797FB01204FF4343114F0BBFC5449AB
:100CA00008604FF43431FFF78CFB01204FF43431EE
:100CB00014F0B0FC4F4908604FF43431FFF781FB6A
:100CC00001204FF4B42114F0A5FC4B4908604FF407
:100CD000B421FFF776FB01204FF4C04114F09AFCD9
:100CE000464C20604FF4C041FFF76BFB9FED448AF8
:100CF0002068B0EE480A08F085FF00204FF4C0419C
:100D000014F088FC3F4C20604FF4C041FFF759FBC2
:100D10002068B0EE480A08F053FE3B48F7EE000AA0
:100D200090ED000A30EE200AF3EE080A20EE200AC9
:100D300010EE100AFFF73BFD41EC100B0DF0F0F840
:100D400051EC100BFFF71AFD304C2070304E31493A
:100D5000314D307809780844287030480078FFF722
:100D6000E1FC41EC100B0DF04BFB51EC100BFFF7CD
:100D700005FD2B49C0B20870317810FB01F02949FC
:100D80000880C0082849088028492878097810FB7D
:100D900001F0217800FB01F02549086000F5C04012
:100DA0002449086000204FF4807114F033FC22497C
:100DB00008604FF48071BDEC028BBDE87040FFF716
:100DC00000BB0000DC110024E0110024E811002425
:100DD000E4110024EC110024F0110024FE2F030084
:100DE000D8110024D411002400000038006000381D
:100DF000FC110024F8110024001200240412002425
:100E00006F12833DF4110024DC0100240812002439
:100E1000E1010024E201002409120024E001002481
:100E20000A1200240C1200240E120024DA010024FD
:100E3000101200241412002418120024704700001D
:100E40000146014806F012BFF813002410B504480B
:100E500006F01EFF042801D0012010BD002010BDA7
:100E6000F813002410B500240F490E480860022032
:100E7000486100208860486008614FF48040C86085
:100E800000F014F8012801D0022010BD064800210E
:100E900000F014F8044807F0A7F800B10124204638
:100EA00010BD000000700052F813002481B0012032
:100EB000009000909DF8000001B070474DF804EDDF
:100EC00087B02548016841F480310160006800F472
:100ED000803001902148016841F002010160016801
:100EE00001F002010191016841F004010160016813
:100EF00001F004010191016841F0080101600068FE
:100F000000F00800019002200390002004900320CC
:100F100005900C2006904FF4F8500290104802A95A
:100F200003F060FA042002900E4802A903F05AFA76
:100F30000D48016841F480310160016821F480317D
:100F4000016000220521312003F0FAFD312003F079
:100F5000E8FD07B05DF804FBD4440258E0440258B1
:100F600000080258000C02587C44025810B5134681
:100F70000A460146034807F0FFF808B1012010BDFA
:100F8000002010BDF813002401490120886070473B
:100F90001013002410B513460A460146034807F013
:100FA0006DF908B1012010BD002010BDF813002418
:100FB0000149012048607047101300240000000020
:100FC0002DE9FF5F82468B461F462DED048B0025E1
:100FD0000698B0FBF7F0A84235D9A7F101099FEDBB
:100FE0001C9B00260024002F26D907FB05F820466D
:100FF000FFF798FB41EC110BB0EE490AF0EE690ADD
:101000000DF07EFA0AEB0400B0EE408AF0EE608A42
:1010100018F80000FFF786FB53EC182BFFF790FA47
:10102000FFF7ACFB304486B24C4501D10BF80560AC
:10103000601C84B2BC42DAD3681C85B20698B0FB4F
:10104000F7F0A842CDD8BDEC048B04B0BDE8F09F0A
:1010500000000000000000402DE9FF5F82468B4643
:101060001D462DED048B00260698B0FBF5F0B0422E
:1010700033D9A5F101099FED1C9B00270024002D09
:1010800025D905FB06582046FFF74CFB41EC110B18
:10109000B0EE490AF0EE690A0DF032FAA8EB04004E
:1010A0005044B0EE408AF0EE608A10F8010CFFF771
:1010B00039FB53EC182BFFF743FAFFF75FFB0744AC
:1010C0004C4501D10BF80670641CAC42DBD3761C96
:1010D0000698B0FBF5F0B042CFD8BDEC048B04B05D
:1010E000BDE8F09F0000000000000000000000408C
:1010F000FEE7000070B4204D286810F4003F4FF068
:10110000000011D1BFF34F8FBFF36F8F1B490860F1
:10111000BFF34F8FBFF36F8F296841F4003129600F
:10112000BFF34F8FBFF36F8F296811F4803F21D138
:1011300013490860BFF34F8F081F0068C0F34E3C8F
:10114000104A43F6FF76C0F3C904204606EA4C1164
:1011500041EA80731360401EFAD2BCF1010CF4D254
:10116000BFF34F8F286840F480302860BFF34F8F63
:10117000BFF36F8F70BC704714ED00E050EF00E0DC
:1011800084ED00E060EF00E02DE9F05F06460D46DB
:1011900000204FF4006114F03DFA04464FF4006162
:1011A0002046FFF70EF92A4631462046FFF7E2F8BF
:1011B000C84904222046FFF70FF9DFF81CA30127D6
:1011C000DFF8188300284FF0000940F061816019B2
:1011D000C349801E0222FFF7FFF8002840F0588123
:1011E0002079C04E012802D0F0B100F051B96179E8
:1011F000A07900EB0122CAF80020A5F10900824283
:101200000BD1B948E11D0068FFF7B4F888F8007009
:10121000B648C0F8009000F03BB9082106F1530031
:101220000CF020FE00F034B9B1490122601DFFF737
:10123000D3F800287ED0DFF8B8B20122601D0BF190
:101240000101FFF7C9F8002875D00122601D0BF1DC
:101250000201FFF7C1F800286ED00122601D0BF1DA
:101260000301FFF7B9F8002867D00122601D0BF1D8
:101270000401FFF7B1F8002876D00122601D0BF1C0
:101280000501FFF7A9F800286FD00122601D0BF1BE
:101290000601FFF7A1F800287CD00122601D0BF1A8
:1012A0000701FFF799F800286FD00122601D0BF1AC
:1012B0000801FFF791F8002868D00122601D0BF1AA
:1012C0000A01FFF789F800287DD00122601D0BF18B
:1012D0000B01FFF781F8002845D00122601D0BF1BA
:1012E0000C01FFF779F800286ED00122601D0BF188
:1012F0000D01FFF771F8002867D00122601D0BF186
:101300000E01FFF769F8002871D00122601D0BF172
:101310000F01FFF761F800286AD00122601D0BF170
:101320001001FFF759F8002874D00122601D0BF15D
:10133000110103E007E00EE019E01DE0FFF74CF8B3
:10134000002868D0A4E0A07909F064FB6548092171
:101350000CF088FD9CE0A07909F084FB092106F1DE
:1013600009000CF07FFD93E00CE010E012E05D4816
:1013700009210CF077FD8BE0092106F109000CF042
:1013800071FD85E05B48077082E027E02CE05A4859
:1013900007707DE006203218215C82F82410401C82
:1013A000C0B20D28F7D396F83020002396F82F10FE
:1013B00096F82E000AF0B8F8062396F82D2096F835
:1013C0002C10182002E014E019E025E00AF09AF849
:1013D0000F2106F124000CF045FD59E04749032098
:1013E000087088F8000053E04548077050E01EE0A0
:1013F00029E00E2106F145000CF034FD48E041499A
:10140000A079088086F88200092106F17C000CF0A2
:1014100029FD3DE029E031E03B49A079087086F8DC
:101420008B00092106F185000CF01CFD30E0A1794C
:10143000E07900EB012035490860092106F18E00B2
:101440000CF010FD24E0324800688100314800684B
:10145000FEF7B7FF3049A079087086F89D00092192
:1014600006F197000CF0FEFC12E0052088F8000061
:101470002A4807702A4880F8009009E02949A07995
:10148000087086F8C000092106F1BA000CF0EAFCE9
:101490002078FA2815D1601910F8021CEF2910D114
:1014A00010F8010C0A280CD1EA1ECAF800200E48D8
:1014B000611C0068FEF75EFF88F800700B48C0F8FA
:1014C00000901948A0F800902146BDE8F05F002088
:1014D00014F094B8030100240C000024050000243B
:1014E0000701002413000024D4110024BC1100249F
:1014F000EE0000241100002412000024C611002474
:10150000100000240200002404000024080000242D
:10151000141200240012002400000024D001002432
:10152000D1010024060000249812002470B44FF06A
:10153000000CB3FBF2F464451DD901254FEA4C04BD
:1015400004FB02F400EB840696ED000A01EBCC06E6
:1015500086ED000A641C00EB840494ED000A05EBA0
:101560004C0401EB840484ED000A0CF1010CB3FB84
:10157000F2F46445E2D870BC704700002DE9F04FEA
:1015800085B007468A4614461E460120F5002946C6
:1015900014F040F8834629465846FEF712FF3246BB
:1015A0005946384600F076F8B5FBF4F1002014F007
:1015B00031F88046B5FBF4F14046FEF702FF7700B4
:1015C00022463B4641465846FFF7B0FFB5FBF4F1D3
:1015D000002014F01FF88146B5FBF4F14846FEF7F1
:1015E000F0FEB6FBF4F2494640460EF081FFB6FB32
:1015F000F4F203A8494604AB009040460EF0B8FF51
:101600009DED040AB5EEC00AF1EE10FA04DBF1EE2E
:10161000C00ACDED020A03E09FED1C0A8DED020A1F
:1016200000204FF4804113F0F5FF05464FF4804150
:101630002846FEF7C6FEDDED020AB7EE001AB7FB3C
:10164000F4F281EE200A2946404610F044F8104892
:101650000123002229460EF0B0FB4FF480422946B8
:101660005046FEF787FE0120594613F0C7FF0020C1
:10167000414613F0C3FF0020494613F0BFFF00208E
:10168000294613F0BBFF05B0BDE8F08F0000000055
:101690004CC301082DE9F74F86B08046154605F189
:1016A00010070220BE00314613F0B4FF81463146D8
:1016B000022013F0AFFF824631464846FEF781FE16
:1016C00031465046FEF77DFE0024B4EBD50F13D211
:1016D00008EB441039490823834609EB44120FF004
:1016E00079FC374908230AEB441258460FF072FC84
:1016F000641CB4EBD50FEBD30020314613F08AFF06
:1017000005900020314613F085FF044607F12000C4
:10171000810000208B4613F07DFF804605983146FE
:10172000FEF74FFE31462046FEF74BFE5946404637
:10173000FEF747FE234A212102A8434600970FF0F7
:10174000B3FA059A02A83B4649460FF013F902A8DE
:101750003B46224651460FF00DF90020414613F05A
:101760004DFF0220494613F049FF0220514613F075
:1017700045FFF90002200E4613F04CFF804631462B
:101780004046FEF71EFE05993B462246404609F0BC
:10179000E9FE0798EA0008F18001FEF7EBFD0599E4
:1017A000002013F02BFF0020214613F027FF02201A
:1017B000414613F023FF09B0BDE8F08F0C0100246F
:1017C0002C0100244C010024014801F08FBD0000D1
:1017D00034160024014801F089BD0000AC16002435
:1017E000014801F083BD0000B4170024014801F056
:1017F0007DBD00002C1800240148C06F01F076BDAB
:10180000741400240148806F01F070BD741400242A
:10181000264A016891422CD0254A914229D0254A76
:10182000914226D0244A914223D0244A914220D08A
:10183000234A91421DD0234A91421AD0224A914212
:1018400017D0224A914214D0214A914211D0214A04
:1018500091420ED0204A91420BD0204A914208D0AA
:101860001F4A914205D01F4A914202D01E4A91421E
:1018700017D11E4BCAB2103AA3FB02321209DFF88D
:1018800070C002F007031CF80330C365032A04D9B3
:101890006FF30901091D816506E06FF30901816598
:1018A00002E021F0FF018165806D70471000024069
:1018B00028000240400002405800024070000240F0
:1018C00088000240A0000240B8000240100402401C
:1018D00028040240400402405804024070040240C0
:1018E00088040240A0040240B8040240ABAAAAAA9D
:1018F000506F040801680123DFF894C0CAB2614543
:101900001BD0DFF890C0614517D0DFF88CC061456F
:1019100013D0DFF888C061450FD0DFF884C061457F
:101920000BD0DFF880C0614507D0DFF87CC061458F
:1019300003D0DFF878C0614511D1A2F108011C4A3B
:10194000A2FB012109091B4A02EB810202661A4A25
:10195000426601F01F0103FA01F181667047DFF86A
:101960005CC0103AACFB02C21209DFF854C06144FB
:10197000A82900D80832134901EB820101661249F7
:10198000416602F01F0103FA01F181667047000011
:10199000085402581C5402583054025844540258F7
:1019A000585402586C5402588054025894540258A7
:1019B000CDCCCCCC0058025880580258ABAAAAAA69
:1019C000F0FBFDBF000802408008024001794A1E7A
:1019D000072A28D8144B0168994214D0134B994216
:1019E00011D0134B99420ED0124B99420BD0124B8F
:1019F000994208D0114B994205D0114B994202D01F
:101A0000104B994206D1104901EB8201C1660F4982
:101A1000016705E00E4901EB8201C1660D490167CE
:101A20000121914041677047085402581C540258E4
:101A30003054025844540258585402586C540258B6
:101A40008054025894540258005902584059025880
:101A50000009024040090240014600208B698A6A61
:101A6000002B0FD0B3F5005F1DD08AB3012A30D010
:101A7000022A2ED0032A04D1C96A11F0807F00D037
:101A8000012070471AB1012A07D0022AF9D1C96A88
:101A900011F0807FF5D001207047C96AB1F1C07F95
:101AA000FAD1012070475AB1012A0BD0022A07D07F
:101AB000032AF7D1C96AB1F1C07FF3D10120704781
:101AC00001207047C96A11F0807FFAD00120704769
:101AD000FFE70120704700002DE9F04F846D794E3B
:101AE000D0F800C0784FDFF8E481B445DFF8E0912A
:101AF000DFF8E0A1DFF8E0B1784D4FD0BC454DD024
:101B0000C4454BD0CC4549D0D44547D0DC4545D021
:101B1000DFF8CCE1F44541D0AC453FD0DFF8C4E17B
:101B2000F4453BD0DFF8C0E1F44537D0DFF8BCE145
:101B3000F44533D0DFF8B8E1F4452FD0DFF8B4E155
:101B4000F4452BD0DFF8B0E1F44527D0DFF8ACE165
:101B5000F44523D0DFF8A8E1F4451FD0DFF8A4E175
:101B6000F4451BD0DFF8A0E1F44517D0DFF89CE185
:101B7000F44513D0DFF898E1F4450FD0DFF894E195
:101B8000F4450BD0DFF890E1F44507D0DFF88CE1A5
:101B9000F44503D0DFF888E1F44510D1D0F864E0D3
:101BA000D0F868C0CEF804C0D0F86CC0BCF1000F0B
:101BB00005D0D0F870E0D0F874C0CEF804C0D0F8EA
:101BC00000C0B44526D0BC4524D0C44522D0CC4565
:101BD00020D0D4451ED0DC451CD0414EB44519D090
:101BE000AC4517D03F4DAC4514D03F4DAC4511D05E
:101BF0003E4DAC450ED03E4DAC450BD03D4DAC45B9
:101C000008D03D4DAC4505D03C4DAC4502D03C4DD7
:101C1000AC4523D190F85CC03F250CF01F0C05FAB1
:101C20000CFCC4F808C0D0F800C0DCF8004024F474
:101C30008024CCF80040D0F800C0CCF80430836891
:101C4000402B05D0036899600068C260BDE8F08F42
:101C500003689A600068C160BDE8F08F294DAC450B
:101C600014D0294DAC4511D0284DAC450ED0284D8F
:101C7000AC450BD0274DAC4508D0274DAC4505D021
:101C8000264DAC4502D0264DAC45E5D190F85CC060
:101C900001250CF01F0C05FA0CFCC4F804C0D0F8A8
:101CA00000C0CCF804308368402B05D003689960ED
:101CB0000068C260BDE8F08F03689A600068C16088
:101CC000BDE8F08F100002402800024040000240B2
:101CD000580002407000024088000240B8000240F4
:101CE000A0000240100402402804024040040240C8
:101CF000580402407004024088040240A0040240DC
:101D0000B8040240085402581C5402583054025877
:101D100044540258585402586C5402588054025883
:101D2000945402582DE9F04F93B000250026AB469D
:101D3000CDF804B000244E4900224E4811F046FB75
:101D40004D4F20B157F820104CA00CF0ADF854487E
:101D500050A111F024FD10B14EA011F042FA4FF63F
:101D6000FF78434A4FA1234602A80CF0ADF8524831
:101D7000012202A911F05EFB042809D0601C84B284
:101D80004D4811F013F84445EBD3012E0ED03AE044
:101D90000126200A8DF804008DF80540022101A8D3
:101DA0000CF060F8444811F001F8EEE7304A3DA12C
:101DB0000AA823460CF088F83F480A220AA911F025
:101DC00039FB044624B157F824103CA00CF06CF801
:101DD000CCB9B5F5FA7F16D2DFF8F4803D4EDFF8C6
:101DE000F890DFF8F8A098F80000D0B1DAF8000019
:101DF000401CCAF800003A49884201D9CAF800B02C
:101E0000B5F5FA7FEFD32C4810F0D0FF0022184927
:101E1000104611F0DBFA33A00CF046F813B0BDE821
:101E2000F08F00243088844215D2D9F8001004EBDA
:101E3000440012AB01EB40311F484FF4C04212F096
:101E400084F820B157F820102CA00CF02DF8641C59
:101E500030888442E9D3308800EB40004103D9F850
:101E60000000FEF7AEFA6D1C012088F80000C7E7FD
:101E7000A812002474190024AC120024B9D2D4D8BA
:101E8000CEC4BCFECFB5CDB3CAA7B0DC2028257325
:101E9000290D0A00303A2F5245434F524445520013
:101EA000081E002425732F5245434F524445522F9C
:101EB00025642E7478740000B01B0024CEC4BCFED0
:101EC000B4B4BDA8CAA7B0DC20282573290D0A0028
:101ED000AC110024B4110024B8110024A012002475
:101EE00040420F000A5344205361766520446174D8
:101EF000612046696E69736800000000CAFDBEDD9E
:101F0000D0B4C8EBCAA7B0DC20282573290D0A007D
:101F100010B58AB0012400200190002219491A4806
:101F200011F054FA28B1194951F8201018A00BF0FB
:101F3000BBFF20481CA111F032FCA0B11AA011F087
:101F400050F910E01C4810F031FF02A811F067FFB3
:101F5000200A8DF804008DF80540022101A80BF03D
:101F600081FF601C84B2074A14A1234602A80BF02B
:101F7000ABFF1148012202A911F05CFA0428E1D15B
:101F80000AB010BDA812002474190024AC12002459
:101F9000B9D2D4D8CEC4BCFECFB5CDB3CAA7B0DCBD
:101FA00020282573290D0A00303A2F5245434F52FD
:101FB00044455200081E0024B01B002425732F52F4
:101FC00045434F524445522F25642E7478740000C7
:101FD0002DE9F04F89B083460E4600204FF4C041F2
:101FE00013F018FB05464FF4C0412846FEF7E9F907
:101FF00000204FF4807113F00DFB07904FF48071B7
:102000000798FEF7DEF900204FF4C04113F002FB01
:1020100006904FF4C0410698FEF7D3F9C0225B4604
:10202000202104A80EF00AFF20222B46C02102A87E
:102030000EF004FF069BC022202168460EF0FEFE33
:102040000024DFF8FCA09AF8000000282DD902A98E
:1020500004A80EF0F7FEC4F10208079804F1BE09C7
:102060004FEAC81705EBC9113A46FEF783F94FEA64
:10207000C912294605EBC810FEF77CF907993A46C4
:102080002846FEF777F902A869460EF0DBFE04EB5E
:10209000440006994FF4C04206EB4030FEF76AF95F
:1020A000641C9AF800008442D1D34FF4C0425946D0
:1020B00006F54040FEF75EF900249AF8000000287B
:1020C0002FD94FF4904902A904A80EF0BBFE671C5B
:1020D00007982946FA019346FEF74CF9C4F1BF0868
:1020E000284605EBC7114FEAC812FEF743F90799D6
:1020F00005EBC8105A46FEF73DF902A869460EF0F6
:10210000A1FE04EB440006994FF4C04209EBC02045
:1021100006EB8000FEF72EF9641C9AF8000084425A
:10212000D1D30020294613F069FA0799002013F053
:1021300065FA0699002013F061FA09B0BDE8F08F46
:10214000E3010024704700004DF804ED89B00B490D
:102150000B48002211F03AF928B10A4951F8201031
:1021600009A00BF0A1FE0EA168460BF0ADFE68467B
:1021700011F055FE09B05DF804FB0000A812002420
:1021800074190024AC120024B9D2D4D8CEC4BCFE39
:10219000CFB5CDB3CAA7B0DC20282573290D0A001E
:1021A000303A2F4465636F646546696C652F4465FA
:1021B000636F64652E7478740000000070B58EB093
:1021C00032493348002211F001F928B1314951F860
:1021D000201031A00BF068FE394835A111F0DFFA6C
:1021E00010B133A010F0FDFF36A104A80BF06CFE77
:1021F0003B48012204A911F01DF9042801D090B137
:102200003FE038A042680168806802920191039023
:10221000002401AD36A0295D0BF046FE601CC4B25F
:102220000A2CF7D32DE02E4C20466369226910F06A
:10223000D2FDA56B204610F0B9FD0120294613F010
:10224000E9F9064629463046FEF7BBF8012220464A
:1022500004A911F0EFF80CAB2A463146204611F0E4
:102260003BFC0024002D08D9315D21A00BF01CFEA1
:1022700007F016FC641CAC42F6D30120314613F083
:10228000BDF9174810F092FD0EB070BDA8120024E1
:1022900074190024AC120024B9D2D4D8CEC4BCFE28
:1022A000CFB5CDB3CAA7B0DC20282573290D0A000D
:1022B000303A2F4465636F646546696C65000000C1
:1022C000081E0024303A2F4465636F646546696CCC
:1022D000652F4465636F64652E7478740000000098
:1022E000B01B00244E6F205478742021212100005F
:1022F000256300002DE9F0438DB006460D46534995
:102300005348002211F062F828B1524951F82010C8
:1023100051A00BF0C9FD5A4855A111F040FA40B147
:1023200053A010F05EFF04E04FF001080FE0042816
:102330000BD054A104A80BF0C7FD5948012204A9F1
:1023400011F078F80028F2D1EEE74FF00208544877
:1023500010F02CFDDFF84891B8F1010F514FA9F5AD
:10236000147403D0B8F1020F34D068E04C48022254
:1023700004A911F05FF8002861D14B4900224B48B5
:1023800005F0FAF847490022484805F0CFF84448DC
:10239000D9F81430D9F8102010F01DFDA378627818
:1023A0002178B8788DE80F007B7841A1FA783C4815
:1023B00011F071FA0024002D07D9325D45A138488B
:1023C00011F069FA641CAC42F7D3354843A111F00F
:1023D00062FA34E032480A2204A911F02BF80028EE
:1023E0002DD131490022314805F0C6F82D4900228F
:1023F0002E4805F09BF82A48D9F81430D9F8102057
:1024000010F0E9FCA27861782078BB780190009305
:102410000392029126A17B78FA78214811F03BFAC9
:102420000024002D07D9325D2AA11D4811F033FA8E
:10243000641CAC42F7D31A4828A111F02CFA1848B2
:1024400010F0B4FC0DB0BDE8F0830000A812002429
:1024500074190024AC120024B9D2D4D8CEC4BCFE66
:10246000CFB5CDB3CAA7B0DC20282573290D0A004B
:10247000303A2F4465636F646546696C65000000FF
:10248000081E0024303A2F4465636F646546696C0A
:10249000652F4465636F64652E74787400000000D6
:1024A000B01B0024A412002460190024581E00242C
:1024B0003230253032642D253032642D253032649F
:1024C0002D253032642E253032642E253032643A88
:1024D0002000000025303258200000000D0A0000C6
:1024E0002DE9F04104460E461A4F388800F10A01E2
:1024F000002013F08FF80546388800F10A012846BD
:10250000FDF75FFF144906F5C0402A4604EB800042
:10251000096807F0F1FE2C780F212846FFF7EAFE44
:10252000611C28460BF0B3FC014628194278914201
:1025300009D1FA212970EF2141700A218170E11C33
:1025400028460BF08FFC2946BDE8F041012013F02E
:1025500055B800000E120024101200242DE9F0419D
:1025600082B005460020019041F27C560024DFF83D
:10257000508001AF009704EB44000622D8F8001009
:1025800005EB40304FF440530AF040FB012807D0E0
:10259000601CC4B2022CEDD302B03046BDE8F0811D
:1025A000019904EB440001EBC020801F0D2105EBD5
:1025B00080000AF0EBFA01990844861F0196EBE7C8
:1025C000EC110024012001F001BF00004DF804EDE2
:1025D00087B00F48016841F480610160006800F431
:1025E00080600190012002904FF488100390022037
:1025F0000490084802A901F0F5FE002204210620FB
:1026000002F09EFA062002F08CFA07B05DF804FB97
:10261000E04402580028025810B50C46014605A0B7
:1026200022460BF041FC002C03D0BDE810400AF01C
:1026300099BA10BD57726F6E6720706172616D65D7
:10264000746572732076616C75653A2066696C6595
:10265000202573206F6E206C696E652025640D0A3D
:1026600000000000002200F001B8000084464DF890
:10267000044D01200F4B9C7B022C17D2987B002429
:102680001C54987B03EB8000C0F804C0987B03F1D6
:102690000C0C00F80C20987B421C9A7330300870A8
:1026A0003A2048702F208870CC7000205DF8044BD1
:1026B000704700009C1E00244DF8044DB3F5804F78
:1026C00007D06FF0704140F822105DF8044B0020F5
:1026D0007047D1F818C00B688C6843EA0C03D1F836
:1026E00004C089894FEA0C1C4CEA042C43EA0C0311
:1026F00043EA014150F82230DFF80CC003EA0C0332
:10270000194340F82210E0E70000F0CF4DF8044DE7
:102710000A6850F8223023F0010340F822308B6819
:10272000082B2FD00022D1F804C04CEA0303D1F8C3
:102730000CC04CEA02021A430B691A434B691A4354
:102740008B691A43CB691A430B6A1A434B6A1A43C3
:102750008B6A1A43CB6A1A430B6B1A434B6B1A43AF
:102760008B6B1343DFF840C00A6850F8224024EA1C
:102770000C0C4CEA030340F822300A6BB2F5801FC0
:1027800002D007E04022CEE70A681AB1026842F49C
:10279000801202600A681AB10268496B1143016035
:1027A0005DF8044B002070477FFB3F004DF8044D5F
:1027B000D1F804C0521C0B688C8943EA0C13D1F881
:1027C00008C04FEA0C2C4CEA044C43EA0C03B1F865
:1027D00010C0ACF1010C43EA0C5391F814C0ACF1F9
:1027E000020C43EA0C63D1F818C043EA0C0350F81A
:1027F00022C00CF0404C43EA0C0340F8223002683F
:1028000012F4801F0BD0426822F47002098A491E1C
:1028100042EA0151426822F47002114341605DF8BE
:10282000044B0020704770B40C68D1F824C00B6AC8
:10283000002CCA691CD01A43036823F4F8434CEAFD
:1028400003031A4302608B684A68D1F810C01A4328
:10285000CB6843EA0C031A434B6989691A430A435C
:1028600041686FF30E011143416070BC0020704756
:102870008D684C680E692C43CD6835432C434D69F7
:1028800089692C4321431143194341EA0C02016831
:102890006FF30E0111430160E7E742696FF34D02E8
:1028A00042EA41014161002070474B680A681A43BF
:1028B0008B68C9685B1E5B0143EA41210A430169D9
:1028C0006FF3150111430161002070474DF8044D6D
:1028D000CB68D1F814C05B1E002AACF1010C24D0E7
:1028E0001A03836842EA0C5223F4704323F4700302
:1028F0001A4382604B680A685B1E521E42EA03124A
:102900008B685B1E42EA03220B8A097E5B1E491E0E
:1029100042EA034242EA0161C26802F07042114396
:10292000C1605DF8044B002070474C680A68641E63
:10293000521E42EA04128C68641E42EA042242EAF1
:1029400003320B8A097E5B1E491E42EA034242EAB9
:102950000C5242EA0161826802F0704211438160C8
:10296000DFE7000010B507490748FFF77BFE0028A6
:1029700007D006A00BF098FABDE8104004A00BF0B9
:1029800093BA10BDA81200243C6F04080D0A000081
:102990005344BFA8B9D2D4D8CAA7B0DC210D0A00CD
:1029A0002DE9F04784B0804692461C460C9F0D9D51
:1029B000B1FBF5F66019401E800012F0FDFC814667
:1029C0005246A1B24B4601A800950EF06DF90024C5
:1029D000002E0CD904FB05F02B4607EB800208EB18
:1029E000800101A80DF0C6FF641CB442F2D3484632
:1029F00011F056FF04B0BDE8F08700002DE9F0416A
:102A000007460D461446114E4FF4C0422046316829
:102A1000FDF7B0FC0E48AD000078012807D004F5A2
:102A200040402A463946BDE8F041FDF7A3BC316875
:102A30004FF4C04204F54040FDF79CFC04F5C03063
:102A40002A463946BDE8F041FDF794BCF411002454
:102A500000000024000000002DE9F04107460C466C
:102A600015461E46E00014490988B0FBF1F201FB4F
:102A70001202002A19D0B0FBF1F0FDF753FE41EC31
:102A8000100B0BF04DFA9FED0E1B51EC100B53EC9D
:102A9000112BFDF7AEFCFDF771FE28603246214692
:102AA0003846BDE8F04106F06FBFB0FBF1F0FDF72E
:102AB00039FEF0E7000000000C12002400000000C6
:102AC000000000000000F03F2DE9F84F044601F03F
:102AD00097FD00905CB194F8350002280AD0802060
:102AE0006065002084F834000120BDE8F88F0120E3
:102AF000BDE8F88FB6492068B64EB74F8842DFF878
:102B0000DC82DFF8DC92DFF8DCA2DFF8DCB226D072
:102B1000B04224D0B84222D0404520D048451ED0F3
:102B200050451CD058451AD0B04A904217D0B04AF0
:102B3000904214D0AF4A904211D0AF4A90420ED08A
:102B4000AE4A90420BD0AE4A904208D0AD4A904275
:102B500005D0AD4A904202D0AC4A90420AD10268F8
:102B600022F01E0202602068426922F08002426167
:102B7000256804E0026822F00E02026025682068E1
:102B800088423ED0B0423CD0B8423AD0404538D0DE
:102B9000484536D0504534D0584532D0934A9042BB
:102BA0002FD0934A90422CD0924A904229D0924AF8
:102BB000904226D0914A904223D0914A904220D010
:102BC000904A90421DD0904A90421AD08F4A90422B
:102BD00017D08F4A904214D08E4A904211D08E4A1C
:102BE00090420ED08D4A90420BD08D4A904208D030
:102BF0008C4A904205D08C4A904202D08B4A904237
:102C000004D1206E026822F480720260704920684C
:102C1000884226D0B04224D0B84222D0404520D0AD
:102C200048451ED050451CD058451AD06F4988429F
:102C300017D06F49884214D06E49884211D06E492E
:102C400088420ED06D4988420BD06D49884208D029
:102C50006C49884205D06C49884202D06B49884251
:102C600004D1016821F00101016003E0016821F055
:102C700001010160286810F0010F14D001F0C0FCC0
:102C80000099401A05280AD920206065032084F89D
:102C90003500002084F834000120BDE8F88F286852
:102CA00010F0010FEAD14A4A01212068904226D053
:102CB000B04224D0B84222D0404520D048451ED052
:102CC00050451CD058451AD0484B984217D0484B15
:102CD000984214D0474B984211D0474B98420ED09F
:102CE000464B98420BD0464B984208D0454B9842F1
:102CF00005D0454B984202D0444B98420AD1A06D72
:102D00004FF03F0C94F85C3003F01F030CFA03F310
:102D1000836007E0A06D94F85C3003F01F0301FAB4
:102D200003F34360206890423ED0B0423CD0B842AA
:102D30003AD0404538D0484536D0504534D0584533
:102D400032D02A4A90422FD0294A90422CD0294A88
:102D5000904229D0284A904226D0284A904223D037
:102D6000274A904220D0274A90421DD0264A9042BE
:102D70001AD0264A904217D0254A904214D0254AAC
:102D8000904211D0244A90420ED0244A90420BD057
:102D9000234A904208D0234A904205D0224A9042CA
:102DA00002D0224A90420BD1626EA06E5060E06E5B
:102DB00030B1026822F480720260226F606F50604E
:102DC00084F83510002084F83400BDE8F88F000046
:102DD000100002402800024040000240580002401B
:102DE0007000024088000240A0000240B80002408B
:102DF00010040240280402404004024058040240EB
:102E00007004024088040240A0040240B80402405A
:102E1000085402581C540258305402584454025862
:102E2000585402586C540258805402589454025812
:102E30002DE9F05F002808D090F83510022907D05E
:102E4000802141650120BDE8F09F0120BDE8F09F91
:102E5000DFF81CE20168874BDFF81CC27145874C24
:102E6000874D884E884FDFF82482DFF82492DFF800
:102E700024A2DFF824B2894A25D0994223D06145A3
:102E800021D0A1421FD0A9421DD0B1421BD0B942CE
:102E900019D0DFF80CE2714515D0DFF808E2714572
:102EA00011D0DFF804E271450DD041450BD0494502
:102EB00009D0DFF8F8E1714505D0514503D05945F7
:102EC00001D0914232D14FF0040E80F835E06848CD
:102ED000814221D099421FD061451DD0A1421BD013
:102EE000A94219D0B14217D0B94215D06C488142DD
:102EF00012D06C4881420FD06B4881420CD04145C2
:102F00000AD0494508D06948814205D0514503D0CF
:102F1000594501D0914204D1086820F001000860B1
:102F2000A3E0086820F0010008609EE0D1F800E00E
:102F30002EF00E0EC1F800E0DFF834E101687145B3
:102F400025D0994223D0614521D0A1421FD0A9426A
:102F50001DD0B1421BD0B94219D0DFF844E1714510
:102F600015D0DFF840E1714511D0DFF83CE1714543
:102F70000DD041450BD0494509D0DFF830E171450E
:102F800005D0514503D0594501D0914206D1D1F821
:102F900000E02EF0010EC1F800E005E0D1F800E0FD
:102FA0002EF0010EC1F800E0DFF8C4E001687145C1
:102FB00039D0994237D0614535D0A14233D0A942AA
:102FC00031D0B1422FD0B9422DD0354B99422AD0C1
:102FD000344B994227D0344B994224D0414522D0DA
:102FE000494520D0314B99421DD051451BD0594500
:102FF00019D0914217D02E4A914214D02D4A9142B5
:1030000011D02D4A91420ED02C4A91420BD02C4A1D
:10301000914208D02B4A914205D02B4A914202D0CE
:103020002A4A914218D1016E0A6822F480720A601D
:10303000816D90F85C2002F01F0301229A404A60E3
:10304000426E816E5160C16E31B10A6822F48072A5
:103050000A60026F416F5160012180F83510002134
:1030600080F83410016D01B188470020BDE8F09F61
:103070001000024028000240400002405800024078
:103080007000024088000240A0000240400402405C
:103090005804024088040240A0040240B8040240E0
:1030A000B8000240100402402804024070040240AC
:1030B000085402581C5402583054025844540258C0
:1030C000585402586C540258805402589454025870
:1030D0002DE9F05F0446002C3BD06B4920686B4A19
:1030E0006B4B8842DFF8ACC16B4E6C4FDFF8B081A0
:1030F000DFF8B091DFF8B0A1DFF8B0B1DFF8B0E1F0
:1031000022D0904220D098421ED060451CD0B042C0
:103110001AD0B84218D0404516D0484514D0504572
:1031200012D0584510D070450ED0624DA8420BD039
:10313000614DA84208D0614DA84205D0604DA8421B
:1031400002D0604DA84207D1056825F00105056051
:1031500006E00120BDE8F09F056825F00105056047
:1031600020680025884222D0904220D098421ED06C
:1031700060451CD0B0421AD0B84218D0404516D095
:10318000484514D0504512D0584510D070450ED047
:10319000484988420BD04849884208D0474988426C
:1031A00005D04749884202D04649884217D1056078
:1031B00020684560206885602068C56020680561DA
:1031C0002120216848612046FEF722FB94F85C101C
:1031D0003F2201F01F0102FA01F181602BE03A4920
:1031E000884214D03949884211D0394988420ED0DA
:1031F000384988420BD03849884208D0374988423C
:1032000005D03749884202D03649884239D1056015
:1032100020684560206885602068C5602068056179
:103220002046FEF7F5FA94F85C10012201F01F0128
:1032300002FA01F141602046FEF75CFB206E18B1F6
:103240000560616EA06E48606068401E072807D860
:103250002046FEF7BBFBE06E0560216F606F4860A3
:10326000E56625676567E56325646564A564E564CF
:103270002565656584F8355084F834500020BDE834
:10328000F09F0120BDE8F09F10000240280002409E
:103290004000024058000240700002408800024096
:1032A000A0000240B800024010040240280402407E
:1032B0004004024058040240700402408804024066
:1032C000A0040240B8040240085402581C5402589A
:1032D0003054025844540258585402586C540258FE
:1032E0008054025894540258406D70472DE9F04FB5
:1032F00083B00446002002904FF41651FD48006848
:10330000B0FBF1F00190A56D2E682968FA4F206896
:10331000DFF8E8A3DFF8E8B3B842DFF8E883DFF8C6
:10332000E8932DD0524690422AD05A46904227D058
:10333000404525D0484523D0F44A904220D0F44A55
:1033400090421DD0F34A90421AD0F34A904217D0CF
:10335000DFF8C8C3604513D0F14A904210D0DFF8BF
:10336000C4E370450CD0F04A904209D0EF4A904235
:1033700006D0EF4A904203D0EE4B984240F0408294
:1033800094F85C10082201F01F0102FA01F13142A9
:1033900041D0B84228D0504526D0584524D0404589
:1033A00022D0484520D0D94988421DD0D8498842EA
:1033B0001AD0D849884217D0D749884214D0D74963
:1033C000884211D0D64988420ED0D64988420BD0C7
:1033D000D549884208D0D549884205D0D449884289
:1033E00002D0D449884203D1016801F0040102E00F
:1033F000016801F0080171B1016821F00401016068
:1034000094F85C0000F01F0002FA00F0A860606D04
:1034100040F00100606594F85C0000F01F0101209D
:1034200000FA01F1314234D02068B84228D050452A
:1034300026D0584524D0404522D0484520D0B34A14
:1034400090421DD0B24A90421AD0B24A904217D050
:10345000B14A904214D0B14A904211D0B04A904241
:103460000ED0B04A90420BD0AF4A904208D0AF4A3B
:10347000904205D0AE4A904202D0AE4A90427DD1F1
:10348000406910F0800F04D0A960606D40F0020028
:10349000606594F85C0000F01F01042000FA01F15F
:1034A000314234D02068B84228D0504526D0584503
:1034B00024D0404522D0484520D0944A90421DD087
:1034C000934A90421AD0934A904217D0924A90421F
:1034D00014D0924A904211D0914A90420ED0914A13
:1034E00090420BD0904A904208D0904A904205D02A
:1034F0008F4A904202D08F4A904245D1006810F026
:10350000020F04D0A960606D40F00400606594F87B
:103510005C0000F01F01102000FA01F1314259D087
:103520002068B84228D0504526D0584524D0404580
:1035300022D0484520D0754A90421DD0744A90420E
:103540001AD0744A904217D0734A904214D0734AEA
:10355000904211D0724A90420ED0724A90420BD0E3
:10356000714A904208D0714A904205D0704A904208
:1035700002D0704A904209D1006800E002E000F0F9
:10358000080006E0006884E70068C0E7006800F013
:103590000400F8B1A9602068016811F4802F0DD0F3
:1035A000006810F4002F04D0A16C99B12046884720
:1035B00010E0216C71B1204688470BE0016811F4DE
:1035C000807F03D1016821F008010160216C09B1FD
:1035D0002046884794F85C0000F01F01202000FA84
:1035E00001F131426FD02068B84228D0504526D032
:1035F000584524D0404522D0484520D0434A9042E7
:103600001DD0434A90421AD0424A904217D0424AB3
:10361000904214D0414A904211D0414A90420ED07B
:10362000404A90420BD0404A904208D03F4A9042D4
:1036300005D03F4A904202D03E4A904203D10068F2
:1036400000F0100002E0006800F00200D8B3A960AA
:1036500094F8350004280DD02068016811F4802FFB
:1036600037D0006810F4002F2ED0E16B59B32046FC
:10367000884764E02068016821F016010160206835
:10368000416921F080014161206C08B9A06C20B132
:103690002068016821F00801016094F85C003F2176
:1036A00000F01F0001FA00F0A860012084F8350046
:1036B000002084F83400216D00297BD003B020461F
:1036C000BDE8F04F084737E0616CA9B32046884752
:1036D00035E0016811F4807F09D1016821F0100103
:1036E0000160012084F83500002084F83400E16B8B
:1036F00011B322E0FC120024100002402800024016
:103700004000024058000240700002408800024021
:10371000A0000240B8000240100402402804024009
:1037200040040240580402407004024088040240F1
:10373000A0040240B804024001E020468847606DC2
:10374000002837D0606D10F0010F51D0042084F8AC
:1037500035002068B84228D0504526D0584524D09E
:10376000404522D0484520D0AB4988421DD0AB49C6
:1037700088421AD0AA49884217D0AA49884214D050
:10378000A949884211D0A94988420ED0A849884247
:103790000BD0A849884208D0A749884205D0A7493C
:1037A000884202D0A649884205D1016821F0010172
:1037B000016004E096E0016821F0010101602168E8
:1037C0000298019A401C0290904203D8086810F0B9
:1037D000010FF5D1086810F0010F03D0032084F821
:1037E000350002E0012084F83500002084F8340020
:1037F000E16C002976D003B02046BDE8F04F0847C1
:10380000904B984214D0904B984211D08F4B9842D5
:103810000ED08F4B98420BD08E4B984208D08E4BD7
:10382000984205D08D4B984202D08D4B984259D189
:1038300003684FF0040A94F85C6006F01F060AFA69
:1038400006FA1AEA010F5AD013F0040F57D0C5F840
:1038500004A013F4004F12D013F4803F07D0216C62
:1038600000293FD003B02046BDE8F04F0847A16CC7
:10387000002937D003B02046BDE8F04F084713F0C9
:10388000200F34D12068B84227D07649884224D00E
:103890007549884221D040451FD048451DD05E491A
:1038A00088421AD05D49884217D05D49884214D0B9
:1038B0005C49884211D060450FD05C4988420CD0E9
:1038C00070450AD05B49884207D05B49884204D0E2
:1038D000904202D05A49884205D1016821F008017E
:1038E000016004E083E0016821F004010160216CC3
:1038F00000297CD003B02046BDE8F04F08474FF0C8
:10390000020A0AFA06FA1AEA010F5FD013F0020F50
:103910005CD0C5F804A013F4004F12D013F4803F1C
:1039200007D0E16B002974D003B02046BDE8F04F0A
:103930000847616C00296CD003B02046BDE8F04F09
:10394000084713F0200F39D12068B84227D04549E5
:10395000884224D04449884221D040451FD0484560
:103960001DD02D4988421AD02C49884217D02C49A5
:10397000884214D02B49884211D060450FD02B4982
:1039800088420CD070450AD02A49884207D02A497B
:10399000884204D0904202D02949884204D101686B
:1039A00021F01401016003E0016821F00A010160C7
:1039B000012084F83500002084F83400E16B0029F0
:1039C00027D003B02046BDE8F04F08470822B24098
:1039D0000A421ED013F0080F1BD0016821F00E011F
:1039E000016094F85C0000F01F01012000E010E08D
:1039F00000FA01F16960606584F83500002084F800
:103A00003400E16C002904D003B02046BDE8F04F3B
:103A1000084703B0BDE8F08F88000240A0000240D4
:103A2000B800024010040240280402404004024052
:103A3000580402407004024088040240A00402407E
:103A4000B8040240085402581C540258305402581A
:103A500044540258585402586C5402588054025826
:103A60009454025828000240400002402DE9F05FC3
:103A7000044600F0C5FD0646002C6AD0DC4F022249
:103A800020680025DFF86C83DFF86C93B842DFF81C
:103A90006CA3DFF86CB328D0DA49884225D04045C2
:103AA00023D0484521D050451FD058451DD0D64978
:103AB00088421AD0D549884217D0D549884214D0B7
:103AC000D449884211D0D44988420ED0D349884283
:103AD0000BD0D349884208D0D249884205D0D24978
:103AE000884202D0D14988427ED184F8352084F8BA
:103AF0003450B84228D0C349884225D0404523D00D
:103B0000484521D050451FD058451DD0BE49884258
:103B10001AD0BE49884217D0BD49884214D0BD4949
:103B2000884211D0BC4988420ED0BC4988420BD093
:103B3000BB49884208D0BB49884205D0BA4988426F
:103B400002D0BA49884207D1016821F00101016021
:103B500006E00120BDE8F09F016821F0010101604D
:103B60002068006810F0010F11D000F049FD801BA3
:103B7000052807D920206065032084F8350001203E
:103B8000BDE8F09F2068006810F0010FEDD12268B9
:103B90001068A7490840E368A168D4F814C0194325
:103BA000236943EA0C031943A3691943E3691943E1
:103BB000236A19430843616A042903D1236BE16A2C
:103BC000194308439B4909686FF30F01B1F1005F86
:103BD00011D36168A1F12903052B0AD9163B032BE8
:103BE00007D9083B012B00E02CE002D94F3903290B
:103BF00001D840F4801010602068406920F007016F
:103C0000606A40EA010604280ED1A06A0643E06A11
:103C100050B12046FDF720FF30B140206065012003
:103C200084F83500BDE8F09F206846612046FDF726
:103C3000EFFD94F85C103F2201F01F0102FA01F140
:103C400081605BE07C49884214D07C4B984211D063
:103C50007B4B98420ED07B4B98420BD07A4B9842CC
:103C600008D07A4B984205D0794B984202D0794BD4
:103C700098427DD188420CD07049884209D0704961
:103C8000884206D06F49884203D06F49884200D0ED
:103C90006E4984F8352084F8345002686FF31012AE
:103CA000A168402979D0802979D00021E36841EAD0
:103CB000D301236941EAD301636941EAD301A369CE
:103CC00041EAD301E36941EAD301236A41EA1311CE
:103CD000114301606049206801446048A0FB011065
:103CE00000098000E0652046FDF792FD94F85C1025
:103CF000012201F01F0102FA01F141602068B8427F
:103D000042D0404988423FD040453DD048453BD015
:103D1000504539D0584537D03B49884234D03B498B
:103D2000884231D03A4988422ED03A4988422BD035
:103D30003949884228D03949884225D038498842B3
:103D400022D0384988421FD0374988421CD0374991
:103D5000884219D03849884216D03849884213D051
:103D60003749884210D0374988420DD0364900E0A3
:103D700018E0884208D03549884205D03449884245
:103D800002D0344988422CD12046FDF7B3FDA0680B
:103D900080280FD00FE000E001E0102186E74FF40B
:103DA000804183E740206065032084F835000120CE
:103DB000BDE8F09F6560216E20790860616EA06E9D
:103DC00048606068401E072808D82046FDF7FEFDC1
:103DD000E06E0560216F606F486002E0E566256770
:103DE00065676565012084F835000020BDE8F09F17
:103DF00010000240400002405800024070000240A3
:103E00008800024028000240A0000240B8000240A2
:103E100010040240280402404004024058040240BA
:103E20007004024088040240A0040240B80402402A
:103E30003F8010FE0010005C085402581C540258C9
:103E40003054025844540258585402586C54025882
:103E50008054025894540258F8ABFDA7CDCCCCCC7A
:103E60002DE9F84F044600200090002C16D094F85D
:103E70003400012815D0012084F8340094F835C0AE
:103E80000020BCF1010F0FD04FF40061616584F890
:103E90003400012000900098BDE8F88F0120BDE8B3
:103EA000F88F0220BDE8F88F4FF0020C84F835C07F
:103EB0006065DFF82CC220688A4D8B4E60458B4FC1
:103EC000DFF82C82DFF82C92DFF82CA2DFF82CB27E
:103ED0002DD0A8422BD0B04229D0B84227D040459F
:103EE00025D0484523D0504521D058451FD0DFF874
:103EF00010C260451BD0DFF80CC2604517D0DFF858
:103F000008C2604513D0DFF804C260450FD0DFF867
:103F100000C260450BD0DFF8FCC1604507D0DFF878
:103F2000F8C1604503D0DFF8F4C1604506D1D0F890
:103F300000C02CF0010CC0F800C005E0D0F800C0B3
:103F40002CF0010CC0F800C02046FDF7C5FD644907
:103F50002068884225D0A84223D0B04221D0B84260
:103F60001FD040451DD048451BD0504519D058455D
:103F700017D0634A904214D0624A904211D0624AEC
:103F800090420ED0614A90420BD0614A904208D0D4
:103F9000604A904205D0604A904202D05F4A904207
:103FA0000DD1026822F01E0242F016020260206C5F
:103FB00090B12068026842F0080202600CE00268DA
:103FC00022F00E0242F00A020260206C20B120684A
:103FD000026842F004020260206888423DD0A84294
:103FE0003BD0B04239D0B84237D0404535D04845B3
:103FF00033D0504531D058452FD0414A90422CD033
:10400000404A904229D0404A904226D03F4A9042AE
:1040100023D03F4A904220D03E4A90421DD03E4A93
:1040200090421AD03D4A904217D03D4A904214D057
:104030003C4A904211D03C4A90420ED03B4A9042BA
:104040000BD03B4A904208D03A4A904205D03A4AB7
:10405000904202D0394A90420ED1206E026812F48A
:10406000803F03D0026842F480720260E06E18B1B3
:10407000026842F4807202602068884225D0A8421B
:1040800023D0B04221D0B8421FD040451DD0484572
:104090001BD0504519D0584517D01949884214D023
:1040A0001849884211D0184988420ED017498842D1
:1040B0000BD01749884208D01649884205D01649C6
:1040C000884202D01549884204D1016841F00101BB
:1040D0000160E0E6016841F001010160DBE60000FB
:1040E00010000240280002404000024058000240F8
:1040F0007000024088000240A0000240B800024068
:1041000010040240280402404004024058040240C7
:104110007004024088040240A0040240B804024037
:10412000085402581C54025830540258445402583F
:10413000585402586C5402588054025894540258EF
:104140004FF47A7100FB01F00DF0F2BA02480168F9
:1041500041F0010101607047200400582DE9F04F43
:1041600000235D4C00297DD04FF0B04A4FF0010E86
:104170004FF00F090EFA03F707EA010CBCF1000F2C
:1041800071D023F0030202F1B045D5F808249E0750
:104190004FEA167809FA08F606EA020BA0F1B042D7
:1041A000B2F500327BD0A0F1B042B2F501327ED040
:1041B000A0F1B042B2F502327BD0A0F1B042B2F52C
:1041C000033278D0A0F1B042B2F5043275D0A0F13C
:1041D000B042B2F5053272D0A0F1B042B2F506326B
:1041E00072D0A0F1B042B2F507326FD0A0F1B04268
:1041F000B2F508326CD0A0F1B042B2F5093269D004
:104200000A2202FA08F25A4518D1226822EA0C0260
:104210002260626822EA0C026260DAF8042022EA74
:104220000C02CAF80420DAF8002022EA0C02CAF8CC
:104230000020D5F80824B243C5F80824D0F800C0FF
:104240005D000322AA404CEA020CC0F800C04FEA0D
:10425000D30C00EB8C0CDCF820505E07F60E09FA4C
:1042600006F601E019E013E0B543CCF82050D0F891
:104270000CC02CEA020CC0F80CC0D0F804C02CEA28
:10428000070CC0F804C0D0F808C02CEA0202826013
:104290005B1C31FA03F27FF46DAFBDE8F08F04E0F0
:1042A00005E006E007E008E009E00022A9E70122B6
:1042B000A7E70222A5E70322A3E70422A1E705223C
:1042C0009FE701E002E003E006229AE7072298E771
:1042D000082296E7092294E7800000582DE9F04172
:1042E000354C0027354E4FF00208354D2078012817
:1042F0002DD134494FF440522868096800EB400042
:1043000001EB0030002106F0EBFE29680F2903D2F3
:1043100001F1010028601AE00AD14FF000024FF0CD
:104320000401304600F05FF92868401C28600EE068
:1043300010290CD184F800802F6000220221304621
:1043400000F051F901223046042100F04CF92078A8
:10435000082811D11C494FF440522868096800EB25
:10436000400001EB0030002106F0BAFE29680D295B
:1043700004D201F101002860BDE8F0810BD14FF0BB
:1043800000024FF00401304600F02DF92868401C6F
:104390002860BDE8F0810E29FBD184F800802F60F1
:1043A00000220221304600F01EF93046BDE8F041FF
:1043B0000122042100F017B9C61100240028025878
:1043C000BC110024D8110024FC11002410B54FF0BA
:1043D000B041D1F88820024203D0C1F88800FFF72D
:1043E0007DFF10BD2DE9F84F0022DFF8E4C10B6816
:1043F000002B7DD0DFF8DCB14FF0B04A4FF0010E5A
:104400004FF003084FF00F090B680EFA02F52B402E
:10441000002B6ED00C7904F00304012C01D0022C87
:1044200011D18668540008FA04F7BE43CF6807FA32
:1044300004F4344384604468AC430D79C5F300153B
:1044400095402C4344604C6838EA040409D0C568A0
:10445000540008FA04F6B5438E6806FA04F42C43B7
:10446000C4600C7904F00304022C0DD1D40800EBD5
:1044700084052E6A5407E40E09FA04F7BE430F6957
:1044800007FA04F434432C620568540008FA04F671
:10449000B5430E7906F0030606FA04F42C430460D3
:1044A0004C6814F4403F78D0DBF8004044F002043C
:1044B000CBF80040DBF8004004F00204009422F046
:1044C000030404F1B046D6F8084495072D0F09FA05
:1044D00005F724EA0707A0F1B044B4F5003463D02F
:1044E000A0F1B044B4F5013460D0A0F1B04401E0D3
:1044F00058E052E0B4F502345AD0A0F1B044B4F51B
:10450000033457D0A0F1B044B4F5043454D0A0F132
:10451000B044B4F5053451D0A0F1B044B4F506343C
:104520004ED0A0F1B044B4F507344BD0A0F1B04464
:10453000B4F5083448D0A0F1B044B4F5093445D0FE
:104540000A24AC403C43C6F80844DAF800409C43D7
:104550004D6815F4801F00D01C43CAF80040DAF8FB
:1045600004409C434D6815F4001F00D01C43CAF85A
:104570000440DCF804409C434D6815F4003F00D033
:104580001C43CCF80440DCF800409C434D6815F413
:10459000803F00D01C43CCF80040521C0B68D34035
:1045A0007FF432AFBDE8F88F0024CAE70124C8E7E2
:1045B0000224C6E70324C4E70424C2E70524C0E7B5
:1045C0000624BEE70724BCE70824BAE70924B8E7B5
:1045D00080000058F44402580069084201D00120CC
:1045E000704700207047002A01D08161704709049C
:1045F0008161704701480068000C70470010005C42
:1046000001488068704700001C13002470B5044600
:10461000002C21D021684CF6CC40086045F2555062
:10462000216808602168606848602168A068886027
:10463000FFF7E6FF05462068C06810F0070F12D0AC
:10464000FFF7DEFF401B312808D92068C06810F052
:10465000070F03D0032070BD012070BD2068C06823
:1046600010F0070FECD120680269E1688A4201D09E
:10467000016102E04AF6AA210160002070BD0068D5
:104680004AF6AA21016000207047000002488168B4
:1046900002781144816070471C13002410B5032078
:1046A00000F084FA02F070FA0F4A1168C1F3032394
:1046B0000E49CB5C03F01F03D840126802F00F02D2
:1046C000895C0B4A01F01F0120FA01F111600949D0
:1046D00008600F2000F010F808B1012010BD00F0B4
:1046E0001FFA002010BD000018440258785D010830
:1046F00000130024FC12002470B504460F4D2A78E4
:10470000002A0CD04FF47A700D49B0FBF2F0096822
:10471000B1FBF0F004F07CFB18B1012070BD01206A
:1047200070BD102C07D200222146501E00F008FA5E
:104730006C60002070BD012070BD00001C130024BF
:10474000FC120024002807D090F83D10022905D063
:10475000802181660120704701207047042180F884
:104760003D100068C16821F00101C1600020704760
:10477000002826D00168CA6822F00102CA600268D7
:104780000021D16002681161026851610268916183
:104790000268D16102681162026851620268916226
:1047A00002681163026851631F2203685A60C16581
:1047B00001664166816680F83D1080F83C1000205B
:1047C00070470120704700002DE9F8430446002798
:1047D00000974FF4165166480068B0FBF1F5206869
:1047E000012600F5F861C1F3841106FA01F14FF0DA
:1047F000A44212680A427DD0016811F0010F2DD049
:10480000C16811F0020F29D0C16821F00201C16016
:104810002168886810F0800F6DD0A26E42F002020D
:10482000A26610F4007F03D0A26E42F00402A266DA
:1048300010F4807F03D0A26E42F00802A26610F44A
:10484000806F03D0A26E42F01002A26610F4006FD7
:1048500003D0A06E40F02000A0664E602068016882
:1048600011F0100F09D0C16811F0200F05D01021F0
:104870004160A16C09B1204688472068016811F0A9
:10488000080F09D0C16811F0100F05D00821416050
:10489000E16C09B120468847206801684FF00408A0
:1048A00011F0040F09D0C16811F0080F05D0C0F84D
:1048B0000480216D09B1204688472068016811F005
:1048C000020F16D0C16811F0040F12D0C16821F098
:1048D0003E01C16094F83D00042830D021680220D8
:1048E000486084F83C7084F83D60616C09B12046F2
:1048F000884701E039E01DE0A06E002835D084F83B
:104900003D802068C16821F00101C16021680098E4
:10491000401C0090A84203D8C86810F0010FF6D1DF
:1049200084F83C70C86810F0010F14D0032084F89C
:104930003D0012E0A26E42F00102A26671E784F827
:104940003C7084F83D60A16D00290ED001B0204676
:10495000BDE8F043084784F83D60616D002904D04C
:1049600001B02046BDE8F0430847BDE8F8830000E9
:10497000FC12002470B50446FFF742FE0546DCB188
:10498000002684F83C60022084F83D002068C1685D
:1049900021F00101C1602068C06810F0010F12D041
:1049A000FFF72EFE401B052808D94020A0660320F3
:1049B00084F83D00012070BD012070BD2068C068F2
:1049C00010F0010FECD1204605F0D0F9E66526661F
:1049D0006666A666012084F83D00002070BD38B5EB
:1049E0000446DDF810C0002C0FD094F83C000128DC
:1049F0000DD0012084F83C0094F83D500020012D9A
:104A000007D084F83C00022038BD012038BD0220C8
:104A100038BD022584F83D50A0662068C56825F0A1
:104A20000105C5602046CDF800C005F0FAF9206800
:104A3000C16841F00601C160E06C20B12068C16826
:104A400041F01001C160206D20B12068C16841F0C3
:104A50000801C160A06C20B12068C16841F020014C
:104A6000C1602068C16841F00101C1606068B0F1B7
:104A7000804F04D12068C16841F48031C1600020BA
:104A800038BD0000144A41781160111D03780A1DD9
:104A9000002B1CD043680B60017BC37A090741EAF5
:104AA0000361837A41EAC341437B41EA8341837BCB
:104AB00041EA4341C37B41EA0341437A41EA03218E
:104AC000037A007841EA43010843106070470020F0
:104AD000086010607047000098ED00E0BFF35F8F42
:104AE0000448016821F48031016003490020086016
:104AF0007047000024ED00E094ED00E0064940F02E
:104B0000010008600548016841F480310160BFF38D
:104B10004F8FBFF36F8F704794ED00E024ED00E0FE
:104B2000704700280ADB012200F01F0102FA01F1A0
:104B30004009800000F1E020C0F80011704700003B
:104B40004DF8044D184B1B68C3F30223C3F1070C47
:104B5000BCF1040F01D94FF0040C1C1D072C01D22D
:104B6000002300E0DB1E012404FA0CFCACF1010C74
:104B70000CEA0101994004FA03F35B1E1A40114349
:104B8000002807DB00F1E020090180F800145DF83F
:104B9000044B704700F00F0000F1E020090180F89D
:104BA000141D5DF8044B70470CED00E000F00700A9
:104BB000064A11684FF6FF03194041EA002040F011
:104BC000FD7040F080601060704700000CED00E068
:104BD0000248016841F48071016070470048025842
:104BE0007047000070B50446002594F8410010F0AD
:104BF000020F35D0002084F84000082084F84100DE
:104C00002068016821F4F8110160206801684FF004
:104C1000010611F0040F10D0016821F004010160B9
:104C2000E16B10488865E06BFFF78CFDC0B184F83C
:104C300041602046FFF7D4FF12E0816811F0200F99
:104C40000CD00221C1602068016841F4003101608C
:104C50002068016841F00201016001E084F84160D0
:104C6000284670BDCBAF000802480178491C01708E
:104C7000704700009A1200242DE9F84F04460E46B2
:104C80001746FFF7BDFC834694F8400001280FD07B
:104C90004FF0010884F8408094F841004FF000097B
:104CA000012808D0022584F840902846BDE8F88FF6
:104CB0000220BDE8F88FC4F844904FF0020A84F84F
:104CC00041A0002220215B462046009706F0D6F93D
:104CD0000546002DE7D100223146204606F044F873
:104CE000706A10B184F84180DDE701225B46022141
:104CF0002046009706F0C2F90546002DD3D1206862
:104D0000C0F80CA084F84180CDE710B50446002C13
:104D10000CD02068016821F001010160204600F0FC
:104D20007DF90020606484F8410010BD012010BDB1
:104D30007047704770B5044620688168026811F0BA
:104D4000040F46D012F4802F43D000F1200194F8D4
:104D50004120122A04D094F84120222A1BD034E0AA
:104D6000806810F0040F30D0E06A70B1606A00789B
:104D70000870606A401C6062E06A401EE062206861
:104D8000806810F0040FEFD11FE02068016821F463
:104D90008021016019E0806810F0040F15D0A06B2D
:104DA00070B10878226B1070206B401C2063A06BE0
:104DB000401EA0632068806810F0040FEFD104E06B
:104DC0002068016821F4802101602046FFF7B1FFCF
:104DD00070BD11F0020F4FF0010574D012F4003FC6
:104DE00071D00221C1602068016821F4E0210160D6
:104DF00094F84100122818D094F84100222829D0B4
:104E000094F84100022853D094F841000828DFD1DB
:104E10002068416921F04061416184F84150606C33
:104E2000F0B32046FFF784FF70BD2068016811F0E1
:104E3000040F09D0016821F004010160E06B0068F3
:104E4000C16821F00101C16084F84150204600F0A2
:104E500077FA70BD2068016811F0040F0AD001686C
:104E600021F004010160E06B0068C16821F00101DC
:104E7000C16017E000F12001806810F47C5F11D060
:104E8000A06B78B10878226B1070206B401C2063F7
:104E9000A06B401EA0632068806810F47C5F00E077
:104EA0000DE0EDD184F84150204600F0A5F970BD29
:104EB00084F841502046FFF7D7FE70BD03E020463E
:104EC000FFF78EFE70BD11F0080F13D012F4002F03
:104ED00010D00821C1602068016811F4800F05D04E
:104EE000016821F41021016084F84150204600F04F
:104EF0008DF970BD11F0010F2DD012F4803F2AD032
:104F0000C5602068016821F470210160606C40F088
:104F1000020060642068016811F0040F15D0016878
:104F200021F004010160E16B11488865E06BFFF737
:104F300009FC0028DDD0606C40F00400606484F857
:104F400041502046FFF7F4FE70BD84F841502046E2
:104F5000FFF7EEFE70BD11F0100FFBD012F4801FB2
:104F6000F8D01021C160204600F058F970BD000053
:104F7000CBAF000838B50446FFF742FB05461CB12D
:104F800094F8410010B109E0012038BD204600F03E
:104F900079F841F28831204600F036F9206801683E
:104FA000A26821F47061521E41EA02210160A06CE6
:104FB000002220212B460090204606F05FF8014693
:104FC00041BBE269E06823791043226A42EA036246
:104FD00002432068036823F0D00323F07F431A4381
:104FE0000260A2696069024320684368DFF828C054
:104FF00003EA0C03B4F810C043EA0C431A434260BE
:105000002068026842F00102026000206064012012
:1050100084F84100084638BDFEF8E0FF10B5154C95
:1050200040212046FFF79AF804212046FFF796F822
:10503000114C4FF480712046FFF790F84FF4007147
:105040002046FFF78BF880212046FFF787F84021A4
:105050002046FFF783F80948016841F48041016068
:10506000016821F4804101600548016821F4804114
:10507000016010BD00040258001402587C4402581C
:10508000D44402582DE9F04F87B00646534D2868A6
:1050900040F480402860286800F480400190504827
:1050A000016841F480410160016821F480410160A0
:1050B0004C49086840F002000860086800F00200EF
:1050C0000190086840F002000860086800F00200E3
:1050D0000190086840F020000860086800F0200097
:1050E00001904FF0400BCDF808B04FF00208CDF81A
:1050F0000C8001200490032005904FF00A0ACDF89F
:1051000018A0DFF8E49002A94846FFF76BF90420E5
:105110000290002404940927069702A94846FFF745
:1051200061F94FF48079CDF80890CDF818A002A964
:105130002E48FFF757F94FF400700290CDF818A0F1
:1051400002A92A48FFF74EF94FF0800ACDF808A0CF
:10515000069702A92548FFF745F9CDF808B006974C
:1051600002A92248FFF73EF9002203215C20FFF745
:10517000E7FC5C20FFF7D5FC286840F001002860C0
:10518000286800F0010001901A49194808601620AB
:1051900048608C60C1F80CA00C61C1F814808C616F
:1051A000CC610C624FF000704862C1F82890CC626C
:1051B0000C634C638C63F1630E640846FFF7D8FA06
:1051C0000C48FFF7D7FB002202217A20FFF7B8FC3A
:1051D0007A20FFF7A6FC07B0BDE8F08FD444025850
:1051E0007C440258E044025800040258001402585B
:1051F00080000052A418002402484178491C4170E4
:10520000704700009A120024816470470248C178F8
:10521000491CC170704700009A12002470470000BA
:10522000F8B50446002520680269521C94F8403005
:10523000012B0CD0012784F8407094F841300026EF
:10524000012B06D0022584F840602846F8BD0220D4
:10525000F8BD6664002967D0E262122284F841201A
:105260000322C260E06AA06261622068426922F0A3
:1052700040624261E26B30485064E26B2F485065F7
:10528000E06B8665E06B0068026922F00C0222F494
:1052900040620261E06BC269DAB1102A23D0202A91
:1052A0002BD0606C40F00400606401250097A36A75
:1052B000206800F12002E06BFFF791FB38B3012575
:1052C000606C40F00400606484F8417084F84060D1
:1052D000BBE70068026922F0030222F4407242F048
:1052E00002020261E2E70068026922F0030222F48E
:1052F000407242F481720261D8E70068026922F0CC
:10530000030222F4407202F202220261CEE784F824
:1053100040602068016841F48031016020680168C4
:1053200041F00401016090E7606C40F008006064A7
:10533000012584F8406088E723B0000805B0000824
:1053400002488178491C8170704700009A1200243D
:1053500010B501F0CDFB05490968054AC1F30211FA
:10536000515C01F01F01C84010BD000020440258EC
:10537000785D010869490A6802F003020968C1F30F
:105380000511674B1B6803F00103DFF898C1DCF8D7
:1053900000C0CCF3CC0C1CFB03F300EE103AB8EECB
:1053A000400A002972D09FED601ADFED601A604B51
:1053B000002AF7EE000A44D0012A7ED0022A67D0E4
:1053C00002EE101A1968F8EE422A81EEA22AC1F301
:1053D000080101EE901AF8EE611A40EE011A31EE62
:1053E000A00A22EE000A1968C1F3462101EE101A44
:1053F000B8EE411A31EE201AC0EE011ABCEEE11AE5
:1054000080ED001A1968C1F3064101EE101AB8EEDA
:10541000411A31EE201AC0EE011ABCEEE11A80EDFD
:10542000011A1968C1F3066101EE101AB8EE411AAB
:1054300071EE200A80EE201ABCEEC10A80ED020A4D
:1054400070473C4AD2F800C01CF0200F21D01268EF
:10545000DFF8E4C0C2F3C1022CFA02F201EE902A96
:10546000F8EE612A01EE901A1968F8EE611A82EEE0
:10547000A12AC1F3080101EE901AF8EE611A40EE7C
:10548000011A31EEA00A22EE000AACE741E014E076
:1054900029E002EE101A1968F8EE422A81EEA22ADB
:1054A000C1F3080101EE901AF8EE611A40EE011AFC
:1054B00031EEA00A22EE000A95E701EE901A196873
:1054C000F8EE612ADFED1D1A81EEA22AC1F3080170
:1054D00001EE901AF8EE611A40EE011A31EEA00AC0
:1054E00022EE000A7FE701EE901ADFED152A196817
:1054F000F8EE611A82EEA12AC1F3080101EE901ABA
:10550000F8EE611A40EE011A31EEA00A22EE000A0E
:1055100069E70021016041608160704728440258BA
:105520002C44025834440258000000390024744CC2
:1055300030440258004402580090D0030024744ABA
:1055400020BCBE4B69490A6802F003020968C1F336
:105550000531674B1B68C3F30013DFF898C1DCF813
:1055600000C0CCF3CC0C1CFB03F300EE103AB8EEF9
:10557000400A002972D09FED601A604B002AF7EEB6
:10558000000A46D0DFED5E1A012A68D0022A67D0F1
:1055900002EE101A1968F8EE422A81EEA22AC1F32F
:1055A000080101EE901AF8EE611A40EE011A31EE90
:1055B000A00A22EE000A1968C1F3462101EE101A72
:1055C000B8EE411A31EE201AC0EE011ABCEEE11A13
:1055D00080ED001A1968C1F3064101EE101AB8EE09
:1055E000411A31EE201AC0EE011ABCEEE11A80ED2C
:1055F000011A1968C1F3066101EE101AB8EE411ADA
:1056000071EE200A80EE201ABCEEC10A80ED020A7B
:1056100070473C4AD2F800C01CF0200F21D012681D
:10562000DFF8E4C0C2F3C1022CFA02F201EE902AC4
:10563000F8EE612A01EE901A1968F8EE611A82EE0E
:10564000A12AC1F3080101EE901AF8EE611A40EEAA
:10565000011A31EEA00A22EE000AACE741E016E0A2
:1056600029E001EE901ADFED292A1968F8EE611A97
:1056700082EEA12AC1F3080101EE901AF8EE611A38
:1056800040EE011A31EEA00A22EE000A93E702EE84
:10569000101A1968F8EE422A81EEA22AC1F3080115
:1056A00001EE901AF8EE611A40EE011A31EEA00AEE
:1056B00022EE000A7FE701EE901ADFED152A196845
:1056C000F8EE611A82EEA12AC1F3080101EE901AE8
:1056D000F8EE611A40EE011A31EEA00A22EE000A3D
:1056E00069E70021016041608160704728440258E9
:1056F0002C4402583C4402580000003938440258F7
:105700000024744A004402580090D0030024744CD2
:1057100020BCBE4B69490A6802F003020968C1F364
:105720000551674B1B68C3F30023DFF898C1DCF811
:1057300000C0CCF3CC0C1CFB03F300EE103AB8EE27
:10574000400A002972D09FED601A604B002AF7EEE4
:10575000000A46D0DFED5E1A012A68D0022A67D01F
:1057600002EE101A1968F8EE422A81EEA22AC1F35D
:10577000080101EE901AF8EE611A40EE011A31EEBE
:10578000A00A22EE000A1968C1F3462101EE101AA0
:10579000B8EE411A31EE201AC0EE011ABCEEE11A41
:1057A00080ED001A1968C1F3064101EE101AB8EE37
:1057B000411A31EE201AC0EE011ABCEEE11A80ED5A
:1057C000011A1968C1F3066101EE101AB8EE411A08
:1057D00071EE200A80EE201ABCEEC10A80ED020AAA
:1057E00070473C4AD2F800C01CF0200F21D012684C
:1057F000DFF8E4C0C2F3C1022CFA02F201EE902AF3
:10580000F8EE612A01EE901A1968F8EE611A82EE3C
:10581000A12AC1F3080101EE901AF8EE611A40EED8
:10582000011A31EEA00A22EE000AACE741E016E0D0
:1058300029E001EE901ADFED292A1968F8EE611AC5
:1058400082EEA12AC1F3080101EE901AF8EE611A66
:1058500040EE011A31EEA00A22EE000A93E702EEB2
:10586000101A1968F8EE422A81EEA22AC1F3080143
:1058700001EE901AF8EE611A40EE011A31EEA00A1C
:1058800022EE000A7FE701EE901ADFED152A196873
:10589000F8EE611A82EEA12AC1F3080101EE901A16
:1058A000F8EE611A40EE011A31EEA00A22EE000A6B
:1058B00069E7002101604160816070472844025817
:1058C0002C44025844440258000000394044025815
:1058D0000024744A004402580090D0030024744C01
:1058E00020BCBE4BF0B589B00246FA4EDFF8E8C3E3
:1058F000FA48341FFA4DB2F5807FFA494FEA2C136B
:1059000020D0B2F5007F78D0F74FB2F5806F6CD021
:10591000B2F5006F6AD0B2F5805F00F07581B2F524
:10592000002F00F0CA81B2F5803F00F01782B2F577
:10593000804F00F03282B2F5004F00F0798209B05A
:105940000020F0BD326802F00702052A53D2DFE8DA
:1059500002F003101D502A00086810F0007F05D0E7
:1059600006A8FFF707FD079809B0F0BD09B00020B1
:10597000F0BD086810F0006F05D003A8FFF7E2FD46
:10598000039809B0F0BD09B00020F0BD086810F020
:10599000005F05D06846FFF7BDFE009809B0F0BD76
:1059A000002009B0F0BD226802F040520C6814F0EB
:1059B000040F00D08AB1D1F800C01CF4807F02D05F
:1059C000B2F1805F13D0096811F4003F02D0B2F148
:1059D000005FE6D009B00020F0BD0868C0F3C10048
:1059E0002CFA00F009B0F0BD07E05BE0B3E0184628
:1059F000F8E72846F6E70020F4E7326802F4E072A0
:105A0000802A21D003DC4AB1402A05D111E0C02A06
:105A100046D0B2F5807F22D00020E3E7086810F07E
:105A2000007F04D006A8FFF7A5FC0798DAE700205E
:105A3000D8E7086810F0006F04D003A8FFF782FDD4
:105A40000398CFE70020CDE7086810F0005F04D08E
:105A50006846FFF75FFE0098C4E70020C2E72268AF
:105A600002F040520C6814F0040F00D082B1D1F85B
:105A700000C01CF4807F02D0B2F1805F0ED00968B4
:105A800011F4003F02D0B2F1005FABD00020A9E7D3
:105A90000868C0F3C1002CFA00F0A3E71846A1E79C
:105AA00028469FE73A6802F46002B2F5800F23D0DF
:105AB00004DC5AB1B2F5001F06D112E0B2F5C00FF6
:105AC00047D0B2F5000F22D000208BE7086810F015
:105AD000007F04D006A8FFF74DFC079882E700205E
