:020000040800F2
:10000000003F0024AD02000815B2000821A200083C
:1000100091B100083D0E0008CDE600080000000088
:1000200000000000000000000000000009CD0008F2
:10003000E11300080000000019B2000831CE0008EA
:10004000C7020008C7020008C7020008C70200086C
:10005000C7020008C7020008C7020008C70200085C
:10006000C7020008C7020008C70200086D10000898
:10007000C7020008C7020008C7020008C70200083C
:10008000C7020008C7020008C7020008C70200082C
:10009000C7020008C7020008C7020008C114000810
:1000A000C7020008C7020008C7020008C70200080C
:1000B00019D00008C7020008C7020008C7020008DC
:1000C000C7020008C7020008C7020008ADCB00083D
:1000D000C7020008BDE60008C7020008C702000802
:1000E000C7020008C702000800000000C70200089D
:1000F00039D00008C7020008C7020008C70200087C
:10010000C702000869B80008C7020008C702000853
:10011000C7020008C7020008C702000829D000086B
:10012000C7020008C7020008C7020008C70200088B
:10013000C7020008C7020008C7020008C70200087B
:1001400000000000000000000000000000000000AF
:10015000C7020008C7020008C7020008C70200085B
:10016000C7020008C7020008C7020008C70200084B
:10017000C7020008C7020008C7020008C70200083B
:10018000C7020008C7020008C7020008C70200082B
:10019000C7020008C7020008C7020008C70200081B
:1001A000C7020008C7020008C7020008C70200080B
:1001B000C7020008C7020008C7020008C7020008FB
:1001C000C7020008C7020008C7020008C7020008EB
:1001D000C7020008C7020008C7020008C7020008DB
:1001E000C7020008C7020008C7020008C7020008CB
:1001F000C7020008C7020008C7020008C7020008BB
:10020000C7020008C7020008C7020008C7020008AA
:10021000C7020008C7020008C7020008C70200089A
:10022000C7020008C7020008C7020008000000005B
:10023000C7020008C702000800000000C70200084B
:10024000C7020008C7020008C7020008C70200086A
:10025000C7020008C7020008C7020008C70200085A
:10026000C7020008C7020008C7020008C70200084A
:10027000C7020008C7020008C7020008000000000B
:10028000C7020008C7020008C702000800000000FB
:1002900000000000C7020008DFF80CD000F06AFB85
:1002A00000480047450E0108003F002406488047EB
:1002B00006480047FEE7FEE7FEE7FEE7FEE7FEE74B
:1002C000FEE7FEE7FEE7FEE71DCF00089902000803
:1002D0002DE9F05F0546002092469B46884606467B
:1002E000814640241BE0284641464746224600F00E
:1002F00085FA53465A46C01A914110D31146184602
:10030000224600F016F82D1A67EB01084F462246E8
:100310000120002100F00DF817EB00094E41201ECE
:10032000A4F10104DFDC484631462A464346BDE8D5
:10033000F09F202A04DB203A00FA02F100207047E7
:100340009140C2F1200320FA03F319439040704713
:10035000202A06DBCB17203A41FA02F043EAE07389
:1003600006E041FA02F3D040C2F120029140084376
:100370001946704740EA01039B0703D009E008C90A
:10038000121F08C0042AFAD203E011F8013B00F85A
:10039000013B521EF9D27047D2B201E000F8012BA6
:1003A000491EFBD270470022F6E710B513460A46F5
:1003B00004461946FFF7F0FF204610BD421E12F812
:1003C000013F002BFBD111F8013B02F8013B002B50
:1003D000F9D17047421C10F8011B0029FBD1801A8B
:1003E0007047034611F8012B00F8012B002AF9D1C0
:1003F000184670472DE9FE4F804681EA0300C00F82
:100400000C46009021F0004123F00045B8EB0200BB
:10041000A94105D24046214690461C460B4602465D
:1004200023F00040104347D0270DC7F30A00C3F361
:100430000A510290401A019040286BDAC3F313006E
:1004400040F4801B0098924620B10023D2EB030AAF
:1004500063EB0B0B01985946C0F140025046FFF781
:1004600068FF06460D4650465946019AFFF770FF51
:1004700010EB08006141002487EA115284EAE77317
:100480001A4340D0009A62B3019A012A4FEA0752F8
:1004900015DC001B61EB02014FF0004202EA07523B
:1004A000CDE90042001C41F5801132462B4600F098
:1004B000FBF903B0BDE8F08F40462146F9E7001B89
:1004C00061EB0201001C41F5801300185B4120180C
:1004D000A2F5001747EB030140EAD570B6196D414C
:1004E00011E06D084FEA360645EAC0754FEA07523B
:1004F000001B61EB0201001C41F5801149084FEA25
:1005000030000019514132462B4603B0BDE8F04F90
:1005100000F0BBB90098012240000023D0EB02029A
:1005200063EBE073009821464FEAE074B8EB0000FB
:1005300061EB0401E9E783F000435BE781F00041F0
:1005400058E72DE9FE4F81EA030404F0004421F04E
:10055000004100944FF0000B23F0004350EA0104E7
:100560005ED052EA03045BD0C3F30A54C1F30A55C8
:100570002C44A4F2F3340194A0FB0254C1F3130100
:1005800041F48011C3F3130343F4801301FB0244CD
:1005900000FB034E840A970A44EA815447EA8357D2
:1005A000A4FB076802958D0A05FB07854FEA932C8B
:1005B00004FB0C542705029D4FEA065847EA1637FC
:1005C000B5EB08056EEB070C870E920E47EA811714
:1005D00042EA8312A7FB0201B6EB0B0164EB0004B5
:1005E0002B0D43EA0C335E1844EB1C50DA4651469F
:1005F000E7FB0201C5F313044FEA0B3343EA14533C
:100600004FEA0432019C43EA0603A4F10C0402946D
:10061000009CCDE900B400F047F903B0BDE8F08FCD
:1006200000200146F9E72DE9F04D81EA030404F0CA
:10063000004B21F0004514464FF0000A23F0004122
:1006400050EA050220D054EA01021DD0C5F30A5732
:100650000246C5F31303C1F31300C1F30A5640F475
:10066000801543F48013A7EB0608101BD64608F24A
:10067000FD3873EB050002D308F1010801E0921880
:100680005B41B8F1000F03DA00200146BDE8F08DB0
:1006900000204FF48011064684460EE0171B73EBD2
:1006A000050705D3121B63EB050306434CEA010C57
:1006B00049084FEA300092185B4150EA0107EDD13A
:1006C00052EA030012D082EA040083EA05010843DB
:1006D00005D0101BAB4106D20122002306E0002208
:1006E0004FF0004302E06FF0010253101AEB0600D6
:1006F0004CEB085110EB0A0041EB0B01BDE8F04D4B
:1007000000F0C3B80EB5C10F80EAE0700844CA0714
:10071000002140F233438DE80E000A460B4600F0FC
:10072000C3F803B000BD0EB540F233410291002181
:10073000CDE900110A460B4600F0B6F803B000BD43
:1007400000F0004230F000400AD0C10D01F56071A8
:10075000C0F3160042EA0151C20840071143704736
:10076000002001467047000030B5041E71F10004FE
:1007700004DB4FF00044404264EB0101141E73F1AE
:10078000000405DB1C464FF00043524263EB0403B8
:10079000994208BF904230BD01F0004330B421F0CF
:1007A000004150EA010206D00A0DA2F56072C1F3C1
:1007B0001301002A02DC30BC00207047440F44EAD9
:1007C000C104C100E01830BC00EBC25000F026B8F4
:1007D00030B50B46014600202022012409E021FA11
:1007E00002F59D4205D303FA02F5491B04FA02F50E
:1007F0002844151EA2F10102F1DC30BD202A04DBE1
:10080000203A21FA02F00021704721FA02F3D04089
:10081000C2F1200291400843194670470029A8BF41
:100820007047401C490008BF20F00100704710B419
:10083000B0FA80FC00FA0CF050EA010404BF10BCCE
:10084000704749B1CCF1200421FA04F411FA0CF1FB
:1008500018BF012121430843A3EB0C01CB1D4FEA34
:1008600000614FEA102042BF002010BC704700EB2F
:10087000C35010440029A4BF10BC7047401C49005D
:1008800008BF20F0010010BC704710B5141E73F1B2
:10089000000408DA401C41F1000192185B411A4340
:1008A00001D120F0010010BD2DE9F04D92469B468C
:1008B00011B1B1FA81F202E0B0FA80F22032904632
:1008C000FFF737FD04460F4640EA0A0041EA0B01F4
:1008D00053465A46084313D0114653EA010019D033
:1008E000C8F140025046FFF789FF05460E465046C4
:1008F00059464246FFF71DFD084305D0012004E09C
:1009000020463946BDE8F08D0020054346EAE076F2
:100910002C4337430A986305E40AA0EB0800002241
:10092000FD0A44EA47540A3002D500200146E9E7AF
:10093000010510196941DDE9084500196941BDE863
:10094000F04DA2E7C1F30A52C1F3130140F2FF33A5
:1009500041F480119A4202DA00200146704740F2C9
:1009600033439A42A2F2334202DC5242FFF746BFBF
:10097000FFF7DFBC064C074D06E0E06840F00103DE
:1009800094E8070098471034AC42F6D3FFF788FC90
:10099000F81C0108181D010870B5C1F30A5201F0D6
:1009A00000450024C1F3130140F2FF3341F48011EC
:1009B0009A4201DA002070BD40F233439A42A2F21B
:1009C000334203DC5242FFF719FF00E090402C4312
:1009D000F1D0404270BD70B58C1810F8015B15F075
:1009E000070301D110F8013B2A1106D110F8012BA1
:1009F00003E010F8016B01F8016B5B1EF9D12B07C6
:100A000005D40023521E0DD401F8013BFAE710F87B
:100A1000013BCB1A921C03E013F8015B01F8015B68
:100A2000521EF9D5A142D8D3002070BD70B504463E
:100A30004E492068884203D04D492068884208D139
:100A40004C48006800F4403008B1012009E0002063
:100A500007E04948006800F4403008B1012000E098
:100A60000020B8B105F000FE05466068B0F5803F93
:100A700006D0B0F5003F04D0B0F5403F08D105E006
:100A800000BF6068000CB5FBF0F502E0AD0800E0C7
:100A900000BF2AE04FF4002004F0FAFA054660682F
:100AA000C0F31101F9B980140C281CD2DFE800F062
:100AB0001B060708090A0B111315171900BF00BF01
:100AC00000BF00BF00BF6068800C4000B5FBF0F5C0
:100AD0000AE02D0908E06D0906E0AD0904E0ED0922
:100AE00002E02D0A00E000BF00BF03F051FA41F21E
:100AF0000301884210D82148854206D920688068C1
:100B000040F48070216888602FE02068806820F4BD
:100B100080702168886028E06D081948854206D8F1
:100B20002068806820F44070216888601DE01548C6
:100B3000854208D82068806820F4407040F48070B6
:100B40002168886011E01048854208D820688068D4
:100B500020F4407040F400702168886005E020684F
:100B6000806840F440702168886070BD00200240B9
:100B7000002102400823024008630258002D310181
:100B8000105E5F0020BCBE0040787D0170B5044659
:100B9000206809F082FD002851D120688068294929
:100BA000084048B1606D40F010006065A06D40F0F5
:100BB0000100A065012070BD206809F057FD03F019
:100BC000EDF90546204A2168914203D01F4A216869
:100BD000914201D11E4900E01E49084609F053FD2B
:100BE00006461A492068884201D1174800E020686B
:100BF0002168884200D00EBB1AE0206809F04DFD44
:100C000010B9206809F032FD03F0C8F9401B022832
:100C10000ED92068006800F0010048B9606D40F00E
:100C200010006065A06D40F00100A0650120C2E7E2
:100C30002068006800F001000028DED000BF00201E
:100C4000B9E700003F000080002002400021024080
:100C5000002302400063025810B52DED028B0022E4
:100C60004FF40041214803F08DF90AF08FFC204831
:100C700001F03EFAFF211E4801F088F909200AF030
:100C800035FD10EE104A2046FFF75AFD41EC180BD7
:100C900053EC182B17A00DF01BFD09F003FE6FF0AD
:100CA0000100194909680861174807F035FF0AF083
:100CB0008FFC00F0A7FC1548007808B900F0C0F8D8
:100CC00000F060FC00220421114803F05BF90022CF
:100CD00002210F4803F056F9002201210C4803F0CD
:100CE00051F90EF0FDFFBDEC028B10BD000C025857
:100CF000EC010024B5E7B3D8B5E7D1B9203D2025F4
:100D0000302E3366560D0A00000600244F000024E2
:100D10000004025808B50848007801280AD10020CC
:100D20000549087005A00DF0D3FC00F0ABFB009066
:100D30000FF0B8F808BD000084010024CAD5B5BD85
:100D4000C1CB0D0A0000000010B50124802103482A
:100D500003F006F900B10024204610BD000C025833
:100D600010B504462146024806F09CFB10BD000069
:100D70000803002410B5044806F0A7FB042801D09E
:100D8000012010BD0020FCE70803002410B500245A
:100D900000F014F8012801D0022010BD064806F02A
:100DA00055FD044634B94FF48041034806F0C0F9BC
:100DB00000B101242046F0E70803002408B5012013
:100DC0000090FFF7C1FF08B9002000909DF80000D7
:100DD00008BD00002DE9F04104460D4616460027E7
:100DE00033462A462146044806F078FE00B1012722
:100DF0003846BDE8F08100000803002401200149C5
:100E000008607047180000242DE9F04104460D46A3
:100E10001646002733462A462146044806F0DEFEE1
:100E200000B101273846BDE8F08100000803002426
:100E300001200149086070471400002400BFFEE74C
:100E400008B50122214922480FF08EFD2149087082
:100E5000084600780D2827D11FA00DF039FC4FF46B
:100E60000070284B00220221009018480FF03AFA37
:100E7000184908700846007888B923A00DF028FCAE
:100E8000012229A100200FF06FFD124908700122F4
:100E900025A10F480FF068FD0E49087014E023A04B
:100EA0000DF016FC00BFFEE70A48007848B109487B
:100EB000017824A00DF00CFC2BA00DF009FC00BF64
:100EC000FEE732A00DF004FC08BD00001D00002468
:100ED0000C130024C8000024A1B75344BFA8BBB919
:100EE000C3BBD3D0CEC4BCFECFB5CDB3A3ACBCB4D2
:100EF000BDABBDF8D0D0B8F1CABDBBAF2E2E2E0D04
:100F00000A000000881C0024A1B75344BFA8D2D116
:100F1000B3C9B9A6B8F1CABDBBAFCEC4BCFECFB58C
:100F2000CDB3A1A30D0A0000303A0000A1B6A1B6CE
:100F3000B8F1CABDBBAFCAA7B0DCA1A3A1B7A1B726
:100F40000D0A0000A3A1A3A15344BFA8B9D2D4D8CD
:100F5000CEC4BCFECFB5CDB3CAA7B0DCA1A32825B3
:100F600064290D0A00000000A3A1A3A1BFC9C4DC2D
:100F7000D4ADD2F2A3BA5344BFA8B3F5CABCBBAF39
:100F8000B2BBB3C9B9A6A1A30D0A0000466174663D
:100F900073206D6F756E742073756363657373650D
:100FA000640D0A0070B52DED028BB0EE408A9FED06
:100FB0001F0AF0EE408A00240025B5EEC08AF1EE4B
:100FC00010FA06D3B2EE020AB4EEC08AF1EE10FABD
:100FD00002DDBDEC028B70BDBCEEC80A10EE100A3B
:100FE00084B200EE104AB8EE400A38EE400AF0EE45
:100FF000408A9FED0F0A28EE800ABCEEC00A10EE70
:10100000100A85B221460BA00DF062FB29460EA006
:101010000DF05EFB204600F0E5F9284602F048FDA1
:101020000EA00DF055FB00BFD3E70000000000004C
:1010300000007A44436D645F64656C617920696E79
:1010400074202564200D0A00436D645F64656C6143
:101050007920646563202564200D0A0064656C6155
:1010600079206F766572200D0A00000010B50248E5
:1010700001F012FD10BD00000C0400240146374AA7
:101080000868904249D0354A18320868904244D0E6
:10109000324A3032086890423FD0304A48320868BD
:1010A00090423AD02D4A60320868904235D02B4A9F
:1010B00078320868904230D0284A903208689042CE
:1010C0002BD0264AA8320868904226D0244A0868C5
:1010D000904222D0224A1832086890421DD0204AFD
:1010E00030320868904218D01D4A48320868904251
:1010F00013D01B4A6032086890420ED0184A7832EA
:101100000868904209D0164A90320868904204D08C
:10111000134AA8320868904201D1012000E0002063
:10112000B0B10A78103A1823B2FBF3F000F00702CE
:101130000C4B9A5CCA65032805D90A686FF309024B
:10114000121D8A6503E00A686FF309028A6503E0ED
:10115000086820F0FF008865886D70471000024025
:1011600010040240E816010810B502682B4C036811
:10117000A34222D0294C14340368A3421DD0274C2B
:1011800028340368A34218D0244C3C340368A3429B
:1011900013D0224C50340368A3420ED01F4C643449
:1011A0000368A34209D01D4C78340368A34204D0DD
:1011B0001A4C8C340368A34201D1012300E00023C0
:1011C0008BB10378083B1424B3FBF4F1144B03EB0D
:1011D00081030366124B8033436601F01F04012331
:1011E000A340836618E00378103B1824B3FBF4F1A6
:1011F0000C4B9A4204D80B4BA83B9A4200D30831BF
:10120000094B03EB81030366074B8033436601F010
:101210001F040123A340836610BD00000854025838
:1012200000580258B8040240000802400179A9B3EE
:10123000082940D8204B02689A4222D01E4B143312
:1012400002689A421DD01C4B283302689A4218D07B
:10125000194B3C3302689A4213D0174B5033026843
:101260009A420ED0144B643302689A4209D0124B52
:10127000783302689A4204D00F4B8C3302689A424A
:1012800001D1012200E000224AB14A1E0B4B03EBC0
:101290008202C266094A4032026708E00BE04A1E39
:1012A000074B03EB8202C266054A403202674A1EC0
:1012B000012393404367704708540258005902586D
:1012C00000090240014600208A69D2B98A6A32B117
:1012D000012A0DD0022A03D0032A10D10EE000BF4C
:1012E000CA6A02F08072B2F1807F00D1012007E06B
:1012F000CA6AB2F1C07F00D1012001E000E000BF66
:1013000036E08A69B2F5005F1BD18A6A32B1012AE0
:1013100007D0022A03D0032A11D10AE000BF01201E
:101320000EE0CA6A02F08072B2F1807F00D1012023
:1013300006E0CA6AB2F1C07F00D1012000E000BF20
:1013400016E08A6A32B1012A05D0022A04D0032AA3
:101350000CD103E000BF00BF012008E0CA6A02F020
:101360008072B2F1807F00D1012000E000BF00BF99
:101370007047000010B5044600220121154802F014
:1013800001FE00224FF48071134802F0FBFD0120A2
:1013900002F08EFB012211460E4802F0F3FD00BF61
:1013A0000BF032FD20460EF033FF0BF019FD0EF06E
:1013B000EFFE0A49087000220121064802F0E2FD12
:1013C00000224FF48071044802F0DCFD03480078ED
:1013D00010BD0000001002580004025883010024D0
:1013E0007047000010B504466FF001000D49096810
:1013F000086100200B49096848620A4807F08CFB25
:1014000009E000BF084800780028FBD0601E84B2C5
:10141000002005490870002CF3D1024807F0D6FBE4
:1014200010BD0000680500245A0000240021144A61
:101430001268516212490968096841F00101104AB5
:101440001268116000BF0E490968496A8142FAD3E7
:1014500000BF0B490968096A41F21112114069B9CC
:1014600007490968096A9210114039B904490968A5
:10147000096821F00101024A1268116000BF70473B
:101480001C05002408B50B4840780B4948700B48F0
:1014900000780849087009484078487007480021DA
:1014A000016041600181034800880090BDF8001090
:1014B000084608BDE00100245C000024A01E0024B2
:1014C00010B5202002F040FC10BD000010B509F05E
:1014D000C9FE08A00DF0FCF80E48006840F00100BD
:1014E0000C49086040F2011003F042FA03F04CFA94
:1014F00010BD00000D0A202A2A2A2A20BDF8C8EBB8
:10150000B4FDBBFAC4A3CABD202A2A2A2A200D0A88
:10151000000000002048025872B600BFFEE730B558
:1015200004460D4600222946204600F001F830BD51
:10153000F0B50346012500241148407A01281CDA41
:1015400000200F4E767A0E4FB8553846467A001D69
:1015500040F82630001F467A083082553E46707AA1
:10156000461C7E72044604F1300008703A20487030
:101570002F2088700020C87000252846F0BD00008C
:10158000A009002410B50DA00DF0A2F80122104909
:1015900010480FF0E9F91049087010480A4612780F
:1015A00050F822100EA00DF093F80B48007820B1EF
:1015B0000FA00DF08DF8FFF7AFFF10BD0D0ACEC4E0
:1015C000BCFECFB5CDB3B3F5CABCBBAF0D0A0000AE
:1015D0001D0000240C130024C8000024D4000024A3
:1015E000B9D2D4D8CFB5CDB3202573200D0A0000D1
:1015F000665F6D6F756E74206572726F72200D0A72
:101600000000000070B58AB0242101A8FEF7CBFECF
:101610000025002600241D4805F04AFE1B4806F060
:1016200015F920B11AA00DF053F8FFF775FF1DA0B2
:101630000DF04EF820A00DF04BF801A9134805F06D
:1016400031FF08B1FFF768FF079C089DA00A46021A
:101650001EA001990DF03CF820A002990DF038F879
:1016600024A003990DF034F826A004990DF030F869
:10167000214629A00DF02CF829462DA00DF028F8C0
:10168000310D31A00DF024F80AB070BD080300241C
:10169000205344BFA8B3F5CABCBBAFCAA7B0DC0D8A
:1016A0000A0000000D0A5344BFA8B3F5CABCBBAF83
:1016B000B3C9B9A60D0A0000D0C5CFA2B4F2D3A118
:1016C000C8E7CFC2A3BA0D0A000000002043617230
:1016D0006420547970653A25640D0A0020436172D4
:1016E00064204361726456657273696F6E3A256453
:1016F0000D0A000020436C617373203A25640D0AC3
:10170000000000002052656C4361726441646420F3
:101710003A25640D0A000000204C6F67426C6F632D
:101720006B4E756D626572203A25640D0A000000EB
:10173000204C6F67426C6F636B53697A65203A2562
:1017400064427974650D0A002043617061636974B5
:1017500079203A256447420D0A0000002DE9F84F30
:1017600004460D464FF0000A0020009094F838001F
:10177000012800D100E000BFF849E868884200D0A5
:101780000EE0F7492068884200D100BFF549206883
:10179000884200D100BFF4492068884200D100BFD0
:1017A00000BF94F85000012802D10220BDE8F88F54
:1017B000012084F8500000BF206808F078FF00285E
:1017C0007ED12068C1692868C0F3130018B9286861
:1017D000C0F3846004E0286890FAA0F0B0FA80F0CA
:1017E00000F01F020120904001432068C161216880
:1017F000D5E9002001F1300CC0F3012B0CEB8B0379
:10180000D3F800C000F01F0E4FF01F0B0BFA0EFBB9
:101810002CEA0B0C00F01F0BC2F3846E0EFA0BFEC9
:101820004CEA0E0CC3F800C000BF206808F03FFF70
:101830008146206808F02CFF8046B9F1000F6FD177
:10184000B8F1000FFBD1AA682968206808F046FFAC
:10185000C648006800F07040B0F1805F07D1686949
:101860002168C968C1F382014900884014E02068FA
:10187000C06800F0100038B968692168C968C1F310
:1018800082014900884007E068692168C96801F061
:10189000100189084900884007462869042840D07B
:1018A00020682A68296900F1600C0CEB8103D3F8E9
:1018B00000C00CF0004C02F0F84B4BEA070B00E0C4
:1018C000CCE14CEA0B0CC3F800C000BF20686A7E74
:1018D0002969012A01D1D20700E00022134600F154
:1018E000600C0CEB8102D2F800C02CF0004C4CEAEA
:1018F000030CC2F800C000BF20682B7E2969012BB1
:1019000001D1DB0200E000231A46036923F4F0430F
:1019100001F01F0C02FA0CFC43EA0C03036100BF48
:1019200037E02068006E00F0F8402978B0EB816F56
:1019300005D12068006E20F000402168086620680C
:10194000406E00F0F8402978B0EB816F05D1206837
:10195000406E20F00040216848662068806E00F0EC
:10196000F8402978B0EB816F05D12068806E20F0B7
:101970000040216888662068C06E00F0F840297831
:10198000B0EB816F05D12068C06E20F00040216867
:10199000C866206808F081FE002872D12068EA68D5
:1019A0002968D0F8C030C1F3130C23EA0C0302F00D
:1019B000180BDFF8BCC12CFA0BFC0CEA010C43EA53
:1019C0000C03C0F8C03000BF6449E86888427DD18C
:1019D0002B68C3F313031BB92B68C3F3846304E0C0
:1019E0002B6893FAA3F3B3FA83F35B1C03F01F0392
:1019F000092B3ED82B68C3F313031BB92B68C3F321
:101A0000846304E02B6893FAA3F3B3FA83F35B1CBB
:101A100003F01F034FF0010C0CFA03FC2B68C3F317
:101A200013031BB92B68C3F3846304E02B6893FA98
:101A3000A3F3B3FA83F35B1C03F01F034CEA836C3C
:101A40002B68C3F313031BB92B68C3F3846304E04F
:101A50002B6893FAA3F3B3FA83F35B1C03F01F0321
:101A600003EB43034FF0000B4BEA03534CEA030331
:101A700041E02B68C3F3130323B92B68C3F38463DA
:101A800005E0A9E02B6893FAA3F3B3FA83F35B1C98
:101A900003F01F034FF0010C0CFA03FC2B68C3F397
:101AA00013031BB92B68C3F3846304E02B6893FA18
:101AB000A3F3B3FA83F35B1C03F01F034CEA836CBC
:101AC0002B68C3F313032BB92B6800E018E0C3F3B2
:101AD000846304E02B6893FAA3F3B3FA83F35B1CEB
:101AE00003F01F030A3B03EB43034FF0007B4BEA79
:101AF00003534CEA03031946AA68206808F0EEFD78
:101B0000286800F00040002866D0154A21689142FC
:101B100003D0144A2168914201D1164900E01649C8
:101B20000846816801F0E07600BF0D4920688842D0
:101B300003D00C492068884201D10E4800E00E48CD
:101B40000C4988421AD1064808F0A7FD834605488B
:101B500008F0A3FD4BEA000013E000000000FF477F
:101B60000020024000210240006002580010005C8A
:101B7000FFFF0F0000230240006302583E4808F0B8
:101B80008CFDE8BB3D492868884226D106F4000058
:101B900018BB39492068884266D1394B22689A427D
:101BA00003D0384B22689A4201D1374A00E0374AC5
:101BB000104646F4000108F0A5FD35480068354997
:101BC000B0FBF1F0401C4000009002E00098401E85
:101BD000009000980028F9D146E02F4928688842F3
:101BE00019D106F08070B0B92349206888423BD1F2
:101BF000234B22689A4205D0224B22689A4200E089
:101C000025E001D1204A00E0204A104646F08071CC
:101C100008F078FD28E021492868884224D106F49C
:101C2000800008BB1449206888421DD1144B2268EB
:101C30009A4203D0134B22689A4201D1124A00E023
:101C4000124A104646F4800108F05CFD0CE0606D1D
:101C500040F0200060654FF0010A05E0606D40F043
:101C6000200060654FF0010A00BF002084F850009A
:101C700000BF50469AE5000000600258000084CB87
:101C8000002002400021024000230240006302586D
:101C900030000024400D0300000052C70000B8CF00
:101CA00001460868006C70472DE9F84F04464FF074
:101CB00000090020009014B90120BDE8F88FE06809
:101CC00018B1207F012800D100BF606D30B92046D7
:101CD00000F030F90020A06584F850002068816889
:101CE000C1F3407131B120688168874A1140816039
:101CF00000BF00BF206808F0D5FCA8B92068816843
:101D0000824A114041F08051816000BF80480068E4
:101D10008049B0FBF1F0401C009002E00098401EAA
:101D2000009000980028F9D1206808F0BBFC48B961
:101D3000606D40F010006065A06D40F00100A0658E
:101D40004FF00109206808F0B2FC0646606D00F013
:101D5000100000287ED1002EFCD1606D20F4807030
:101D600040F002006065206808F097FC78BB6A4983
:101D70002068884203D069492068884201D16848B8
:101D800000E068486649884209D1634808F085FC4C
:101D90008246624808F081FC4AEA000002E062489C
:101DA00008F07BFC98B95C4B22689A4203D05B4BED
:101DB00022689A4201D15A4A00E05A4A10466168A4
:101DC000826822F47C120A43826000BF00BF02F0E6
:101DD000DFF841F2030188420ED9A06810280BD128
:101DE000607D216B41EA4030A168084340F00C015E
:101DF000207F41EA004508E0607D216B41EA4030E8
:101E0000A1680843217F40EA0145207F012803D1D2
:101E1000208C401E45EA4045606A28B1A08C00F441
:101E20007870A16A084305432068C0683F490840AC
:101E300028432168C860206808F039FC8046206883
:101E400008F026FC0746B8F1000F3BD1D7BB207D38
:101E5000E16A00E050E041EA80352068C06844F261
:101E60000301884328432168C86094F8380001289A
:101E700017D1606A08B1A06A00B900BFA08F401EE8
:101E8000012141EA0041206C0843616C0843A16CC8
:101E9000084321680969264A1140084321680861FE
:101EA00005E02068006920F00100216808612068D1
:101EB000006920F07040616B08432168086120468A
:101EC000FEF7B4FDE068012809D12068006B20F01E
:101ED0000F00A169491E08432168086305E02068D6
:101EE000006B20F00F0021680863606D20F0020095
:101EF00040F00100606505E0606D40F01000606535
:101F00004FF001094846D8E6C0FFFF5FC0FFFF7FE2
:101F100030000024400D0300002002400021024058
:101F200000230240006302580060025803C0F0FF23
:101F30001EF800FC38B504461249206888421FD1BB
:101F400000BF1148006840F080700F4908600846E3
:101F5000006800F08070009000BF00BF00BF08461E
:101F6000006840F0040008600846006800F00400C3
:101F7000009000BF00BF4FF00061084606F098FCDB
:101F800038BD000000600258E04402582DE9F047D7
:101F900004460F46524A2168914203D0514A2168B3
:101FA000914201D1504900E05049084608F06BFBCE
:101FB00005462069082801D1082628E01DB1052D15
:101FC00001D0092D0DD12068C06800F0010030B1AA
:101FD000606D40F0200060650120BDE8F0870426B8
:101FE00015E03F4A2168914203D03E4A2168914260
:101FF00001D13D4900E03D49084608F03FFB28B1CA
:10200000606D40F0200060650120E6E7042601F0E5
:10201000C5FF804617E0781CA8B101F0BFFFA0EB18
:102020000800B84200D877B920680068304050B93D
:10203000606D40F00400606500BF002084F850002F
:1020400000BF0320C9E72068006830400028E2D0C4
:10205000606D40F400706065206808F02DFB98B159
:10206000607D88B92068006800F0080008280BD15E
:10207000606D20F480706065606D00F4805018B968
:10208000606D40F00100606516492068884201D10A
:10209000134800E020682168884204D01DB1052D56
:1020A00001D0092D03D12068D0F80C9009E00D492A
:1020B0002068884201D10A4800E020688246DAF8A8
:1020C0000C90082E03D108202168086005E009F46F
:1020D000804010B90C202168086000207DE70000D6
:1020E0000020024000210240002302400063025809
:1020F0002DE9F0410446474A2168914203D0464AFF
:102100002168914201D1454900E04549084608F05F
:10211000BAFA0546206808F0CAFA002877D100BF4D
:1021200094F85000012802D10220BDE8F08101207E
:1021300084F8500000BF2046FEF728FD0646002E1A
:1021400060D1606D40F60161884340F48070606545
:1021500031492068884201D12E4800E0206821687A
:10216000884200D01DB9606D20F480106065606DFC
:1021700000F48050B0F5805F04D1A06D20F006001F
:10218000A06501E00020A0651C202168086000BF58
:10219000002084F8500000BF1F492068884201D108
:1021A0001C4800E020682168884204D01DB1052D3C
:1021B00001D0092D0ED12068C06800F0007028B150
:1021C000606D20F4005040F480506065206808F095
:1021D0007DFA1DE0606D40F4801060650E49206856
:1021E000884201D10B4800E020680746F86800F0FB
:1021F000007068B1606D20F4005040F4805060655C
:1022000006E004E000BF002084F8500000E0022651
:1022100030468AE7002002400021024000230240AD
:10222000006302582DE9F041044601F0B7FE8046F4
:1022300014B90120BDE8F08194F83500022808D0D7
:102240008020606500BF002084F8340000BF0120BA
:10225000F0E7FE492068884249D0FC4918312068DF
:10226000884244D0F9493031206888423FD0F7494C
:102270004831206888423AD0F44960312068884269
:1022800035D0F24978312068884230D0EF4990311A
:10229000206888422BD0ED49A8312068884226D09A
:1022A000EB492068884222D0E949183120688842E9
:1022B0001DD0E74930312068884218D0E4494831C0
:1022C0002068884213D0E2496031206888420ED0ED
:1022D000DF4978312068884209D0DD499031206893
:1022E000884204D0DA49A8312068884201D101200F
:1022F00000E0002068B12068006820F01E0021681E
:1023000008602068406920F08000216848612568E5
:1023100006E02068006820F00E002168086025684B
:10232000CA492068884270D0C8491831206888425C
:102330006BD0C64930312068884266D0C3494831E5
:102340002068884261D0C1496031206888425CD0F1
:10235000BE4978312068884257D0BC499031206806
:10236000884252D0B949A831206888424DD0B84936
:102370002068884249D0B64918312068884244D044
:10238000B3493031206888423FD0B1494831206894
:1023900088423AD0AE4960312068884235D0AC4995
:1023A00078312068884230D0A9499031206888422D
:1023B0002BD0A749A8312068884226D0A54920689B
:1023C000884222D0A3491431206888421DD0A149F7
:1023D00028312068884218D09E493C3120688842C4
:1023E00013D09C495031206888420ED099496431FD
:1023F0002068884209D0974978312068884204D003
:1024000094498C312068884201D1012000E00020ED
:1024100028B1206E006820F48070216E08608B491E
:102420002068884249D0894918312068884244D0C0
:1024300086493031206888423FD08449483120683D
:1024400088423AD0814960312068884235D07F493E
:1024500078312068884230D07C49903120688842A9
:102460002BD07A49A8312068884226D07849206844
:10247000884222D076491831206888421DD074499C
:1024800030312068884218D071494831206888422C
:1024900013D06F496031206888420ED06C49783182
:1024A0002068884209D06A4990312068884204D067
:1024B0006749A8312068884206D12068006820F06A
:1024C00001002168086005E02068006820F0010034
:1024D0002168086011E001F061FDA0EB080005280B
:1024E0000BD920206065032084F8350000BF002050
:1024F00084F8340000BF01209CE6286800F0010049
:102500000028E8D151492068884249D04F49183104
:102510002068884244D04D493031206888423FD0FD
:102520004A494831206888423AD048496031206899
:10253000884235D0454978312068884230D04349B7
:102540009031206888422BD04049A83120688842C9
:1025500026D03F492068884222D03D491831206862
:1025600088421DD03A4930312068884218D0384915
:1025700048312068884213D035496031206888424C
:102580000ED0334978312068884209D030499031E3
:102590002068884204D02E49A8312068884201D1A1
:1025A000012000E0002040B1A66D94F85C0000F02E
:1025B0001F013F208840B06007E0A76D94F85C00E1
:1025C00000F01F010120884078602049206888427F
:1025D00076D01E4918312068884271D01B493031AD
:1025E000206888426CD0194948312068884267D0F9
:1025F000164960312068884262D0144978312068D9
:1026000088425DD0114990312068884258D00F49E6
:10261000A8312068884253D00D49206888424FD0A5
:102620000B491831206888424AD009493031206866
:10263000884245D0064948312068884240D0044944
:102640006031206888423BD0014905E0100002401B
:1026500010040240085402587831206888422FD074
:102660002549206888422BD02349183120688842A8
:1026700026D022492068884222D02049143120687F
:1026800088421DD01D4928312068884218D01B4936
:102690003C312068884213D0184950312068884264
:1026A0000ED0164964312068884209D01349783128
:1026B0002068884204D011498C312068884201D1B9
:1026C000012000E0002068B1D4E919104860E06EF4
:1026D00040B1E06E006820F48070E16E0860D4E9DB
:1026E0001C104860012084F8350000BF002084F8E9
:1026F000340000BF00BF9DE5A0040240085402580A
:1027000070B504460CB9012070BD94F8350002285C
:1027100003D0802060650120F6E7DC49206888420C
:1027200049D0DA4918312068884244D0D74930313D
:10273000206888423FD0D5494831206888423AD045
:10274000D24960312068884235D0D049783120683C
:10275000884230D0CD499031206888422BD0CB4977
:10276000A8312068884226D0C9492068884222D0F2
:10277000C7491831206888421DD0C54930312068CA
:10278000884218D0C24948312068884213D0C049D5
:102790006031206888420ED0BD4978312068884277
:1027A00009D0BB4990312068884204D0B849A8318B
:1027B0002068884201D1012000E00020F0B304200D
:1027C00084F83500B149206888424BD0AF491831B0
:1027D0002068884246D0AD4930312068884241D0D7
:1027E000AA494831206888423CD0A8496031206815
:1027F000884237D0A54978312068884232D0A34931
:102800009031206888422DD0A049A83120688842A4
:1028100028D09F492068884224D09D4918312068DB
:1028200088421FD09A493031206888421AD098498E
:1028300048312068884215D0954900E020E0603199
:10284000206888420ED0924978312068884209D0A9
:102850008F4990312068884204D08D49A831206882
:10286000884206D12068006820F0010021680860D5
:1028700009E12068006820F001002168086002E199
:102880002068006820F00E00216808607F492068F9
:10289000884249D07D4918312068884244D07B491C
:1028A0003031206888423FD07849483120688842DA
:1028B0003AD0764960312068884235D07349783102
:1028C0002068884230D071499031206888422BD0EE
:1028D0006E49A8312068884226D06D492068884218
:1028E00022D06B491831206888421DD068493031A8
:1028F0002068884218D0664948312068884213D041
:1029000063496031206888420ED06149783120687F
:10291000884209D05E4990312068884204D05C49E1
:10292000A8312068884206D12068006820F00100A4
:102930002168086005E02068006820F00100216837
:10294000086052492068884270D050491831206888
:1029500088426BD04D4930312068884266D04B495F
:1029600048312068884261D04849603120688842F7
:102970005CD0464978312068884257D0434990312D
:102980002068884252D04149A831206888424DD001
:102990003F492068884249D03D4918312068884223
:1029A00044D03B493031206888423FD038494831D3
:1029B000206888423AD0364960312068884235D054
:1029C000334978312068884230D0314990312068CD
:1029D00088422BD02E49A8312068884226D02D4924
:1029E0002068884222D02B491431206888421DD0AB
:1029F000284928312068884218D026493C3120686F
:102A0000884213D023495031206888420ED0214992
:102A100064312068884209D01E4978312068884294
:102A200004D01C498C312068884201D1012000E08B
:102A30000020D8B1206E006820F48070216E0860FC
:102A4000A56D94F85C0000F01F01012088406860CB
:102A5000D4E919104860E06E40B1E06E006820F4DF
:102A60008070E16E0860D4E91C104860012084F891
:102A7000350000BF002084F8340000BF206D10B185
:102A80002046216D884700203EE6000010000240ED
:102A900010040240085402582DE9F84F0446002063
:102AA0000090FE4800684FF41651B0FBF1FAA66D95
:102AB000D4F858803768D8F80090F94920688842DF
:102AC00049D0F74918312068884244D0F449303160
:102AD000206888423FD0F2494831206888423AD085
:102AE000EF4960312068884235D0ED49783120685F
:102AF000884230D0EA499031206888422BD0E8499A
:102B0000A8312068884226D0E6492068884222D031
:102B1000E4491831206888421DD0E24930312068EC
:102B2000884218D0DF4948312068884213D0DD49F7
:102B30006031206888420ED0DA49783120688842B6
:102B400009D0D84990312068884204D0D549A831AD
:102B50002068884201D1012000E0002000287DD0BB
:102B600094F85C0000F01F010820884038400028DD
:102B700068D0CB492068884249D0C94918312068BB
:102B8000884244D0C6493031206888423FD0C44989
:102B90004831206888423AD0C14960312068884273
:102BA00035D0BF4978312068884230D0BC49903157
:102BB000206888422BD0BA49A8312068884226D0A4
:102BC000B8492068884222D0B64918312068884226
:102BD0001DD0B44930312068884218D0B1494831FD
:102BE0002068884213D0AF496031206888420ED0F7
:102BF000AC4978312068884209D0AA4990312068D0
:102C0000884204D0A749A8312068884204D12068AE
:102C1000006800F0040003E02068006800F008008D
:102C200080B12068006820F004002168086094F8F2
:102C30005C0000F01F0108208840B060606D40F02B
:102C40000100606594F85C0000F01F0101208840DD
:102C50003840E8B392492068884200E0B7E24BD0A0
:102C60008F4918312068884246D08D49303120681C
:102C7000884241D08A494831206888423CD08849FE
:102C800060312068884237D0854978312068884291
:102C900032D083499031206888422DD08049A831B4
:102CA0002068884228D07F492068884224D07D4906
:102CB0001831206888421FD07A4930312068884214
:102CC0001AD0784948312068884215D0754900E00B
:102CD00026E06031206888420ED072497831206841
:102CE000884209D06F4990312068884204D06D49EC
:102CF000A8312068884204D12068406900F0800033
:102D000002E020680068002050B194F85C0000F0F8
:102D10001F0101208840B060606D40F002006065D6
:102D200094F85C0000F01F01042088403840E8B3AC
:102D30005B49206888424BD0594918312068884245
:102D400046D0574930312068884241D054494831F3
:102D5000206888423CD0524960312068884237D090
:102D60004F4978312068884232D04D4990312068EF
:102D700088422DD04A49A8312068884228D0494944
:102D80002068884224D047491831206888421FD0E3
:102D900044493031206888421AD04249483120687D
:102DA000884215D03F496031206800E024E0884225
:102DB0000ED03C4978312068884209D03949903199
:102DC0002068884204D03749A8312068884204D15D
:102DD0002068006800F0020002E02068006800201F
:102DE00050B194F85C0000F01F0104208840B060EE
:102DF000606D40F00400606594F85C0000F01F0115
:102E0000102088403840E8B325492068884251D0D6
:102E100023491831206888424CD02149303120683C
:102E2000884247D01E4948312068884242D01C4918
:102E30006031206888423DD0194978312068884245
:102E400038D0174990312068884233D01449A831CE
:102E5000206888422ED01349206888422AD0114920
:102E600018312068884225D00E49303120688842C8
:102E700020D00C494831206888421BD00949603174
:102E8000206800E04DE0884214D00649783120687F
:102E900088420FD003499031206805E030000024BB
:102EA0001000024010040240884203D0FE4920680E
:102EB000884204D12068006800F0080003E0206820
:102EC000006800F0040060B394F85C0000F01F019B
:102ED00010208840B0602068006800F4802080B135
:102EE0002068006800F4002028B9206CC8B1204692
:102EF000216C884715E0A06C98B12046A16C8847EA
:102F00000FE02068006800F4807028B9206800682D
:102F100020F0080021680860206C10B12046216C68
:102F2000884794F85C0000F01F012020884038405A
:102F300000287DD0DD492068884249D0DB4918311E
:102F40002068884244D0D9493031206888423FD037
:102F5000D6494831206888423AD0D4496031206847
:102F6000884235D0D14978312068884230D0CF4965
:102F70009031206888422BD0CC49A8312068884203
:102F800026D0C949A8392068884221D0C64990393D
:102F9000206888421CD0C44978392068884217D0FC
:102FA000C14960392068884212D0BF494839206839
:102FB00088420DD0BC4930392068884208D0BA49CF
:102FC00018392068884203D0B7492068884204D164
:102FD0002068006800F0100003E02068006800F03E
:102FE000020028B394F85C0000F01F012020884004
:102FF000B06094F8350004282DD12068006820F0D6
:103000001600216808602068406920F0800021686F
:103010004861206C08B9A06C28B12068006820F0D5
:1030200008002168086094F85C0000F01F0100E0CF
:103030003FE03F208840B060012084F8350000BFA9
:10304000002084F8340000BF206D10B12046216DAF
:103050008847BDE8F88F2068006800F4802080B1C0
:103060002068006800F4002028B9606C08B320468E
:10307000616C88471DE0E06BD8B12046E16B884762
:1030800017E02068006800F4807068B92068006864
:1030900020F0100021680860012084F8350000BF8E
:1030A000002084F8340000BFE06B10B12046E16BD3
:1030B0008847606D00287AD0606D00F00100E8B3A9
:1030C000042084F835007949206888424BD077493C
:1030D00018312068884246D07449303120688842CF
:1030E00041D072494831206888423CD06F496031F4
:1030F0002068884237D06D4978312068884232D0C4
:103100006A499031206888422DD06849A8312068EA
:10311000884228D06449A8392068884223D062496F
:103120009039206888421ED05F49783920688842EB
:1031300019D05D4960392068884200E040E012D033
:1031400059494839206888420DD05749303920689C
:10315000884208D0544918392068884203D052491F
:103160002068884206D12068006820F001002168AC
:10317000086005E02068006820F001002168086010
:1031800000BF0098401C0090504500D905E0206821
:10319000006800F001000028F3D100BF206800683B
:1031A00000F0010020B1032084F8350003E00DE0B9
:1031B000012084F8350000BF002084F8340000BFEF
:1031C000E06C002802D02046E16C8847D9E13849FC
:1031D0002068884222D036491431206888421DD0A8
:1031E000334928312068884218D031493C31206861
:1031F000884213D02E495031206888420ED02C4985
:1032000064312068884209D0294978312068884291
:1032100004D027498C312068884201D1012000E088
:1032200000200028D2D02068056894F85C0000F0E7
:103230001F010420884000EA0900D8B305F004000B
:10324000C0B394F85C0000F01F0104208840C8F867
:10325000040005F4004080B105F4803030B9A06C62
:103260000028B3D02046A16C88478AE1206C002852
:10327000ACD02046216C884783E105F02000E8BBF4
:103280000A492068884253D008491831206888428A
:103290004ED0064930312068884249D00349483130
:1032A0002068884244D006E0B80402401000024082
:1032B000085402584FE0B44960312068884237D042
:1032C000B14978312068884232D0AF4990312068C6
:1032D00088422DD0AC49A8312068884228D0AB491B
:1032E0002068884224D0A9491831206888421FD01C
:1032F000A6493031206888421AD000E025E0A34971
:1033000048312068884213D0A04960312068884243
:103310000ED09E4978312068884209D09B4990316F
:103320002068884204D09949A8312068884206D193
:103330002068006820F008002168086005E0206827
:10334000006820F0040021680860206C10B320465B
:10335000216C884715E194F85C0000F01F01022001
:10336000884000EA0900E8B305F00200D0B394F801
:103370005C0000F01F0102208840C8F8040005F43A
:10338000004070B105F4803028B9606C10B120465F
:10339000616C8847F5E0E06BF0B32046E16B88474D
:1033A000EFE005F02000C0BB7749206888424ED08E
:1033B000754918312068884249D0734930312068F6
:1033C000884244D070494831206888423FD06E49D5
:1033D0006031206888423AD06B4978312068884251
:1033E00035D000E04EE068499031206888422ED008
:1033F0006549A8312068884229D0644920688842FC
:1034000025D0624918312068884220D05F49303188
:10341000206888421BD001E06EE02DE05B49483116
:103420002068884213D059496031206888420ED004
:10343000564978312068884209D054499031206833
:10344000884204D05149A8312068884206D12068BA
:10345000006820F014002168086005E0206800681A
:1034600020F00A0021680860012084F8350000BFC0
:10347000002084F8340000BFE06BE8B32046E16B25
:1034800088477EE094F85C0000F01F010820884027
:1034900000EA090080B305F0080068B33A492068E3
:1034A00088424BD0384918312068884246D0364986
:1034B00030312068884241D0334948312068884201
:1034C0003CD0314960312068884237D02E4978316C
:1034D0002068884232D02C499031206888422DD013
:1034E0002949A8312068884228D028492068884284
:1034F00024D02649183100E043E0206888421DD0DE
:10350000224930312068884218D02049483120684B
:10351000884213D01D496031206888420ED01B4973
:1035200078312068884209D0184990312068884253
:1035300004D01649A8312068884206D12068006866
:1035400020F01C002168086005E02068006820F079
:103550000E002168086094F85C0000F01F01012053
:103560008840C8F804000120606584F8350000BF79
:10357000002084F8340000BFE06C10B12046E16CFC
:10358000884700BF65E500001000024010040240BB
:103590002DE9F041044600F001FD804614B90120F8
:1035A000BDE8F081FE492068884249D0FC491831C5
:1035B0002068884244D0FA493031206888423FD0A0
:1035C000F7494831206888423AD0F549603120688F
:1035D000884235D0F24978312068884230D0F049AD
:1035E0009031206888422BD0ED49A831206888426C
:1035F00026D0EC492068884222D0EA491831206858
:1036000088421DD0E74930312068884218D0E5490A
:1036100048312068884213D0E249603120688842EE
:103620000ED0E04978312068884209D0DD499031D8
:103630002068884204D0DB49A8312068884201D143
:10364000012000E00020002873D0606A00B100BFB4
:10365000022084F8350000BF002084F8340000BF49
:10366000CF492068884249D0CD4918312068884226
:1036700044D0CB493031206888423FD0C8494831D6
:10368000206888423AD0C64960312068884235D0E7
:10369000C34978312068884230D0C14990312068D0
:1036A00088422BD0BE49A8312068884226D0BD4927
:1036B0002068884222D0BB491831206888421DD03A
:1036C000B84930312068884218D0B649483120685E
:1036D000884213D0B3496031206888420ED0B14986
:1036E00078312068884209D0AE49903120688842FC
:1036F00004D0AC49A8312068884206D1206800680F
:1037000020F001002168086005E02068006820F0D2
:103710000100216808600DE000F040FCA0EB08000B
:10372000052807D920206065032084F83500012092
:1037300036E76AE02068006800F001000028EBD15D
:103740002068056898480540D4E9020108432169CA
:10375000084361690843A1690843E1690843216A94
:1037600008430543606A042803D1D4E90B010843E8
:1037700005438E4800686FF30F00B0F1005F1DD362
:103780006068292802D360682E2811D960683F2814
:1037900002D3606842280BD96068472802D360686A
:1037A000482805D960684F2804D36068522801D89A
:1037B000012000E0002008B145F480152068056074
:1037C0002068456925F00705606A0543606A04289A
:1037D0000DD1A06A0543E06A48B12046FDF772FDAD
:1037E00028B140206065012084F83500D8E62068C3
:1037F00045612046FDF742FC064694F85C0000F067
:103800001F013F208840B0609EE0694920688842DF
:1038100022D067491431206888421DD0644928317C
:103820002068884218D062493C312068884213D011
:103830005F495031206888420ED05D49643120686C
:10384000884209D05A4978312068884204D05849C2
:103850008C312068884201D1012000E00020E0B3D3
:1038600053492068884222D0514914312068884247
:103870001DD04F4928312068884218D04C493C312E
:103880002068884213D04A495031206888420ED0BF
:10389000474964312068884209D045497831206819
:1038A000884204D042498C312068884201D10120ED
:1038B00000E0002000B100BF022084F8350000BF06
:1038C000002084F8340000BF2068056839480540AE
:1038D000A068402802D1102106E02EE0A0688028D0
:1038E00001D1C10100E00021E06841EAD001206976
:1038F00041EAD001606941EAD001A06941EAD00102
:10390000E06941EAD001206A41EA101005432068CD
:10391000056027492068401A1421B0FBF1F08000AF
:10392000E0652046FDF7AAFB074694F85C0000F02E
:103930001F0101208840786006E040206065032078
:1039400084F8350001202BE61549206888427FD095
:1039500013491831206888427AD0114930312068E3
:10396000884275D00E4948312068884270D00C4991
:103970006031206888426BD00949783120688842DC
:1039800066D0074990312068884261D00449A83147
:10399000206888425CD003492068884258D00BE0F8
:1039A00010000240100402403F8010FE0010005C36
:1039B000085402580F00FEFF3B4918312068884226
:1039C00046D0394930312068884241D036494831A3
:1039D000206888423CD0344960312068884237D022
:1039E000314978312068884232D02F49903120689F
:1039F00088422DD02C49A8312068884228D02B49F4
:103A00002068884224D029491431206888421FD078
:103A100026492831206888421AD024493C31206840
:103A2000884215D0214950312068884210D01F4962
:103A30006431206888420BD01C4978312068884264
:103A400006D01A498C312068884200E000E001D19C
:103A5000012000E0002000B32046FDF785FBA068B0
:103A6000802801D1002060602079216E0860D4E9AF
:103A700019104860606860B16068082809D820465D
:103A8000FDF7D4FB0020E16E0860D4E91C1048600B
:103A900003E00020E0662067606700206065012089
:103AA00084F8350000207BE51004024008540258D9
:103AB00070B5044600F072FA06462546681C10B13F
:103AC00004480078054400BF00F068FA801BA84253
:103AD000FAD370BD2C000024F0B50C460021504BE9
:103AE00098E001268E4006EA0402002A7ED04D4E60
:103AF0008F0856F827508E07370F0F26BE403540E7
:103B0000494EB04201D100262DE0484EB04201D1CD
:103B1000012628E0464EB04201D1022623E0454E60
:103B2000B04201D103261EE0434EB04201D104262B
:103B300019E0424EB04201D1052614E0404EB04299
:103B400001D106260FE03F4EB04201D107260AE020
:103B50003D4EB04201D1082605E03C4EB04201D1B5
:103B6000092600E00A268F073F0FBE40AE421FD154
:103B70001E6896431E605E6896435E604FF0B046D6
:103B8000766896434FF0B0477E603E46366896436F
:103B90003E608E07370F0F2606FA07F5214E8F0875
:103BA00056F82760AE431F4F4FEA910C47F82C6040
:103BB00006684FEA410C032707FA0CF73E430660FC
:103BC000CF0800F1200656F827604F074FEAD76C60
:103BD0000F2707FA0CF7BE434FEAD10C00F120077C
:103BE00047F82C60C6684FEA410C00E011E003275B
:103BF00007FA0CF7BE43C660476801268E40B743FC
:103C0000476086684FEA410C032707FA0CF7BE436A
:103C10008660491C24FA01F6002E7FF462AFF0BDE5
:103C200080000058080400580000025800040258A0
:103C300000080258000C02580010025800140258E4
:103C400000180258001C0258002002580024025894
:103C500010B50446202C62D100BF00BF00BF00BFDA
:103C600000BF00BF00BF00BF00BF00BF20212D4824
:103C700000F076F9012800D110BD012210212A4858
:103C800000F080F90320FDF7D1FB00221021264827
:103C900000F078F9022303222449254804F0A0FA11
:103CA00001221021204800F06DF92048007800041E
:103CB0001E49497840EA01201C49897808431D497A
:103CC00008600846006820F07F40086008460068E9
:103CD00007F0C2FD17490860084690ED000AB8EEEB
:103CE000C00ADFED150A80EE201AB1EE040A21EEBB
:103CF000000A124880ED000A11480088401C104953
:103D000008800E4890ED000A0E48006880ED000A19
:103D10000C480068001D0B4908600CF037F800BF24
:103D2000AAE700000008025800000258B200002470
:103D300084030024AC0000240000004B9C000024FD
:103D4000B80000249800002410B504460448006818
:103D5000204020B1024804602046FFF779FF10BDE3
:103D600088000058F8B502460B4600216F4DD7E099
:103D700001278F401E6806EA0704002C72D01E79C6
:103D800006F00306012E04D01E7906F00306022E6B
:103D900013D190684F000326BE40B0434F00DE6849
:103DA000BE4030439060506801268E40B0431E797B
:103DB000C6F300168E40304350601E7906F00306AD
:103DC000032E09D0D0684F000326BE40B0434F00F9
:103DD0009E68BE403043D0601E7906F00306022E76
:103DE00013D1CF0802F1200656F827004E07F70E30
:103DF0000F26BE40B0434F07FF0E1E69BE40304342
:103E0000CF0802F1200646F8270010684F0003266D
:103E1000BE40B0431E7906F003064F00BE4030435B
:103E200010605E6806F44036002E78D000BF404E29
:103E3000366846F002063E4F3E603E46366806F063
:103E40000206009600BF00BF3A4E8F0856F82700C2
:103E50008E07370F0F26BE40B043374EB24202D115
:103E600000262EE05BE0354EB24201D1012628E06B
:103E7000334EB24201D1022623E0324EB24201D18A
:103E800003261EE0304EB24201D1042619E02F4E27
:103E9000B24201D1052614E02D4EB24201D10626D0
:103EA0000FE02C4EB24201D107260AE02A4EB24260
:103EB00001D1082605E0294EB24201D1092600E0D1
:103EC0000A268F073F0FBE4030431A4E8F0846F830
:103ED00027004FF0B0463068A0435E6806F48016B5
:103EE00006B120434FF0B04630607068A0435E6872
:103EF00006F4001606B120434FF0B04670606868C3
:103F0000A0435E6806F4003606B120436860286866
:103F1000A0435E6806F4803606B120432860491C41
:103F20001E68CE40002E7FF423AFF8BD80000058FD
:103F3000F4440258080400580000025800040258D3
:103F400000080258000C02580010025800140258D1
:103F500000180258001C0258002002580024025881
:103F6000024613690B400BB1012000E000207047AE
:103F700010B5426921EA020302EA010443EA04435C
:103F8000836110BD0AB1816101E00B048361704758
:103F900001480068000C70470010005C0148006890
:103FA0007047000024000024024692F841002028B7
:103FB0002DD100BF92F84000012801D102207047A6
:103FC000012082F8400000BF242082F841001068E0
:103FD000006820F00100136818601068006820F481
:103FE00080501368186010680068084313681860F0
:103FF0001068006840F0010013681860202082F803
:10400000410000BF002082F8400000BFD7E7022037
:10401000D5E710B502460B4692F8410020282AD178
:1040200000BF92F84000012801D1022010BD0120FC
:1040300082F8400000BF242082F841001068006828
:1040400020F00100146820601068016821F470619C
:1040500041EA0321106801601068006840F0010027
:1040600014682060202082F8410000BF002082F800
:10407000400000BFDAE70220D8E7000010B5044690
:104080000CB9012010BD94F8410028B9002084F833
:104090004000204600F0F0F9242084F84100206818
:1040A000006820F0010021680860606820F07060FE
:1040B000216808612068806820F4004021688860D9
:1040C000E068012805D1A06840F4004021688860BC
:1040D00004E0A06840F4044021688860E068022899
:1040E00002D1800221684860206840681349084373
:1040F000216848602068C06820F400402168C860DA
:10410000D4E904010843A16940EA01202168C8609C
:10411000D4E907010843216808602068006840F07E
:1041200001002168086000206064202084F84100BC
:104130000020206384F8420000BFA3E70080000253
:104140002DE9FC5F0446894692469B46DDE90C78E2
:104150000E9E94F8410020287ED117B1B8F1000FCF
:1041600005D14FF4007060640120BDE8FC9F00BFE2
:1041700094F84000012801D10220F6E7012084F8DC
:10418000400000BFFFF70AFF054619230122D103B3
:104190002046009506F0E2F908B10120E5E722206B
:1041A00084F84100402084F8420000206064676287
:1041B000A4F82A8060635B46524649462046CDE912
:1041C000006506F033F930B100BF002084F84000EC
:1041D00000BF0120C9E7608DFF280CD9FF20208592
:1041E0003D48009094F828204FF0807349462046BF
:1041F00006F098F90BE0608D20853748009094F820
:1042000028204FF000734946204606F08BF900BF86
:104210003346002204212046009506F09FF908B19C
:104220000120A2E72068406A616A0870606A401C49
:104230006062208D401E2085608D401E6085608DEF
:1042400048B3208D38BB334600228021204600959C
:1042500006F084F918B100E03CE0012085E7608DAC
:10426000FF280CD9FF2020850020009094F82820FA
:104270004FF080734946204606F054F90BE0608DFC
:1042800020850020009094F828204FF000734946C4
:10429000204606F047F9608D0028B9D12A463146FC
:1042A000204606F08AF908B101205EE72020216847
:1042B000C86120684068094908402168486020209A
:1042C00084F84100002084F8420000BF84F84000D8
:1042D00000BF4AE7022048E70024008000E800FE13
:1042E0002DE9FC5F0446894692469B46DDE90C7841
:1042F0000E9E94F8410020287DD117B1B8F1000F2F
:1043000005D14FF4007060640120BDE8FC9F00BF40
:1043100094F84000012801D10220F6E7012084F83A
:10432000400000BFFFF73AFE054619230122D103E2
:104330002046009506F012F908B10120E5E721209A
:1043400084F84100402084F84200002060646762E5
:10435000A4F82A8060635B46524649462046CDE970
:10436000006506F0A1F830B100BF002084F84000DD
:1043700000BF0120C9E7608DFF280CD9FF202085F0
:104380000020009094F828204FF080734946204682
:1043900006F0C8F80BE0608D20850020009094F8AE
:1043A00028204FF000734946204606F0BBF800BFB6
:1043B0002A463146204606F02BF908B10120A4E731
:1043C000606A007821688862606A401C6062608D63
:1043D000401E6085208D401E2085608D40B3208D5D
:1043E00030BB3346002280212046009506F0B6F807
:1043F00010B1012089E73AE0608DFF280CD9FF2039
:1044000020850020009094F828204FF080734946C2
:10441000204606F087F80BE0608D20850020009094
:1044200094F828204FF000734946204606F07AF8A9
:10443000608D0028BCD12A463146204606F0BDF8E2
:1044400008B1012061E720202168C8612068406828
:104450000849084021684860202084F84100002075
:1044600084F8420000BF84F8400000BF4DE70220FE
:104470004BE7000000E800FE10B5B6B0044614217A
:1044800031A8FBF790FFBC2102A8FBF78CFF334952
:104490002068884260D1082002900F200B9078217C
:1044A0000C9102210D910E9103210F910021109189
:1044B000119112914FF48050229002A801F092F9CC
:1044C00008B1FDF729F800BF2548006840F0020058
:1044D000234908600846006800F00200019000BF10
:1044E00000BFC020319012203290002033903490D1
:1044F0000420359031A91B48FFF734FC00BF184851
:104500000830006840F4001015490831086008467A
:10451000006800F40010019000BF00BFC02031907F
:1045200012203290012033900020349004203590E6
:1045300031A90C48FFF716FC00BF09480830006895
:1045400040F400100649083108600846006800F48D
:104550000010019000BF00BF36B010BD00540040F5
:10456000E0440258000402580348006803490978EF
:104570000844014908607047240000242C000024EE
:1045800010B5032000F0B0F902F0B8F8104909683E
:10459000C1F303210F4A515C01F01F0120FA01F41D
:1045A0000B48006800F00F001146085C00F01F0087
:1045B00024FA00F008490860084804600F2000F061
:1045C0000FF808B1012010BD00F008F90020FAE74B
:1045D0001844025818170108340000243000002441
:1045E00070B504461148007808B9012070BD0F4825
:1045F00000784FF47A71B1FBF0F00D490968B1FB16
:10460000F0F5284604F05EF908B10120EEE7102C21
:1046100007D200222146501E00F028F90548046008
:1046200001E00120E2E70020E0E700002C00002488
:10463000300000242800002430B5034600240BB9C4
:10464000012030BD00BF93F83C00012801D10220B9
:10465000F7E7012083F83C0000BF93F83D000128F4
:1046600019D11868006900F0804090B9186801639A
:104670001868426331B91868006920F000401D686D
:10468000286109E01868006940F000401D68286151
:1046900002E0012400E0012400BF002083F83C0078
:1046A00000BF2046CDE770B50446FFF777FC05460E
:1046B0000CB9012070BD00BF002084F83C0000BF91
:1046C000022084F83D002068C06820F001002168C5
:1046D000C8600BE0FFF762FC401B052806D94020AC
:1046E000A066032084F83D000120E3E72068C0684D
:1046F00000F001000028EDD1204606F009F8002066
:10470000E06520666066A066012084F83D00002018
:10471000D0E700004178154A11600178F9B1121D07
:1047200041681160017B0907C27A41EA0261827A1D
:1047300041EAC241427B41EA8241827B41EA4241F5
:10474000C27B41EA0241427A41EA0221027A41EA0D
:10475000420102781143054A0832116005E0002148
:10476000024A121D1160121D1160704798ED00E0A1
:1047700000BF00BF00BFBFF35F8F00BF00BF00BF1F
:104780000548006820F48030034908600020024991
:10479000703108607047000024ED00E040F0010136
:1047A0000D4A11600C497039096841F480310A4A98
:1047B000703A116000BF00BF00BFBFF34F8F00BF52
:1047C00000BF00BF00BF00BF00BFBFF36F8F00BFBF
:1047D00000BF00BF7047000094ED00E008B500BFC7
:1047E0000648006840F00200044908600846006876
:1047F00000F00200009000BF00BF08BDF444025862
:1048000010B501460846002817DB00F01F030122FF
:104810009A400B4B440943F8242000BF00BF00BF5F
:10482000BFF34F8F00BF00BF00BF00BF00BF00BF7E
:10483000BFF36F8F00BF00BF00BF00BF10BD0000FF
:1048400080E100E00146084600280DDB00BF00BF04
:1048500000F01F0301229A4043099B0003F1E0236B
:10486000C3F8002100BF00BF00BF70472DE9F05F13
:1048700080460D46164609F053FF074639462A463C
:10488000334601F00700C0F1070ABAF1040F02D95C
:104890004FF0040A01E0C0F1070AD14600F1040A12
:1048A000BAF1070F02D24FF0000A01E0A0F1030AAB
:1048B000D4464FF0010A0AFA09FAAAF1010A0AEAF3
:1048C000020A0AFA0CFA4FF0010B0BFA0CFBABF1DF
:1048D000010B0BEA030B4AEA0B042146404609F0A0
:1048E00027FFBDE8F09F000000BF00F00702064B65
:1048F00019684FF6FF031940044B0B4343EA0221AA
:10490000014B196000BF70470CED00E00000FA0594
:1049100070B5044615480068C0F3800048B91348D4
:10492000006800F00700A04201D0012070BD002007
:10493000FCE70E48006820F0070020430B490860A0
:10494000FFF72CFB054607E0FFF728FB401BB0F5FF
:104950007A7F01D90120E9E7044808380068C0F3EC
:1049600040300028F0D00020E0E700000C4802585A
:1049700003490968034A11400143014A1160704725
:1049800028480258C0C000F01248006840F00500F6
:10499000104908600846006840F0020008600E48B0
:1049A000006840F004000C49086000BF00BF00BF71
:1049B000BFF34F8F00BF00BF00BF00BF00BF00BFED
:1049C000BFF36F8F00BF00BF00BF00BF00BF30BF8D
:1049D000704700001048025810ED00E010B501F0DB
:1049E00043FE05490968C1F30211044A515C01F014
:1049F0001F01C84010BD00002044025818170108CC
:104A000070B50146844D2D6805F00303824D2D6875
:104A1000C5F30510804D2D1D2D6805F001047E4D58
:104A20000C352D68C5F3CC0515FB04F501EE105AC5
:104A3000B8EE411AF0EE410A00286FD023B1012BE5
:104A40004ED0022B6BD16BE0734D283D2D68C5F322
:104A500040153DB3704D283D2D68C5F3C1066F4D1F
:104A600025FA06F201EE102AF8EE411A01EE100ABC
:104A7000B8EE411A81EE812A9FED691AC0EE811AC3
:104A8000654D08352D68C5F3080501EE105AB8EEDE
:104A9000411A31EE811AF7EE001A31EE211A22EE98
:104AA000010A1CE001EE100AB8EE411ADFED5D1AB2
:104AB00081EE812A9FED5A1AC0EE811A564D0835B3
:104AC0002D68C5F3080501EE105AB8EE411A31EE13
:104AD000811AF7EE001A31EE211A22EE010A5BE08C
:104AE00001EE100AB8EE411ADFED4F1A81EE812A6D
:104AF0009FED4B1AC0EE811A474D08352D68C5F35E
:104B0000080501EE105AB8EE411A31EE811AF7EE9F
:104B1000001A31EE211A22EE010A3DE077E01DE095
:104B200001EE100AB8EE411A9FED402AC2EE011ABA
:104B30009FED3B1A80EE812A374D08352D68C5F36D
:104B4000080501EE105AB8EE411A32EE011AB7EE1E
:104B5000002A31EE021A21EE810A1DE001EE100A50
:104B6000B8EE411ADFED2F1A81EE812A9FED2C1A43
:104B7000C0EE811A284D08352D68C5F3080501EEF1
:104B8000105AB8EE411A31EE811AF7EE001A31EEE2
:104B9000211A22EE010A00BF00BF1F4D08352D6803
:104BA000C5F3462501EE105AB8EE411AF7EE001A89
:104BB00031EE211AC0EE011ABCEEE11A81ED001AA5
:104BC000154D08352D68C5F3064501EE105AB8EEAF
:104BD000411AF7EE001A31EE211AC0EE011ABCEEAE
:104BE000E11A81ED011A0C4D08352D68C5F30665F3
:104BF00001EE105AB8EE411AF7EE001A31EE211A02
:104C0000C0EE011ABCEEE11A81ED021A03E00025A4
:104C10000D604D608D6070BD284402580090D00337
:104C2000000000460024744C0024744A001BB74B5B
:104C300070B50146844D2D6805F00303824D2D6843
:104C4000C5F30530804D2D1D2D68C5F300147E4D34
:104C500014352D68C5F3CC0515FB04F501EE105A8B
:104C6000B8EE411AF0EE410A00286FD023B1012BB3
:104C70004ED0022B6BD16BE0734D283D2D68C5F3F0
:104C800040153DB3704D283D2D68C5F3C1066F4DED
:104C900025FA06F201EE102AF8EE411A01EE100A8A
:104CA000B8EE411A81EE812A9FED691AC0EE811A91
:104CB000654D10352D68C5F3080501EE105AB8EEA4
:104CC000411A31EE811AF7EE001A31EE211A22EE66
:104CD000010A1CE001EE100AB8EE411ADFED5D1A80
:104CE00081EE812A9FED5A1AC0EE811A564D103579
:104CF0002D68C5F3080501EE105AB8EE411A31EEE1
:104D0000811AF7EE001A31EE211A22EE010A5BE059
:104D100001EE100AB8EE411ADFED4F1A81EE812A3A
:104D20009FED4B1AC0EE811A474D10352D68C5F323
:104D3000080501EE105AB8EE411A31EE811AF7EE6D
:104D4000001A31EE211A22EE010A3DE077E01DE063
:104D500001EE100AB8EE411A9FED402AC2EE011A88
:104D60009FED3B1A80EE812A374D10352D68C5F333
:104D7000080501EE105AB8EE411A32EE011AB7EEEC
:104D8000002A31EE021A21EE810A1DE001EE100A1E
:104D9000B8EE411ADFED301A81EE812A9FED2C1A10
:104DA000C0EE811A284D10352D68C5F3080501EEB7
:104DB000105AB8EE411A31EE811AF7EE001A31EEB0
:104DC000211A22EE010A00BF00BF1F4D10352D68C9
:104DD000C5F3462501EE105AB8EE411AF7EE001A57
:104DE00031EE211AC0EE011ABCEEE11A81ED001A73
:104DF000154D10352D68C5F3064501EE105AB8EE75
:104E0000411AF7EE001A31EE211AC0EE011ABCEE7B
:104E1000E11A81ED011A0C4D10352D68C5F30665B8
:104E200001EE105AB8EE411AF7EE001A31EE211ACF
:104E3000C0EE011ABCEEE11A81ED021A03E0002572
:104E40000D604D608D6070BD284402580090D00305
:104E5000000000460024744C0024744A001BB74B29
:104E600070B50146844D2D6805F00303824D2D6811
:104E7000C5F30550804D2D1D2D68C5F300247E4DD2
:104E80001C352D68C5F3CC0515FB04F501EE105A51
:104E9000B8EE411AF0EE410A00286FD023B1012B81
:104EA0004ED0022B6BD16BE0734D283D2D68C5F3BE
:104EB00040153DB3704D283D2D68C5F3C1066F4DBB
:104EC00025FA06F201EE102AF8EE411A01EE100A58
:104ED000B8EE411A81EE812A9FED691AC0EE811A5F
:104EE000654D18352D68C5F3080501EE105AB8EE6A
:104EF000411A31EE811AF7EE001A31EE211A22EE34
:104F0000010A1CE001EE100AB8EE411ADFED5D1A4D
:104F100081EE812A9FED5A1AC0EE811A564D18353E
:104F20002D68C5F3080501EE105AB8EE411A31EEAE
:104F3000811AF7EE001A31EE211A22EE010A5BE027
:104F400001EE100AB8EE411ADFED4F1A81EE812A08
:104F50009FED4B1AC0EE811A474D18352D68C5F3E9
:104F6000080501EE105AB8EE411A31EE811AF7EE3B
:104F7000001A31EE211A22EE010A3DE077E01DE031
:104F800001EE100AB8EE411A9FED402AC2EE011A56
:104F90009FED3B1A80EE812A374D18352D68C5F3F9
:104FA000080501EE105AB8EE411A32EE011AB7EEBA
:104FB000002A31EE021A21EE810A1DE001EE100AEC
:104FC000B8EE411ADFED301A81EE812A9FED2C1ADE
:104FD000C0EE811A284D18352D68C5F3080501EE7D
:104FE000105AB8EE411A31EE811AF7EE001A31EE7E
:104FF000211A22EE010A00BF00BF1F4D18352D688F
:10500000C5F3462501EE105AB8EE411AF7EE001A24
:1050100031EE211AC0EE011ABCEEE11A81ED001A40
:10502000154D18352D68C5F3064501EE105AB8EE3A
:10503000411AF7EE001A31EE211AC0EE011ABCEE49
:10504000E11A81ED011A0C4D18352D68C5F306657E
:1050500001EE105AB8EE411AF7EE001A31EE211A9D
:10506000C0EE011ABCEEE11A81ED021A03E0002540
:105070000D604D608D6070BD284402580090D003D3
:10508000000000460024744C0024744A001BB74BF7
:105090002DE9F0418AB00646B6F5807F70D1FE4812
:1050A000006800F00708B8F1050F65D2DFE808F0E6
:1050B000031221623000F8485038006800F0007098
:1050C000B0F1007F04D107A8FFF79AFC089C00E02C
:1050D000002453E0F0485038006800F00060B0F160
:1050E000006F04D104A8FFF7A3FD049C00E0002496
:1050F00044E0E9485038006800F00050B0F1005F2B
:1051000004D101A8FFF7ACFE019C00E0002435E0CB
:10511000E148001F006800F04055DF485038006843
:1051200000F00400042809D145B9DB485038006874
:10513000C0F3C101D94820FA01F41AE0D64850382A
:10514000006800F48070B0F5807F04D1B5F1805F15
:1051500001D1D34C0DE0D0485038006800F4003045
:10516000B0F5003F04D1B5F1005F01D1CD4C00E0B6
:10517000002403E0CC4C01E0002400BF24E3FFE75F
:10518000B6F5007F7AD1C448006800F4E078B8F141
:10519000800F2CD006DCB8F1000F0AD0B8F1400F18
:1051A00069D115E0B8F1C00F63D0B8F5807F62D146
:1051B0002CE0B9485038006800F00070B0F1007F72
:1051C00004D107A8FFF71CFC089C00E0002454E071
:1051D000B1485038006800F00060B0F1006F04D1B1
:1051E00004A8FFF725FD049C00E0002445E0AA4840
:1051F0005038006800F00050B0F1005F04D101A801
:10520000FFF72EFE019C00E0002436E0A248001FBC
:10521000006800F04055A0485038006800F00400D5
:10522000042809D145B99C4850380068C0F3C10131
:105230009A4820FA01F41BE097485038006800F4BF
:105240008070B0F5807F04D1B5F1805F01D1944CBE
:105250000EE091485038006800F40030B0F5003F8F
:1052600005D1B5F1005F02D18E4C01E006E00024CB
:1052700003E08D4C01E0002400BFA5E2B6F5806F8D
:105280007BD185480830006800F46008B8F5800FCD
:105290002CD006DCB8F1000F0AD0B8F5001F69D198
:1052A00015E0B8F5C00F63D0B8F5000F62D12CE05F
:1052B00079485038006800F00070B0F1007F04D1E8
:1052C00007A8FFF79DFB089C00E0002454E072480B
:1052D0005038006800F00060B0F1006F04D104A8FD
:1052E000FFF7A6FC049C00E0002445E06A48503823
:1052F000006800F00050B0F1005F04D101A8FFF792
:10530000AFFD019C00E0002436E06348001F006808
:1053100000F0405560485038006800F00400042850
:1053200009D145B95C4850380068C0F3C1015B48F9
:1053300020FA01F41BE058485038006800F48070EF
:10534000B0F5807F04D1B5F1805F01D1544C0EE0FF
:1053500051485038006800F40030B0F5003F05D1E6
:10536000B5F1005F02D14F4C01E006E0002403E0FC
:105370004D4C01E0002400BF26E2B6F5006F7BD162
:1053800045480830006800F0E068B8F1007F2CD094
:1053900006DCB8F1000F0AD0B8F1807F69D115E0C2
:1053A000B8F1407F63D0B8F1806F62D12CE03A4809
:1053B0005038006800F00070B0F1007F04D107A8F9
:1053C000FFF71EFB089C00E0002454E032485038F0
:1053D000006800F00060B0F1006F04D104A8FFF78E
:1053E00027FC049C00E0002445E02B48503800686E
:1053F00000F00050B0F1005F04D101A8FFF730FDCC
:10540000019C00E0002436E02348001F006800F003
:10541000405521485038006800F00400042809D1A4
:1054200045B91D4850380068C0F3C1011B4820FA37
:1054300001F41BE018485038006800F48070B0F5A3
:10544000807F04D1B5F1805F01D1154C0EE0124888
:105450005038006800F40030B0F5003F05D1B5F1D8
:10546000005F02D10F4C01E006E0002403E00E4C87
:1054700001E0002400BFA7E1B6F5805F7CD10648BB
:10548000006800F4E047B7F5005F32D00EDCA7B14A
:10549000B7F5805F6DD11EE0504402580090D003F4
:1054A00000093D0000366E010080BB00B7F5405F8B
:1054B0005DD0B7F5804F5CD129E0C548006800F0A9
:1054C0000070B0F1007F04D107A8FFF799FA089C9B
:1054D00000E000244FE0BE48006800F00060B0F13A
:1054E000006F04D104A8FFF7A3FB049C00E0002494
:1054F00041E0B748006800F00050B0F1005F04D10F
:1055000001A8FFF7ADFC019C00E0002433E0B048A7
:105510004C30006800F04055AD48006800F00400D1
:10552000042808D13DB9AA480068C0F3C101A948C0
:1055300020FA01F41AE0A648006800F48070B0F583
:10554000807F04D1B5F1805F01D1A34C0EE0A0486B
:10555000006800F40030B0F5003F06D1B5F1005FFF
:1055600003D19E4C02E007E003E0002403E09C4CE2
:1055700001E0002400BF27E1B6F5002F59D194487F
:105580005830006800F4403737B1B7F5803F11D08C
:10559000B7F5003F4AD11BE08D48006800F000607D
:1055A000B0F1006F04D104A8FFF742FB049C00E0B7
:1055B00000243DE08648006800F00050B0F1005F34
:1055C00004D101A8FFF74CFC039C00E000242FE06D
:1055D0007F484C30006800F040557D48006800F07E
:1055E0000400042808D13DB979480068C0F3C1011E
:1055F000784820FA01F418E07548006800F48070DB
:10560000B0F5807F04D1B5F1805F01D1724C0CE020
:105610006F48006800F40030B0F5003F04D1B5F1E8
:10562000005F01D16D4C00E0002401E0002400BFC8
:10563000CAE0B6F5803F28D165484C30006800F4D8
:1056400080371FB1B7F5803F1CD10DE0604800687E
:1056500000F00070B0F1007F04D107A8FFF7D0F987
:10566000089C00E000240FE05948006800F000604A
:10567000B0F1006F04D104A8FFF7DAFA069C00E04D
:10568000002401E0002400BF9EE0B6F5804F60D109
:105690004F485830006800F0E047B7F1405F2FD026
:1056A00007DC6FB1B7F1805F0ED0B7F1005F4DD16D
:1056B00018E0B7F1804F33D0B7F1A04F46D13AE0B0
:1056C000FFF78CF9044643E04148006800F00060B1
:1056D000B0F1006F04D104A8FFF7AAFA059C00E01E
:1056E000002435E03A48006800F00050B0F1005F57
:1056F00004D101A8FFF7B4FB029C00E0002427E0DE
:105700003348006800F00400042807D130480068DE
:10571000C0F3C1012F4820FA01F400E0002417E093
:105720002B48006800F48070B0F5807F01D12A4CCE
:1057300000E000240CE02648006800F40030B0F5DA
:10574000003F01D1254C00E0002401E0002400BF0F
:105750003AE0B6F5004F36D11D485030006800F0F1
:10576000405737B1B7F1805F0ED0B7F1005F27D156
:1057700018E01748006800F40030B0F5003F01D190
:10578000164C00E000241DE01148006800F0007095
:10579000B0F1007F04D107A8FFF732F9089C00E0C0
:1057A00000240FE00A48006800F00060B0F1006FCC
:1057B00004D104A8FFF73CFA059C00E0002401E0B6
:1057C000002400BF00E0002420460AB0BDE8F081BC
:1057D000004402580090D00300093D0000366E01DD
:1057E0000080BB002DE9F04104460025A846206852
:1057F00000F00060B0F1006F30D1606E48B1B0F5DC
:10580000801F0DD0B0F5001F10D0B0F5401F15D18E
:1058100013E0F948006840F40030F74908600FE0F1
:105820000221201D05F04EFD054609E0022104F18C
:10583000240005F0F9FD054602E001E0012500BF66
:1058400000BF55B9EC482430006820F44010616E68
:105850000843E9492431086000E0A846208800F4A4
:105860008070B0F5807F2DD1606D05281AD2DFE8F9
:1058700000F0030A10171800DF48006840F40030F9
:10588000DD49086010E00021201D05F01BFD0546E4
:105890000AE0002104F1240005F0C6FD054603E0FE
:1058A00002E001E0012500BF00BF55B9D248243015
:1058B000006820F00700616D0843CF49243108607B
:1058C00000E0A846208800F40070B0F5007F33D1D6
:1058D000A06D802817D003DC40B140281CD10CE01B
:1058E000C02817D0B0F5807F16D114E0C2480068F8
:1058F00040F40030C049086010E00021201D05F090
:10590000E1FC05460AE0002104F1240005F08CFDCD
:10591000054603E002E001E0012500BF00BF55B9E4
:10592000B5482430006820F4E070A16D0843B24906
:105930002431086000E0A846208800F48060B0F5BB
:10594000806F38D1D4F8A400B0F5800F19D004DCF2
:1059500050B1B0F5001F1DD10DE0B0F5C00F17D04C
:10596000B0F5000F16D114E0A348006840F40030F1
:10597000A149086010E00021201D05F0A3FC0546A8
:105980000AE0002104F1240005F04EFD054603E085
:1059900002E001E0012500BF00BF5DB996482C3050
:1059A000006820F46000D4F8A410084392492C3118
:1059B000086000E0A846208800F40060B0F5006FA1
:1059C00038D1D4F8A800B0F1007F19D004DC50B170
:1059D000B0F1807F1DD10DE0B0F1407F17D0B0F164
:1059E000806F16D114E08448006840F4003082498A
:1059F000086010E00021201D05F064FC05460AE067
:105A0000002104F1240005F00FFD054603E002E04B
:105A100001E0012500BF00BF5DB977482C30006868
:105A200020F0E060D4F8A810084373492C310860D6
:105A300000E0A846206800F00070B0F1007F27D198
:105A4000A06CA0B1102804D0202809D030280FD194
:105A50000CE06948006840F400306749086009E0DC
:105A60000221201D05F02EFC054603E002E001E0C6
:105A7000012500BF00BF55B95F482030006820F005
:105A80003000A16C08435C492031086000E0A84662
:105A9000208800F48050B0F5805F36D1E06DB0F51D
:105AA000005F19D004DC50B1B0F5805F1DD10DE06E
:105AB000B0F5405F17D0B0F5804F16D114E04E48D6
:105AC000006840F400304C49086010E00021201DBF
:105AD00005F0F8FB05460AE0002104F1240005F07A
