:020000040800F2
:10000000283E0024AD020008777C000875700008C7
:10001000757C0008710D0008CF9F000800000000EB
:100020000000000000000000000000000593000830
:100030005911000800000000797C0008AD93000809
:10004000C7020008C7020008C7020008C70200086C
:10005000C7020008C7020008C7020008C70200085C
:10006000C7020008C7020008C7020008C50E000842
:10007000C7020008C7020008C7020008C70200083C
:10008000C7020008C7020008C7020008C70200082C
:10009000C7020008C7020008C7020008991100083B
:1000A000C7020008C7020008C7020008C70200080C
:1000B00045950008C7020008C7020008C7020008EB
:1000C000C7020008C7020008C7020008E191000843
:1000D000C7020008C7020008C7020008C7020008DC
:1000E000C7020008C702000800000000C70200089D
:1000F0005D950008C7020008C7020008C702000893
:10010000C702000825810008C7020008C7020008CE
:10011000C7020008C7020008C7020008519500087E
:10012000C7020008C7020008C7020008C70200088B
:10013000C7020008C7020008C7020008C70200087B
:1001400000000000000000000000000000000000AF
:10015000C7020008C7020008C7020008C70200085B
:10016000C7020008C7020008C7020008C70200084B
:10017000C7020008C7020008C7020008C70200083B
:10018000C7020008C7020008C7020008C70200082B
:10019000C7020008C7020008C7020008C70200081B
:1001A000C7020008C7020008C7020008C70200080B
:1001B000C7020008C7020008C7020008C7020008FB
:1001C000C7020008C7020008C7020008C7020008EB
:1001D000C7020008C7020008C7020008C7020008DB
:1001E000C7020008C7020008C7020008C7020008CB
:1001F000C7020008C7020008C7020008C7020008BB
:10020000C7020008C7020008C7020008C7020008AA
:10021000C7020008C7020008C7020008C70200089A
:10022000C7020008C7020008C7020008000000005B
:10023000C7020008C702000800000000C70200084B
:10024000C7020008C7020008C7020008C70200086A
:10025000C7020008C7020008C7020008C70200085A
:10026000C7020008C7020008C7020008C70200084A
:10027000C7020008C7020008C7020008000000000B
:10028000C7020008C7020008C702000800000000FB
:1002900000000000C7020008DFF80CD000F06AFB85
:1002A00000480047D9D10008283E0024064880476E
:1002B00006480047FEE7FEE7FEE7FEE7FEE7FEE74B
:1002C000FEE7FEE7FEE7FEE76994000899020008F2
:1002D0002DE9F05F0546002092469B46884606467B
:1002E000814640241BE0284641464746224600F00E
:1002F00085FA53465A46C01A914110D31146184602
:10030000224600F016F82D1A67EB01084F462246E8
:100310000120002100F00DF817EB00094E41201ECE
:10032000A4F10104DFDC484631462A464346BDE8D5
:10033000F09F202A04DB203A00FA02F100207047E7
:100340009140C2F1200320FA03F319439040704713
:10035000202A06DBCB17203A41FA02F043EAE07389
:1003600006E041FA02F3D040C2F120029140084376
:100370001946704740EA01039B0703D009E008C90A
:10038000121F08C0042AFAD203E011F8013B00F85A
:10039000013B521EF9D27047D2B201E000F8012BA6
:1003A000491EFBD270470022F6E710B513460A46F5
:1003B00004461946FFF7F0FF204610BD421E12F812
:1003C000013F002BFBD111F8013B02F8013B002B50
:1003D000F9D17047421C10F8011B0029FBD1801A8B
:1003E0007047034611F8012B00F8012B002AF9D1C0
:1003F000184670472DE9FE4F804681EA0300C00F82
:100400000C46009021F0004123F00045B8EB0200BB
:10041000A94105D24046214690461C460B4602465D
:1004200023F00040104347D0270DC7F30A00C3F361
:100430000A510290401A019040286BDAC3F313006E
:1004400040F4801B0098924620B10023D2EB030AAF
:1004500063EB0B0B01985946C0F140025046FFF781
:1004600068FF06460D4650465946019AFFF770FF51
:1004700010EB08006141002487EA115284EAE77317
:100480001A4340D0009A62B3019A012A4FEA0752F8
:1004900015DC001B61EB02014FF0004202EA07523B
:1004A000CDE90042001C41F5801132462B4600F098
:1004B000FBF903B0BDE8F08F40462146F9E7001B89
:1004C00061EB0201001C41F5801300185B4120180C
:1004D000A2F5001747EB030140EAD570B6196D414C
:1004E00011E06D084FEA360645EAC0754FEA07523B
:1004F000001B61EB0201001C41F5801149084FEA25
:1005000030000019514132462B4603B0BDE8F04F90
:1005100000F0BBB90098012240000023D0EB02029A
:1005200063EBE073009821464FEAE074B8EB0000FB
:1005300061EB0401E9E783F000435BE781F00041F0
:1005400058E72DE9FE4F81EA030404F0004421F04E
:10055000004100944FF0000B23F0004350EA0104E7
:100560005ED052EA03045BD0C3F30A54C1F30A55C8
:100570002C44A4F2F3340194A0FB0254C1F3130100
:1005800041F48011C3F3130343F4801301FB0244CD
:1005900000FB034E840A970A44EA815447EA8357D2
:1005A000A4FB076802958D0A05FB07854FEA932C8B
:1005B00004FB0C542705029D4FEA065847EA1637FC
:1005C000B5EB08056EEB070C870E920E47EA811714
:1005D00042EA8312A7FB0201B6EB0B0164EB0004B5
:1005E0002B0D43EA0C335E1844EB1C50DA4651469F
:1005F000E7FB0201C5F313044FEA0B3343EA14533C
:100600004FEA0432019C43EA0603A4F10C0402946D
:10061000009CCDE900B400F047F903B0BDE8F08FCD
:1006200000200146F9E72DE9F04D81EA030404F0CA
:10063000004B21F0004514464FF0000A23F0004122
:1006400050EA050220D054EA01021DD0C5F30A5732
:100650000246C5F31303C1F31300C1F30A5640F475
:10066000801543F48013A7EB0608101BD64608F24A
:10067000FD3873EB050002D308F1010801E0921880
:100680005B41B8F1000F03DA00200146BDE8F08DB0
:1006900000204FF48011064684460EE0171B73EBD2
:1006A000050705D3121B63EB050306434CEA010C57
:1006B00049084FEA300092185B4150EA0107EDD13A
:1006C00052EA030012D082EA040083EA05010843DB
:1006D00005D0101BAB4106D20122002306E0002208
:1006E0004FF0004302E06FF0010253101AEB0600D6
:1006F0004CEB085110EB0A0041EB0B01BDE8F04D4B
:1007000000F0C3B80EB5C10F80EAE0700844CA0714
:10071000002140F233438DE80E000A460B4600F0FC
:10072000C3F803B000BD0EB540F233410291002181
:10073000CDE900110A460B4600F0B6F803B000BD43
:1007400000F0004230F000400AD0C10D01F56071A8
:10075000C0F3160042EA0151C20840071143704736
:10076000002001467047000030B5041E71F10004FE
:1007700004DB4FF00044404264EB0101141E73F1AE
:10078000000405DB1C464FF00043524263EB0403B8
:10079000994208BF904230BD01F0004330B421F0CF
:1007A000004150EA010206D00A0DA2F56072C1F3C1
:1007B0001301002A02DC30BC00207047440F44EAD9
:1007C000C104C100E01830BC00EBC25000F026B8F4
:1007D00030B50B46014600202022012409E021FA11
:1007E00002F59D4205D303FA02F5491B04FA02F50E
:1007F0002844151EA2F10102F1DC30BD202A04DBE1
:10080000203A21FA02F00021704721FA02F3D04089
:10081000C2F1200291400843194670470029A8BF41
:100820007047401C490008BF20F00100704710B419
:10083000B0FA80FC00FA0CF050EA010404BF10BCCE
:10084000704749B1CCF1200421FA04F411FA0CF1FB
:1008500018BF012121430843A3EB0C01CB1D4FEA34
:1008600000614FEA102042BF002010BC704700EB2F
:10087000C35010440029A4BF10BC7047401C49005D
:1008800008BF20F0010010BC704710B5141E73F1B2
:10089000000408DA401C41F1000192185B411A4340
:1008A00001D120F0010010BD2DE9F04D92469B468C
:1008B00011B1B1FA81F202E0B0FA80F22032904632
:1008C000FFF737FD04460F4640EA0A0041EA0B01F4
:1008D00053465A46084313D0114653EA010019D033
:1008E000C8F140025046FFF789FF05460E465046C4
:1008F00059464246FFF71DFD084305D0012004E09C
:1009000020463946BDE8F08D0020054346EAE076F2
:100910002C4337430A986305E40AA0EB0800002241
:10092000FD0A44EA47540A3002D500200146E9E7AF
:10093000010510196941DDE9084500196941BDE863
:10094000F04DA2E7C1F30A52C1F3130140F2FF33A5
:1009500041F480119A4202DA00200146704740F2C9
:1009600033439A42A2F2334202DC5242FFF746BFBF
:10097000FFF7DFBC064C074D06E0E06840F00103DE
:1009800094E8070098471034AC42F6D3FFF788FC90
:10099000C8E60008E8E6000870B5C1F30A5201F0A5
:1009A00000450024C1F3130140F2FF3341F48011EC
:1009B0009A4201DA002070BD40F233439A42A2F21B
:1009C000334203DC5242FFF719FF00E090402C4312
:1009D000F1D0404270BD70B58C1810F8015B15F075
:1009E000070301D110F8013B2A1106D110F8012BA1
:1009F00003E010F8016B01F8016B5B1EF9D12B07C6
:100A000005D40023521E0DD401F8013BFAE710F87B
:100A1000013BCB1A921C03E013F8015B01F8015B68
:100A2000521EF9D5A142D8D3002070BD70B53A4905
:100A300005460068884202D0384A904202D1D1F877
:100A4000080302E03648D0F8080310F4403F11D004
:100A500003F002FF04466868B0F5803F06D0B0F5A9
:100A6000003F03D0B0F5403F26D101E0000C17E075
:100A7000A40821E04FF4002003F020F80446686841
:100A80008103890B18D181140C2915D2DFE801F0FC
:100A9000140606060606060B0D0F1113800C400007
:100AA000B4FBF0F408E0240906E0640904E0A409BA
:100AB00002E0E40900E0240A02F0DAF941F203015D
:100AC000884208D8174884422868816813D821F4DE
:100AD0008071816070BD14496008884204D828681C
:100AE000816821F44071F4E71049884206D82868EB
:100AF000816821F4407141F48071EAE70C49884231
:100B00002868816804D821F4407141F40071E0E75D
:100B100041F44071DDE70000002002400021024066
:100B200000600258002D3101105E5F0020BCBE0045
:100B300040787D0170B504460068816811F0010FAE
:100B400040D18168204A11422DD18168D543294086
:100B5000491C816002F092F91C49064620681C4B32
:100B6000884201D0984201D11A4A00E01A4A92689C
:100B7000984202F01F0200D0014681421DD0E2B12E
:100B800020E0816811F0010F03D181682940491CE0
:100B9000816002F073F9801B02280ED9206800687A
:100BA000C043C00709D0606D40F010006065A06DC3
:100BB00040F00100A065012070BD20680168C943B4
:100BC000C907DED1002070BD3F0000800020024038
:100BD00000210240002302400063025810B5234860
:100BE00000224FF4004102F03EF907F0BBF9204823
:100BF00000F0C4FF1E48FF2100F02EFF092007F07F
:100C000059FA10EE100AFFF79BFD41EC100B19A0EA
:100C100053EC102B09F0DCF906F0B0FC1A4801681F
:100C20006FF001000861184805F0C6FC07F0BEF936
:100C300000F042FB1548807808B900F09BF800F0FE
:100C4000FBFA134C00220421204602F00CF900228A
:100C50002046022102F007F900222046012102F07D
:100C600002F9BDE810400AF03BBB0000000C02583E
:100C70005C010024B5E7B3D8B5E7D1B9203D202504
:100C8000302E3366560D0A00700500244000002403
:100C90000004025808F086B810B5044801248021E9
:100CA00002F0D4F800B10024204610BD000C025818
:100CB0000146014804F004BB78020024044810B542
:100CC00004F010FB042801D0012010BD002010BD4D
:100CD0007802002410B500F015F8012801D0022098
:100CE00010BD074804F09AFC040006D104484FF4F4
:100CF000804104F02FF900B10124204610BD00000E
:100D00007802002408B501208DF80000FFF7C4FF29
:100D100010B900208DF800009DF8000008BD00000B
:100D200013460A4610B500240146034804F084FD2A
:100D300000B10124204610BD7802002401490120A1
:100D4000886070471000002413460A4610B500243E
:100D50000146034804F0E4FD00B10124204610BD23
:100D600078020024014901204860704710000024E7
:100D7000FEE7000038B51D4901221D480BF0D8FBE5
:100D80001C4C0D280146607008D0002928D01AA0FC
:100D900009F01EF921A009F01BF9FEE728A009F0CF
:100DA00017F94FF400700090304B00220F480221D9
:100DB0000BF012F9607018B12DA009F009F9FEE7E7
:100DC00031A009F005F90122002037A10BF0B0FB9A
:100DD00060700122064834A10BF0AAFB607038BD98
:100DE000BDE8384031A009F0F3B800001D00002430
:100DF0002C12002480000024A3A1A3A15344BFA867
:100E0000B9D2D4D8CEC4BCFECFB5CDB3CAA7B0DC5E
:100E1000A1A3282564290D0A00000000A3A1A3A115
:100E2000BFC9C4DCD4ADD2F2A3BA5344BFA8B3F552
:100E3000CABCBBAFB2BBB3C9B9A6A1A30D0A00001F
:100E4000A1B75344BFA8BBB9C3BBD3D0CEC4BCFE6B
:100E5000CFB5CDB3A3ACBCB4BDABBDF8D0D0B8F169
:100E6000CABDBBAF2E2E2E0D0A0000002C10002490
:100E7000A1B6A1B6B8F1CABDBBAFCAA7B0DCA1A3E9
:100E8000A1B7A1B70D0A0000A1B75344BFA8D2D1A2
:100E9000B3C9B9A6B8F1CABDBBAFCEC4BCFECFB50D
:100EA000CDB3A1A30D0A0000303A0000466174667C
:100EB00073206D6F756E74207375636365737365EE
:100EC000640D0A00014801F01FB800007C030024F3
:100ED000294A016891423AD0274A1832914236D0C5
:100EE000254A3032914232D0234A483291422ED0A4
:100EF000214A603291422AD01F4A7832914226D04C
:100F00001D4A9032914222D01B4AA83291421ED0F3
:100F10001A4A91421BD0194A1832914217D0174AE7
:100F20003032914213D0154A483291420FD0134AC1
:100F3000603291420BD0114A7832914207D00F4A69
:100F40009032914203D00D4AA832914211D1CAB2D7
:100F50001823103AB2FBF3F26FF30901032A02F0EF
:100F60000703074AD25CC26500D9091D816508469E
:100F7000704721F0FF01F9E7100002401004024021
:100F8000F0DD000830B5224A012301689142CAB25F
:100F90001BD01F4C1434A14217D01D4C2834A14241
:100FA00013D01B4C3C34A1420FD0194C5034A142F9
:100FB0000BD0174C6434A14207D0154C7834A142B1
:100FC00003D0134C8C34A1420CD11421114C083A9B
:100FD000B2FBF1F10F4A803201F01F0504EB8101F1
:100FE000AB4010E00C4D1824103A0D44B2FBF4F164
:100FF000A82D00D80831094A01F01F0402EB810135
:10100000064AA3408032603080E80E0030BD000008
:101010000854025800580258F0FBFDBF0008024077
:1010200010B50279531E072B2DD8174C0168A14229
:101030001BD0154C1434A14217D0134C2834A142B4
:1010400013D0114C3C34A1420FD00F4C5034A1426C
:101050000BD00D4C6434A14207D00B4C7834A14224
:1010600003D0094C8C34A14203D10849074C4431C8
:1010700002E00749064C443104EB8202C0E91B211F
:1010800001219940416710BD08540258FC5802588C
:10109000FC08024010B583694FF0C074826A0146B3
:1010A000002053B1B3F5005F15D072B1012A0CD006
:1010B000022A0AD0032A09D104E01AB1012A06D073
:1010C000022A03D1C96AC90100D5012010BDC96A2D
:1010D000A142FAD010BD002AF7D0012AF2D0022A8C
:1010E000F3D0032AF3D010BD2DE9F041174D0022B3
:1010F00001210446284601F0B6FE154F4FF48076D4
:1011000000223146384601F0AEFE012001F052FCCB
:1011100001222846114601F0A6FE00BF08F032F970
:1011200020460AF019FE08F019F90AF0DDFD094C15
:1011300000220121E070284601F095FE0022314690
:10114000384601F090FEE078BDE8F08100100258CA
:101150000004025818010024704700000D490022C5
:101160000B685A620A68136843F001031360096848
:101170004A6A8242FCD3086A41F21112104207D136
:10118000086A9210104203D1086820F0010008603C
:10119000704700008C040024202001F035BD0000C1
:1011A00010B506F08DFD08A008F012FF0E4801688A
:1011B00041F00101016040F2011002F061FABDE866
:1011C000104002F069BA00000D0A202A2A2A2A20BB
:1011D000BDF8C8EBB4FDBBFAC4A3CABD202A2A2AB5
:1011E0002A200D0A000000002048025872B6FEE7CF
:1011F000002200F001B800000E4B70B505465C7A85
:101200000120002C14D15E7A03F108009C555E7A0F
:1012100003EB860675605D7A2A54587A421C5A722E
:101220003A232F22303008704B7020468A70CC70E1
:1012300070BD00000009002410B50EA008F0C8FE23
:101240001149012211480BF073F9114C04F11401FA
:10125000607051F820100FA008F0BAFE60780028E6
:1012600006D010A008F0B4FEBDE81040FFF7BEBFE6
:1012700010BD00000D0ACEC4BCFECFB5CDB3B3F592
:10128000CABCBBAF0D0A00001D0000242C120024B4
:1012900080000024B9D2D4D8CFB5CDB32025732097
:1012A0000D0A0000665F6D6F756E74206572726F57
:1012B00072200D0A0000000070B58AB02421684633
:1012C000FFF771F81D4803F009FF1C4804F0A6F968
:1012D00020B11BA008F07CFEFFF788FF1DA008F0DE
:1012E00077FE21A008F074FE1448694603F0E8FF79
:1012F00008B1FFF77BFFDDE906460099A00A450229
:101300001EA008F065FE019920A008F061FE029978
:1013100024A008F05DFE039926A008F059FE2AA03B
:10132000214608F055FE2EA0314608F051FE290D49
:1013300031A008F04DFE0AB070BD00007802002414
:10134000205344BFA8B3F5CABCBBAFCAA7B0DC0DDD
:101350000A0000000D0A5344BFA8B3F5CABCBBAFD6
:10136000B3C9B9A60D0A0000D0C5CFA2B4F2D3A16B
:10137000C8E7CFC2A3BA0D0A000000002043617283
:101380006420547970653A25640D0A002043617227
:1013900064204361726456657273696F6E3A2564A6
:1013A0000D0A000020436C617373203A25640D0A16
:1013B000000000002052656C436172644164642047
:1013C0003A25640D0A000000204C6F67426C6F6381
:1013D0006B4E756D626572203A25640D0A0000003F
:1013E000204C6F67426C6F636B53697A65203A25B6
:1013F00064427974650D0A00204361706163697409
:1014000079203A256447420D0A0000002DE9F84F83
:101410004FF0000B0446E54E0D46CDF800B05F4698
:1014200090F85000DFF888A3012808D04FF0010998
:1014300084F85090206806F004F818B169E10220A1
:10144000BDE8F88F21682868CA69030328D090FA9C
:10145000A0F0B0FA80F000BF00F01F0309FA03F01B
:101460000243CA61D5E900124FF00C0C20681F231B
:10147000C1F384610CEA921C02F01F0260449340A5
:101480009140026B9A430A430263206805F0D9FF3A
:101490008046206805F0D1FF58EA000003D07FE0C5
:1014A000C0F38460D8E72068AA68296805F0D5FFF2
:1014B000C0490968B9EB117F06D121686869C9681C
:1014C000C1F38201490008E02068C168C906C1680B
:1014D0006869F5D501F01001490888402969042997
:1014E0002ED022682B6802EB810103F0F8420B6ECC
:1014F000024303F0004010430866697E22682869B1
:10150000012917D05FF0000102EB8000026E22F08B
:1015100000420A430266287E21682A6901280CD00D
:1015200000200B6902F01F02904023F4F0420243B6
:101530000A6135E04FF00041E6E74FF40060F0E764
:1015400020682978026E02F0F842B2EB816F03D175
:10155000016E21F00041016620682978426E02F098
:10156000F842B2EB816F03D1416E21F00041416638
:1015700020682978826E02F0F842B2EB816F03D1C5
:10158000816E21F00041816620682978C26E02F0E8
:10159000F842B2EB816F03D1C16E21F00041C16608
:1015A0002068816811F0010F76D150F8C02F95F8AE
:1015B0000CC0814B29680CF0180C23FA0CF3C1F312
:1015C00013080B4022EA08021A4302607B48E968CC
:1015D000814277D1286801031BD090FAA0F1B1FABB
:1015E00081F1491C01F01F0109294FEA003131D86E
:1015F000002911D090FAA0F1B1FA81F101F10101B5
:1016000001F01F0109FA01F209D100BFC0F38461A2
:1016100009E0C0F38461E4E7C0F38461EEE790FA87
:10162000A0F1B1FA81F101F1010101F01F0142EADB
:10163000816102D1C0F3846003E090FAA0F0B0FAB7
:1016400080F000F1010000F01F0000EB400041EAD3
:10165000005133E000290ED090FAA0F1B1FA81F1E7
:1016600001F1010101F01F0109FA01F206D100BFE9
:10167000C0F3846106E0C0F38461F1E790FAA0F161
:10168000B1FA81F101F1010101F01F0142EA81612A
:1016900003D1C0F3846004E040E090FAA0F0B0FA17
:1016A00080F0474A00F1010000F01F0000EB40000D
:1016B00002EB005041EA000141F00071AA68206885
:1016C00005F0CBFED5F800C0BCF1000F26DA3D4B8B
:1016D00020683D49DFF8F490984201D0B04201D132
:1016E0000A4600E04A469268984202F0E07201D051
:1016F000B04209D19D68D6F8088005F0010508F0D0
:10170000010845EA080503E0DAF8085005F001058C
:1017100045B1606D012740F020006065384684F8CF
:1017200050B08DE62A4DAC451CD115021AD4504557
:10173000F4D1984202D0B04200D049468B6842F4BE
:10174000000023F0E07202438A60234921480968BF
:10175000B1FBF0F04000801C00E0401E009000282B
:10176000FBD1DBE71D4DAC450CD1D5010AD450456A
:10177000D4D1984202D0B04200D049468B6842F0A2
:1017800080700EE0164DAC45C8D15502C6D4504508
:10179000C4D1984202D0B04200D049468B6842F48E
:1017A000800023F0E07202438A60B7E70021024024
:1017B000006002580010005CFFFF0F000000FF47B0
:1017C000000020FE00200240002302400063025877
:1017D000000084CB400D030030000024000052C7FD
:1017E0000000B8CF0068006C70470000F8B54FF0FB
:1017F000000604003546009602D0606D10B107E087
:101800000120F8BD204600F005F9A66584F8506077
:1018100020688168C1F3407119B18168704A114034
:10182000816020688168C1F3007181B981686D4A67
:10183000114041F0805181606C496B480968B1FBEF
:10184000F0F0401C00E0401E00900028FBD1206812
:101850008168C1F3007141B9616D012541F010014A
:101860006165A16D41F00101A16505F0EAFD616DC1
:10187000C90600D420B1606D012540F0100093E04E
:10188000606D20F4807040F002006065206881681F
:1018900011F0010F1FD1564A564B904201D0984289
:1018A00007D191689E6801F0010106F001063143FD
:1018B00003E05149896801F0010161B9904201D00A
:1018C000984201D14D4800E04D488268616822F499
:1018D0007C120A43826001F0CBFA41F20301884294
:1018E00002D9A06810280CD0617D227FA368206BEC
:1018F000490341EA024118430843217F01290CD0E2
:1019000010E0607D227F216B400340EA024241F0FB
:101910001000104340F00C00EFE7218C394A02EB35
:1019200041410843616A29B1A26A01F47871014317
:1019300042EA01002168344BCA681A400243CA6077
:10194000206805F07EFD0646206805F076FD3043F0
:101950001DD1216844F20303267DE26AC86842EA89
:10196000863298431043C86094F8380001281ED08E
:101970002068016921F0010101612068626B016941
:1019800021F07041114301612046FFF74FF8E068F4
:10199000012820681CD0016B21F00F010163606DEC
:1019A00020F0020040F0010060652846F8BD206884
:1019B000A28F164FD4E9101C154E07EB0247A36CFB
:1019C000026941EA0C013B43324019431143D3E71A
:1019D000A269016B521E21F00F011143DEE70000E6
:1019E000C0FFFF5FC0FFFF7F400D030030000024F9
:1019F0000020024000210240006002580023024003
:101A0000006302580000FEFF03C0F0FF0100FFFF6B
:101A10001EF800FC006882B00D49884216D10D48BE
:101A2000016841F080710160016801F080710091EE
:101A3000016841F004010160006800F004000090BA
:101A40004FF0006002B0014604F0C4BC02B0704721
:101A500000600258E04402582DE9F047434D044627
:101A6000006888464249434BA842DFF80C9101D0F8
:101A7000484501D10A4600E01A46926802F01F0666
:101A80002269082A14D0AEB1052E13D0092E11D028
:101A9000A84202D0484500D01946886800F440406A
:101AA00058B1606D40F0200060650120BDE8F0870E
:101AB000082703E0C068C007F2E7042701F0DEF959
:101AC000824618E0B8F1FF3F15D001F0D7F9A0EB3E
:101AD0000A01414502D8B8F1000F0CD12068006816
:101AE000384208D1606D002184F8501040F00400A5
:101AF00060650320DAE7206800683842E2D0606D54
:101B000040F400706065206805F09FFC80B1607D46
:101B100070B92068006800070AD5606D20F48070F5
:101B20006065606DC00403D4606D40F001006065C5
:101B30002068484501D12A4600E00246824210D082
:101B40007EB1052E0DD0092E0BD0484500D005469C
:101B5000E968082F07D0490401D40C210160002056
:101B6000A4E7C168F5E70821F8E70000002002407B
:101B70000023024000630258002102402DE9F04199
:101B80003B4D044600683B4FA84201D0B84201D10A
:101B9000394900E03949896801F01F0605F051FC18
:101BA00018B102210846BDE8F08194F850000128E0
:101BB0000CD0012084F850002046FEF7BBFF010046
:101BC0004FF0000204D084F85020EBE70220EAE74F
:101BD000636D40F6016C206823EA0C03B84243F4BD
:101BE0008073636501D12B4600E00346834200D039
:101BF0001EB9636D23F480136365636DDB0404D544
:101C0000A36D23F00603A36500E0A2651C23036017
:101C100084F850202068B84201D12A4600E00246EC
:101C2000824215D0A6B1052E12D0092E10D0626DB9
:101C3000B84242F48012626500D00546E86880012F
:101C4000B0D5606D20F4005040F480506065A9E785
:101C5000C268920105D5626D22F4005242F48052AE
:101C600062658268064B1A40121D82609AE7000086
:101C7000002002400021024000230240006302587D
:101C8000C0FFFF7F2DE9F05F28B190F835100229E1
:101C900004D0802141650120BDE8F09F904C904B1D
:101CA0000168183C18338E4ADFF83C92A1428D4CF3
:101CB000DFF838E28E4FDFF83CB2DFF83CA28F4D00
:101CC0008F4E31D091422FD099422DD0A1422BD0AE
:101CD000494529D0714527D0B94225D0DFF810C237
:101CE0000CF1180C61451FD0DFF808C2ACF1600C94
:101CF000614519D0DFF8FCC1ACF1480C614513D047
:101D0000DFF8F0C1ACF1300C61450DD0DFF8E4C173
:101D1000ACF1180C614507D0594505D0514503D0A9
:101D2000A94201D0B1422CD1DFF8B4C14FF0040870
:101D300080F83580ACF1180C61451DD091421BD064
:101D4000994219D0A14217D0494515D0714513D0F9
:101D5000B94211D06648183081420DD065486038CC
:101D6000814209D063484838814205D06148303803
:101D7000814201D05F481838086820F001000860EF
:101D8000ABE0D1F800C02CF00E08DFF854C1C1F868
:101D90000080ACF1180C0168614527D0914225D034
:101DA000994223D0A14221D049451FD071451DD071
:101DB000B9421BD0DFF838C10CF1180C614515D0C1
:101DC000DFF830C1ACF1600C61450FD0DFF824C101
:101DD000ACF1480C614509D0DFF818C1ACF1300C0A
:101DE000614503D0DFF80CC1ACF1180CD1F800C08C
:101DF0002CF0010CC1F800C0DFF8E4804FF0010CBA
:101E00000168A8F11808414546D0914244D0994252
:101E100042D0A14240D049453ED071453CD0B94264
:101E20003AD0334A1832914236D0324A603A91421F
:101E300032D0304A483A91422ED02E4A303A91421E
:101E40002AD02C4A183A914226D0594524D05145DF
:101E500022D0A94220D0B1421ED02A4A91421BD0A2
:101E6000284A1432914217D0264A2832914213D080
:101E7000244A3C3291420FD0224A503291420BD038
:101E8000204A6432914207D01E4A7832914203D0F0
:101E90001C4A8C32914218D1016E0A6822F4807279
:101EA0000A6090F85C20816D02F01F020CFA02F2C9
:101EB0004A60D0E919124A60C16E31B10A6822F451
:101EC00080720A60D0E91C124A600022016D80F81D
:101ED00035C080F8342001B188470020DCE60000DE
:101EE0002800024058000240700002408800024072
:101EF000A00002407004024088040240A004024096
:101F0000B8040240085402582DE9FC5F0446F74E1D
:101F10000020DFF8D88300904FF41652F44808F1FF
:101F20001808A56DDFF8C493DFF8C0A3016809F1B4
:101F3000300920680AF1480AB1FBF2F1B042019180
:101F40002F68D5F800C0DFF8ACB335D041468842E1
:101F500032D0484530D050452ED058452CD0E54998
:101F60001831884228D0E3493031884224D0E149F1
:101F70004831884220D0E04988421DD0DE491831DE
:101F8000884219D0DC493031884215D0DA494831CD
:101F9000884211D0DFF860E30EF1600E70450BD07F
:101FA000D54A7832904207D0D34B9033984203D031
:101FB000D149A83188427DD194F85C20082102F0F3
:101FC0001F0201FA02F23A424AD0B04232D04045F2
:101FD00030D048452ED050452CD058452AD0C54A3F
:101FE0001832904226D0C34A3032904222D0C14AA1
:101FF000483290421ED0C04A90421BD0BE4A18328E
:10200000904217D0BC4A3032904213D0BA4A48327C
:1020100090420FD0B84A603290420BD0B64A783224
:10202000904207D0B44A9032904203D0B24AA832CC
:10203000904203D1026802F0040202E0026802F05A
:1020400008026AB1026822F00402026094F85C009F
:1020500000F01F008140A960606D40F001006065E4
:1020600094F85C00012100F01F008140394240D00B
:102070002068B04234D0404532D0484530D0504539
:102080002ED058452CD09B4A1832904228D0994ADD
:102090003032904224D0974A4832904220D0964A1B
:1020A00090421DD0944A1832904219D0924A303250
:1020B000904200E0AFE113D08F4A483290420FD0F7
:1020C0008D4A603290420BD08B4A7832904207D0D2
:1020D000894A9032904203D0874AA83290427DD1FB
:1020E000406910F0800F04D0A960606D40F00200DC
:1020F000606594F85C00042100F01F0081403942C3
:102100003ED02068B04232D0404530D048452ED035
:1021100050452CD058452AD0764A1832904226D0C5
:10212000744A3032904222D0724A483290421ED0D5
:10213000714A90421BD0704A1832904217D06E4AB2
:102140003032904213D06C4A483290420FD06A4AE3
:10215000603290420BD0684A7832904207D0664A8B
:102160009032904203D0644AA83290424ED1006827
:1021700010F0020F04D0A960606D40F004006065AB
:1021800094F85C00102100F01F008140394258D0C3
:102190002068B04234D0404532D0484530D0504518
:1021A0002ED058452CD0534A1832904228D0514A4C
:1021B0003032904224D04F4A4832904220D04E4A8A
:1021C00090421DD04C4A1832904219D04A4A3032BF
:1021D000904215D0484A4832904200E014E00FD0B7
:1021E000454A603290420BD0434A7832904207D041
:1021F000414A9032904203D03F4AA832904207D1E0
:10220000006800F0080006E0006872E70068B7E7C1
:10221000006800F00400A0B1A960206801684903CB
:1022200004D50068000308D5A16C07E00168C90562
:1022300003D4016821F008010160216C09B1204636
:10224000884794F85C00202100F01F00814039424B
:1022500079D02068B04232D0404530D048452ED0A9
:1022600050452CD058452AD0224A1832904226D0C8
:10227000204A3032904222D01E4A483290421ED02C
:102280001D4A90421BD01C4A1832904217D01A4A5D
:102290003032904213D0184A483290420FD0164A3A
:1022A000603290420BD0144A7832904207D0124AE2
:1022B0009032904203D0104AA832904203D1006875
:1022C00000F0100002E0006800F00200B0B3A96066
:1022D00094F835000428206801680FD049037ED5A2
:1022E000006800032BD4616C2AE00000100002405B
:1022F00030000024700002401004024021F016015A
:1023000001602068416921F080014161206C08B9B9
:10231000A06C20B12068016821F00801016094F8E8
:102320005C303F21012003F01F0300229940A96087
:1023300084F8350084F83420216D65E003E0E16B1A
:1023400009B120468847606D00287DD0606DC007C8
:1023500059D02068042184F83510B0422BD0404574
:1023600029D0484527D0504525D0584523D09D49F0
:10237000884220D09B49183188421CD0994930317D
:10238000884218D09849884215D097491831884218
:1023900011D09549303188420DD093494831884257
:1023A00009D091496031884205D08F4978318842FF
:1023B00001D08D499031016821F001010160206850
:1023C0000099019A491C0091914202D80168C907FD
:1023D000F6D10068C00710D003200FE0FFE70168C6
:1023E000C905ACD403680121002223F01003036067
:1023F00084F8351084F83420A1E7012084F83500F2
:10240000002084F83400E16C00291DD002B0204681
:10241000BDE8F05F0847754988421DD07349143103
:10242000884219D071492831884215D06F493C3112
:10243000884211D06D49503188420DD06B496431CA
:10244000884209D0694900E084E07831884203D0AD
:1024500066498C3188427DD194F85C8004270168FC
:1024600008F01F0807FA08F717EA0C0F009746D084
:102470004F0744D500980F04686003D5C8033CD4C7
:10248000A16CC1E7880638D42068B0422DD05549E8
:102490006039884229D0484527D0504525D0584535
:1024A00023D05049884220D04E49183188421CD050
:1024B0004C493031884218D04B49884215D04A499E
:1024C0001831884211D04849303188420DD04649F0
:1024D0004831884209D0704507D0904205D09842D3
:1024E00003D04149A831884203D1016821F0080195
:1024F00002E0016821F004010160216C84E70227F9
:1025000007FA08F717EA0C0F00974ED08F074CD543
:1025100000980F04686003D5C80344D4616C73E766
:10252000880640D42068B0422FD02E4960398842B6
:102530002BD0484529D0504527D0584525D029498A
:10254000884222D02749183188421ED0254930318F
:10255000884200E044E018D02349884215D022493F
:102560001831884211D02049303188420DD01E499F
:102570004831884209D0704507D0904205D0984232
:1025800003D01949A831884203D1016821F0140110
:1025900002E0016821F00A010160012184F8351090
:1025A000002084F83400E16B2EE7082202FA08F2DA
:1025B00012EA0C0F14D0090712D5016821F00E01A0
:1025C000016094F85C100120002201F01F0100FA64
:1025D00001F16960606584F8350084F8342012E701
:1025E000BDE8FC9F880002401004024008540258D5
:1025F0002DE9F05F044600F041FC002C07467DD039
:10260000E34E022120684FF00308DFF888934FF073
:102610000005DFF884A3B042DFF880B334D0DC4A91
:102620001832904230D048452ED050452CD05845D5
:102630002AD0DA4A1832904226D0D84A3032904214
:1026400022D0D64A483290421ED0D54A90421BD062
:10265000D34A1832904217D0D14A3032904213D028
:10266000CF4A483290420FD0CD4A603290420BD0D0
:10267000CB4A7832904207D0C94A9032904203D078
:10268000C74AA83290427DD184F83510B04284F810
:1026900034502ED0BE49183188422AD0484528D01F
:1026A000504526D0584524D0BC491831884220D006
:1026B000BA49303188421CD0B8494831884218D0D4
:1026C000B749884215D0B6491831884211D0B4496B
:1026D000303188420DD0B2494831884209D0B049E2
:1026E0006031884205D0AE497831884201D0AC498A
:1026F0009031016821F00101016008E027E100BF8D
:1027000000F0BCFBC01B052801D920211CE120687A
:102710000068C007F4D104F108002168D4E9053C41
:102720008E4685C809681043D4E907281F43636AA9
:1027300038439C4F40EA0C001043394040EA0800FF
:10274000042B40EA010003D1D4E90B1211430843E2
:10275000954909686FF30F01B1F1005F0FD361680C
:10276000A1F12902052A08D9163A032A05D9083AFF
:10277000012A02D94F39032901D840F48010CEF83C
:10278000000000E023E02068676A4069042F20F021
:10279000070047EA00070DD1D4E90A01074349B110
:1027A0002046FEF777FC28B140206065012184F8BF
:1027B0003510CCE0206847612046FEF789FB94F88D
:1027C0005C203F2102F01F029140816054E0774A73
:1027D00090421BD0754B1433984217D0734B28335B
:1027E000984213D0714B3C3398420FD06F4B50330B
:1027F00098420BD06D4B6433984207D06B4B7833C3
:10280000984203D0694B8C3398427DD184F83510BF
:1028100084F83450664B0168A26801EA030E402A2E
:1028200073D0802A72D00022D4E90378D4E905312C
:1028300042EAD70242EAD8085C4AD4E9077C48EA6F
:10284000D30848EAD10141EAD701524241EA1C11BA
:10285000142341EA0E01016020681044B0FBF3F03C
:102860008000E0652046FEF733FB94F85C200121F0
:1028700002F01F02914041602068B04257D04449A5
:102880001831884253D0484551D050454FD0584513
:102890004DD042491831884249D0404930318842B0
:1028A00045D03E494831884241D03D4988423ED0DA
:1028B0003B49183188423AD039493031884236D0C4
:1028C00037494831884232D03549603188422ED06C
:1028D0003349783188422AD031499031884226D014
:1028E0002F49A831884222D0304988421FD02F4931
:1028F000143188421BD02D492831884217D02B49EA
:102900003C31884213D002E01DE017E018E027496F
:10291000503188420BD025496431884207D0234981
:102920007831884203D021498C31884229D1204610
:10293000FEF728FBA06880280CD00CE0102273E77B
:102940004FF4804270E74021616584F835800120B2
:10295000BDE8F09F6560216E20790860D4E9190117
:1029600041606068401E072808D82046FEF758FBE3
:10297000E06E0560D4E91C01416002E0E566256770
:1029800065670120656584F835000020E0E70000F8
:102990001000024040000240580002407000024017
:1029A000100402403F8010FE0010005C08540258E2
:1029B0000F00FEFF70B5044600F060FA0546601C8B
:1029C00002D004480078044400F058FA401BA042AA
:1029D000FAD370BD240000242DE9F04F4F4D0022A2
:1029E0004FF0010A4FF00F0B92E000BF0AFA02F914
:1029F00019EA01037ED022F0030606F1B0469407DF
:102A0000D6F808C4270FDFF818810BFA07FE4045F7
:102A10000EEA0C0402D14FF0000C40E0DFF804C1D4
:102A2000604502D14FF0010C39E0DFF8FCC0604591
:102A300002D14FF0020C32E0DFF8F0C0604502D165
:102A40004FF0030C2BE0DFF8E8C0604502D14FF0F7
:102A5000040C24E0DFF8DCC0604502D14FF0050C27
:102A60001DE0DFF8D4C0604502D14FF0060C16E03F
:102A7000DFF8C8C0604502D14FF0070C0FE0DFF867
:102A8000C0C0604502D14FF0080C08E0DFF8B4C0C8
:102A9000604502D14FF0090C01E04FF00A0C0CFA2E
:102AA00007FCA44513D12C689C432C606F684FF041
:102AB000B0449F436F6067689F43676027689F4388
:102AC0002760D6F8084424EA0E04C6F808440768CC
:102AD0000323D4084FEA42084FEA427C03FA08F382
:102AE0004FEADC6C1F4307600BFA0CF600EB840422
:102AF000276A00E00BE0B7432762C4689C43C460C8
:102B0000446824EA0904446084689C438460521C3D
:102B100031FA02F37FF46AAFBDE8F08F800000580D
:102B2000000002580004025800080258000C025825
:102B3000001002580014025800180258001C0258D5
:102B40000020025800240258202810B551D100BF9F
:102B500000BF00BF00BF00BF00BF00BF00BF00BF7D
:102B600000BF2021234800F071F9012841D0224CF8
:102B700001221021204600F076F90320FEF7EEFA3C
:102B800000222046102100F06EF91C4902231C4847
:102B9000032203F061F901222046102100F063F9BD
:102BA0001648021F017843788478080440EA03201D
:102BB0002043506105F0B0FA00EE100A9FED111AA3
:102BC000F1EE040AB8EEC00A506120EE010A20EED0
:102BD000200A82ED040A5088401C5080D06892ED93
:102BE000040A011D80ED000AD160BDE8104008F024
:102BF000BDBB10BD00080258000002586C00002444
:102C0000F4020024000000344FF0B04110B5D1F8B8
:102C10008820024203D0C1F88800FFF795FF10BD5D
:102C20002DE9F84F03247D4D00234FF001094FF0AB
:102C3000B04B4FF00F0AE9E009FA03F73A4076D0BB
:102C40000E7906F00306012E01D0022E18D1D0F81D
:102C500008C04FEA430ECE6804FA0EF82CEA080CBE
:102C600006FA0EF646EA0C068660D0F804C00E7925
:102C70002CEA070CC6F300169E4046EA0C06466096
:102C80000E79F643B6070BD0C6684FEA43088F6843
:102C900004FA08FC26EA0C0607FA08F73743C7606F
:102CA0000E7906F00306022E12D1DE080F694FEAF4
:102CB000437C00EB8606B646366A4FEADC6C0AFABD
:102CC0000CF807FA0CF726EA08063743CEF820700E
:102CD0000F7906684FEA430807F0030704FA08FC77
:102CE00007FA08F726EA0C06374307604E6816F421
:102CF000403F1CD04A4E376847F0020737603668BD
:102D00009F0706F00206009623F0030606F1B04680
:102D1000B6463F0FD6F80864DFF808810AFA07FCC8
:102D2000404526EA0C0603D14FF0000C41E06CE070
:102D3000DFF8F4C0604502D14FF0010C39E0DFF854
:102D4000ECC0604502D14FF0020C32E0DFF8E0C089
:102D5000604502D14FF0030C2BE0DFF8D8C060458E
:102D600002D14FF0040C24E0DFF8CCC0604502D162
:102D70004FF0050C1DE0DFF8C4C0604502D14FF0F4
:102D8000060C16E0DFF8B8C0604502D14FF0070C22
:102D90000FE0DFF8B0C0604502D14FF0080C08E04A
:102DA000DFF8A4C0604502D14FF0090C01E04FF0FC
:102DB0000A0C0CFA07FC4CEA060CCEF808C44F6863
:102DC000DBF80060FF0226EA020600D516435F46E4
:102DD000CBF80060D1F804C0DBF804605FEA8C2C0B
:102DE00026EA020600D516437E606E684F6826EA22
:102DF0000206BF0300D516436E602E684F6826EAB0
:102E00000206FF0300D516432E605B1C0A6832FAE7
:102E100003F67FF411AFBDE8F88F00008000005882
:102E2000F4440258000002580004025800080258F6
:102E3000000C0258001002580014025800180258E2
:102E4000001C025800200258002402580069084063
:102E500000D001207047426921EA02030A4043EA98
:102E60000241816170470AB1816170470904FBE743
:102E700001480068000C70470010005C0148806841
:102E8000704700002400002430B590F84120202A2B
:102E900024D190F84020012A20D0012380F840302E
:102EA000242280F84120202300240268156825F0A0
:102EB000010515600268156825F4805515600268E3
:102EC00015680D43156001680A6842F001020A6046
:102ED00080F8413080F84040002030BD022030BDF5
:102EE00030B590F84120202A22D190F84020012AC4
:102EF0001ED0012380F84030242280F84120202475
:102F000000250268136823F0010313600268136848
:102F100023F4706343EA0121116001680A6842F0FA
:102F200001020A6080F8414080F84050002030BD26
:102F3000022030BD70B5040004D094F84100002593
:102F400010B106E0012070BD204684F8405000F02A
:102F5000ABF9242084F841002068016821F00101C8
:102F60000160D4E9001020F0706008612068816879
:102F700021F400418160E06821680128A06806D042
:102F800040F404408860E068022803D006E040F482
:102F90000040F7E721684FF4006048602021206876
:102FA000114A4368134343602068C26822F4004218
:102FB000C26054F8106B0DCC104340EA0320F0605F
:102FC00054F81C3CD4E900021043186054F81C0D5E
:102FD000026842F001020260656484F841102563D2
:102FE00084F84250002070BD008000022DE9FF4FA0
:102FF00083B0044690F841009A469346DDE9108775
:10300000DDF84890202874D15FEA080014D09FB101
:1030100094F8400001286CD0012084F84000FFF7AC
:103020002DFF0122064619230090D103204604F00B
:1030300087F9002871D103E04FF4007060646CE000
:103040000025C4F82480222184F84110402084F80F
:10305000420065646785534665635A460499204675
:10306000CDE9009604F0F0F810B184F8405054E037
:10307000618DFF2734484FF08078FF294FF0007AA8
:1030800004D927853A464346009005E0618D5346B2
:103090002185009094F828202046049904F038F9FE
:1030A00000224B4604212046009604F049F9A0BBBB
:1030B0002068616A406A0870606A401C6062208D06
:1030C000401E81B22185608D401E6085608DD8B123
:1030D000D1B900224B4680212046009604F030F9F9
:1030E000D8B9608DFF2805D927853A464346009513
:1030F00006E026E0608D53462085009594F8282050
:103100002046049904F004F9608D0028C8D13246A5
:103110004946204604F041F918B1012007B0BDE846
:10312000F08F21682020094AC86121684B6813404C
:103130004B6084F8410084F84250002084F84050ED
:10314000ECE70220EAE700000024008000E800FE2F
:103150002DE9FF4F83B0044690F841009A4693460C
:10316000DDE91087DDF84890202871D15FEA08007A
:1031700014D09FB194F84000012869D0012084F850
:103180004000FFF77BFE0122064619230090D10381
:10319000204604F0D5F800286ED103E04FF400700B
:1031A000606469E00025C4F82480212184F841107E
:1031B000402084F8420065646785534665635A463B
:1031C00004992046CDE9009604F070F810B184F817
:1031D000405051E0608DFF274FF08078FF284FF07E
:1031E000007A04D927853A464346009505E0608D6C
:1031F00053462085009594F828202046049904F031
:1032000087F832464946204604F0EEF8A0BB606AD3
:10321000216800788862606A401C6062608D401E90
:103220006085208D401E80B22085618DD9B1D0B9D6
:1032300000224B4680212046009604F081F8D8B940
:10324000608DFF2805D927853A464346009506E05C
:1032500026E0608D53462085009594F8282020466E
:10326000049904F055F8608D0028CAD132464946C9
:10327000204604F092F818B1012007B0BDE8F08FA5
:1032800020682021074AC1612068436813404360D9
:1032900084F8411084F84250002084F84050ECE754
:1032A0000220EAE700E800FE2DE9F043B5B004464D
:1032B00014212FA8FDF777F8BC216846FDF773F8B5
:1032C0002849206888424AD10220082300937826A2
:1032D000CDE90A600CAE0F2509950322002486E88B
:1032E0001500C10268460F941094209100F01CFD57
:1032F00008B1FDF77BFF1C48016841F00201016045
:1033000000681227DFF86490C02600F002004FF03A
:103310000408CDE930742F962FA93294CDE933807B
:103320004846FFF77DFC104D0835286840F4001032
:103330002860286831AA012100F40010349082E846
:103340001201CDE92F672FA94846FFF769FC2868CD
:1033500040F400102860286800F40010349035B064
:10336000BDE8F08300540040E044025800040258D5
:10337000024881680278114481607047240000246B
:10338000032010B500F040F901F0ACFA0F4A1049E3
:1033900014681368C4F3032203F00F038A5CC95C4A
:1033A00002F01F0201F01F01D0400A4A20FA01F189
:1033B0001160094908600F2000F010F808B10120E1
:1033C00010BD00F0D5F8002010BD000018440258D0
:1033D00020DE0008340000243000002470B50D4DBC
:1033E00004462878A0B14FF47A71B1FBF0F00A4995
:1033F0000968B1FBF0F002F0F5FF48B9102C07D2D4
:1034000000222146501E00F0DFF800206C6070BDE5
:10341000012070BD240000243000002430B54FF09E
:10342000000358B190F83C40012C09D090F83D5071
:10343000012480F83C40012D04D015E0012030BD6E
:10344000022030BD046825696D000DD42163002978
:1034500001684A6301680A6903D042F000420A61C8
:1034600003E022F00042FAE70123002180F83C103B
:10347000184630BD70B50446FFF700FD06465CB146
:10348000002584F83C50022084F83D002068C16883
:1034900021F00101C1600CE0012070BDFFF7EEFCDE
:1034A000801B052805D94021A166032084F83D0032
:1034B000F2E72068C068C007F0D1204603F0DCFFC7
:1034C000E565012025666566A56684F83D00002057
:1034D00070BD0000F0B5154C4378211D0A1D236016
:1034E0000378F3B143680B60057BC67A817A437B2E
:1034F0002D07847B45EA0665C77B90F809C0067AEC
:1035000090F800E045EAC14040EA834040EA444088
:1035100040EA074040EA0C2040EA460040EA0E003C
:1035200001E0002008601060F0BD000098ED00E0B0
:10353000BFF35F8F044800210368034A23F48033FC
:10354000036070321160704724ED00E0074A40F0DC
:103550000100064970321060086840F4803008604D
:10356000BFF34F8FBFF36F8F7047000024ED00E073
:10357000054808B5016841F002010160006800F0EB
:103580000200009008BD0000F444025800280DDB42
:10359000410900F01F028900012001F1E021904063
:1035A000C1F88001BFF34F8FBFF36F8F70470028C2
:1035B00009DB410900F01F028900012001F1E0212F
:1035C0009040C1F8000170470E4BF0B41B680D46E7
:1035D000C3F30223C3F10706042E00D90426191DE4
:1035E000072901D2002300E0DB1E012404FA06F1C2
:1035F0009C40491E2940641E994014402143F0BC60
:1036000006F00EBD0CED00E0064900F0070210B513
:103610004FF6FF040868044B204040EA022018439C
:10362000086010BD0CED00E00000FA05134970B50C
:103630000A68D243520705D5096801F007018142A3
:1036400013D118E00A6822F0070202430A60FFF76C
:1036500015FC0A4D4FF47A760446083D07E000BF9A
:10366000FFF70CFC001BB04201D9012070BD286897
:10367000C0438004F4D4002070BD00000C48025800
:10368000034A044B11681940014311607047000060
:1036900028480258C0C000F009480A49026842F0B0
:1036A00005020260026842F002020260086840F00F
:1036B00004000860BFF34F8FBFF36F8F30BF7047B8
:1036C0001048025810ED00E010B501F0C5F80549AA
:1036D0000968054AC1F30211515C01F01F01C8409D
:1036E00010BD00002044025820DE00084A4930B5D1
:1036F000494C0B1D0A680C3409681D68246802F0E7
:10370000030305F00102C1F30511C4F3CC04002941
:1037100014FB02F200EE102AF8EE400A76D0414A7D
:103720009FED3E1ADFED3E1AB7EE000A23B1012BE2
:103730005AD0022B18D15CE0374C283C23689B06FA
:1037400012D5394B246801EE901A1168C4F3C104F4
:10375000F8EE612AE34001EE903AC1F30801F8EE79
:10376000611A81EEA22A07E002EE101A1168F8EE43
:10377000422A81EEA22A45E001EE901A1168F8EE85
:10378000611A40EE811A71EE800A62EE200AC1F3DE
:10379000462101EE101AB8EE411A31EE001AC0EEC1
:1037A000811ABCEEE11A80ED001A1168C1F30641DE
:1037B00001EE101AB8EE411A31EE001AC0EE811A6D
:1037C000BCEEE11A80ED011A1168C1F3066101EE49
:1037D000101AB8EE411A31EE000A80EE801ABCEEE3
:1037E000C10A80ED020A30BD01EE901ADFED0F2A0A
:1037F00003E001EE901ADFED0E2A1168F8EE611A6F
:1038000082EEA12AC1F30801B6E7FFE700210160BB
:103810004160816030BD000028440258000000393A
:103820000024744C304402580090D0030024744AA1
:10383000001BB74B494930B5484C0B1D0A6814347E
:1038400009681D68246802F00303C5F30012C1F380
:103850000531C4F3CC04002914FB02F200EE102A57
:10386000F8EE400A75D03F4A9FED3D1AB7EE000AC8
:103870006BB1DFED3D1A012B01D0022B64D002EEBB
:10388000101A1168F8EE422A81EEA22A21E0334C88
:10389000283C23689B0612D5344B246801EE901A0D
:1038A0001168C4F3C104F8EE612AE34001EE903AD6
:1038B000C1F30801F8EE611A81EEA22A0BE001EED5
:1038C000901ADFED2B2A00BFF8EE611A116882EE24
:1038D000A12AC1F3080101EE901A1168F8EE611AED
:1038E00040EE811A71EE800A62EE200AC1F3462191
:1038F00001EE101AB8EE411A31EE001AC0EE811A2C
:10390000BCEEE11A80ED001A1168C1F3064101EE28
:10391000101AB8EE411A31EE001AC0EE811ABCEE50
:10392000E11A80ED011A1168C1F3066101EE101A67
:10393000B8EE411A31EE000A80EE801ABCEEC10AE0
:1039400080ED020A30BD04E001EE901ADFED092A95
:10395000BAE70021016041608160F3E72844025822
:1039600000000039384402580024744A0090D00303
:103970000024744C001BB74B494930B5484C0B1D13
:103980000A681C3409681D68246802F00303C5F343
:103990000022C1F30551C4F3CC04002914FB02F248
:1039A00000EE102AF8EE400A75D03F4A9FED3D1A0E
:1039B000B7EE000A6BB1DFED3D1A012B01D0022BEF
:1039C00064D002EE101A1168F8EE422A81EEA22AA3
:1039D00021E0334C283C23689B0612D5344B2468E5
:1039E00001EE901A1168C4F3C104F8EE612AE340B5
:1039F00001EE903AC1F30801F8EE611A81EEA22AB5
:103A00000BE001EE901ADFED2B2A00BFF8EE611AF1
:103A1000116882EEA12AC1F3080101EE901A116823
:103A2000F8EE611A40EE811A71EE800A62EE200A09
:103A3000C1F3462101EE101AB8EE411A31EE001A18
:103A4000C0EE811ABCEEE11A80ED001A1168C1F3D4
:103A5000064101EE101AB8EE411A31EE001AC0EE1E
:103A6000811ABCEEE11A80ED011A1168C1F30661FA
:103A700001EE101AB8EE411A31EE000A80EE801AFB
:103A8000BCEEC10A80ED020A30BD04E001EE901ADE
:103A9000DFED092ABAE70021016041608160F3E7A8
:103AA0002844025800000039404402580024744A57
:103AB0000090D0030024744C001BB74B2DE9F04F4D
:103AC000944A4FF48079DFF848824845924B89B098
:103AD000924EA8F1040592494FF080574FEA221404
:103AE0004FF0005C2ED1D8F8000000F00700052848
:103AF00024D2DFE800F09BB58425AA0003A8FFF7D5
:103B0000F5FD049809B0BDE8F08F6846FFF792FE16
:103B10000098F7E706A8FFF72FFF0698F2E7086876
:103B2000C0F3C10022FA00F0ECE70A68D2057CD5A8
:103B3000B8427AD12046E5E71846E3E70020E1E7FE
:103B40003046DFE7B0F5007F1AD0DFF8D891B0F546
:103B5000806F26D0B0F5006F37D04FF4805A5045B3
:103B60004FF4804B4FD1D8F8000000F4E040B0F59E
:103B7000005F44D03DDC002858D05045DED16FE0D6
:103B8000D8F8000000F4E070802838D004DC002869
:103B90004CD04028D2D163E0C028D1D04845CDD107
:103BA00053E0D9F8000000F46000B0F5800F26D093
:103BB00004DCD8B3B0F5001FC0D151E0B0F5C00FA0
:103BC000BED0B0F5000FB9D13FE0D9F8000000F049
:103BD000E060B0F1007F12D004DC38B3B0F1807F38
:103BE000ACD13DE0B0F1407FAAD0B0F1806FA5D15B
:103BF0002BE0B0F5405FA3D058459FD125E0086881
:103C000080009BD586E7B0F5002F4FF4803612D0A8
:103C1000B04237D1286810F4803075D0B0428DD1D1
:103C2000086800018AD5684601E025E06CE0FFF7EE
:103C300001FE029866E7D9F8000010F440300FD07A
:103C4000B04211D0B0F5003F98D128680D6800F05F
:103C500040506D077FF569AF00287FF466AF5EE7DF
:103C600008680001CDD550E708688000C9D506A8CE
:103C7000FFF782FE089845E709688903C1D56045CA
:103C800088D159E758452BD1D9F8000000F0E04021
:103C9000B0F1405F1CD00CDC90B1B8422CD0604534
:103CA0008AD108688000ACD506A8FFF765FE0798A2
:103CB00028E7B0F1804F0FD0B0F1A04F90D11FE0B6
:103CC000FFF702FD1EE76846FFF7B4FD019819E70C
:103CD0000868400795D522E70868C00591D529E70F
:103CE000B0F5004F89D1D8F8000010F0405007D04F
:103CF000B84209D0604592D108680001E3D41DE7BD
:103D000008688003FBD517E708688001F7D5F5E65A
:103D1000504402580090D00300366E010080BB0072
:103D200000440258584402582DE9FC5F044650F8FC
:103D3000241B002500902E460801FE4FDFF8F88373
:103D40001DD5606E50B1B0F5801F0CD0B0F5001FCE
:103D50000ED0B0F5401F1DD001250FE0386840F4AB
:103D60000030386016E00221201D03F0DBFF03E085
:103D70000098022104F066F805000BD02E4620883A
:103D8000C00523D5606D05281ED2DFE800F00C11B8
:103D9000161B1B00626ED8F8001021F4401111436D
:103DA000C8F80010EBE7386840F40030386009E0EC
:103DB0000021201D03F0B6FF03E00098002104F06D
:103DC00041F805466DB100E001252E4620888005AA
:103DD00028D5A06D80281ED00CDC90B140280ED1D3
:103DE00014E0626DD8F8001021F007011143C8F803
:103DF0000010EBE7C02813D0B0F5807F10D001256C
:103E00000FE0386840F40030386009E00021201DE0
:103E100003F088FF03E00098002104F013F8054642
:103E200095B12E462088DFF81093400509F1080966
:103E30002CD5D4F8A400B0F5800F20D00DDCA0B1B3
:103E4000B0F5001F0FD115E0A26DD8F8001021F4D5
:103E5000E0711143C8F80010E4E7B0F5C00F13D0CB
:103E6000B0F5000F10D001250FE0386840F40030A5
:103E7000386009E00021201D03F054FF03E00098A2
:103E8000002103F0DFFF054675B12E4620880005AE
:103E90002DD5D4F8A800B0F1007F21D00EDCA8B158
:103EA000B0F1807F10D116E0D4F8A420D9F800102A
:103EB00021F460011143C9F80010E7E7B0F1407F39
:103EC00013D0B0F1806F10D001250FE0386840F4B6
:103ED0000030386009E00021201D03F023FF03E0DB
:103EE0000098002103F0AEFF05466DB12E46206814
:103EF00080011FD5A06CD8B110280FD0202812D077
:103F0000302815D0012514E0D4F8A820D9F80010E5
:103F100021F0E0611143C9F80010E8E7386840F487
:103F20000030386004E00221201D03F0FBFE05464E
:103F30006DB12E462088C0042BD5E06DB0F5005F32
:103F400020D00DDCA0B1B0F5805F0FD115E07A482C
:103F5000A26C001F016821F0300111430160E9E704
:103F6000B0F5405F13D0B0F5804F10D001250FE0C1
:103F7000386840F40030386009E00021201D03F06B
:103F8000D1FE03E00098002103F05CFF054685B1F7
:103F90002E462088800429D5206EB0F5403F23D0DE
:103FA00010DC08B3B0F5803F14D0B0F5003F0FD15E
:103FB00015E0E26DD8F8001021F4E0411143C8F893
:103FC0000010E6E7B0F5802F0ED0B0F5A02F0BD093
:103FD00001250AE00121201D03F0A4FE03E0009862
:103FE000012103F02FFF05468DB12E4620884004A5
:103FF0002AD5D4F8AC00B0F1405F23D010DC08B370
:10400000B0F1805F14D0B0F1005F0FD115E0226EE7
:10401000D8F8001021F4E0211143C8F80010E5E7BA
:10402000B0F1804F0ED0B0F1A04F0BD001250AE0C7
:104030000121201D03F076FE03E00098012103F02A
:1040400001FF05466DB12E46208800041FD5E06EA5
:10405000D8B1B0F1805F0ED0B0F1005F10D0012573
:1040600014E0D4F8AC20D9F8001021F0E04111435D
:10407000C9F80010E8E7386840F40030386004E020
:104080000121201D03F04EFE05466DB12E4620682D
:10409000C0011ED5606CD0B101280ED0022811D00D
:1040A000032814D0012513E0E26ED8F8001021F0A7
:1040B00040511143C8F80010E9E7386840F4003077
:1040C000386004E00221201D03F02CFE054685B176
:1040D0002E462068DFF85CB04002ABF11C0B57D5D0
:1040E0001648016841F480710160FEF7C7FE824600
:1040F0000EE01148626C001F016821F003011143BA
:104100000160E6E7FEF7BAFEA0EB0A0064283DD89E
:104110000A480068C005F5D57DBBDFF81CA0B4F8DF
:10412000B0200AF1200ADAF8001002F4407001F41D
:10413000407105E02C44025850440258004802588F
:10414000814211D0DAF80010DAF8002021F4407131
:1041500042F48032CAF80020DAF8002022F48032DB
:10416000CAF80020CAF80010D4F8B000B0F5807F7B
:1041700021D1FEF783FE019019E008E0FEF77EFEF4
:104180000199411A41F28830814210D903252E4607
:104190002078DFF844A4C0073DD0A06F182838D09D
:1041A00026DC80B3082829D0102825D12CE0DAF8A5
:1041B00000008007E2D5D4F8B010C1F30120032835
:1041C00058460DD0016821F47C510160B4F8B0204C
:1041D000DAF80010C2F30B021143CAF80010D7E757
:1041E000FE4A036802EA111223F47C511143ECE702
:1041F00020280ED028280CD001250BE00121201DFD
:1042000003F090FD04E004E00098012103F01AFEA1
:1042100005465DB12E46207880071ED5606F0628C2
:1042200019D2DFE800F0160C11161616A26FDAF894
:10423000001021F038011143CAF80010EBE701210A
:10424000201D03F06FFD03E00098012103F0FAFD4B
:10425000054675B100E001252E46207840071FD5A0
:10426000D4F89000062819D2DFE800F0160C1116D9
:104270001616626FDAF8001021F007011143CAF830
:104280000010EAE70121201D03F04CFD03E0009837
:10429000012103F0D7FD05469DB100E001252E4622
:1042A000207880062BD5D4F88C00B0F1405F24D064
:1042B00011DC10B3B0F1805F15D0B0F1005F10D108
:1042C00016E0D4F89020D9F8001021F0070111432E
:1042D000C9F80010E4E7B0F1804F0ED0B0F1A04F64
:1042E0000BD001250AE00021201D03F01BFD03E097
:1042F0000098022103F0A6FD05468DB12E462078D8
:1043000040062BD5D4F89800B0F5406F24D011DCCE
:1043100010B3B0F5806F15D0B0F5006F10D116E076
:10432000D4F88C20DAF8001021F0E0411143CAF8EB
:104330000010E4E7B0F5805F0ED0B0F5A05F0BD0C1
:1043400001250AE00021201D03F0ECFC03E00098A9
:10435000022103F077FD05468DB12E462078000638
:104360002BD5D4F89C00B0F5C04F24D011DC10B38D
:10437000B0F5005F15D0B0F5804F10D116E0D4F83D
:104380009820D9F8001021F4E0511143C9F8001029
:10439000E4E7B0F5004F0ED0B0F5204F0BD001256B
:1043A0000AE00021201D03F0BDFC03E0009802217B
:1043B00003F048FD05464DB12E46207800071ED576
:1043C000D4F88000B0F5805F0AD00FE0D4F89C20CC
:1043D000D9F8001021F460411143C9F80010ECE74E
:1043E0000098022103F02EFD00B10126D4F88020B0
:1043F000DAF8001021F440511143CAF80010207877
:10440000C00613D5D4F89400B0F5807F05D100988C
:10441000022103F017FD00B10126D4F89420D9F849
:10442000001021F440711143C9F800102068000306
:1044300016D5D4F8A00038B1B0F5803F09D0B0F55A
:10444000003F0BD001250AE00021201D03F06AFC8B
:1044500003E00098022103F0F5FC054685B12E46E5
:104460002068400322D5D4F88400B0F5801F11D015
:10447000B0F5001F13D0B0F5401F15D0012514E092
:10448000D4F8A020D9F8001021F440311143C9F824
:104490000010E5E7386840F40030386004E0009828
:1044A000012103F0CFFC054655B12E462068C0031C
:1044B0001CD5E06C70B1B0F5803F10D0012514E040
:1044C000D4F88420DAF8001021F440111143CAF81E
:1044D0000010EBE7386840F40030386004E0022157
:1044E000201D03F01FFC0546CDB12E46206880003C
:1044F00005D50098022103F0A5FC00B10126206833
:1045000080031BD5E06FB8B1B0F5807F10D0B0F557
:10451000007F11D0B0F5407F0ED001250DE02E4870
:10452000E26C0838016821F4803111430160DDE755
:10453000386840F400303860F5B32E462068C00279
:1045400007D5226FD8F8001021F000411143C8F8B8
:1045500000102068C00008D5D4F8B420DBF80010A3
:1045600021F480411143CBF800102068800207D568
:10457000A26ED8F8001021F080711143C8F8001025
:10458000206840000CD5DBF8001021F40041CBF886
:104590000010DBF80010D4F8B8201143CBF800105D
:1045A0002068002807DA0C48226D0838016821F0DD
:1045B00040511143016000E014E02068000208D57A
:1045C000D4F88820DAF8001021F440011143CAF829
:1045D000001086B1012003E054440258CFFFFF00D1
:1045E000BDE8FC9FE26FDAF8001021F4407111433E
:1045F000CAF80010A2E70020EDE700002DE9F05F07
:1046000004000F467ED0DFF83882D8F8000000F0B2
:104610000F00B8420CD2D8F8001021F00F01394336
:10462000C8F80010D8F8000000F00F00B84269D1B7
:104630002078844D40070AD52069296801F070016F
:10464000884204D9296821F070010143296020784B
:104650007C4E361D00070AD56069316801F0700193
:10466000884204D9316821F070010143316020781B
:10467000C0060AD5A069316801F4E061884204D916
:10468000316821F4E061014331602078DFF8B4B192
:1046900080060BF1080B0CD5E1695846DBF80020C9
:1046A00002F07002914204D9026822F070020A43BB
:1046B0000260207880070AD5E068296801F00F01C0
:1046C000884204D9296821F00F010143296020782C
:1046D000C0073ED05B49A2682868183920F4706092
:1046E000104328606068022818D0032819D0096890
:1046F000012819D0490700294ADADFF848A1AAF1B0
:10470000080A00E044E0DAF8002022F00702024341
:10471000CAF80020FEF7B2FB814612E0096889035F
:10472000E9E709688901E6E7C905E4E7FEF7A6FBC2
:10473000A0EB090141F28830814202D90320BDE893
:10474000F09F6168DAF8000000F03800B0EBC10FAC
:10475000ECD1207880070AD5E068296801F00F01C4
:10476000884204D2296821F00F0101432960D8F85A
:104770000010404601F00F01B9420BD9016821F049
:104780000F0139430160006800F00F00B84201D00A
:104790000120D4E7207840070AD52069296801F074
:1047A0007001884204D2296821F070010143296018
:1047B000207800070AD56069316801F070018842ED
:1047C00004D2316821F07001014331602078C006C5
:1047D0000AD5A069316801F4E061884204D23168E9
:1047E00021F4E06101433160207880060CD5E16955
:1047F0005846DBF8002002F07002914204D20268B1
:1048000022F070020A43026000F06CF80E492A6838
:104810002B68C2F3032203F00F038A5CC95C02F029
:104820001F0201F01F01D040084A20FA01F1116077
:104830000749086007480068BDE8F05FFEF7CEBD95
:10484000002000521844025820DE000834000024E2
:10485000300000242800002430B500F043F80B4A53
:104860000B490C4B15681468C5F3032204F00F04C0
:104870008A5C095D02F01F0201F01F01D040064A68
:1048800020FA01F119601060084630BD1844025842
:1048900020DE0008340000243000002400B5FFF7BB
:1048A000DBFF05490968054AC1F30211515C01F0BB
:1048B0001F01C84000BD00001C44025820DE000853
:1048C00000B5FFF7C9FF05490968054AC1F3022190
:1048D000515C01F01F01C84000BD00001C4402589B
:1048E00020DE0008454970B545480968434B103B38
:1048F00011F0380208D00111082A03D0102A0BD079
:10490000182A0BD0084670BD19688906FBD51968AE
:10491000C1F3C101C84070BD3A4870BD3749374D39
:1049200018310C1D24350A68096826682D6802F0C4
:10493000030406F00102C1F30511C5F3CC0515FB14
:1049400002F200EE102AB8EE400AE9B32F4ADFED7A
:104950002E0AB7EE001A6CB1DFED2D1A012C01D032
:10496000022C43D002EE101A1068F8EE422A81EEB3
:10497000A22A1EE01C68A40611D51B6801EE901A3D
:104980001168C3F3C103F8EE612AD84001EE900A22
:10499000C1F30800F8EE611A81EEA22A0BE001EEE5
:1049A000901ADFED1C2A00BFF8EE611A106882EE43
:1049B000A12AC0F3080001EE900AF8EE611A40EE59
:1049C000201A31EE810A00E015E022EE000A10689C
:1049D000C0F34620401C00EE900AF8EE600A80EE1C
:1049E000201ABCEEC10A10EE100A70BD01EE901A3A
:1049F000DFED092AD8E7002070BD000010440258FE
:104A00000090D00300366E01000000393044025897
:104A10000024744A0024744C001BB74B2DE9F05F4E
:104A200004007DD0FF4F2078FE4D1837DFF8F49357
:104A3000103DC00748D0D9F80000396800F03800B0
:104A4000102815D0182803D101F0030002280FD038
:104A50006068B0F5803F12D010B1B0F5A02F18D02B
:104A6000286820F480302860286820F4802009E03D
:104A70002868800328D560680028D2D024E0286800
:104A800040F480302860606888B1FEF7F7F9064688
:104A900009E0286840F480202860F0E7FEF7EEF98E
:104AA000801B64286FD828688003F7D50CE0FEF7D8
:104AB000E5F9064605E000BFFEF7E0F9801B642833
:104AC000F0D828688003F7D4207841F20308D54E47
:104AD0000C3E800769D5D9F80000396810F038001D
:104AE0000ED0182801D188070AD0E06890B3296851
:104AF00021F0190101432960FEF7C0F9824631E037
:104B00002868400702D5E06800288AD0E168286854
:104B100020F0190008432860FEF7B0F9824607E04C
:104B2000DFE000BFFEF7AAF9A0EB0A000228B9D81F
:104B300028684007F6D500BFFEF79AF940451BD814
:104B40002069402812D0316821F47C3141EA0030DC
:104B500030602AE018E000BFFEF790F9A0EB0A00F1
:104B600002289FD828684007F6D5E5E7306820F48A
:104B70007C3040F40030EBE7207C316821F0FE41CE
:104B800041EA0060E4E70DE1286820F001002860B8
:104B9000FEF774F9824605E0FEF770F9A0EB0A0013
:104BA00002288DD828684007F6D42078C0065DD545
:104BB000D9F80000DFF86CB2396800F03800ABF1CA
:104BC000040B082810D0182803D101F00300012895
:104BD0000AD0E0690028286838D040F080002860BA
:104BE000FEF74CF9824623E02868C00523D5E0692A
:104BF000802876D11FE0206A202821D0316821F05A
:104C0000F84141EA8060306030E000BF94F8201045
:104C1000DBF8002022F07C5242EA0161CBF8001060
:104C200024E000BFFEF72AF9A0EB0A00022898D87A
:104C30002868C005F6D5FEF71BF94045E6D8DAE747
:104C4000306820F0F84040F08040DCE720F0800041
:104C50002860FEF713F9064605E000BFFEF70EF9DF
:104C6000801B02289DD82868C005F7D4207800074B
:104C700029D56C486169643000298046016811D0EB
:104C800041F001010160FEF7F9F8064605E000BFBA
:104C9000FEF7F4F8801B0228C9D8D8F80000800776
:104CA000F6D510E021F001010160FEF7E7F80646B5
:104CB00005E000BFFEF7E2F8801B022872D8D8F8A2
:104CC00000008007F6D42078800623D5A06900284C
:104CD000286810D040F480502860FEF7CFF80646D0
:104CE00005E02CE1FEF7CAF8801B02285AD8286894
:104CF0008004F7D50EE020F480502860FEF7BEF85F
:104D0000064604E0FEF7BAF8801B02284AD8286855
:104D10008004F7D4207840074FD5DFF80C81D8F80D
:104D2000001041F48071C8F80010FEF7A7F806469D
:104D300005E000BFFEF7A2F8801B642832D8D8F83F
:104D40000000C005F6D5374EA068603601280AD0AD
:104D500008B1052813D0306820F0010030603068B9
:104D600020F0040002E0306840F001003060A068EC
:104D700041F2883A90B1FEF781F880460AE0306847
:104D800040F004003060EEE7FEF778F8A0EB080191
:104D9000514507D830688007F6D50EE0FEF76EF86B
:104DA000804607E084E000BFFEF768F8A0EB08014A
:104DB00051457DD830688007F6D4606AB0B3DFF81B
:104DC0006480D9F8001008F12008C1F3C20103295A
:104DD0006FD00228286820F08070286003D0FEF78A
:104DE0004DF8044680E0FEF749F8064605E000BFAE
:104DF000FEF744F8801B022873D828688001F7D496
:104E0000E26A40F2F331386854F8283F884340EAB8
:104E1000021018433860217B4FF4FE0C22894FF0BA
:104E2000FE4704E0104402580048025889E0208AF6
:104E30004902521E267DA1F5007189B2401EC2F3BF
:104E400008021143761E0CEA004001433E4807EA7F
:104E5000066211433C4AC8F800100832016821F08C
:104E60000101016011684FF6F876236AB14341EA07
:104E7000C30111600168A26921F00C0111430160B6
:104E80000168E26921F0020111430160016841F407
:104E900080310160016841F400310160016841F432
:104EA00080210160016841F001010160286801E092
:104EB00017E01DE040F080702860FDF7DFFF04463A
:104EC00005E000BFFDF7DAFF001B022809D82868BB
:104ED0008001F7D535E000BFFDF7D0FF001B0228A9
:104EE00002D90320BDE8F09F28688001F4D428E0AF
:104EF00039680128D8F8000021D0A26A01F0030324
:104F000093421CD1E26AC1F305118A4217D1216B89
:104F1000C0F30802491E8A4211D1616BC0F34622D8
:104F2000491E91420BD1A16BC0F30642491E91422A
:104F300005D1E16BC0F30660491E814201D001201A
:104F4000D0E70020CEE700002C440258704770479D
:104F5000704770472DE9FC5F0446806B0E460321C5
:104F600084F83010002703285CD0B6F5004F59D0E4
:104F7000B6F5804F4FF000054FF400684FF08069A0
:104F800004D006B3606B40F000603FE00095002164
:104F90000195206803F018FC80011CD46946204666
:104FA00003F072FC70BB019840032DD5B4F8441097
:104FB0002068090403F0BCF820BB206802211DE032
:104FC000606B284322E0009500210195206803F0E2
:104FD000FBFB800101D54546F2E76946204603F018
:104FE00053FC78B90198C0030ED5B4F8441020687A
:104FF000090403F09DF828B92068002103F0E2F8C5
:105000000028DDD00546DBE74D46D9E76063606BDD
:105010004FF4007BDFF8B8A040B121680127C1F848
:1050200038A042E0606B40F08050EFE74FF48030F2
:10503000FEF744FD010033D0264D3346D4E904C0C9
:10504000B1FBF5F8D4E90192804511D9A66D5E4512
:105050000ED0B6F5807F12D04FEA6506E8B14FEA70
:105060004008B1FBF8F8B04502D900BFB1FBF5F03C
:105070004946CDE900C0206803F0AAFB15E0164EB2
:1050800030B14FEA4008B1FBF8F8A84502D8EFE785
:10509000A942EDD9B1FBF6F0EAE7B142E6D8E7E77D
:1050A000606B012740F0006060632068594603F0A0
:1050B00070F830B122680127C2F838A0616B014353
:1050C0006163012084F830003846BDE8FC9F000091
:1050D000FF0FE01F80F0FA0200E1F50510B50400B3
:1050E0000DD0032084F83000206803F081FB2046B7
:1050F00000F034FB0020606384F8300010BD012014
:1051000010BD7047F0B5C26D920F0A70C26DC2F348
:1051100083624A70C26DC2F301628A70C26D120C62
:10512000CA70B0F85C20120A0A7190F85C204A71CB
:10513000026E120DCA80026EC2F303420A72B0F808
:105140006020C2F3C0324A72B0F86020C2F38032ED
:105150008A72B0F86020C2F34032CA72B0F86020A0
:105160000026C2F300320A734E730122836B4FF4A0
:10517000007463B1012B3AD0036850499963416BC5
:1051800041F08051416380F830200120F0BDB0F83B
:105190006030456E9B051B0D43EA95730B61436EB2
:1051A000C3F3C2630B75436EC3F302634B75436E67
:1051B000C3F342538B75436EC3F38243CB75436E87
:1051C000C3F3C2330B760D696D1C85640B7E03F04F
:1051D00007039B1C9D4085640B7A446503F00F0315
:1051E00002FA03F35F0A7D43C0E913350EE090F83D
:1051F0006050436EAD06AD0A45EA13430B610B697F
:105200005B1C9B028364C0E913434465B0F86430BF
:10521000C3F380334B76B0F86430C3F3C6138B7698
:1052200090F8643003F07F03CB76836EDB0F0B774F
:10523000836EC3F341734B77836EC3F382638B77C3
:10524000836EC3F38353CB77836EC3F3405381F8EC
:10525000203081F82160836EC3F3004381F822304F
:10526000B0F86830C3F3C03381F82330B0F8683049
:10527000C3F3803381F82430B0F86830C3F340338F
:1052800081F82530B0F86830C3F3003381F8263058
:10529000B0F86830C3F3812381F82730B0F8683064
:1052A000C3F3012381F8283090F86800C0F346006A
:1052B00081F8290081F82A200020F0BDFF0FE01FAF
:1052C000826B0A60C26B4A60026C8A60426CCA6080
:1052D000826C0A61C26C4A61026D8A61406DC8616C
:1052E0000020704770B5B0F84410002504460068EF
:1052F000090403F054F818B1616B0143616304E0E1
:105300002068002103F060FA0546C5F3432070BD14
:105310002DE9F041054690F8300090B00C4600268B
:10532000032810D06946284603F002FC2A4F4FF0AC
:10533000010860B12A68012697636A6B02436A63B9
:1053400085F830803AE0012010B0BDE8F081009986
:105350004FF47F40C1F3811121700099C1F34011D6
:10536000617000990A4600EA112141EA12616180E8
:10537000019909BA6160029921720299090A617260
:105380000299C1F30351A172DDE9022100EA124042
:10539000C9B20843A0810398C0F38520A073039885
:1053A000C0F30120E0730398C0F303102074039846
:1053B00000F00F0060740498000EA07428684FF489
:1053C000007102F0E6FE28B12A680126976368633F
:1053D00085F830803046B7E7FF0FE01F2DE9F8432E
:1053E00004460068E56A416B09041BD5290719D5F5
:1053F000D4E90950202813D30026206803F004FACA
:10540000020A2870010C6A70030EA970761CEB70FA
:10541000082E05F10405F0D3A06A2038C4E909502C
:10542000BDE8F883416B0127DFF8EC810026C90550
:1054300051D539024CF23A12816329072068C16BB9
:1054400021EA0201C1632068C16B21F08051C16370
:105450002068C16821F04001C16018D515F0220F05
:1054600009D0206802F0E8FF28B1616B0143616355
:105470002046FFF746FE2168AA07C1F8388084F865
:105480003070E66223D1204600F046FAC8E72806CD
:10549000C6D5206815F0220F86622068C662206893
:1054A000066509D0206802F0C7FF28B1616B01438F
:1054B00061632046FFF725FE15F0300F84F8307049
:1054C000E66202D0204600F027FAA807A8D02046BE
:1054D00000F01EFAA4E7416B490421D529071FD526
:1054E000D4E9075020289BD30026287800906978BB
:1054F00040EA01200090A97840EA01400090E97854
:105500002D1D40EA016000902068694603F094F97F
:10551000761C082EE9D3206A2038C4E907507FE7BB
:10552000416B11F03A0F416B58D0890703D5616B7D
:1055300041F002016163416B090703D5616B41F0E2
:1055400008016163416B890603D5616B41F020015D
:105550006163416BC90603D5616B41F01001616362
:10556000C0F838802068C16B21F49D71C163206848
:10557000C16821F04001C1602068C16A41F4005156
:10558000C1622068C16841F08001C160206802F0FA
:1055900053FF626B2B074FF4006140EA0200606327
:1055A0002068C26822F08002C2602068816303D54F
:1055B00084F83070E6620DE028068BD5606B002819
:1055C00088D02068C16B21F08051C16320680665D6
:1055D00084F830702046FFF794FD21E7C9009ED57E
:1055E0004FF0805181632068006D40074FEA85606D
:1055F00008D40028204602DAFFF7ABFC10E7FFF7DB
:10560000A6FC0DE70028204602DAFFF7A1FC07E719
:10561000FFF79CFC04E700003A0F0018F0B5040007
:1056200085B020D094F83000002518B920462576A2
:1056300000F0B6F8042084F83000204600F03CF872
:1056400088B969462046FFF763FE60B99DF81010DF
:10565000A26B9DF81100012A08D0A5652046E168DB
:10566000FFF778FC58B1012005B0F0BD014302D02E
:105670004FF4007001E04FF48070A065EEE7FDF795
:10568000FDFB0127064604E0FDF7F8FB801B401CEC
:105690000AD02046FFF726FE0428F5D16563E562AF
:1056A00084F830700020DFE74FF00040606384F83A
:1056B00030700320D8E700002DE9FC4104464FF08C
:1056C00000084FF48030FEF7F9F905004FF00106AD
:1056D00020D01F48434642464146B5FBF0F7CDE98E
:1056E0000087206803F074F8206803F087F87800DA
:1056F0001849B5FBF0F0B1FBF0F0401CFDF75AF98A
:10570000204603F0BBF958B184F83060616B014367
:10571000616319E04FF0006084F83060606313E06B
:10572000204603F02FF90028EED120684FF40071D5
:1057300002F02FFD002808D0226807499163616BB1
:105740000143616384F830600120BDE8FC81000002
:1057500000350C0010210100FF0FE01F10B500689C
:105760000B49884212D10B48016821F48031016055
:1057700009484FF4F851FDF72FF908480421FDF7C7
:105780002BF9BDE810403120FDF700BF10BD00002F
:1057900000700052D444025800080258000C02580D
:1057A000F0B587B0044614216846FAF7FCFD1E499F
:1057B0002068884235D11D48016841F4803101607C
:1057C000006800F48030059018480C30016841F002
:1057D00004010160016801F004010591016841F0D4
:1057E00008010160006802240025694600F00800F5
:1057F000059003260C274FF4F8508DE8F1000C4873
:10580000FDF70EFA042069468DE8F1000948FDF71E
:1058100007FA002201213120FDF7D6FE3120FDF7E5
:10582000C6FE07B0F0BD000000700052D44402581C
:1058300000080258000C02582DE9F0430F001E46E4
:1058400087B00446154607D094F83000012807D0E9
:10585000022007B0BDE8F083606B40F0006008E014
:10586000216D0020AA1960638A4204D9606B40F060
:105870000070606341E0032184F8301022687102F7
:10588000D062C4E90971A26B012A00D06D024FF009
:10589000020C90230293CDE903C04FF0FF32059034
:1058A000CDE9002180462068694602F023FE206889
:1058B000012E4FF00109C26842F04002C260206828
:1058C00087652068C0F8509006D98220E062206881
:1058D000294602F0CFFC05E08120E06220682946DD
:1058E00002F0E2FC58B125680849A963616B0143E5
:1058F000616384F83090C4F82C800120A9E7206807
:10590000C16B41F49571C1630020A2E7FF0FE01F56
:1059100010B5FBF713FA10BD10B5FBF723FA10BD55
:105920002DE9F0470F001E4686B00446154607D005
:1059300094F83000012807D0022006B0BDE8F087B7
:10594000606B40F0006008E0216D0020AA196063E0
:105950008A4204D9606B40F00070606340E003212C
:1059600084F8301022687102D062C4E90771A26B1A
:10597000012A00D06D024FF0FF324FF0900A0590DF
:10598000CDE902A0CDE90021049080462068694657
:1059900002F0B0FD2068C16841F04001C16020689C
:1059A0004FF001098765012E2168C1F8509006D992
:1059B000A020E0622068294602F068FD05E0C4F8F6
:1059C0002CA02946206802F07BFD58B12568094AC1
:1059D000AA63626B0243626384F83090C4F82C803F
:1059E0000120AAE72068C16B41F48D71C1630020DA
:1059F000A3E70000FF0FE01F704700002DE9F05FF4
:105A0000016804460020D1F810804F69D1F8089051
:105A100094F8816008EA070515F0600F01F1300B7A
:105A200008D1690706D5616F20468847216F204657
:105A30008847012005F04101012905D1690703D4F8
:105A4000216F20468847012005F02201022906D156
:105A5000690704D4616F2046BDE8F05F084700285D
:105A600059D128074FF0010A6AD5206819F4404F30
:105A7000826942F0080181612068816941F010016A
:105A800081612068816941F4006181612068016958
:105A900021F00801016109D0042E04D0A06FC06973
:105AA00020B1032E40D0E06FC069B0BB2068806891
:105AB00010F4404F20D023E0E0680F2806D920687A
:105AC000616E006B0860606E001D0FE0072806D94C
:105AD000BBF80000616E0880606E801C06E02068E4
