:020000040800F2
:10000000E0A507247D03000801A300086D8F000808
:1000100099960008AD1F0008DDDC00080000000014
:10002000000000000000000000000000A5C700085C
:10003000C12A000800000000FDA60008E9CA000867
:10004000970300089703000897030008B9B4000855
:100050009703000897030008970300089703000818
:100060009703000897030008970300089703000808
:1000700097030008970300089703000897030008F8
:1000800097030008970300089703000897030008E8
:100090009703000897030008970300085B3C0008DB
:1000A00097030008970300089703000897030008C8
:1000B00097030008D5CC00089703000897030008B1
:1000C00097030008970300089703000897030008A8
:1000D000970300082DDC0008970300089703000829
:1000E0009703000871B300080000000097030008A0
:1000F0009703000897030008970300089703000878
:100100009703000897030008970300089703000867
:100110009703000897030008970300089703000857
:100120009703000897030008970300089703000847
:100130009703000897030008970300089703000837
:1001400000000000000000000000000000000000AF
:100150009703000897030008970300089703000817
:100160009703000897030008970300089703000807
:100170009703000897030008970300080000000099
:1001800097030008970300089703000897030008E7
:1001900097030008970300089703000897030008D7
:1001A00097030008970300089703000897030008C7
:1001B00001B100089703000897030008970300089F
:1001C00097030008970300089703000897030008A7
:1001D0009703000897030008970300089703000897
:1001E0009703000897030008970300089703000887
:1001F0009703000897030008970300089703000877
:100200009703000897030008970300089703000866
:100210009703000897030008970300089703000856
:1002200097030008970300080195000800000000EC
:1002300097030008970300080000000097030008D8
:100240009703000897030008970300089703000826
:100250009703000897030008970300089703000816
:100260009703000897030008970300089703000806
:100270009703000897030008970300080000000098
:10028000970300080000000097030008000000002A
:1002900000000000970300084B1C012B98BF70471B
:1002A0002DE9F003911C9B08B1F80480B1F802908D
:1002B0000A8831F802CC8044814402448444D9F84D
:1002C0000070D8F800601568DCF80040C9F80060DC
:1002D000C8F80070CCF800501460D9F80470D8F851
:1002E00004605568DCF80440C9F80460C8F804707C
:1002F000CCF80450546008315B1ED5D1BDE8F00342
:1003000070474B1C012B98BF70472DE9F003911CDF
:100310009B08B1F80480B1F802900A8831F802CC49
:1003200000EB580800EB590900EB520200EB5C0CA3
:10033000D9F80070D8F800601568DCF80040C9F8FA
:100340000060C8F80070CCF80050146008315B1EE3
:10035000DFD1BDE8F0037047DFF80CD001F088FD75
:100360000048004779280108E0A5072430BF72B68D
:10037000704762B6704780F3088870470648804728
:1003800006480047FEE7FEE7FEE7FEE7FEE7FEE77A
:10039000FEE7FEE7FEE7FEE7F1CA000859030008A2
:1003A00093081CD0D0ED000A90ED011AD0ED021A8E
:1003B00090ED032A60EE800A21EE001A61EE802A99
:1003C00062EE001AC1ED000A81ED011AC1ED022AA8
:1003D0001030C1ED031A5B1E01F11001E2D112F0E1
:1003E000030208BF7047B2F1004F27D2002AD8BFDE
:1003F000704712F0010FA0F10400A1F1040107D031
:10040000D0ED010A001D60EE800AC1ED010A091D50
:10041000520808BF704700BFD0ED010A0830521ED5
:1004200060EE800AC1ED010AD0ED000A60EE800A9C
:10043000C1ED020A01F10801EED17047F0EC010AAA
:10044000521E60EE800AE1EC010AF7D17047930872
:100450002DD090ED000A5B1E81ED000A90ED020A9E
:1004600081ED020A90ED040A81ED040A90ED060A7E
:1004700081ED060A90ED010AD0ED030AD0ED051AD0
:1004800090ED071AB1EE400AF1EE600A81ED010A23
:10049000F1EE611AC1ED030AB1EE411AC1ED051A80
:1004A00081ED071A00F1200001F12001D1D112F0F5
:1004B000030208BF7047B2F1004F33D2002AD8BF01
:1004C000704712F0010FA0F10800A1F108010BD054
:1004D00090ED020A81ED020A90ED030A0830B1EEB8
:1004E000400A81ED030A0831520808BF704790EDB9
:1004F000020A521E81ED020A90ED030AB1EE400A93
:1005000081ED030A90ED040A81ED040A90ED050ADD
:1005100000F11000B1EE400A81ED050A01F1100171
:10052000E5D1704790ED000A521E81ED000A90ED72
:10053000010A00F10800B1EE400A81ED010A01F163
:100540000801EFD17047000030B49FED3A0A5FEA2E
:10055000920C029CF0EE400A4FD000BF90ED001AC2
:10056000D1ED012A91ED002AD0ED011A41EE220AC7
:1005700001EE020A083190ED021A0C3000F1040578
:1005800041EE820A01EEE20AD1ED012AD1ED001A14
:1005900090ED002A01F1080041EE220A01EE210A45
:1005A00095ED003A90ED001ABCF1010C42EE210AE3
:1005B00002EE620AD0ED012A95ED012AD5ED021A6C
:1005C00005F10C0543EE220A03EE010A42EE010A90
:1005D00091ED041A02EE620A00F10C0195ED002A79
:1005E00005F10400F1EC012A01EE810A41EEA20AB4
:1005F00002EE620A42EE010AB0D112F0030213D0F9
:1006000090ED002A91ED001AD1ED011AD0ED012AEA
:1006100002EE010A42EE210A08300831521E02EEB3
:10062000E10A42EE810AEBD183ED000AC4ED000A33
:1006300030BC7047000000009FED3E0A5FEA920C5C
:1006400059D000BFD0ED000A90ED011A0B1D60EEED
:10065000A00A083041EE010AF5EEC00AF1EE10FAE8
:10066000A6BFB1EEE01A81ED001A81ED000AD0EDCF
:10067000000A90ED011A00F1080160EEA00A181DB1
:1006800041EE010AF5EEC00AF1EE10FAA6BFB1EE96
:10069000E01A83ED001A83ED000AD1ED000A91ED16
:1006A000011A031D60EEA00A083141EE010AF5EEC1
:1006B000C00AF1EE10FAA6BFB1EEE01A80ED001A02
:1006C00080ED000AD1ED000A91ED011A081D60EEDF
:1006D000A00A191D001D41EE010AF5EEC00AF1EE57
:1006E00010FAA6BFB1EEE01A83ED001A83ED000AFE
:1006F000BCF1010CA6D112F0030208BF704700BF85
:10070000D0ED000A90ED011A08300B4660EEA00A09
:10071000091D41EE010AF5EEC00AF1EE10FAA6BF7E
:10072000B1EEE01A83ED001A83ED000A521EE7D104
:1007300070470000000000005FEA930C59D000BF32
:10074000D1ED000A90ED004A90ED011A91ED023AC8
:10075000D0ED022A24EE200A61EE201AD1ED033AF0
:1007600091ED015A22EE832AD0ED034A62EEA30AEC
:1007700001EE450AD1ED042A44EE051A44EE830A3F
:1007800004EEE32A90ED043A82ED000AD0ED053A3A
:10079000C2ED011A91ED054A82ED022AC2ED030A6B
:1007A00023EE221AD0ED061AD1ED064AD0ED070A43
:1007B00023EEA20A03EEC41A61EEA42A91ED072AE1
:1007C00060EEA43A03EE040A40EEC22A82ED041A57
:1007D00041EE823ABCF1010C82ED050AC2ED062A17
:1007E00000F12000C2ED073A01F1200102F12002E0
:1007F000A6D113F0030308BF704700BFD0ED000A75
:1008000091ED000A91ED011AD0ED011A20EE802A37
:1008100060EE810A0830083101EEC12A41EE800AFB
:100820005B1E82ED002AC2ED010A02F10802E5D149
:10083000704700002DE9F04F6FF0030C2DED028B97
:10084000DFEDF88AB0F800805FEAD30BD0E9014908
:100850000CEB880C04EB0C0718BF4FEAD80E00F025
:10086000458100BF91ED000A01F1040C87ED000AFB
:1008700091ED010A0CF1040587ED010A9CED010AD6
:10088000B0EE685A87ED020A95ED010A291D87ED41
:10089000030A95ED020A07F11C0687ED040A95ED9F
:1008A000030AF0EE686A87ED050A95ED040A5FEA2F
:1008B0000E0587ED060A9CED060AB0EE457A87ED37
:1008C000070AD4ED002A94ED012AD4ED021A94ED22
:1008D000031AD4ED040A94ED050A94ED063A06F1E4
:1008E0000407CC46F0EE454AB0EE458AF0EE455A94
:1008F000F0EE457AB0EE456A04F11C0601F11401F0
:100900007ED000BF9CED004AD6ED003A0CF1040AFF
:1009100042EE846A02EE045A01EE847A41EE044A01
:1009200000EE848A40EE045A43EE047A03EE846AB1
:100930009AED004AD6ED012A06F1040C42EE046A53
:1009400001EE845A01EE047A40EE844A00EE048AF5
:1009500043EE045A43EE847A02EE846A9AED014A29
:100960000CF1040C0AF104069CED002A41EE846AA5
:1009700001EE045A00EE847A40EE044A03EE048A43
:1009800043EE845A42EE847A02EE046A96ED014AFE
:10099000DCED011A6D1E41EE046A00EE845A00EE91
:1009A000047A43EE044A03EE848A42EE845A42EE0D
:1009B000047A01EE846A96ED024A9CED021A40EE3A
:1009C000846A00EE045A03EE047A43EE844A02EE8F
:1009D000848A42EE045A41EE847A01EE046A96ED6E
:1009E000034ADCED030A40EE046A03EE045A03EE08
:1009F000847A42EE844A02EE048A41EE845A00E090
:100A000035E041EE047A00EE846A96ED044A9CEDEE
:100A1000040A06F1140A43EE046A03EE845A02EE55
:100A2000847A42EE044A01EE848A41EE045A40EE92
:100A3000847A00EE046A9AED004A9CED053A0CF1C6
:100A4000140643EE846A02EE845A02EE047A41EE02
:100A5000844A01EE048A40EE845A40EE047A03EEA2
:100A6000046A0AF1040C06F104067FF44BAF18F097
:100A7000070A24D0FCEC013ABAF1010AB6EC014AAB
:100A800042EEA36A02EE235AF0EE422A01EEA37A66
:100A9000B0EE612A41EE234A00EEA38A40EE235ACB
:100AA00043EE237A04EE236AF0EE411AB0EE601AA8
:100AB000F0EE400AB0EE430AB0EE443ADAD1C2EDAD
:100AC000006A82ED015A82ED027AC2ED034A82ED9C
:100AD000048AC2ED055AC2ED067A1C322034BBF1FD
:100AE000010BA2EC016A7FF4BDAE00BF13F0070654
:100AF00041D000BFB1EC010AB8F1010309F1040CC7
:100B000004F10405A7EC010AD4ED000A99ED001ADE
:100B1000B0EE680A00EE810A28D0B3F1004F7DD212
:100B2000002B23DD13F0010FA5F10405ACF1040C3B
:100B300008D0D5ED010A9CED011A2D1D0CF1040C15
:100B400000EE810A5B1011D095ED011ADCED011A5F
:100B5000D5ED020A5B1E01EE210A9CED021A05F199
:100B600008050CF1080C00EE810AEDD1241D761E5B
:100B7000A2EC010ABED1A8F101054068AB0822D061
:100B8000B3F1004F59D2002B1DDD224601469C4691
:100B900092ED000ABCF1010C81ED000A92ED010A10
:100BA00081ED010A92ED020A81ED020A92ED030A3B
:100BB00002F1100281ED030A01F11001E8D104EB0A
:100BC000031400EB031015F0030104BFBDEC028B0E
:100BD000BDE8F08FB1F1004F47D200291BDD11F0C5
:100BE000010FA4F10402A0F1040005D092ED010A66
:100BF00080ED010A001D121D49080CD092ED010A7A
:100C000002F1080280ED010A083092ED000A491E47
:100C100080ED000AF2D1BDEC028B00E004E0BDE8FB
:100C2000F08F000000000000F5EC010A5B1EBCEC38
:100C3000011A00EE810AF7D198E794ED000A80EDE1
:100C4000000A94ED010A80ED010A94ED020A80ED9C
:100C5000020A083094ED030A5B1E80ED010A04F1DC
:100C6000100400F10800E8D1ADE7B4EC010A491E18
:100C7000A0EC010AF9D1CEE770B504461D460498F0
:100C8000A260084421808000011F184601F05EF830
:100C9000656070BD2DE9F047064688462DED088B4E
:100CA0000088D6F804C0450801EB8004AB0827464D
:100CB00001EB850004EB85027ED000BF91ED001AA8
:100CC000D4ED001AD1ED013AD4ED01BAD1ED025ABA
:100CD00094ED022A91ED030AD4ED032AD0ED034AE4
:100CE000D2ED030A71EE217AD0ED006A90ED013A5F
:100CF00090ED025A92ED007A92ED016A92ED024A6D
:100D000033EEAB8A75EE828A30EE229AC1ED007A1C
:100D100076EE879A81ED018A33EE06AAC1ED028A4A
:100D200075EE04AA81ED039A34EEA0BAC0ED009AE4
:100D300080ED01AAC0ED02AA70EE622A80ED03BA2E
:100D400071EE611A9CED000A73EEEB3A70EEE44A24
:100D5000DCED010A34EE454A35EEC22A21EE805A16
:100D600063EE805A63EEA03A37EE661A36EE433AE7
:100D700061EEA01A35EE236A61EE203A23EE005AA6
:100D800063EE200A21EE000A75EEE11A84ED006A96
:100D900033EEC51AC4ED011A30EE800A82ED001A56
:100DA0000CF1080A82ED010A5B1E9AED000A04F1BB
:100DB000080402F1080900E02DE0DAED010A22EE54
:100DC000001A62EE801A62EEA02A22EE202A0AF1B0
:100DD000080C00F1100031EE223A24EE201A64EEE5
:100DE000802A64EEA00A24EE000A71EEC21A84ED95
:100DF000003A31EE621AC4ED011A30EE800A89ED34
:100E0000001A04F1080489ED010A01F1100109F149
:100E100008027FF453AF726802232946404600F06F
:100E2000A7FC7268294638460223BDEC088BBDE852
:100E3000F04700F09DBC2DE9F34F04244FF0060B62
:100E40002DED0A8B87B01198DDF844C0D1ED003A42
:100E50000088DCF804C046080CF1080901EB8602A2
:100E600002EB8600D2ED000A90ED002A00EB86032B
:100E70001D1F93ED000A019405EB860473EE821AA0
:100E80000492760805910CF11008D1ED014A30EE7C
:100E9000A11A90ED014A93ED013A33EEC22A71EEA8
:100EA000002A92ED011A74EEC43AC1ED002A74EEE4
:100EB000842A009601F1040192ED015A71EE024A72
:100EC00031EEE06A72EEC11A32EE412A35EE225A54
:100ED00093ED014A74EEC32A71EEC31A32EE032A6F
:100EE00073EEE05A35EE043A0CF1180703900293C2
:100EF000A6F1020C70EEA33A81ED003A161F35EE12
:100F0000801AC2ED002A02F1040E76EE400A8EED40
:100F1000001A01F10402C0ED000A00F104015FEAC9
:100F20005C0AA0F1040CC1ED001A0EF1040033EECE
:100F3000C00A83ED002A03F1040E01F104038EEDD3
:100F4000000A0EF1040100F0078100BFD2ED007A23
:100F5000D3ED006AD0ED002A91ED002A37EEA61AF3
:100F6000D2ED010A90ED016AD1ED015A32EE810A0B
:100F700031EE629A77EEE66A70EE021A93ED010A9C
:100F800076EE267AC2ED001A30EE805AD0ED011AC4
:100F900091ED013A71EE851A75EE469A71EE831A5B
:100FA000C2ED011AD6ED003AD5ED004ADCED001A8B
:100FB00094ED001A33EEA47A16ED01AA55ED018ADC
:100FC00014ED014A31EE873A3AEE285A33EE018A9F
:100FD0001CED013A86ED008A5CED01AA37EEE58A48
:100FE0007AEE857A54ED01AA77EEAABA70EEC07A4D
:100FF00071EEC1AA46ED01BAD9ED010A37EEE20A57
:1010000072EEA77A7AEE682A30EE02BA99ED000AFB
:101010007AEEA28A68EE00BA2BEE20CA2BEE00BA56
:1010200028EE208A28EE80AA7BEE8CBA3BEE488A16
:10103000C0ED00BA80ED018A33EEE48A38EE438ACF
:1010400038EE048A28EE20BA68EEA00A28EE000ADC
:1010500039EE428A3BEE4AAA79EEE58A30EE800A02
:101060008CED00AA0CED010A37EE610A30EE417AF0
:1010700098ED000A28EE009AD8ED010A35EE435AA1
:10108000B1EE47AA68EEA09A68EE808A28EE208A20
:1010900035EE445A79EE299A2AEE009A38EEC88A3B
:1010A000C3ED009A25EE000A83ED018A25EE208A21
:1010B00067EE200A37EEC22A34EE433A39EE488A08
:1010C00030EEC00A31EEC11A85ED008A05ED010A45
:1010D00036EEC60AD7ED010A31EE621A083030EE5C
:1010E000255A97ED000A22EE206A083265EE005A72
:1010F00022EE002A25EE205A61EE001A75EE865A7D
:10110000083332EE452AC1ED005A083D81ED012A2F
:1011100033EEE42A0831083E09F1080933EE422A89
:10112000ACF1080C07EB8B0722EE203A61EE200AA7
:1011300022EE000A73EE611A30EE800AC4ED001A46
:1011400004ED010ADDF804E0083CBAF1010A08EBFD
:101150008E087FF4FBAE00BF92ED001A93ED000AFB
:1011600092ED013A71EE000A71EE402A90ED000A0C
:1011700030EE201A70EEC01AD1ED000A71EE203A5E
:1011800031EEE01AD3ED011A33EE212A73EE611A23
:1011900031EEC03A30EE210A73EE201A30EE603A9A
:1011A00090ED010A70EE220A32EEC04AD1ED012A1A
:1011B000C2ED003AD0ED013A32EE400A70EEE20A9A
:1011C00033EE822AD1ED013A30EE620A74EE222A21
:1011D00032EE232A82ED012A99ED002AD9ED013A57
:1011E00020EE824A60EEA30A61EEA33A61EE821A13
:1011F00034EE232A71EEE00A80ED002AC0ED010AE8
:10120000D8ED010AD8ED001A20EE202A61EE213A2D
:1012100020EE210A61EE200A33EE821A30EE600AD7
:1012200083ED001A83ED010A97ED000AD7ED010A5C
:10123000042362EE801A23EE201A23EE000A62EEE7
:10124000A00A31EE811A30EE600A81ED001A81EDBC
:10125000010A119800994268059800F089FA1198DE
:10126000042300994268049800F082FA119804233C
:1012700000994268039800F07BFA119804230099C2
:101280004268029807B0BDEC0A8B02B0BDE8F04F8F
:1012900000F06EBA2DE9F0410488012A98461746FD
:1012A0000D46064621D1281DFCB114F0010FA0F116
:1012B000080106D091ED020AB1EE400A81ED020A62
:1012C00008315FEA540C10D091ED020AD1ED040A06
:1012D000BCF1010CB1EE400AF1EE600A81ED020AA8
:1012E000C1ED040A01F11001EED1B4F5807F1BD0ED
:1012F00008DC102C13D0202C16D0402C19D0802CB8
:101300000DD01CE0B4F5007F13D0B4F5806F06D08B
:10131000B4F5006F08D0B4F5805F0AD00FE029461D
:101320003046FFF7B7FC0AE029463046FFF783FD59
:1013300005E0726801232146284600F019FAB8F149
:10134000000F04D0B1892846B268FEF7A5FF012F2F
:1013500018BFBDE8F08100EE104AF7EE000A002C3D
:10136000B8EE401A80EE810A08BFBDE8F08114F0A3
:10137000010FA5F108000ED0D0ED030A90ED021A7E
:10138000F1EE600A21EE001A60EE800A80ED021A8A
:10139000C0ED030A0830610808BFBDE8F08100BF56
:1013A00090ED031AD0ED021AD0ED050A90ED042A53
:1013B000B1EE411A61EE801AF1EE600A22EE002AC7
:1013C00021EE001A60EE800AC0ED021A80ED042AB8
:1013D00080ED031AC0ED050A491E00F11000DFD1AF
:1013E000BDE8F08191ED001AD1ED010AB6EE000AD8
:1013F00031EE011A70EEA00A0388D0F814C001F192
:1014000008005B1E71EE201A71EE600A01EBC30149
:101410000CF1080C21EE801A60EE800A82ED001AB1
:10142000C2ED010A083200BFD1ED002A90ED003A6A
:101430009CED001AD1ED010A72EEC33AD0ED011A0B
:101440009CED012A33EE223A30EEA14A61EE234AA6
:1014500062EE232A71EEE00A22EE042A73EE241AC9
:1014600021EE041A70EEA20A083071EE821A0839D1
:1014700070EEC10A5B1E21EE801A0CF1080C60EEC2
:10148000800AA2EC011AE2EC010ACDD17047D1ED3D
:10149000000A91ED011AB6EE000A038870EE811A77
:1014A00070EEC10AD0F814C05B1E01F1080021EEF5
:1014B000801A60EE800A01EBC30182ED001AC2EDD2
:1014C000010A02F108020CF1080C08BF704700BFC6
:1014D000D1ED002A90ED003ADCED003AD1ED010AA1
:1014E00073EE621A90ED011A9CED014A73EE222A06
:1014F00031EE202A23EEA15A71EE600A64EE211A21
:1015000064EE024A32EEC51A23EE822A70EEA10A78
:10151000083031EE641A083970EEC20A5B1E21EE03
:10152000001A0CF1080C60EE800AA2EC011AE2EC41
:10153000010ACDD170472DE9F0410446008A1D0013
:1015400016460F464FEA500020800AD02046FFF78B
:101550009EFF2A4631462046BDE8F0410123FFF7B1
:1015600099BE01232A462046FFF794FE32463946AB
:101570002046BDE8F04135E700220182490801809C
:10158000B1F5807F31D008DC10294FD0202945D01B
:1015900040293BD0802931D008E0B1F5007F1BD035
:1015A000B1F5806F0FD0B1F5006F03D04FF0FF326F
:1015B000104670474FF46E638381214B8360214B4B
:1015C0002149436039E04FF4E16383811F4B83601D
:1015D0001F4B2049436030E04FF4E07383811E4B82
:1015E00083601E4B1E49436027E04FF4DC73838108
:1015F0001C4B83601C4B1D4943601EE0D02383813C
:101600001B4B83601B4B1C49436016E038238381CE
:101610001A4B83601A4B1B4943600EE030238381D1
:10162000194B8360194B1A49436006E014238381E8
:10163000184B8360184B194943604161B8E70000BB
:10164000ACFA0408142304086C7705089CEC040821
:10165000140304086C5705081CE9040814F3030874
:101660006C470508ACE5040814EB03086C3F05085B
:101670000CE4040814E703086C3B05089CE3040829
:1016800014E503086C3905083CE3040814E4030876
:101690006C38050814E3040894E30308EC370508E4
:1016A000F0B44F1E002490ED000ABE08254600F15C
:1016B000040C2ED0DCED000A9CED011A0CF10800A0
:1016C000B4EEE00AF1EE10FA3CBF651CB0EE600A21
:1016D000B4EEC10AF1EE10FA3CBFA51CB0EE410A0F
:1016E000D0ED000A90ED011A00F1080CB4EEE00A0A
:1016F000F1EE10FA3CBFE51CB0EE600AB4EEC10A90
:10170000F1EE10FA3CBF251DB0EE410A241D761EF5
:10171000D0D117F0030018D0B0F1004F044619D211
:101720000028C8BF002610DDDCED000AF4EEC00A78
:10173000F1EE10FA03DD8D192D1AB0EE600A641E69
:1017400006F101060CF1040CEED182ED000A1D60D9
:10175000F0BC7047FCEC010AB4EEE00AF1EE10FABE
:101760003CBF0D1AB0EE600A401EF3D1EDE7000059
:101770002DE9FF4F2DED108B82B09FEDFE0A0B4639
:101780004FF0000C9E46DB080CEB0304E51800EB61
:10179000C408EC1804EB030600EBC50906EB0305CF
:1017A00000EBCC0700EBC60605EB030AD6ED000AFA
:1017B000D7ED002A0AEB030B00EBC50532EEA01AA9
:1017C00000EBCA0A72EEE00A95ED002ADAED004A53
:1017D000D8ED002A99ED005A00EBCB0B00EBC404C6
:1017E000DBED001A94ED003A32EE824A75EE243AAF
:1017F00072EEC22A33EE212A33EE613A71EE631A99
:1018000071EE233A34EE421A34EE022A32EEC38AE3
:1018100072EE832A35EE645A33EE823A33EEC22AF0
:1018200062EE806A87ED003A86ED002AD8ED017AF3
:1018300095ED014A97ED017A96ED013AD9ED013A1D
:101840009AED012AD4ED018ADBED014A77EE845A44
:1018500037EEC44A37EE036A78EEA42A73EE827A32
:1018600073EEC23A35EE662A37EE433A75EE266AD3
:1018700036EE677A36EE275A78EEE44A35EEE26ABB
:1018800075EEA25AF44474EE648A74EE242A75EE5E
:10189000257A35EE655A71EE865A62EE802A28EE78
:1018A000004A68EE804A31EEC66A8C4537EE418ABE
:1018B00037EE017A30EEC41A70EE841A73EE640AC1
:1018C00033EE244A33EEE23A73EEA22AC7ED017AF0
:1018D00086ED015AC9ED005A71EEA23A71EEE21A94
:1018E0008AED006A89ED018A71EE032A8AED017A98
:1018F00031EE431AC8ED003A34EE663ACBED001AE9
:1019000034EE264AC5ED002A70EEC24A84ED001A74
:1019100070EE820A88ED013A8BED014AC5ED014A6D
:10192000C4ED010AFFF430AF082B3FBF02B0BDEC9D
:10193000108B04B0BDE8F08F4FF0000CCDF804C060
:101940004FF0010CCDF800C0DDF804C0159C6444D4
:101950000194DDF800C065002E1902EBC40702EB0C
:10196000C508351997ED00FA97ED019A98ED00CA70
:10197000D8ED018A02EBC60702EBC5082E1935190E
:101980002C4402EBC60602EBC50502EBC404D7EDFE
:1019900000BA97ED018A98ED00BAD8ED017AD6ED3C
:1019A00000AA96ED017A95ED00AAD5ED016AD4ED75
:1019B000009A94ED016A00BF0CEB0304E51800EBFC
:1019C000C409EC1804EB030808EB030700EBCC0A8E
:1019D00000EBC50600EBC80807EB030598ED001AFD
:1019E000DAED000A00EBC70705EB030B30EE814A86
:1019F00030EEC11AD7ED002AD9ED000A00EBCB0B6F
:101A000000EBC50530EEA23A00EBC40470EEE20A2A
:101A10009BED002AD5ED001AD6ED002A94ED005A70
:101A2000F44472EEA14A75EE023A35EE422A72EEA5
:101A3000E11A74EE642A33EE635A34EE244A33EE2C
:101A4000233A70EE823A70EEC2EA8C4534EE032AF5
:101A500074EE430A23EE804A8AED002A9AED013A99
:101A600098ED012A6BEE20FA27EEA0DA73EE020A57
:101A700033EE423A31EEC42A71EE841AD9ED013ABE
:101A800097ED014AD6ED015AD4ED01DA73EE84CA1E
:101A900073EEC43A95ED014A75EE844A35EEC44AB8
:101AA00030EEE4EA70EEA45ADBED014A7DEEA40AC2
:101AB0007DEEE44A7CEEE0DA7CEEA0CA72EEAD0A7E
:101AC00072EEED2A75EEACDA75EEEC5ACAED01DA7B
:101AD00067EEA5DA6BEE25CA7EEE455A3EEE055A54
:101AE0007FEEADDA7CEECDCA28EEA5EAC8ED00DACD
:101AF0006CEE20DAC8ED01CA6CEE255A68EEA00A39
:101B000073EEE4CA73EEA43A7DEE8EDA75EEE04A27
:101B10006CEE80CA2AEE22EA66EEA25A63EE803AA2
:101B2000C6ED00DA73EE6C2A2EEE80DA33EE2C3A34
:101B3000C6ED014A66EE85FA74EE634A74EE233A06
:101B40002AEE055A71EE4D0A33EE614A31EE0D1A56
:101B50003EEE2FEA73EE211A32EEC23A75EE655A66
:101B600072EE822A85ED00EA31EE232A29EE045A2C
:101B700002E00000F304353F31EE631A70EEA43A40
:101B800070EEE40A6FEE024AC5ED015A66EE215A84
:101B90002FEE044A34EE855A69EE814A29EE022A74
:101BA00069EEA11A26EE011A74EEA55A34EE422A05
:101BB00067EE034A71EEC11A2AEE831A27EE233A22
:101BC0002AEEA34A89ED005A89ED012A6BEEA03A6C
:101BD00028EE222A31EE433A2BEEA21A68EE200AB2
:101BE00034EE244ACBED005ACBED011A73EE821A83
:101BF00071EE600A87ED004A87ED013AC4ED001AE4
:101C0000C4ED010AFFF4D8AEDDF800C00CF1010C00
:101C1000CDF800C063453FF697AE159C4FF6FF7CAC
:101C2000072B0CEAC40CCDF854C03FF6A9AD02B0A6
:101C3000BDEC108B04B0BDE8F08F2DE9F05F0546D8
:101C4000002092469B4688460646814640241BE07B
:101C5000284641464746224600F09FF853465A46DA
:101C6000C01A914110D311461846224600F086F85A
:101C70002D1A67EB01084F4622460120002100F093
:101C80007DF817EB00094E41201EA4F10104DFDCB2
:101C9000484631462A464346BDE8F09F2DE9F041CB
:101CA0000024061B254671F1000605DA01240027F1
:101CB000D0EB070067EB0101161E73F1000605DA91
:101CC0000027D2EB0702012567EB0303FFF7B5FFFF
:101CD00086460E4617469C46AC4204D00025D0EB03
:101CE000050E65EB010624B10020D2EB000760EB86
:101CF000030C704631463A466346BDE8F08110B5A4
:101D0000431A934209D28318881803E010F8011D82
:101D100003F8011D521EF9D210BD40EA01039B07D2
:101D200003D009E008C9121F08C0042AFAD203E050
:101D300011F8013B00F8013B521EF9D210BDD2B29E
:101D400001E000F8012B491EFBD270470022F6E7A4
:101D500010B513460A4604461946FFF7F0FF204621
:101D600010BD30B504460020034600E05B1C9342E2
:101D700003D2E05CCD5C401BF8D030BD202A04DBF0
:101D8000203A00FA02F1002070479140C2F120038E
:101D900020FA03F3194390407047202A04DB203ACD
:101DA00021FA02F00021704721FA02F3D040C2F17B
:101DB0002002914008431946704770B521F0004356
:101DC00003430CD0C1F30A550024D5EB040564EBA2
:101DD0000403D617AD1AB34102DB0020014670BDE3
:101DE000201841EB025170BD2DE9F041054621F06C
:101DF00000400C46284309D0C4F30A5040F2334156
:101E0000884205DD28462146BDE8F0812846FBE7EB
:101E100040F2FE31884210DC0CDB4FEA043040EA2D
:101E2000155050EA053105D0104804F00041014337
:101E30000020E9E700200146E6E7A0F233404642F1
:101E4000C6F1400228462146FFF798FF074688461C
:101E5000284621463246FFF7A0FF43463A4600F0A7
:101E600019F83246BDE8F041FFF788BF0000F03FA7
:101E7000064C074D06E0E06840F0010394E80700D7
:101E800098471034AC42F6D3FEF76AFA58B9050801
:101E900078B9050810B5141E73F1000408DA401C67
:101EA00041F1000192185B411A4301D120F0010079
:101EB00010BD2DE9F04D92469B4611B1B1FA81F269
:101EC00002E0B0FA80F220329046FFF757FF044656
:101ED0000F4640EA0A0041EA0B0153465A460843BE
:101EE00013D0114653EA010019D0C8F14002504600
:101EF000FFF753FF05460E46504659464246FFF748
:101F00003DFF084305D0012004E020463946BDE8E6
:101F1000F08D0020054346EAE0762C4337430A98CB
:101F20006305E40AA0EB08000022FD0A44EA4754D6
:101F30000A3002D500200146E9E701051019694180
:101F4000DDE9084500196941BDE8F04DA2E770B52B
:101F50008D1810F8014B14F0030201D110F8012B79
:101F6000231106D110F8013B03E010F8016B01F8D2
:101F7000016B521EF9D1ABB110F8012B04F00C0427
:101F80008A1A0C2C03D0A2EB84129B1C08E010F8D8
:101F9000014BA2EB0422F8E712F8014B01F8014BC8
:101FA0005B1EF9D5A942D4D3002070BD00BFFEE767
:101FB00010B509F033FC09F0E3FB0348006840F07A
:101FC00004000149086010BD9CEF00E02DE9F043DA
:101FD00004460D461646002116E0605C002210E023
:101FE000804600EBD8794FEA6909A0EB490C00EB79
:101FF000D8794FEA6907384603FB012905F809C07B
:10200000521C9A42ECD3491CB142E6D3BDE8F0839E
:1020100000224FF4803105E00948406B00F0800059
:1020200000B103E0081EA1F10101F5D100BF09B91B
:10203000032070470348024B98631046F9E70000FD
:1020400000700052FF0FE01F024605E01348416B8D
:1020500001F0450000B100E0F8E700BF01F0040026
:1020600030B104200D4B98630D48986303207047EE
:1020700001F0010018B10120084B9863F7E7074809
:102080000069904201D01020F1E70548034B9863A6
:102090001846406908231840C0B2E8E700700052B3
:1020A000FF0FE01F10B500204FF4803205E0134B06
:1020B000596B01F0450303B103E0131EA2F10102C5
:1020C000F5D100BF12B101F004033BB103200B4B6B
:1020D0009B6B43F00403094CA36310BD01F00103A3
:1020E00033B10120054B9B6B43F00103034CA36309
:1020F000034B024CA36300BFEFE7000000700052E7
:10210000FF0FE01F05E00C48416B01F0450000B1F6
:1021100000E0F8E700BF01F0040038B10648806B2A
:1021200040F00400044A9063032070470348024AC9
:1021300090630020F9E7000000700052FF0FE01FDD
:1021400070B503460C46002505E02048426B02F0BE
:10215000450000B100E0F8E700BF02F0040038B12C
:102160001A48806B40F00400184EB063032070BD25
:1021700002F0010038B11548806B40F00100134EA9
:10218000B0630120F3E711480069984201D01020A4
:10219000EDE70F480D4EB0633046416901F46040F1
:1021A00018B9080C20802846E1E701F4005008B176
:1021B0001320DCE701F4804008B11020D7E701F4D8
:1021C000004008B10F20D2E72846D0E70070005247
:1021D000FF0FE01F10B500204FF4803205E0114BD7
:1021E000596B01F0450303B103E0131EA2F1010294
:1021F000F5D100BF12B101F004033BB10320094B3C
:102200009B6B43F00403074CA36310BD01F0400334
:1022100033B10020034B9B6B43F04003014CA3639D
:1022200000BFF2E7007000522DE9FF4F85B007466E
:1022300088461E46DDE912A4B8FBF4F0049030197C
:10224000A0F1010B4FEA8B0010F0E8FC8146B1B21F
:102250004B46009401A8079AFEF70EFD00250CE0FE
:1022600005FB04F00AEB800205FB04F007EB80019C
:10227000234601A8FEF7DEFA6D1C04988542EFD3D1
:10228000484610F063F809B0BDE8F08F2DE9F04F33
:102290002DED028B85B005468846A3480078C10025
:1022A000002010F005FE04909F480078C1000498BB
:1022B000FFF74CFD9D48006820308100012010F0A0
:1022C000F7FD814699480068203081004846FFF7B5
:1022D0003DFD9648006820308100012010F0E8FDA7
:1022E000824692480068203081005046FFF72EFD5C
:1022F0008E48006820308100012010F0D9FD06468C
:102300008A480068203081003046FFF71FFD87486B
:10231000006820308100012010F0CAFD0746834884
:102320000068203081003846FFF710FD7E480178B4
:10233000012010F0BDFD83467B4801785846FFF729
:1023400005FD002443E07A48008800EE100AB8EE4C
:10235000400ADFED780A60EE200A00EE104AB8EE7F
:10236000400A60EE800A744890ED000AB8EE400A18
:1023700080EE801AB7EEC10AB0EE408BB0EE480B8B
:102380000BF01EFD08EB040005EB800090ED001A39
:10239000B7EEC11A20EE010BB7EEC00B09EB8400BB
:1023A00080ED000AB0EE480B0CF0C6FB08EB040011
:1023B00005EB800090ED001AB7EEC11A20EE010B7C
:1023C000B7EEC00B0AEB840080ED000A641C57488E
:1023D00000688442B7D320204123584ACDE90060E9
:1023E0005248016820314846FFF71EFF2020412354
:1023F000524ACDE900704D48016820315046FFF740
:1024000013FF4946012010F041FD5146012010F014
:102410003DFD46480068C100012010F049FD0390D1
:1024200042480068C1000398FFF790FC3F48039BB7
:1024300007F18001026806F1800001F05BFC314683
:10244000012010F023FD3946012010F01FFD374810
:10245000049A0168039800F0CDFC33480078C2006C
:102460000823594604980AF09EF99BF80000029050
:102470001E21584600F0C6FB1E2158460BF01AFCE0
:102480002F48007801283CD12E4800882E4A126837
:10249000921C50438100012010F00AFD0446294897
:1024A0000088294A1268921C504381002046FFF799
:1024B0004DFC00200EE005EB800191ED000ADFED00
:1024C000230A20EE200ABDEEC00A10EE101A44F8CE
:1024D0002010401C1B4909881B4A1268921C51435A
:1024E0008142E8D817480088174A1268921C00FBFE
:1024F00002F1204600F028FA2146012010F0C6FC27
:1025000000BF0299491C58460BF0EAFB00200499D1
:1025100010F0BCFC0120039910F0B8FC05B0BDEC34
:10252000028BBDE8F08F000099000024B400002465
:102530009E000024DB0FC940900000241C010024F1
:10254000BC000024A4000024AC0000240060A646C7
:1025500030B50346002007E01C5C155C14FB05F455
:1025600065B2441C1555A0B28842F5D330BDF0B514
:1025700004460D46059E00200FE000210AE0275C7E
:1025800012F801C017FB0CF77FB200FB031C06F822
:102590000C70491C9942F2D3401CA842EDD3F0BD07
:1025A0002DE9F74F2DED028B84B00D4617468C4870
:1025B0000178012010F07CFC039089480178039891
:1025C000FFF7C4FBEC00E900012010F071FC82462B
:1025D000E9005046FFF7BAFBE900012010F068FC63
:1025E0008346E9005846FFF7B1FB611C012010F05B
:1025F0005FFC8046611C4046FFF7A8FB78480278E4
:10260000012000FA02F110F053FC029074480278A5
:10261000012000FA02F10298FFF798FB7048027857
:1026200001209040621C00FB02F1012010F040FCF0
:1026300001906B48027801209040621C00FB02F17F
:102640000198FFF783FB6648027801209040621CE6
:102650005043644A127800FB02F1012010F028FC7C
:1026600081465F48027801209040621C50435D4AD9
:10267000127800FB02F14846FFF768FB08232A4660
:1026800051460698FFF7A2FC002007E01AF8001058
:102690004900491E49B20BF80010401CA042F5D376
:1026A000012088F80000424621465846FFF750FFB7
:1026B0004B4802784C490398FFF721FBDDE90210F3
:1026C00006F0D4FE0198009045480178012000FAF8
:1026D00001F3611C4046029AFFF749FF4048027827
:1026E00001209040621C00FB02F14B463D480278FD
:1026F000019808F0E9FE002633E000EE106AB8EE1B
:10270000400ADFED3A0A60EE200A3948008800EE00
:10271000100AB8EE400A60EE800A364890ED000AD2
:10272000B8EE400A80EE801AB7EEC10AB0EE408BD8
:10273000B0EE480B0BF044FBB0EE401B19F906005D
:1027400000EE100AB8EEC00B21EE000BB7EEC00B86
:102750002948008806EB800007EB800080ED000A26
:10276000761C1F48017801208840611C48431D49A0
:1027700009784843B042C0D81F48008882001F48EB
:1027800001683846FFF7BBFA1B4909888A001A49D5
:10279000098807EBC10019490968FFF7B0FA012061
:1027A000039910F073FB5946012010F06FFB51465E
:1027B000012010F06BFB4146012010F067FB012067
:1027C000029910F063FB0120019910F05FFB49466C
:1027D000012010F05BFB04B0BDEC028BBDE8FE8F66
:1027E0009A000024A2000024B0850724DB0FC94012
:1027F0009E00002490000024A4000024EC0000248B
:102800002DE9F04397B000260027B1460020019043
:1028100000241E2110F04CFB07464FF416710020D7
:1028200010F046FB064603E03AA00EF0C3F905E0BF
:1028300038A102A80EF03CFC0028F5D100BF63E0EF
:1028400026E0224636A138460BF066FA01223946C8
:10285000384800680EF0AAFA0546042D16D14FF04C
:1028600001082046E11704EB1161090A8DF80410F4
:10287000E11704EB11610912A4EB0121C9B28DF833
:102880000510022101A80BF015FA05E0601C84B2C6
:102890004FF6FE708442D4DB00BF32E0B8F1000F87
:1028A0002ED00A22394630460EF080FA05463DBB4E
:1028B00015E000BF204800780028FBD000201E490A
:1028C000087009F101091D480088C0EB0010820062
:1028D0001B4B1C48016830460EF0E1FF0546B9F17C
:1028E0001F0FE6D330460DF01DFF4FF00008C14624
:1028F0003946002010F0CAFA3146002010F0C6FA1E
:1029000000E0CBE700BF00E09AE700BF17B0BDE8EA
:10291000F0830000303A2F5245434F524445520055
:10292000303A5245434F524445522F25642E747815
:102930007400000010000024D8000024A40000242B
:1029400018000024180100242DE9F04796B006462F
:102950000F464FF00008C1460020019000241E21C0
:1029600010F0A6FA81464FF41671002010F0A0FA7C
:10297000804603E030A00EF01DF905E02EA102A86C
:102980000EF096FB0028F5D100BF4FE012E0224682
:102990002CA148460BF0C0F9012249462E48006898
:1029A0000EF004FA0546042D02D14FF0010A05E0AD
:1029B000601C84B24FF6FE708442E8DB00BF32E058
:1029C000BAF1000F2ED00A22494640460EF0EEF929
:1029D00005463DBBBA00214B314640460EF05FFF35
:1029E000054640460DF09EFE4FF0000A2046E117D6
:1029F00004EB1161090A8DF80410E11704EB116171
:102A00000912A4EB0121C9B28DF80510022101A819
:102A10000BF050F94946002010F038FA41460020EA
:102A200010F034FA00E0CBE700BF00E0AEE700BFF3
:102A300016B0BDE8F0870000303A2F5245434F52A0
:102A400044455200303A5245434F524445522F2597
:102A5000642E747874000000100000241800002414
:102A600070B500251E21002010F022FA0546002630
:102A700013E032460CA128460BF04EF901222946FC
:102A80000E4800680EF092F90446042C00D105E0CF
:102A900028460EF086FE701CC6B2EAE700BF294643
:102AA000002010F0F3F970BD303A5245434F5244C4
:102AB00045522F25642E7478740000001000002405
:102AC0007047000010B500241E21002010F0F0F91E
:102AD000044606A120460BF01FF920460EF061FEC9
:102AE0002146002010F0D2F910BD0000303A4465B4
:102AF000636F646546696C652F4465636F64652E1A
:102B0000747874002DE9FE4F0024A14600261E2192
:102B1000002010F0CDF981464FF41671002010F01E
:102B2000C7F904462CA148460BF0F6F801224946A5
:102B300020460EF03BF98246BAF1040F0FD12CA2C9
:102B400007CA8DE80700002706E01DF807102BA034
:102B50000BF0D2F8781CC7B20A2FF6DB00BFD4E91D
:102B600004733A4620460DF0EEFDA66B20460DF0AC
:102B7000D9FD19A148460BF0CFF80122494620465D
:102B80000EF014F982463146002010F091F9054606
:102B9000BAF1000F0FD11A4B3246294620460EF0EB
:102BA00018FC8246002704E0E95D14A00BF0A4F8AD
:102BB0007F1CB742F8D320460DF0B4FD214600201B
:102BC00010F064F94946002010F060F92946002011
:102BD00010F05CF9BDE8FE8F303A4465636F6465C0
:102BE00046696C652F4465636F64652E7478740064
:102BF0004E6F2054787420212121000025630000AD
:102C0000180000242DE9F04F99B08046894600262F
:102C1000B2461E21002010F04BF982464FF4167187
:102C2000002010F045F9064603E053A00DF0C2FF66
:102C300005E051A104A80EF03BFA0028F5D100BF31
:102C400011E051A150460BF067F80122514654485B
:102C500000680EF0ABF805460DB9012704E0042D1D
:102C600001D1022700E0ECE700BF012F3AD1022298
:102C7000514630460EF09AF80546002D6ED10022DE
:102C80004849494805F022F900224849464805F0DC
:102C9000F7F8D6E904B35A4630460DF054FD4148E2
:102CA0008078404949783F4A1278404B9B78CDE97B
:102CB0000032CDE902103D484378C2783CA130464D
:102CC0000EF052FA002406E018F8042041A1304624
:102CD0000EF04AFA641C4C45F6D340A130460EF083
:102CE00043FA3BE0022F39D10A22514630460EF01A
:102CF0005DF80546002D31D100222A492A4805F009
:102D0000E5F800222949284805F0BAF8D6E904B3C5
:102D10005A4630460DF017FD2248807821494978FF
:102D2000204A1278214B9B78CDE90032CDE9021080
:102D30001E484378C2781EA130460EF015FA0024D2
:102D400006E018F8042023A130460EF00DFA641CAA
:102D50004C45F6D321A130460EF006FA30460DF070
:102D6000E1FC5146002010F091F83146002010F0AF
:102D70008DF819B0BDE8F08F303A2F4465636F6469
:102D80006546696C65000000303A4465636F6465B0
:102D900046696C652F4465636F64652E74787400B2
:102DA00010000024C88507245C070024B705002410
:102DB0003230253032642D253032642D2530326496
:102DC0002D253032642E253032642E253032643A7F
:102DD0002000000025303258200000000D0A0000BD
:102DE00010B50446042005F07EFB0148046010BDC8
:102DF0002400002407B5AEB0FE48017801208840C9
:102E000040002A90FB480178012088404000FA49A0
:102E1000097848432990F748017801208840C11774
:102E2000029000EB917080102890F2480178002009
:102E300010F03EF82590EF4801782598FEF786FFC0
:102E4000EC4801780120884001460290002010F0F3
:102E50002FF82490E748017801208840014602902D
:102E60002498FEF773FFE3480278E4492598FEF7BB
:102E700046FFDDE9241006F0F9FA0020259910F04C
:102E800005F800202A9910F013F823902A99239826
:102E9000FEF75CFF00202A9910F00AF822902A9988
:102EA0002298FEF753FFD34801780120884002465C
:102EB0000290DDE92301FEF722FFCE4801780120D0
:102EC00088400246029024992298FEF718FF0020BD
:102ED00002901AE002992498425CC64801780120C9
:102EE0008840029901442398425402992498405CF6
:102EF000404242B2BF480178012088400299014413
:102F0000229842540298401C0290BA48017801204D
:102F1000884002998842DDD8002024990FF0B6FF3E
:102F20002A9880000146029000200FF0C1FF2190F6
:102F30002A988000014602902198FEF707FF2A9800
:102F400080000146029000200FF0B2FF20902A98E6
:102F50008000014602902098FEF7F8FE00200290C3
:102F600022E02A98401E0299411A2398405600EE0A
:102F7000100AB8EEC00A0299219800EB810080ED9A
:102F8000000A2A98401E0299411A2298405600EEE3
:102F9000100AB8EEC00A0299209800EB810080ED7B
:102FA000000A0298401C02902A9902988842D8D3BD
:102FB000002023990FF06AFF002022990FF066FF8E
:102FC0002A98C0000146029000200FF071FF1F9068
:102FD0002A98C000014602901F98FEF7B7FE2A9873
:102FE000C0000146029000200FF062FF1E902A9858
:102FF000C000014602901E98FEF7A8FE2A9880B2F3
:103000000146029018A8FEF7B7FA002318A81F9AE5
:103010002199FEF790FA002318A81E9A2099FEF72E
:103020008AFA0020029072E07248017801208840FC
:10303000401E0299401A41001F9800EB810090ED5C
:10304000000A6C4801780120884002990844401C1D
:1030500041001F9800EB810080ED000A654801786F
:1030600001208840401E0299401A4000401C1F99D0
:1030700001EB800090ED000AB1EE400A5D48017856
:103080000120884002990844401C4000401C1F99C0
:1030900001EB800080ED000A56480178012088404D
:1030A000401E0299401A41001E9800EB810090EDED
:1030B000000A504801780120884002990844401CC9
:1030C00041001E9800EB810080ED000A494801781C
:1030D00001208840401E0299401A4000401C1E9961
:1030E00001EB800090ED000AB1EE400A4148017802
:1030F0000120884002990844401C4000401C1E9951
:1031000001EB800080ED000A0298401C02903948D3
:10311000017801208840401E0299884284D800200E
:1031200021990FF0B3FE002020990FF0AFFE344834
:103130000068C0000146029001200FF0B9FE179010
:103140002F480068C000014602901798FEF7FEFD68
:103150002998C0000146029000200FF0A9FE1690A9
:103160002998C000014602901698FEF7EFFD2A98B4
:10317000C0000146029000200FF09AFE15902A9898
:10318000C000014602901598FEF7E0FD2A98C000A5
:103190000146029000200FF08BFE14902A98C00088
:1031A000014602901498FEF7D1FD2A98C00001460E
:1031B000029000200FF07CFE13902A98C000014678
:1031C00002901398FEF7C2FD2A98C00001460290B3
:1031D00000200FF06DFE12902A98C0000146029068
:1031E0001298FEF7B3FD2A98C00001460290002015
:1031F00008E000009A000024A2000024B085072403
:10320000B40000240FF054FE11902A98C00001462B
:1032100002901198FEF79AFD2A98C000014602908C
:1032200000200FF045FE10902A98C0000146029041
:103230001098FEF78BFD2A98C000014602900020EE
:103240000FF036FE0F904FF480610F98FEF77EFD71
:103250002A98C0000146029000200FF029FE0E902F
:103260002A98C000014602900E98FEF76FFD2A983A
:10327000C0000146029000200FF01AFE0D902A981F
:10328000C000014602900D98FEF760FD2A98C0002C
:103290000146029000200FF00BFE0C902A98C0000F
:1032A000014602900C98FEF751FD2A98C000014695
:1032B000029000200FF0FCFD0B902A98C000014600
:1032C00002900B98FEF742FD2A98C000014602903A
:1032D00000200FF0EDFD0A902A98C00001460290F0
:1032E0000A98FEF733FD2A98C0000146029000209C
:1032F0000FF0DEFD09902A98C0000146029009985F
:10330000FEF724FD2A98C0000146029000200FF02D
:10331000CFFD08902A98C000014602900898FEF759
:1033200015FD2A98C0000146029000200FF0C0FD54
:1033300007902A98C000014602900798FEF706FD04
:103340002A9880000146029000200FF0B1FD0690FF
:103350002A988000014602900698FEF7F7FC2A980A
:1033600080000146029000200FF0A2FD05902A98EF
:103370008000014602900598FEF7E8FCFE480078C0
:1033800040010146029000200FF092FD0490FA489F
:1033900000784001014602900498FEF7D7FCF648F9
:1033A000007840010146029000200FF081FD03905B
:1033B000F14800784001014602900398FEF7C6FCF0
:1033C000EE480068C000024602902E991798FEF75A
:1033D00096FC00202D90B0E12998C0000290299918
:1033E0002D9848434108179800EBC1000190014611
:1033F000029A1698FEF783FC2A98C00001460290B4
:103400001598FEF7A3FC00202C902DE000202B90B7
:1034100022E02C99159800EBC100D0ED000A90ED48
:10342000010AD74A12782B9801FB0201169800EB8B
:10343000C100D0ED001A90ED011A70EEA10A30EE35
:10344000010A2C99159800EBC100C0ED000A80ED2F
:10345000010A2B98401C2B90C94909782B98884267
:10346000D7D32C98401C2C902A992C988842CDD3E5
:103470002A98C00002460290DDE91401FEF73FFCE5
:1034800001230022BF481499FDF704FF2A98C000C9
:10349000024602901F991098FEF731FC2A98C0004E
:1034A000024602901E990F98FEF729FC2A98C00048
:1034B00002460290DDE91301FEF721FC0020029094
:1034C0003CE00299109800EBC1000190139800EBCA
:1034D000C10000900198D0ED011A90ED001A0098FB
:1034E000D0ED010A90ED000A0AF02AFC0299129828
:1034F00000EBC10080ED000AC0ED010A02990F98AF
:1035000000EBC1000190139800EBC10000900198FE
:10351000D0ED011A90ED001A0098D0ED010A90ED5F
:10352000000A0AF00DFC0299119800EBC10080ED31
:10353000000AC0ED010A0298401C02902A990298E4
:103540008842BED32A98C0000246029012990A9877
:10355000FEF7D5FB2A98C0000246029011990998FF
:10356000FEF7CDFB01231A4686480A99FDF792FE25
:1035700001231A4683480999FDF78CFE2A98C0005A
:10358000024602900A990E98FEF7B9FB2A98C000ED
:103590000246029009990D98FEF7B1FB00200290B7
:1035A0005EE079480178012088402899401A401E41
:1035B000029901440E9800EBC10001907248017815
:1035C000012088402899401A401E029901440E9813
:1035D00000EBC10000900198D0ED011A90ED001AA7
:1035E0000098D0ED010A90ED000A0AF0A9FB0299BB
:1035F0000C9800EBC10080ED000AC0ED010A6248A2
:103600000178012088402899401A401E02990144FF
:103610000D9800EBC10001905B48017801208840C3
:103620002899401A401E029901440D9800EBC100F0
:1036300000900198D0ED011A90ED001A0098D0ED9D
:10364000010A90ED000A0AF07BFB02990B9800EB4F
:10365000C10080ED000AC0ED010A0298401C0290F2
:103660000121289801EB40010298814299D801215B
:10367000289801EB4000C000024602900C9908987F
:10368000FEF73DFB0121289801EB4000C0000246F7
:1036900002900B990798FEF732FB0121289801EB65
:1036A00040000246029006990898FCF7C5FF0121E8
:1036B000289801EB40000246029005990798FCF714
:1036C000BBFF2D99049800EB8100029001212898FE
:1036D00001EB400027AB01900146029A0698FDF7E6
:1036E000DFFF2D99039800EB8100029001212898BB
:1036F00001EB400026AB01900146029A0598FDF7C8
:10370000CFFF2D99049800EB810090ED000A0398FB
:1037100000EB8100D0ED000AB4EEE00AF1EE10FA01
:1037200004DD01222D993098425403E000222D99A6
:10373000309842542D98401C2D900F4800782D99B8
:10374000B1EBC00FFFF448AE00201F990FF09EFBB5
:1037500000201E990FF09AFB012017990FF096FB9D
:10376000002016990FF092FB002015990FF08EFBA8
:10377000002014990AE0000099000024B4000024FD
:10378000A200002474E303089A0000240FF07EFBDB
:10379000002013990FF07AFB002012990FF076FBAE
:1037A000002011990FF072FB002010990FF06EFBB2
:1037B00000200F990FF06AFB00200A990FF066FBBA
:1037C000002009990FF062FB00200E990FF05EFBBC
:1037D00000200D990FF05AFB002008990FF056FBBE
:1037E000002007990FF052FB00200C990FF04EFBC0
:1037F00000200B990FF04AFB002006990FF046FBC2
:10380000002005990FF042FB002004990FF03EFBC9
:10381000002003990FF03AFB31B000BD2DE9FC5FA9
:103820000746002001907C4800884FEA40087A480B
:103830000088810001200FF03BFB8346764800881A
:1038400081005846FEF782FA73480088C030810034
:1038500001200FF02DFB04466F480088C030810026
:103860002046FEF773FA6C4800886030C1000120E2
:103870000FF01EFB8146684800886030C100484652
:10388000FEF764FA64480088010101200FF010FB84
:1038900005466148008801012846FEF757FA5F484F
:1038A0000088C10001200FF003FB82465B480088BE
:1038B000C1005046FEF74AFA4FF4407101200FF064
:1038C000F7FA00904FF440710098FEF73FFA002697
:1038D00082E0534800686038524B1B680344B01CB8
:1038E000DFF834C1BCF800C00CFB003007EB8001EE
:1038F0004948008882005846FEF701FA4648008889
:103900008200594604F54070FEF7F9F94FF4407211
:1039100020460099FEF7F3F94A463F480188C03136
:10392000204600F095F83C490988CA003A490988C0
:1039300005EBC1004946FEF7E2F93748008841002F
:10394000534639480278284600F066F901AB3748FB
:10395000026832480188504609F002F8344908707C
:1039600008460078A0B92C480088C03804EB8001D4
:103970004FF440720098FEF7C2F927480088C20051
:103980002548008805EBC0012846FEF7B8F921E07C
:103990002748007801281DD11F480088C0308100C9
:1039A0002046FEF7D3F91C48008801012846FEF79F
:1039B000CDF91A480088C1005046FEF7C7F91649EC
:1039C0000988019801FB0600603841F2707100EB34
:1039D000010804E0701CC6B2042EFFF67AAF00BFE7
:1039E000594601200FF052FA214601200FF04EFAFD
:1039F000494601200FF04AFA294601200FF046FA05
:103A0000514601200FF042FA012000990FF03EFAD2
:103A10004046BDE8FC9F0000A4000024A80000244C
:103A2000D4000024B40000249C000024F0000024F2
:103A3000BE00002470B503460024002004E01D5C95
:103A40000E5C15FB0644401C9042F8D3204670BD26
:103A50002DE9F74F2DED028B86B081460D4605F11D
:103A600060063046810000200FF022FA824605F100
:103A7000600081005046FEF769F905F160008100A1
:103A800000200FF015FA834605F1600081005846CA
:103A9000FEF75CF906F16000810000200FF008FAE3
:103AA000074606F1600081003846FEF74FF906F13F
:103AB0006000810000200FF0FBF9804606F16000F5
:103AC00081004046FEF742F906F1600081000020C7
:103AD0000FF0EEF9059006F1600081000598FEF701
:103AE00035F90096484AC12102A8059BFDF7C4F8A4
:103AF00000245AE04548008800EE100AB8EE400A5B
:103B0000DFED430A60EE200A00EE104AB8EE400AEC
:103B100060EE800A3F4890ED000AB8EE400A80EE61
:103B2000801AB7EEC10AB0EE408B0AF049F909EBF2
:103B3000840090ED001AB7EEC11A20EE010BB7EE2B
:103B4000C00B0AEB840080ED000A3048008800EECC
:103B5000100AB8EE400ADFED2E0A60EE200A00EEF1
:103B6000104AB8EE400A60EE800A2A4890ED000A3A
:103B7000B8EE400A80EE801AB7EEC10AB0EE408B74
:103B80000AF0DAFF09EB840090ED001AFFEE001A4C
:103B900021EE211AB7EEC11A20EE010BB7EEC00BD1
:103BA0000BEB840080ED000A641CAC42A2D33346C8
:103BB0003A46514602A8FCF73DFE33464246594676
:103BC00002A8FCF737FE2B4608F5407107F5407058
:103BD0000A9A00F075F8514600200FF057F959463F
:103BE00000200FF053F9394600200FF04FF94146FD
:103BF00000200FF04BF9002005990FF047F906B0AF
:103C0000BDEC028BBDE8FE8F200200249E00002444
:103C1000DB0FC9409000002430B50446002017E0B7
:103C20005500454304EB850595ED000A03EBC005FF
:103C300085ED000A550045436D1C04EB850595EDA7
:103C4000000A45006D1C03EB850585ED000A401C4C
:103C5000B1FBF2F58542E3D830BD10B54FF40070EA
:103C600001F05EF910BD000000B587B000BF11483B
:103C7000006840F480700F4908600846006800F44E
:103C80008070019000BF00BF4FF4007002900A489E
:103C900003900220049002A9084801F04FF9002285
:103CA0000421172001F0BAFD172001F0A7FD07B08D
:103CB00000BD0000E044025800001111002002582D
:103CC00030B50446002012E004EB800595ED000AB3
:103CD00002EBC00585ED000A01EB800595ED000AB9
:103CE00045006D1C02EB850585ED000A401C9842DD
:103CF000EAD330BD30B50446002012E004EB800565
:103D000095ED000A03EBC00585ED000A01EB800587
:103D100095ED000A45006D1C03EB850585ED000A55
:103D2000401C9042EAD330BD30B503461446002211
:103D3000DA680022D1E9000540EA05200D8940EA51
:103D400005400D7B40EA05600243DA60002030BD8B
:103D500030B50346144600229A680022D1E90005D6
:103D600040EA05200D8940EA05400D7B40EA0560E8
:103D700002439A60002030BD10B50246002313684C
:103D800009480340D1E901042043CC6820430C6971
:103D900020434C6940EA44208C6940EA44300343A4
:103DA0001360002010BD00008901F0FF30B502460D
:103DB000002300240868012816D013686FF30E034F
:103DC000D1E901052843CD6828430D6928434D6991
:103DD00028438D692843CD6928430D6A28434D6ADD
:103DE00028430343136019E0136823F4F843D1E92F
:103DF000070528434D6A2843034354686FF30E04B4
:103E0000D1E901052843CD6828430D6928434D6950
:103E100028438D692843044313605460002030BD5B
:103E20000246506940EA410050610020704718B5D1
:103E3000034600200090D1E9000420438C68641EF2
:103E400040EA4410CC6840EA442000900098186191
:103E5000002018BD70B50346154600220024012D30
:103E60001FD09A6802F070420868401E4E68761EA5
:103E700040EA06168868401E46EA0026C868401ECA
:103E800046EA0036088A401E46EA0046888A401EF6
:103E900046EA0056087E401E46EA006002439A60E9
:103EA00022E09A6811480240C868401E0603888ACA
:103EB000401E46EA00500243DC6804F07044086883
:103EC000401E4E68761E40EA06168868401E46EA86
:103ED0000026088A401E46EA0046087E401E46EA42
:103EE000006004439A60DC60002070BDFF0F0FFF8C
:103EF00038B504464FF0AA3000900949897901FB92
:103F000004F004236A46002106F0DAF904498979AD
:103F10006143481C04236A46002106F0D1F938BDEC
:103F2000D40800242DE9FC4704460D4600275DE037
:103F30004FF0000820E001A830490090B1F802904D
:103F40004FEAE97109EB91718B102C49897901FBDA
:103F500004F02A46002105F0E7FF28494888C117E8
:103F600000EB9171BDF80420B2EBA10F00D007E087
:103F700008F101001FFA80F8204880794045DADC1A
:103F800000BF1E488079404502D10020BDE8FC8773
:103F9000204605F071FD064626B1394618A009F005
:103FA000ABFE21E0681CF8B10020019016E0134937
:103FB000B1F802904FEAE97109EB91718B100F494A
:103FC0008979BDF8042004FB01200022114606F087
:103FD00045F9BDF80400401C80B201900748807983
:103FE000BDF804108842E2DC781C87B2032F9FDB07
:103FF000214609A009F080FE0120C7E7D40800246B
:104000006572726F7220657261736520626C6F6396
:104010006B3A25640D0A000062616420626C6F6374
:104020006B20636865636B65643A25640D0A000064
:1040300038B50446002000900F49897901FB04F04F
:1040400001236A46002105F0B7FF9DF80000FF2814
:1040500010D1094989796143481C01236A4600212E
:1040600005F0AAFF9DF80000FF2801D1002038BD0F
:104070000120FCE70220FAE7D40800242DE9FE4FD6
:1040800081460F4692461D4600240020029080463D
:10409000019000263B488079B9FBF0F839488079D7
:1040A000B9FBF0F100FB1190019000BF404600F019
:1040B000E1F8064633484089B04202D20120BDE80B
:1040C000FE8F00243AE00198844221D305B32D48A5
:1040D0004088C01BA84205D22A484088C01B1FFA4E
:1040E00080FB01E01FFA85FB264ACDF800B09279EB
:1040F00006FB0241234A927908FB024053463A46A6
:1041000005F0CCFA02900027DA44A5EB0B050AE093
:104110001C4A927906FB02411A4A927908FB024036
:1041200005F0C0FB0290029830B13046FFF7E0FE88
:10413000012000F029F8B9E7601C84B211488079A9
:10414000A042C0DC0F488079A04219D1304600F06F
:104150004BFA404605F090FC00240CE00948406909
:1041600030F81400404504D10649496921F814602B
:1041700005E0601C84B203484089A042EEDC00BF29
:1041800000209CE7D4080024F8B50546002600244A
:1041900006E04FF6FF703049496921F81400641CAD
:1041A0002D484089A042F4D800202B498881002462
:1041B00033E02949897901FB04F004236A46002190
:1041C00005F0FAFE9DF80000FF2809D145B122490B
:1041D00089796143481C01236A46002105F0ECFE01
:1041E0009DF80000FF2813D19DF802009DF80310F0
:1041F00000EB012618484089B04203D916494969A5
:1042000021F8164014488089401C1349888103E036
:10421000214612A009F070FD641C0F484089A0429D
:10422000C7D800240BE00C48406930F814000A4954
:104230004989884202DB0849CC8104E0641C0648B5
:104240004089A042EFD800BF0348C089642801DA42
:104250000220F8BD0020FCE7D4080024626164203D
:10426000626C6F636B20696E6465783A25640D0A31
:104270000000000070B50546002418484089401E23
:1042800017490968884204D214484089401E1449DD
:10429000086005F001011248006800F023F80446A8
:1042A000601C90B90D484089401E0D49096888423C
:1042B0000BD90A484089401E0949086005F00101F0
:1042C0000748006800F00EF80446601C10B94FF073
:1042D000FF3070BD024804602046FAE7D40800248D
:1042E00028000024F8B505460E4600200090002462
:1042F0006C1C14E0601E00F00100B0420ED1611E83
:10430000094A927901FB02F004236A46002105F074
:1043100053FE0098401C08B9601EF8BD641E002CB6
:10432000E8D1601EF9E70000D4080024F8B50026A3
:1043300000202D498881002417E02046FFF778FEF1
:1043400005468DB9204605F097FB05463DB121464F
:1043500026A009F0D1FC2046FFF7CAFD04E0224860
:104360008089401C20498881641C1F484089A042E4
:10437000E3D81D48818921A009F0BEFC1A48808934
:10438000642801DA0120F8BD17488089C0EB40108D
:1043900000EB4000642190FBF1F600200090002427
:1043A00015E02046FFF744FE05467DB90E498979A0
:1043B00001FB04F002236A46194605F081FF0098CC
:1043C000401C00900098B04200D104E0641C0648F4
:1043D0004089A042E5D800BF0120FFF7D5FE08B113
:1043E0000220D0E70020CEE7D408002442616420F8
:1043F000626C6F636B3A25640D0A0000676F6F642F
:104400005F626C6F636B6E756D3A25640D0A000018
:1044100010B505F05FFB08B1012010BD14484069DC
:1044200020B11348416900200EF030FD104840894A
:10443000410000200EF03CFD0D4948610A465289BA
:1044400051000B4A5069FDF781FC0948406908B9E1
:104450000120E2E70120FFF797FE04462CB1FFF7A9
:1044600065FF04460CB10220D7E70020D5E7000025
:10447000D4080024014600220648C089884202D29E
:104480004FF6FF7070470348406930F8112010461E
:10449000F8E70000D40800242DE9FF4F83B014464C
:1044A0009A460026002500BF97E04E48408890FBC2
:1044B000F4F04C498979484304992944B1FBF0F060
:1044C00002900298FFF7D6FF834646484189594536
:1044D00003D8012007B0BDE8F08F4248408890FB28
:1044E000F4F040498979484304992944B1FBF0F23A
:1044F00000FB1210604301903A4841880198B0FBDC
:10450000F1F0384989790BFB010836484188019858
:10451000B0FBF1F201FB120932484088A0EB090020
:10452000B0FBF4F087B2AAEB0500B84202D2AAEBC6
:10453000050087B207FB04F083B21FFA89F14046F9
:10454000039A05F0A3FB0646032E39D107FB04F0BE
:1045500083B21FFA89F14046039A05F097FB06469D
:10456000032E2DD107FB04F31FFA89F14046039A6D
:10457000FFF784FD1B488079B8FBF0F0311F0090F5
:10458000FFF7D0FC06467EB916488079B8FBF0F0FC
:1045900000210090FFF7C6FC064612488079B8FB60
:1045A000F0F0009005F068FA4EB10E488079B8FB43
:1045B000F0F00090FFF79CFC0120FFF7E5FD0026DE
:1045C000042E00D100260EB1022083E7039804FBDD
:1045D00007000390781E05446D1C5545FFF465AF38
:1045E000002077E7D408002438B50446CC2000909A
:1045F00000250649897901FB04F001236A46194622
:1046000005F05EFE0546284638BD0000D4080024AB
:104610002DE9FF4F87B014469A464FF0000B002556
:10462000681E029000BFA7E05648408890FBF4F057
:1046300054498979484308992944B1FBF0F0059021
:104640000598FFF717FF06464E484189B14203D847
:1046500001200BB0BDE8F08F4A48408890FBF4F091
:1046600048498979484308992944B1FBF0F200FB95
:10467000121060430390434841880398B0FBF1F067
:104680004049897906FB010004903E48418803981F
:10469000B0FBF1F201FB12093A484088A0EB090097
:1046A00080B20690BDF8180090FBF4F080B206903E
:1046B000AAEB050087B2BDF81800874201DBBDF800
:1046C000187007FB04F806A81FFA89F1C8F38F03D6
:1046D0004FF0FF320090049805F026FC8346BBF1B2
:1046E000000F01D00220B4E7BDF81800B0EB980F1E
:1046F00009D11FFA88F31FFA89F1079A049805F087
:10470000EBFC834601E04FF0010BBBF1000F07D13A
:104710000298B04204D03046FFF766FF8346029607
:10472000BBF1000F22D017488079164949884843C9
:104730000399401AB0FBF4F080B20690AAEB050092
:1047400087B2BDF81800874201DBBDF8187007FB7F
:1047500004F81FFA89F14346079A0498FFF78EFC84
:104760008346BBF1000F01D0032072E7781E054499
:104770000798404407906D1C5545FFF455AF002045
:1047800067E70000D40800247CB506460D460024E7
:1047900000200090019008220121102007F0C6F8A7
:1047A0001020FDF751FC04460CB120467CBD3204BC
:1047B0000121372007F0BAF83720FDF745FC044601
:1047C0000CB12046F2E7012303220821101F07F055
:1047D000BFF800220121332007F0A8F83320FDF7AD
:1047E00033FC04460CB12046E0E70DE03048406B56
:1047F00000F4002040B92E488030006800902C481A
:10480000D0F88000019006E02948406B40F22A5120
:1048100008400028EAD000BF2548406B00F008009F
:1048200038B12348806B40F0080021498863042098
:10483000BCE71F48406B00F0020038B11C48806B99
:1048400040F002001A4988630220AFE71848406B25
:1048500000F0200038B11648806B40F02000144969
:1048600088630620A2E71348114988630098000670
:10487000009901F47F4140EA0120009901F47F0191
:1048800040EA1120009940EA116068600198000632
:10489000019901F47F4140EA0120019901F47F016F
:1048A00040EA1120019940EA1160286020467DE726
:1048B00000700052FF0FE01F10B504460CB9012034
:1048C00010BD94F83500022803D0802060650120D7
:1048D000F6E734492068884205D333492068884286
:1048E00001D8012000E00020C0B1042084F8350088
:1048F0002C49206888420AD32B492068884206D870
:104900002068006820F001002168086048E0206805
:10491000006820F001002168086041E0206800681C
:1049200020F00E00216808601E49206888420AD3E2
:104930001D492068884206D82068006820F00100E0
:104940002168086005E02068006820F00100216807
:104950000860206E006820F48070216E086094F872
:104960005C100120884011490860D4E919104860A2
:10497000E06E40B1E06E006820F48070E16E086087
:10498000D4E91C10486000BF002084F8340000BF48
:10499000012084F83500206D10B12046216D884734
:1049A00000208DE710000240B80402400454025871
:1049B0000348006840F001000149086070470000AA
:1049C00020040058F0B50C460025002200230021E9
:1049D0009DE0012606FA01F504EA0502AA427DD10E
:1049E00006684FEA410C032707FA0CF73E430660BE
:1049F000CF0800F1200656F827604F074FEAD76C22
:104A00000F2707FA0CF7BE434FEAD10C00F120073D
:104A100047F82C6086684FEA410C032707FA0CF729
:104A2000BE438660476801268E40B7434760C6682C
:104A30004FEA410C032707FA0CF7BE43C660364E17
:104A40008F0856F827308E07370F0F26BE403340A9
:104A5000324EB04201D100262DE0314EB04201D19C
:104A6000012628E02F4EB04201D1022623E02E4E2F
:104A7000B04201D103261EE02C4EB04201D10426E3
:104A800019E02B4EB04201D1052614E0294EB04268
:104A900001D106260FE0284EB04201D107260AE0D8
:104AA000264EB04201D1082605E0254EB04201D184
:104AB000092600E00A268F073F0FBE409E4225D1FF
:104AC0008E07370F0F2606FA07F3134E8F0856F896
:104AD00027609E43104F4FEA910C00E016E047F824
:104AE0002C60184E366896434FF0B047C7F8806088
:104AF0003E46D6F884609643C7F884603E463668E2
:104B000096433E603E46766896437E60491C102977
:104B1000FFF45FAFF0BD0000080400580000025829
:104B20000004025800080258000C025800100258F5
:104B30000014025800180258001C025800200258A5
:104B4000002402588000005870B50446D748007809
:104B500002286ED11021D64800F01EFBD5480088EF
:104B600082000021D448006806F022FAD14800886B
:104B70008200D1480168D1480068FDF7C0F8D048EC
:104B80000268CC480188CD48006806F0E1FDCD48B8
:104B9000007801284ED1CC480068401ECB490968F6
:104BA000884219D9C3490988C84B1B685943C14B6E
:104BB0001B8801EB4301C64B1B6803EB8100BD4919
:104BC00009888A00BE490968FDF799F8BF4800685E
:104BD000401CBE49086068E1BB480068401EBB49F4
:104BE00009688842F7D1B3490988B84B1B68594313
:104BF000B04B1B8801EB4301B54B1B6803EB8100F5
:104C0000AC4909888A00AE490968FDF778F8A948D7
:104C10000088C200AF480168AD480068FDF76FF832
:104C2000AA480068401CA94908600120AA490870E8
:104C30003BE195E0A34800780028CCD19D49098844
:104C40008A00A44909689B4B1B8801EB83009C499F
:104C50000968FDF754F89748008882009848016871
:104C60009E48006800F54070FDF749F84FF4407227
:104C70009B48016899480068FDF741F89948026827
:104C80008C480188C03195480068FEF7E1FE8949EB
:104C90000988CA0087490988934B1B6803EBC10048
:104CA00090490968FDF72BF88248008841008F4839
:104CB00003688F4802788C480068FEF7ADFF8D4B83
:104CC0008D4802688D4801888848006807F048FED2
:104CD0007C4908700846007838BB76480088C038A0
:104CE0007E4A126802EB80014FF440727C480068F3
:104CF000FDF705F86F480088C2006E4800887A4BBF
:104D00001B6803EBC00178480068FCF7F8FF6948AE
:104D1000008882006F480068664B1B8800EB8301A7
:104D20006C480068FCF7EBFFBFE06648007801289C
:104D3000FAD160480088C030810068480068FDF7FB
:104D400005F85C480088010167480068FCF7FEFF31
:104D50006A480088C10065480068FCF7F7FFA4E0D6
:104D600052480078012847D11021514800F014FA28
:104D7000634909884FF6FF7303EA410260490988D5
:104D80004B0060490968604D2D6803FB015000210C
:104D900006F074F95D480068801E5A490968884227
:104DA0000BD158480068401C5649086000224FF457
:104DB0000061574800F0F4F977E054480068401E5D
:104DC00050490968884211D10220384908700020F2
:104DD0004C49086000224FF480614D4800F0E0F932
:104DE0000122D1024A4800F0DBF95EE04548006844
:104DF000401C4449086058E02C480078032853D1EF
:104E000010212B4800F0C8F92A48008882000021B0
:104E10002948006806F0CCF8264800888200264819
:104E2000016826480068FCF76AFF3A4800680E28C7
:104E300015D2204909888A00364909681D4B1B880C
:104E40005943354B1B6803EB81001C490968FCF78B
:104E500056FF30480068401C2E49086025E02D4868
:104E600000680E2821D1134909888A002949096858
:104E7000104B1B885943284B1B6803EB81000F49DB
:104E80000968FCF73CFF0B480088C0EB001082006B
:104E9000214801680068FCF732FF01201F490870B3
:104EA00000201C49086000E000BF70BDBD00002468
:104EB000001C0258A4000024E0000024E4000024A8
:104EC000E8000024BE000024AC000024C000002440
:104ED0001001002404010024D1000024F800002463
:104EE0000C010024FC00002400010024080100241F
:104EF0009C000024D4000024F0000024A80000241A
:104F0000A6000024C400002414010024B0000024E2
:104F100000200258DC00002418010024D8000024DE
:104F200010B5044604480068204020B102480460DF
:104F30002046FFF709FE10BD88000058F8B502466C
:104F40000B460021002600240020824D00BFFCE01B
:104F5000012707FA01F61F6807EA0604B4427CD16C
:104F60005F68022F02D05F68122F1AD14FEAD10C6E
:104F700002F1200757F82C004F074FEAD76C0F2794
:104F800007FA0CF7B8434FEA417C4FEADC6C1F6923
:104F900007FA0CF738434FEAD10C02F1200747F823
:104FA0002C0010684FEA410C032707FA0CF7B843AE
:104FB0001F7907F003074FEA410C07FA0CF7384353
:104FC00010605F68012F08D05F68022F05D05F680E
:104FD000112F02D05F68122F17D190684FEA410C51
:104FE000032707FA0CF7B8434FEA410CDF6807FACA
:104FF0000CF738439060506801278F40B8431F7901
:10500000C7F300178F4038435060D0684FEA410C17
:10501000032707FA0CF7B8434FEA410C9F6807FAD9
:105020000CF73843D0605F6807F08057B7F1805FB6
:1050300095D100BF484F3F6847F00207DFF818C11D
:10504000CCF8007067463F6807F00207009700BF82
:1050500000BF424F4FEA910C00E075E057F82C007A
:105060008F074FEA177C0F2707FA0CF7B8433C4F1E
:10507000BA4201D100272DE03A4FBA4201D10127AF
:1050800028E0394FBA4201D1022723E0374FBA4214
:1050900001D103271EE0364FBA4201D1042719E09F
:1050A000344FBA4201D1052714E0334FBA4201D13F
:1050B00006270FE0314FBA4201D107270AE0304FEF
:1050C000BA4201D1082705E02E4FBA4201D1092783
:1050D00000E00A274FEA817C4FEA1C7C07FA0CF7B4
:1050E00038431E4F4FEA910C47F82C002868A04324
:1050F0005F6807F48037B7F5803F00D12043286010
:105100006868A0435F6807F40037B7F5003F00D137
:10511000204368604FF0B0473868A0435F6807F4E9
:105120008017B7F5801F00D120434FF0B04738609B
:105130007868A0435F6807F40017B7F5001F00D137
:1051400020434FF0B0477860491C1029FFF400AFAE
:10515000F8BD000080000058F444025808040058CC
:10516000000002580004025800080258000C0258BF
:10517000001002580014025800180258001C02586F
:105180000020025800240258024613690B400BB15C
:10519000012000E00020704742694A4042617047A8
:1051A0000AB1018300E041837047000001480068B4
:1051B0007047000000000024034800680349097894
:1051C00008440149086070470000002408000024DA
:1051D00010B5032000F060FB0F2000F007F808B1C5
:1051E000012010BD00F066FA0020FAE770B5044611
:1051F0000E4800784FF47A71B1FBF0F00C49096861
:10520000B1FBF0F5284603F082F908B1012070BD2A
:10521000102C07D200222146501E00F0FFFA05484C
:10522000046001E00120F2E70020F0E7080000241C
:10523000BC05002404000024014609B90120704780
:1052400091F83D00022803D0802088660120F6E70F
:10525000042081F83D000868C06820F001000A6859
:10526000D0600020EBE7014609B90120704791F8B2
:105270003D00022803D1C00188660120F6E70868D6
:10528000C06820F001000A68D06000200A68D06081
:105290000A6810610A6850610A6890610A68D06102
:1052A0000A6810620A6850620A6890620A681063AD
:1052B0000A6850631F200A6850600020C8650866AD
:1052C0004866886681F83D0000BF81F83C0000BF59
:1052D00000BFCBE7F8B50446002000907448006892
:1052E0004FF41651B0FBF1F6208800F57F5081098C
:1052F000012000FA01F74FF0A4400068384000B9DF
:10530000F8BD2068006800F00100B8B32068C068EC
:1053100000F0020090B32068C06820F0020021680D
:10532000C8602068856805F0800020B9A06E40F054
:105330000100A06603E0A06E40F00200A06605F444
:10534000007018B1A06E40F00400A06605F48070F3
:1053500018B1A06E40F00800A06605F4806018B196
:10536000A06E40F01000A06605F4006018B1A06EB9
:1053700040F02000A0660120216848602068006895
:1053800000F0100060B12068C06800F0200038B163
:10539000102021684860A06C10B12046A16C88479D
:1053A0002068006800F0080060B12068C06800F064
:1053B000100038B1082021684860E06C10B1204628
:1053C000E16C88472068006800F0040060B1206844
:1053D000C06800F0080038B1042021684860206DE2
:1053E00010B12046216D88472068006800F0020057
:1053F00060B32068C06800F0040038B32068C0685B
:1054000020F03E002168C86094F83D0004280DD1CA
:1054100000BF002084F83C0000BF012084F83D005C
:10542000A06D10B12046A16D884769E70220216870
:10543000486000BF002084F83C0000BF012084F8D1
:105440003D00606C10B12046616C8847A06E60B36F
:10545000042084F83D002068C06820F00100216825
:10546000C86000BF0098401C0090B04200D905E021
:105470002068C06800F001000028F3D100BF00BF21
:10548000002084F83C0000BF2068C06800F00100E4
:1054900018B1032084F83D0002E0012084F83D00AB
:1054A000606D10B12046616D884700BF28E700009D
:1054B000BC05002470B50446FFF778FE05460CB91C
:1054C000012070BD00BF002084F83C0000BF022016
:1054D00084F83D002068C06820F001002168C860A1
:1054E0000BE0FFF763FE401B052806D94020A066AD
:1054F000032084F83D000120E3E72068C06800F045
:1055000001000028EDD1204604F002F80020E065FB
:1055100020666066A066012084F83D000020D0E788
:105520002DE9F84304460D4616461F46DDF8208057
:1055300014B90120BDE8F88300BF94F83C000128AD
:1055400001D10220F6E7012084F83C0000BF94F866
:105550003D00012841D1022084F83D000020A066D2
:105560002068C06820F001002168C8603B463246D0
:1055700029462046CDF8008004F042F82068C06833
:1055800040F006002168C860E06C28B12068C0685F
:1055900040F010002168C860206D28B12068C06804
:1055A00040F008002168C860A06C28B12068C0687D
:1055B00040F020002168C8602068C06840F0010009
:1055C0002168C8606068B0F1804F0DD12068C06864
:1055D00040F480302168C86006E000BF002084F8F5
:1055E0003C0000BF0220A5E70020A3E74178154A50
:1055F00011600178F9B1121D41681160017B090742
:10560000C27A41EA0261827A41EAC241427B41EABE
:105610008241827B41EA4241C27B41EA0241427AB5
:1056200041EA0221027A41EA420102781143054A25
:105630000832116005E00021024A121D1160121D9E
:105640001160704798ED00E000BF00BF00BFBFF3DE
:105650005F8F00BF00BF00BF0548006820F48030A6
:10566000034908600020024970310860704700005B
:1056700024ED00E040F001010D4A11600C49703941
:10568000096841F480310A4A703A116000BF00BFD6
:1056900000BFBFF34F8F00BF00BF00BF00BF00BF00
:1056A00000BFBFF36F8F00BF00BF00BF7047000097
:1056B00094ED00E07047000070B504460E461546B4
:1056C0000CB9012070BD94F8210028B9002084F89D
:1056D0002000204600F022F8211D2068FEF74CFB38
:1056E0003146D4E90002FEF733FB2946D4E9000233
:1056F000FEF71AFB2068006840F00400216808608B
:105700000548006840F0004003490860012084F823
:1057100021000020D6E700000040005210B586B0FE
:10572000044600BF3148006840F480502F490860AB
:105730000846006800F48050009000BF00BF00BF22
:105740002A480C30006840F0080028490C310860F5
:105750000846006800F00800009000BF00BF00BFCE
:105760000846006840F0100008600846006800F035
:105770001000009000BF00BF00BF0846006840F066
:10578000400008600846006800F04000009000BF3C
:1057900000BF4020019000200290012003900320D0
:1057A000049001A91248FFF7C9FB4FF40070019063
:1057B0000220029000200390032004900C2005900A
:1057C00001A90C48FFF7BAFB4DF633000190002009
:1057D000039001A90648FFF7B1FB4FF4F060019078
:1057E00001A90548FFF7AAFB06B010BDD444025832
:1057F000000C0258001802580010025801460846D2
:10580000002809DB00F01F0301229A4043099B0096
:1058100003F1E023C3F8002100BF70472DE9F05FDA
:1058200080460D46164608F0AFFA074639462A4626
:10583000334601F00700C0F1070ABAF1040F02D99C
:105840004FF0040A01E0C0F1070AD14600F1040A52
:10585000BAF1070F02D24FF0000A01E0A0F1030AEB
:10586000D4464FF0010A0AFA09FAAAF1010A0AEA33
:10587000020A0AFA0CFA4FF0010B0BFA0CFBABF11F
:10588000010B0BEA030B4AEA0B042146404608F0E1
:1058900083FABDE8F09F000000BF00F00702064B4E
:1058A00019684FF6FF031940044B0B4343EA0221EA
:1058B000014B196000BF70470CED00E00000FA05D5
:1058C0000348006840F48070014908607047000098
:1058D000004802587047000070B50446002594F84F
:1058E000410000F0020070B300BF002084F84000C7
:1058F00000BF082084F841002068006820F4F810F8
:10590000216808602068006800F0040060B1206829
:10591000006820F00400216808600C48E16B88658D
:10592000E06BFFF789FC0EE002202168C860206868
:10593000006840F40030216808602068006840F08A
:10594000020021680860284670BD0000D3AE000840
:1059500002490978491C014A117070472C00002443
:105960002DE9F84304460D4616460127FFF71EFCB5
:105970008046A86900B100BFE86900B100BF286A8D
:1059800000B100BF00BF94F84000012802D10220FE
:10599000BDE8F883012084F8400000BF94F841007E
:1059A000012828D100206064022084F84100434689
:1059B000002220212046009605F03AFB0746DFB979
:1059C00000222946204605F05FF9686A78B9434607
:1059D000012202212046009605F02AFB07465FB906
:1059E00002202168C860012084F8410004E0012001
:1059F00084F8410000E0022700BF002084F8400046
:105A000000BF3846C4E710B504460CB9012010BDEC
:105A100000BF94F84000012801D10220F7E70120DF
:105A200084F8400000BF2068006820F00100216871
:105A30000860204600F0B6F90020606484F8410058
:105A400000BF84F8400000BF00BFE0E77047704728
:105A50002DE9F0410446206886682068076806F052
:105A60000400002846D007F48020002842D0206897
:105A700000F1200594F84100122819D111E0E06AE4
:105A800040B1616A481C606208782870E06A401E74
:105A9000E06206E02068006820F480202168086049
:105AA00005E020688068C0F380000028E7D11DE091
:105AB00094F84100222819D111E0A06B40B1297857
:105AC000226B501C20631170A06B401EA06306E087
:105AD0002068006820F480202168086005E02068C4
